{
  "contractName": "CoinFlip",
  "abi": [
    {
      "anonymous": false,
      "inputs": [
        {
          "indexed": false,
          "internalType": "uint256",
          "name": "betAmount",
          "type": "uint256"
        },
        {
          "indexed": false,
          "internalType": "uint256",
          "name": "winAmount",
          "type": "uint256"
        },
        {
          "indexed": false,
          "internalType": "uint256",
          "name": "result",
          "type": "uint256"
        }
      ],
      "name": "betFinished",
      "type": "event"
    },
    {
      "anonymous": false,
      "inputs": [
        {
          "indexed": false,
          "internalType": "uint256",
          "name": "betChoice",
          "type": "uint256"
        },
        {
          "indexed": false,
          "internalType": "uint256",
          "name": "betAmount",
          "type": "uint256"
        },
        {
          "indexed": false,
          "internalType": "address",
          "name": "playerAddress",
          "type": "address"
        }
      ],
      "name": "newBetCreated",
      "type": "event"
    },
    {
      "constant": true,
      "inputs": [],
      "name": "_contractBalance_",
      "outputs": [
        {
          "internalType": "uint256",
          "name": "",
          "type": "uint256"
        }
      ],
      "payable": false,
      "stateMutability": "view",
      "type": "function"
    },
    {
      "constant": true,
      "inputs": [],
      "name": "owner",
      "outputs": [
        {
          "internalType": "address",
          "name": "",
          "type": "address"
        }
      ],
      "payable": false,
      "stateMutability": "view",
      "type": "function"
    },
    {
      "constant": true,
      "inputs": [
        {
          "internalType": "address",
          "name": "",
          "type": "address"
        }
      ],
      "name": "playerHistory",
      "outputs": [
        {
          "internalType": "uint256",
          "name": "totalBalance",
          "type": "uint256"
        },
        {
          "internalType": "uint256",
          "name": "totalTopUp",
          "type": "uint256"
        },
        {
          "internalType": "uint256",
          "name": "totalSpentAmount",
          "type": "uint256"
        },
        {
          "internalType": "uint256",
          "name": "totalWinAmount",
          "type": "uint256"
        },
        {
          "internalType": "uint256",
          "name": "totalGames",
          "type": "uint256"
        },
        {
          "internalType": "uint256",
          "name": "totalWins",
          "type": "uint256"
        },
        {
          "internalType": "uint256",
          "name": "lastWinAmount",
          "type": "uint256"
        }
      ],
      "payable": false,
      "stateMutability": "view",
      "type": "function"
    },
    {
      "constant": false,
      "inputs": [],
      "name": "topUp",
      "outputs": [],
      "payable": true,
      "stateMutability": "payable",
      "type": "function"
    },
    {
      "constant": true,
      "inputs": [],
      "name": "balance",
      "outputs": [
        {
          "internalType": "uint256",
          "name": "",
          "type": "uint256"
        }
      ],
      "payable": false,
      "stateMutability": "view",
      "type": "function"
    },
    {
      "constant": true,
      "inputs": [
        {
          "internalType": "address",
          "name": "playerAddress",
          "type": "address"
        }
      ],
      "name": "playerReport",
      "outputs": [
        {
          "internalType": "uint256",
          "name": "",
          "type": "uint256"
        },
        {
          "internalType": "uint256",
          "name": "",
          "type": "uint256"
        },
        {
          "internalType": "uint256",
          "name": "",
          "type": "uint256"
        },
        {
          "internalType": "uint256",
          "name": "",
          "type": "uint256"
        },
        {
          "internalType": "uint256",
          "name": "",
          "type": "uint256"
        },
        {
          "internalType": "uint256",
          "name": "",
          "type": "uint256"
        },
        {
          "internalType": "uint256",
          "name": "",
          "type": "uint256"
        }
      ],
      "payable": false,
      "stateMutability": "view",
      "type": "function"
    },
    {
      "constant": false,
      "inputs": [
        {
          "internalType": "uint256",
          "name": "betChoice",
          "type": "uint256"
        }
      ],
      "name": "createBet",
      "outputs": [],
      "payable": true,
      "stateMutability": "payable",
      "type": "function"
    },
    {
      "constant": false,
      "inputs": [
        {
          "internalType": "uint256",
          "name": "betChoice",
          "type": "uint256"
        },
        {
          "internalType": "address",
          "name": "playerAddress",
          "type": "address"
        }
      ],
      "name": "createBetForPlayer",
      "outputs": [],
      "payable": true,
      "stateMutability": "payable",
      "type": "function"
    },
    {
      "constant": true,
      "inputs": [],
      "name": "getMyBet",
      "outputs": [
        {
          "internalType": "uint256[]",
          "name": "",
          "type": "uint256[]"
        },
        {
          "internalType": "uint256[]",
          "name": "",
          "type": "uint256[]"
        }
      ],
      "payable": false,
      "stateMutability": "view",
      "type": "function"
    },
    {
      "constant": true,
      "inputs": [
        {
          "internalType": "address",
          "name": "playerAddress",
          "type": "address"
        }
      ],
      "name": "getPlayerBet",
      "outputs": [
        {
          "internalType": "uint256[]",
          "name": "",
          "type": "uint256[]"
        },
        {
          "internalType": "uint256[]",
          "name": "",
          "type": "uint256[]"
        }
      ],
      "payable": false,
      "stateMutability": "view",
      "type": "function"
    },
    {
      "constant": true,
      "inputs": [],
      "name": "getMyHistory",
      "outputs": [
        {
          "internalType": "uint256",
          "name": "",
          "type": "uint256"
        },
        {
          "internalType": "uint256",
          "name": "",
          "type": "uint256"
        },
        {
          "internalType": "uint256",
          "name": "",
          "type": "uint256"
        },
        {
          "internalType": "uint256",
          "name": "",
          "type": "uint256"
        },
        {
          "internalType": "uint256",
          "name": "",
          "type": "uint256"
        }
      ],
      "payable": false,
      "stateMutability": "view",
      "type": "function"
    },
    {
      "constant": false,
      "inputs": [],
      "name": "tossCoin",
      "outputs": [],
      "payable": false,
      "stateMutability": "nonpayable",
      "type": "function"
    },
    {
      "constant": false,
      "inputs": [
        {
          "internalType": "address payable",
          "name": "playerAddress",
          "type": "address"
        }
      ],
      "name": "playerTossCoin",
      "outputs": [
        {
          "internalType": "uint256",
          "name": "",
          "type": "uint256"
        },
        {
          "internalType": "uint256",
          "name": "",
          "type": "uint256"
        },
        {
          "internalType": "uint256",
          "name": "",
          "type": "uint256"
        }
      ],
      "payable": false,
      "stateMutability": "nonpayable",
      "type": "function"
    }
  ],
  "bytecode": "0x60806040526103e8600455600080546001600160a01b03191633179055610f3f8061002b6000396000f3fe6080604052600436106100d25760003560e01c8063ac793a601161007f578063b69ef8a811610059578063b69ef8a814610340578063c137d64314610355578063d051c19214610388578063dc29f1de146103b4576100d2565b8063ac793a601461025e578063b24b05f81461027d578063b41e8cad1461032b576100d2565b80634c6a1e15116100b05780634c6a1e15146101ba5780635a148a86146101ed5780638da5cb5b1461022d576100d2565b8063054b58d1146100d75780630a39a58e146101285780630da277901461014f575b600080fd5b3480156100e357600080fd5b5061010a600480360360208110156100fa57600080fd5b50356001600160a01b03166103bc565b60408051938452602084019290925282820152519081900360600190f35b34801561013457600080fd5b5061013d610670565b60408051918252519081900360200190f35b34801561015b57600080fd5b506101826004803603602081101561017257600080fd5b50356001600160a01b0316610676565b604080519788526020880196909652868601949094526060860192909252608085015260a084015260c0830152519081900360e00190f35b3480156101c657600080fd5b50610182600480360360208110156101dd57600080fd5b50356001600160a01b03166106b8565b3480156101f957600080fd5b5061020261077d565b6040805195865260208601949094528484019290925260608401526080830152519081900360a00190f35b34801561023957600080fd5b506102426107b1565b604080516001600160a01b039092168252519081900360200190f35b61027b6004803603602081101561027457600080fd5b50356107c0565b005b34801561028957600080fd5b5061029261081d565b604051808060200180602001838103835285818151815260200191508051906020019060200280838360005b838110156102d65781810151838201526020016102be565b50505050905001838103825284818151815260200191508051906020019060200280838360005b838110156103155781810151838201526020016102fd565b5050505090500194505050505060405180910390f35b34801561033757600080fd5b5061027b610831565b34801561034c57600080fd5b5061013d61083f565b34801561036157600080fd5b506102926004803603602081101561037857600080fd5b50356001600160a01b0316610846565b61027b6004803603604081101561039e57600080fd5b50803590602001356001600160a01b0316610910565b61027b610acf565b6000806000806103ca610afd565b905060008060018314806103dc575082155b6103e557600080fd5b6001600160a01b0387166000908152600260205260409020546104395760405162461bcd60e51b8152600401808060200182810382526023815260200180610eb56023913960400191505060405180910390fd5b6001600160a01b0387166000908152600260205260409020600101546104905760405162461bcd60e51b8152600401808060200182810382526023815260200180610eb56023913960400191505060405180910390fd5b6001600160a01b0387166000908152600260205260409020805460019091015414610502576040805162461bcd60e51b815260206004820152600e60248201527f4572726f72206265742064617461000000000000000000000000000000000000604482015290519081900360640190fd5b60005b6001600160a01b0388166000908152600260205260409020548110156105df576001600160a01b038816600090815260026020526040902060010180548290811061054c57fe5b90600052602060002001548301925083600260008a6001600160a01b03166001600160a01b03168152602001908152602001600020600001828154811061058f57fe5b906000526020600020015414156105d7576001600160a01b03881660009081526002602052604090206001018054829081106105c757fe5b9060005260206000200154820191505b600101610505565b506105ea8282610b04565b6105f2610b69565b8015610623576001600160a01b03871660009081526003602081905260409091200180548201905561062387610bb6565b604080518381526020810183905280820185905290517f0957d90febb3cf2ed06552f937058347e227571bae97c3f6281d23c67e31987f9181900360600190a19096909550909350915050565b60015481565b60036020528060005260406000206000915090508060000154908060010154908060020154908060030154908060040154908060050154908060060154905087565b6001600160a01b0381166000908152600360208190526040822090810154600282015460018301549254849384938493849384938493929003909101146107305760405162461bcd60e51b8152600401808060200182810382526021815260200180610e426021913960400191505060405180910390fd5b505050506001600160a01b03939093166000908152600360208190526040909120805460018201546002830154938301546004840154600585015460069095015493999298509496509450565b3360009081526003602081905260409091206002810154918101546005820154600483015460069093015493949193909291565b6000546001600160a01b031681565b6004543410156107cf57600080fd5b3460015410156108105760405162461bcd60e51b815260040180806020018281038252602b815260200180610e8a602b913960400191505060405180910390fd5b61081a8133610910565b50565b60608061082933610846565b915091509091565b61083a336103bc565b505050565b6001545b90565b6001600160a01b03811660009081526002602090815260409182902080548351818402810184019094528084526060938493600184019284918301828280156108ae57602002820191906000526020600020905b81548152602001906001019080831161089a575b505050505091508080548060200260200160405190810160405280929190818152602001828054801561090057602002820191906000526020600020905b8154815260200190600101908083116108ec575b5050505050905091509150915091565b60045434101561091f57600080fd5b816001148061092c575081155b61097d576040805162461bcd60e51b815260206004820152601460248201527f4265742073686f756c642062652031206f722030000000000000000000000000604482015290519081900360640190fd5b610988823483610be4565b6001600160a01b038116600090815260026020526040902080546001909101548082146109b157fe5b6040805160208082018790523482840152825180830384018152606090920183528151918101919091206001600160a01b0386166000908152600290925291902080546000198501908110610a0257fe5b906000526020600020015460026000866001600160a01b03166001600160a01b031681526020019081526020016000206001016001840381548110610a4357fe5b906000526020600020015460405160200180838152602001828152602001925050506040516020818303038152906040528051906020012014610a8257fe5b604080518581523460208201526001600160a01b0385168183015290517f708e20749d242a7a40f190aed9586d298609a0391699344a787a3fb0006f295a9181900360600190a150505050565b6001805434908101825533600081815260036020526040902090920180549091019055610afb90610bb6565b565b6001421690565b33600090815260036020819052604090912060028101805485019055908101805483019055600401805460010190558015610b5357336000908152600360205260409020600501805460010190555b3360009081526003602052604090206006015550565b610b71610dc2565b336000908152600260209081526040909120825180518493610b97928492910190610ddc565b506020828101518051610bb09260018501920190610ddc565b50505050565b6001600160a01b03166000908152600360208190526040909120908101546002820154600183015403019055565b6001600160a01b03811660009081526003602081905260409091209081015460028201546001830154925492030114610c4e5760405162461bcd60e51b8152600401808060200182810382526021815260200180610e426021913960400191505060405180910390fd5b6001600160a01b038116600090815260026020526040902054600311610ca55760405162461bcd60e51b8152600401808060200182810382526033815260200180610ed86033913960400191505060405180910390fd5b6001600160a01b038116600090815260026020526040902060010154600311610cff5760405162461bcd60e51b8152600401808060200182810382526033815260200180610ed86033913960400191505060405180910390fd5b6001600160a01b038116600090815260036020526040902054821115610d565760405162461bcd60e51b8152600401808060200182810382526027815260200180610e636027913960400191505060405180910390fd5b6001600160a01b0381166000908152600360205260409020600201805483019055610d8081610bb6565b6001600160a01b031660009081526002602090815260408220805460018181018355828552838520909101959095558401805494850181558252902090910155565b604051806040016040528060608152602001606081525090565b828054828255906000526020600020908101928215610e17579160200282015b82811115610e17578251825591602001919060010190610dfc565b50610e23929150610e27565b5090565b61084391905b80821115610e235760008155600101610e2d56fe4552524f522043414c43554c4154494e4720504c415945522042414c4c414e4345546f6f20626967204265742c20706c6561736520746f70205570206d6f726520636f696e732e2e544f4f20424947204245542c204e4f5420454e4f5547482042414c414e4345204f4e20434f4e54524143544e6f2062657420706c616365642c20706c61736520706c616365207468652062657421546f6f206d616e79206265747320666f72206f6e6520647261773b20506c656173652068697420464c495020627574746f6e21a265627a7a7231582085e0040705d4c6b2e35d14c168d9ad12c540ca1225ed5c5af51b88963f61581064736f6c634300050c0032",
  "source": "import \"./Ownable.sol\";\npragma solidity 0.5.12;\n\ncontract CoinFlip is Ownable{\n\n    uint public _contractBalance_;\n\n    // status of active bets; Each player can have multiple bets before each flip\n    //Update each time player submited new bet\n\n    struct activeBet  {\n        uint[] betListPrecdictions;  // 0 or 1\n        uint[] betListAmount; //wei\n        }\n\n    //list of all activities of a player (update after finished solving each bet)\n    struct betHistory {\n        uint totalBalance;\n        uint totalTopUp;\n        uint totalSpentAmount;\n        uint totalWinAmount;\n        uint totalGames;\n        uint totalWins;\n        uint lastWinAmount;\n    }\n\n    //betList is a list of all active bets\n    // Should limit storage size somehow to avoid everflow in future?\n    mapping (address => activeBet) private playerActiveBetList;\n\n    //playerList store information\n    // Should limit storage size somehow to avoid everflow in future?\n    mapping (address => betHistory) public playerHistory;\n\n    //newBetCreated emit when created and not finished\n    event newBetCreated(uint betChoice, uint betAmount, address playerAddress);\n\n    //betFinished emit when\n    event betFinished(uint betAmount, uint winAmount, uint result);\n\n    uint _minBetAmount = 1000;\n\n    function topUp() public payable {\n        _contractBalance_ += msg.value;\n        playerHistory[msg.sender].totalTopUp += msg.value;\n        updatePlayerBalance(msg.sender);\n    }\n\n    function balance() public view returns (uint) {\n      return _contractBalance_;\n    }\n\n    function playerReport(address playerAddress) public view returns(uint,uint,uint,uint,uint,uint,uint) {\n        require(playerHistory[playerAddress].totalBalance ==\n            playerHistory[playerAddress].totalTopUp - playerHistory[playerAddress].totalSpentAmount + playerHistory[playerAddress].totalWinAmount,\n            \"ERROR CALCULATING PLAYER BALLANCE\");\n        return  (   playerHistory[playerAddress].totalBalance,\n                    playerHistory[playerAddress].totalTopUp,\n                    playerHistory[playerAddress].totalSpentAmount,\n                    playerHistory[playerAddress].totalWinAmount,\n                    playerHistory[playerAddress].totalGames,\n                    playerHistory[playerAddress].totalWins,\n                    playerHistory[playerAddress].lastWinAmount );\n    }\n\n    function createBet(uint betChoice) public payable {\n        require(msg.value >= _minBetAmount);\n        require(_contractBalance_ >= msg.value , \"TOO BIG BET, NOT ENOUGH BALANCE ON CONTRACT\");\n        createBetForPlayer(betChoice, msg.sender);\n    }\n\n    function createBetForPlayer(uint betChoice, address playerAddress) public payable{\n        require(msg.value >= _minBetAmount);\n        require(betChoice == 1 || betChoice == 0, \"Bet should be 1 or 0\");\n\n        insertNewBetForPlayer(betChoice, msg.value, playerAddress);\n\n        uint totalActivePredicts = playerActiveBetList[playerAddress].betListPrecdictions.length;\n        uint  totalActiveBets = playerActiveBetList[playerAddress].betListAmount.length;\n\n        assert(totalActivePredicts == totalActiveBets);\n        assert(\n            keccak256(\n                abi.encodePacked(\n                    playerActiveBetList[playerAddress].betListPrecdictions[totalActivePredicts - 1],\n                    playerActiveBetList[playerAddress].betListAmount[totalActiveBets - 1]\n                )\n            )\n            ==\n            keccak256(\n                abi.encodePacked(\n                    betChoice,\n                    msg.value\n                )\n            )\n        );\n\n        emit newBetCreated(betChoice, msg.value, playerAddress);\n    }\n\n    function updatePlayerBalance(address playerAddress) private {\n        playerHistory[playerAddress].totalBalance =\n        playerHistory[playerAddress].totalTopUp -  playerHistory[playerAddress].totalSpentAmount +  playerHistory[playerAddress].totalWinAmount;\n    }\n\n    function insertNewBetForPlayer(uint betChoice, uint betAmount, address playerAddress) private {\n        require(playerHistory[playerAddress].totalBalance ==\n            playerHistory[playerAddress].totalTopUp - playerHistory[playerAddress].totalSpentAmount + playerHistory[playerAddress].totalWinAmount,\n            \"ERROR CALCULATING PLAYER BALLANCE\");\n        require(playerActiveBetList[playerAddress].betListPrecdictions.length < 3, \"Too many bets for one draw; Please hit FLIP button!\");\n        require(playerActiveBetList[playerAddress].betListAmount.length < 3, \"Too many bets for one draw; Please hit FLIP button!\");\n        require(playerHistory[playerAddress].totalBalance >= betAmount, \"Too big Bet, please top Up more coins..\");\n\n        playerHistory[playerAddress].totalSpentAmount += betAmount;\n        updatePlayerBalance(playerAddress);\n\n        playerActiveBetList[playerAddress].betListPrecdictions.push(betChoice);\n        playerActiveBetList[playerAddress].betListAmount.push(betAmount);\n    }\n\n    function getMyBet() public view returns(uint[] memory, uint[] memory)\n    {\n        return getPlayerBet(msg.sender);\n    }\n\n    function getPlayerBet(address playerAddress) public view returns(uint[] memory, uint[] memory)\n    {\n        return (\n            playerActiveBetList[playerAddress].betListPrecdictions,\n            playerActiveBetList[playerAddress].betListAmount\n        );\n    }\n\n    function getMyHistory() public view returns(uint, uint, uint, uint, uint)\n    {\n        return (\n            playerHistory[msg.sender].totalSpentAmount,\n            playerHistory[msg.sender].totalWinAmount,\n            playerHistory[msg.sender].totalWins,\n            playerHistory[msg.sender].totalGames,\n            playerHistory[msg.sender].lastWinAmount\n        );\n    }\n\n    function random() internal view returns(uint) {\n        return now % 2;\n    }\n\n    function updatePlayerHistory(uint spentAmount, uint winAmount) internal {\n        playerHistory[msg.sender].totalSpentAmount +=  spentAmount;\n        playerHistory[msg.sender].totalWinAmount += winAmount;\n        playerHistory[msg.sender].totalGames++;\n        if (winAmount>0) {\n            playerHistory[msg.sender].totalWins += 1;\n        }\n        playerHistory[msg.sender].lastWinAmount = winAmount;\n    }\n\n    function resetPlayerBetList() internal {\n        activeBet memory noBets;\n        playerActiveBetList[msg.sender] = noBets;\n    }\n\n    function tossCoin() public {\n      playerTossCoin(msg.sender);\n    }\n\n    function playerTossCoin(address payable playerAddress) public returns(uint , uint, uint) {\n        uint result = random();\n        uint spentAmount = 0;\n        uint winAmount = 0;\n\n        require(    result == 1 || result==0);\n        require(    playerActiveBetList[playerAddress].betListPrecdictions.length > 0,\n                    \"No bet placed, plase place the bet!\");\n\n        require(    playerActiveBetList[playerAddress].betListAmount.length > 0,\n                    \"No bet placed, plase place the bet!\");\n\n        require(    playerActiveBetList[playerAddress].betListAmount.length == playerActiveBetList[playerAddress].betListPrecdictions.length,\n                    \"Error bet data\");\n\n        for (uint x=0; x < playerActiveBetList[playerAddress].betListPrecdictions.length; x++) {\n            spentAmount += playerActiveBetList[playerAddress].betListAmount[x];\n            if (playerActiveBetList[playerAddress].betListPrecdictions[x] == result) {\n                winAmount += playerActiveBetList[playerAddress].betListAmount[x];\n            }\n        }\n\n        updatePlayerHistory(spentAmount, winAmount);\n\n        resetPlayerBetList();\n\n        if (winAmount>0) {\n            playerHistory[playerAddress].totalWinAmount += winAmount;\n            updatePlayerBalance(playerAddress);\n            }\n\n        emit betFinished(spentAmount, winAmount, result);\n        return (spentAmount, winAmount, result);\n    }\n\n    /*\n    function deleteplayer(address creator) public onlyOwner {\n      string memory name = people[creator].name;\n      bool senior = people[creator].senior;\n\n       delete people[creator];\n       assert(people[creator].age == 0);\n       emit playerDeleted(name, senior, owner);\n   }\n   function getCreator(uint index) public view onlyOwner returns(address){\n       return creators[index];\n   }\n   function withdrawAll() public onlyOwner returns(uint) {\n       uint toTransfer = balance;\n       balance = 0;\n       msg.sender.transfer(toTransfer);\n       return toTransfer;\n   }\n   */\n\n}\n",
  "sourcePath": "/home/gab/storage/git/iot/test/coinFlip4/contracts/CoinFlip.sol",
  "compiler": {
    "name": "solc",
    "version": "0.5.12+commit.7709ece9.Emscripten.clang"
  },
  "schemaVersion": "3.0.23",
  "updatedAt": "2020-06-24T10:22:16.609Z",
  "networkType": "ethereum",
  "devdoc": {
    "methods": {}
  },
  "userdoc": {
    "methods": {}
  }
}