{
  "contractName": "CoinFlip100",
  "abi": [
    {
      "inputs": [],
      "payable": true,
      "stateMutability": "payable",
      "type": "constructor"
    },
    {
      "anonymous": false,
      "inputs": [
        {
          "indexed": false,
          "internalType": "string",
          "name": "notice",
          "type": "string"
        }
      ],
      "name": "LogNewProvableQuery",
      "type": "event"
    },
    {
      "anonymous": false,
      "inputs": [
        {
          "indexed": false,
          "internalType": "uint256",
          "name": "roundNo",
          "type": "uint256"
        },
        {
          "indexed": false,
          "internalType": "uint256",
          "name": "result",
          "type": "uint256"
        }
      ],
      "name": "betFinished",
      "type": "event"
    },
    {
      "anonymous": false,
      "inputs": [
        {
          "indexed": false,
          "internalType": "string",
          "name": "noticeString",
          "type": "string"
        },
        {
          "indexed": false,
          "internalType": "uint256",
          "name": "noticeValue",
          "type": "uint256"
        }
      ],
      "name": "error",
      "type": "event"
    },
    {
      "anonymous": false,
      "inputs": [
        {
          "indexed": false,
          "internalType": "uint256",
          "name": "roundNo",
          "type": "uint256"
        },
        {
          "indexed": false,
          "internalType": "uint256",
          "name": "randomNumber",
          "type": "uint256"
        },
        {
          "indexed": false,
          "internalType": "bytes32",
          "name": "Id",
          "type": "bytes32"
        },
        {
          "indexed": false,
          "internalType": "bytes",
          "name": "proof",
          "type": "bytes"
        }
      ],
      "name": "generatedRandomNumber",
      "type": "event"
    },
    {
      "anonymous": false,
      "inputs": [
        {
          "indexed": false,
          "internalType": "uint256[]",
          "name": "betNumbers",
          "type": "uint256[]"
        },
        {
          "indexed": false,
          "internalType": "uint256[]",
          "name": "betAmounts_chip",
          "type": "uint256[]"
        },
        {
          "indexed": false,
          "internalType": "address",
          "name": "playerAddress",
          "type": "address"
        }
      ],
      "name": "newBetCreated",
      "type": "event"
    },
    {
      "anonymous": false,
      "inputs": [
        {
          "indexed": false,
          "internalType": "string",
          "name": "noticeString",
          "type": "string"
        },
        {
          "indexed": false,
          "internalType": "uint256",
          "name": "noticeValue",
          "type": "uint256"
        }
      ],
      "name": "notice",
      "type": "event"
    },
    {
      "anonymous": false,
      "inputs": [
        {
          "indexed": false,
          "internalType": "string",
          "name": "description",
          "type": "string"
        }
      ],
      "name": "proofFailed",
      "type": "event"
    },
    {
      "constant": true,
      "inputs": [],
      "name": "BET_MIN_AMOUNT_WEI",
      "outputs": [
        {
          "internalType": "uint256",
          "name": "",
          "type": "uint256"
        }
      ],
      "payable": false,
      "stateMutability": "view",
      "type": "function"
    },
    {
      "constant": true,
      "inputs": [],
      "name": "BET_RANGE_MAX",
      "outputs": [
        {
          "internalType": "uint256",
          "name": "",
          "type": "uint256"
        }
      ],
      "payable": false,
      "stateMutability": "view",
      "type": "function"
    },
    {
      "constant": true,
      "inputs": [],
      "name": "BET_RANGE_MIN",
      "outputs": [
        {
          "internalType": "uint256",
          "name": "",
          "type": "uint256"
        }
      ],
      "payable": false,
      "stateMutability": "view",
      "type": "function"
    },
    {
      "constant": true,
      "inputs": [
        {
          "internalType": "uint256",
          "name": "",
          "type": "uint256"
        }
      ],
      "name": "_amountsMatched_",
      "outputs": [
        {
          "internalType": "uint256",
          "name": "",
          "type": "uint256"
        }
      ],
      "payable": false,
      "stateMutability": "view",
      "type": "function"
    },
    {
      "constant": true,
      "inputs": [],
      "name": "_contractBalance_",
      "outputs": [
        {
          "internalType": "uint256",
          "name": "",
          "type": "uint256"
        }
      ],
      "payable": false,
      "stateMutability": "view",
      "type": "function"
    },
    {
      "constant": true,
      "inputs": [],
      "name": "_coverAmount100_",
      "outputs": [
        {
          "internalType": "uint256",
          "name": "",
          "type": "uint256"
        }
      ],
      "payable": false,
      "stateMutability": "view",
      "type": "function"
    },
    {
      "constant": true,
      "inputs": [],
      "name": "_currentRoundNo_",
      "outputs": [
        {
          "internalType": "uint256",
          "name": "",
          "type": "uint256"
        }
      ],
      "payable": false,
      "stateMutability": "view",
      "type": "function"
    },
    {
      "constant": true,
      "inputs": [],
      "name": "_lockedInBets_",
      "outputs": [
        {
          "internalType": "uint256",
          "name": "",
          "type": "uint256"
        }
      ],
      "payable": false,
      "stateMutability": "view",
      "type": "function"
    },
    {
      "constant": true,
      "inputs": [
        {
          "internalType": "uint256",
          "name": "",
          "type": "uint256"
        },
        {
          "internalType": "uint256",
          "name": "",
          "type": "uint256"
        }
      ],
      "name": "_playerAddreses_",
      "outputs": [
        {
          "internalType": "address",
          "name": "",
          "type": "address"
        }
      ],
      "payable": false,
      "stateMutability": "view",
      "type": "function"
    },
    {
      "constant": true,
      "inputs": [],
      "name": "_totalAllPlayerBalance_",
      "outputs": [
        {
          "internalType": "uint256",
          "name": "",
          "type": "uint256"
        }
      ],
      "payable": false,
      "stateMutability": "view",
      "type": "function"
    },
    {
      "constant": true,
      "inputs": [
        {
          "internalType": "uint256",
          "name": "",
          "type": "uint256"
        }
      ],
      "name": "betTable",
      "outputs": [
        {
          "internalType": "uint256",
          "name": "result",
          "type": "uint256"
        },
        {
          "internalType": "uint256",
          "name": "closedAtBlock",
          "type": "uint256"
        },
        {
          "internalType": "uint256",
          "name": "openedAtBlock",
          "type": "uint256"
        },
        {
          "internalType": "bool",
          "name": "paidOut",
          "type": "bool"
        },
        {
          "internalType": "bytes32",
          "name": "queryId",
          "type": "bytes32"
        },
        {
          "internalType": "bytes",
          "name": "proof",
          "type": "bytes"
        }
      ],
      "payable": false,
      "stateMutability": "view",
      "type": "function"
    },
    {
      "constant": true,
      "inputs": [],
      "name": "owner",
      "outputs": [
        {
          "internalType": "address",
          "name": "",
          "type": "address"
        }
      ],
      "payable": false,
      "stateMutability": "view",
      "type": "function"
    },
    {
      "constant": true,
      "inputs": [
        {
          "internalType": "address",
          "name": "",
          "type": "address"
        }
      ],
      "name": "playerHistory",
      "outputs": [
        {
          "internalType": "uint256",
          "name": "totalBalance",
          "type": "uint256"
        },
        {
          "internalType": "uint256",
          "name": "totalTopUp",
          "type": "uint256"
        },
        {
          "internalType": "uint256",
          "name": "totalWithdrawn",
          "type": "uint256"
        },
        {
          "internalType": "uint256",
          "name": "totalSpentAmount",
          "type": "uint256"
        },
        {
          "internalType": "uint256",
          "name": "totalwinAmount",
          "type": "uint256"
        },
        {
          "internalType": "uint256",
          "name": "totalGames",
          "type": "uint256"
        },
        {
          "internalType": "uint256",
          "name": "totalWins",
          "type": "uint256"
        },
        {
          "internalType": "uint256",
          "name": "playableAmount",
          "type": "uint256"
        }
      ],
      "payable": false,
      "stateMutability": "view",
      "type": "function"
    },
    {
      "constant": false,
      "inputs": [
        {
          "internalType": "bytes32",
          "name": "_myid",
          "type": "bytes32"
        },
        {
          "internalType": "string",
          "name": "_result",
          "type": "string"
        }
      ],
      "name": "__callback",
      "outputs": [],
      "payable": false,
      "stateMutability": "nonpayable",
      "type": "function"
    },
    {
      "constant": false,
      "inputs": [
        {
          "internalType": "bytes32",
          "name": "_queryId",
          "type": "bytes32"
        },
        {
          "internalType": "string",
          "name": "_result",
          "type": "string"
        },
        {
          "internalType": "bytes",
          "name": "_proof",
          "type": "bytes"
        }
      ],
      "name": "__callback",
      "outputs": [],
      "payable": false,
      "stateMutability": "nonpayable",
      "type": "function"
    },
    {
      "constant": true,
      "inputs": [],
      "name": "coverFund",
      "outputs": [
        {
          "internalType": "uint256",
          "name": "",
          "type": "uint256"
        }
      ],
      "payable": false,
      "stateMutability": "view",
      "type": "function"
    },
    {
      "constant": false,
      "inputs": [
        {
          "internalType": "uint256",
          "name": "topUp_chip",
          "type": "uint256"
        }
      ],
      "name": "ownerFundUp_chip",
      "outputs": [],
      "payable": true,
      "stateMutability": "payable",
      "type": "function"
    },
    {
      "constant": false,
      "inputs": [
        {
          "internalType": "uint256",
          "name": "topUp_chip",
          "type": "uint256"
        }
      ],
      "name": "playerTopUp_chip",
      "outputs": [],
      "payable": true,
      "stateMutability": "payable",
      "type": "function"
    },
    {
      "constant": true,
      "inputs": [],
      "name": "getPlayerHistory",
      "outputs": [
        {
          "internalType": "uint256",
          "name": "",
          "type": "uint256"
        },
        {
          "internalType": "uint256",
          "name": "",
          "type": "uint256"
        },
        {
          "internalType": "uint256",
          "name": "",
          "type": "uint256"
        },
        {
          "internalType": "uint256",
          "name": "",
          "type": "uint256"
        },
        {
          "internalType": "uint256",
          "name": "",
          "type": "uint256"
        },
        {
          "internalType": "uint256",
          "name": "",
          "type": "uint256"
        },
        {
          "internalType": "uint256",
          "name": "",
          "type": "uint256"
        },
        {
          "internalType": "uint256",
          "name": "",
          "type": "uint256"
        }
      ],
      "payable": false,
      "stateMutability": "view",
      "type": "function"
    },
    {
      "constant": true,
      "inputs": [],
      "name": "readVar_contractBalance_",
      "outputs": [
        {
          "internalType": "uint256",
          "name": "",
          "type": "uint256"
        }
      ],
      "payable": false,
      "stateMutability": "view",
      "type": "function"
    },
    {
      "constant": true,
      "inputs": [],
      "name": "readVar_coverAmount100_",
      "outputs": [
        {
          "internalType": "uint256",
          "name": "",
          "type": "uint256"
        }
      ],
      "payable": false,
      "stateMutability": "view",
      "type": "function"
    },
    {
      "constant": true,
      "inputs": [
        {
          "internalType": "uint256",
          "name": "number",
          "type": "uint256"
        }
      ],
      "name": "readVar_amountsMatched_",
      "outputs": [
        {
          "internalType": "uint256",
          "name": "",
          "type": "uint256"
        }
      ],
      "payable": false,
      "stateMutability": "view",
      "type": "function"
    },
    {
      "constant": true,
      "inputs": [],
      "name": "realContractBalance",
      "outputs": [
        {
          "internalType": "uint256",
          "name": "",
          "type": "uint256"
        }
      ],
      "payable": false,
      "stateMutability": "view",
      "type": "function"
    },
    {
      "constant": true,
      "inputs": [
        {
          "internalType": "uint256",
          "name": "number",
          "type": "uint256"
        }
      ],
      "name": "coverAmountLeft",
      "outputs": [
        {
          "internalType": "uint256",
          "name": "",
          "type": "uint256"
        }
      ],
      "payable": false,
      "stateMutability": "view",
      "type": "function"
    },
    {
      "constant": true,
      "inputs": [
        {
          "internalType": "uint256",
          "name": "number",
          "type": "uint256"
        },
        {
          "internalType": "uint256",
          "name": "amount_wei",
          "type": "uint256"
        },
        {
          "internalType": "uint256",
          "name": "wantedWinRate",
          "type": "uint256"
        }
      ],
      "name": "getPlayerBetableAmount",
      "outputs": [
        {
          "internalType": "uint256",
          "name": "",
          "type": "uint256"
        }
      ],
      "payable": false,
      "stateMutability": "view",
      "type": "function"
    },
    {
      "constant": false,
      "inputs": [
        {
          "internalType": "uint256[]",
          "name": "betNumbers",
          "type": "uint256[]"
        },
        {
          "internalType": "uint256[]",
          "name": "betAmounts_chip",
          "type": "uint256[]"
        }
      ],
      "name": "createMyBet",
      "outputs": [],
      "payable": false,
      "stateMutability": "nonpayable",
      "type": "function"
    },
    {
      "constant": true,
      "inputs": [
        {
          "internalType": "uint256",
          "name": "_roundNo",
          "type": "uint256"
        },
        {
          "internalType": "address",
          "name": "playerAddress",
          "type": "address"
        }
      ],
      "name": "getPlayersBet",
      "outputs": [
        {
          "internalType": "uint256",
          "name": "",
          "type": "uint256"
        },
        {
          "internalType": "uint256[]",
          "name": "",
          "type": "uint256[]"
        },
        {
          "internalType": "uint256[]",
          "name": "",
          "type": "uint256[]"
        }
      ],
      "payable": false,
      "stateMutability": "view",
      "type": "function"
    },
    {
      "constant": true,
      "inputs": [
        {
          "internalType": "uint256",
          "name": "prize",
          "type": "uint256"
        }
      ],
      "name": "getCoverableAmount",
      "outputs": [
        {
          "internalType": "uint256",
          "name": "",
          "type": "uint256"
        }
      ],
      "payable": false,
      "stateMutability": "view",
      "type": "function"
    },
    {
      "constant": true,
      "inputs": [
        {
          "internalType": "uint256",
          "name": "winWei",
          "type": "uint256"
        }
      ],
      "name": "getwinAmountWei",
      "outputs": [
        {
          "internalType": "uint256",
          "name": "",
          "type": "uint256"
        }
      ],
      "payable": false,
      "stateMutability": "view",
      "type": "function"
    },
    {
      "constant": false,
      "inputs": [],
      "name": "contractRequestResultNumber",
      "outputs": [
        {
          "internalType": "bytes32",
          "name": "waitingId",
          "type": "bytes32"
        }
      ],
      "payable": true,
      "stateMutability": "payable",
      "type": "function"
    },
    {
      "constant": false,
      "inputs": [],
      "name": "payOutOldAndStartNewRound",
      "outputs": [
        {
          "internalType": "bool",
          "name": "",
          "type": "bool"
        }
      ],
      "payable": false,
      "stateMutability": "nonpayable",
      "type": "function"
    },
    {
      "constant": true,
      "inputs": [],
      "name": "blockNumber",
      "outputs": [
        {
          "internalType": "uint256",
          "name": "",
          "type": "uint256"
        }
      ],
      "payable": false,
      "stateMutability": "view",
      "type": "function"
    },
    {
      "constant": false,
      "inputs": [],
      "name": "initNewRound",
      "outputs": [],
      "payable": false,
      "stateMutability": "nonpayable",
      "type": "function"
    },
    {
      "constant": false,
      "inputs": [],
      "name": "ownerWithdrawAll",
      "outputs": [
        {
          "internalType": "uint256",
          "name": "",
          "type": "uint256"
        }
      ],
      "payable": false,
      "stateMutability": "nonpayable",
      "type": "function"
    },
    {
      "constant": false,
      "inputs": [],
      "name": "playerWithdrawAll",
      "outputs": [
        {
          "internalType": "uint256",
          "name": "",
          "type": "uint256"
        }
      ],
      "payable": false,
      "stateMutability": "nonpayable",
      "type": "function"
    }
  ],
  "bytecode": "0x608060405260006006819055606360075566038d7ea4c680006008819055600955611b58600a5580546001600160a01b031916331790556200006a7f30000000000000000000000000000000000000000000000000000000000000006001600160e01b036200008716565b34600b55620000816001600160e01b03620002b216565b620008fe565b6002546001600160a01b03161580620000bd5750600254620000bb906001600160a01b03166001600160e01b036200038c16565b155b15620000da57620000d860006001600160e01b036200039016565b505b600260009054906101000a90046001600160a01b03166001600160a01b03166338cc48316040518163ffffffff1660e01b8152600401602060405180830381600087803b1580156200012b57600080fd5b505af115801562000140573d6000803e3d6000fd5b505050506040513d60208110156200015757600080fd5b50516001546001600160a01b039081169116146200020e57600260009054906101000a90046001600160a01b03166001600160a01b03166338cc48316040518163ffffffff1660e01b8152600401602060405180830381600087803b158015620001c057600080fd5b505af1158015620001d5573d6000803e3d6000fd5b505050506040513d6020811015620001ec57600080fd5b5051600180546001600160a01b0319166001600160a01b039092169190911790555b600154604080517f688dcfd70000000000000000000000000000000000000000000000000000000081527fff000000000000000000000000000000000000000000000000000000000000008416600482015290516001600160a01b039092169163688dcfd79160248082019260009290919082900301818387803b1580156200029657600080fd5b505af1158015620002ab573d6000803e3d6000fd5b5050505050565b6000546001600160a01b03163314620002ca57600080fd5b600e54156200035457600e54600090815260d860205260409020600101546200035457604080517f08c379a000000000000000000000000000000000000000000000000000000000815260206004820152601460248201527f4c617374526f756e64206e6f7420636c6f736564000000000000000000000000604482015290519081900360640190fd5b600e805460010190819055600090815260d86020526040902043600290910155620003876001600160e01b03620003ab16565b600f55565b3b90565b6000620003a56001600160e01b03620003da16565b92915050565b6000620003d4600c54620003c46200082560201b60201c565b036001600160e01b036200082a16565b90505b90565b60008062000405731d3b2638a7cc9f2cb3d298a3da7a90b67e5506ed6001600160e01b036200038c16565b11156200048357600280546001600160a01b031916731d3b2638a7cc9f2cb3d298a3da7a90b67e5506ed17905560408051808201909152600b81527f6574685f6d61696e6e657400000000000000000000000000000000000000000060208201526200047a906001600160e01b036200084316565b506001620003d7565b6000620004ad73c03a2615d5efaf5f49f60b7bb6583eaec212fdf16001600160e01b036200038c16565b11156200052257600280546001600160a01b03191673c03a2615d5efaf5f49f60b7bb6583eaec212fdf117905560408051808201909152600c81527f6574685f726f707374656e33000000000000000000000000000000000000000060208201526200047a906001600160e01b036200084316565b60006200054c73b7a07bcf2ba2f2703b24c0691b5278999c59ac7e6001600160e01b036200038c16565b1115620005c157600280546001600160a01b03191673b7a07bcf2ba2f2703b24c0691b5278999c59ac7e17905560408051808201909152600981527f6574685f6b6f76616e000000000000000000000000000000000000000000000060208201526200047a906001600160e01b036200084316565b6000620005eb73146500cfd35b22e4a392fe0adc06de1a1368ed486001600160e01b036200038c16565b11156200066057600280546001600160a01b03191673146500cfd35b22e4a392fe0adc06de1a1368ed4817905560408051808201909152600b81527f6574685f72696e6b65627900000000000000000000000000000000000000000060208201526200047a906001600160e01b036200084316565b60006200068a73a2998efd205fb9d4b4963afb70778d6354ad3a416001600160e01b036200038c16565b1115620006ff57600280546001600160a01b03191673a2998efd205fb9d4b4963afb70778d6354ad3a4117905560408051808201909152600a81527f6574685f676f65726c690000000000000000000000000000000000000000000060208201526200047a906001600160e01b036200084316565b600062000729736f485c8bf6fc43ea212e93bbf8ce046c7f1cb4756001600160e01b036200038c16565b11156200075f5750600280546001600160a01b031916736f485c8bf6fc43ea212e93bbf8ce046c7f1cb4751790556001620003d7565b6000620007897320e12a1f859b3feae5fb2a0a32c18f5a65555bbf6001600160e01b036200038c16565b1115620007bf5750600280546001600160a01b0319167320e12a1f859b3feae5fb2a0a32c18f5a65555bbf1790556001620003d7565b6000620007e97351efaf4c8b3c9afbd5ab9f4bbc82784ab6ef8faa6001600160e01b036200038c16565b11156200081f5750600280546001600160a01b0319167351efaf4c8b3c9afbd5ab9f4bbc82784ab6ef8faa1790556001620003d7565b50600090565b303190565b6000600a5482816200083857fe5b046064029050919050565b8051620008589060039060208401906200085c565b5050565b828054600181600116156101000203166002900490600052602060002090601f016020900481019282601f106200089f57805160ff1916838001178555620008cf565b82800160010185558215620008cf579182015b82811115620008cf578251825591602001919060010190620008b2565b50620008dd929150620008e1565b5090565b620003d791905b80821115620008dd5760008155600101620008e8565b613aee806200090e6000396000f3fe6080604052600436106102345760003560e01c80638da5cb5b11610138578063daeda51b116100b0578063e1c63e331161007f578063e6dbcae311610064578063e6dbcae3146109ae578063e862f79d14610a87578063f899133e14610aa457610234565b8063e1c63e3314610963578063e3c128721461099957610234565b8063daeda51b146108fa578063dd85881f14610924578063e0d5af9414610939578063e1bc44e71461094e57610234565b8063b43e8a5411610107578063c3b91f45116100ec578063c3b91f45146108bb578063c4d211b4146108d0578063cf4382de146108e557610234565b8063b43e8a541461087c578063b4b0b27e146108a657610234565b80638da5cb5b1461081357806394ebe608146108285780639d10561a1461083d578063b2c693b11461086757610234565b806333822f35116101cb5780636bc128361161019a57806376b0a4a01161017f57806376b0a4a0146107b857806387048226146107d55780638a8b19e5146107fe57610234565b80636bc12836146106e7578063716dd674146106ef57610234565b806333822f351461056957806338bbfa501461057e5780634adc3dd5146106bd57806357e871e7146106d257610234565b80632765ce91116102075780632765ce911461033b57806327dc297e146103505780632890a9f81461040b5780632cf986eb1461053f57610234565b80630a39a58e146102395780630da2779014610260578063180bfdf6146102da5780632136561b146102ef575b600080fd5b34801561024557600080fd5b5061024e610ace565b60405190815260200160405180910390f35b34801561026c57600080fd5b506102936004803603602081101561028357600080fd5b50356001600160a01b0316610ad4565b604051808981526020018881526020018781526020018681526020018581526020018481526020018381526020018281526020019850505050505050505060405180910390f35b3480156102e657600080fd5b5061024e610b18565b3480156102fb57600080fd5b5061031f6004803603604081101561031257600080fd5b5080359060200135610b1e565b6040516001600160a01b03909116815260200160405180910390f35b34801561034757600080fd5b5061024e610b52565b34801561035c57600080fd5b506104096004803603604081101561037357600080fd5b8135919081019060408101602082013564010000000081111561039557600080fd5b8201836020820111156103a757600080fd5b803590602001918460018302840111640100000000831117156103c957600080fd5b91908080601f0160208091040260200160405190810160405281815292919060208401838380828437600092019190915250929550610b6e945050505050565b005b34801561041757600080fd5b506104096004803603604081101561042e57600080fd5b81019060208101813564010000000081111561044957600080fd5b82018360208201111561045b57600080fd5b8035906020019184602083028401116401000000008311171561047d57600080fd5b91908080602002602001604051908101604052809392919081815260200183836020028082843760009201919091525092959493602081019350359150506401000000008111156104cd57600080fd5b8201836020820111156104df57600080fd5b8035906020019184602083028401116401000000008311171561050157600080fd5b919080806020026020016040519081016040528093929190818152602001838360200280828437600092019190915250929550610ba9945050505050565b34801561054b57600080fd5b5061024e6004803603602081101561056257600080fd5b5035610d3c565b34801561057557600080fd5b5061024e610d54565b34801561058a57600080fd5b50610409600480360360608110156105a157600080fd5b813591908101906040810160208201356401000000008111156105c357600080fd5b8201836020820111156105d557600080fd5b803590602001918460018302840111640100000000831117156105f757600080fd5b91908080601f0160208091040260200160405190810160405281815292919060208401838380828437600092019190915250929594936020810193503591505064010000000081111561064957600080fd5b82018360208201111561065b57600080fd5b8035906020019184600183028401116401000000008311171561067d57600080fd5b91908080601f0160208091040260200160405190810160405281815292919060208401838380828437600092019190915250929550610d5a945050505050565b3480156106c957600080fd5b5061024e610f23565b3480156106de57600080fd5b5061024e610f28565b61024e610f2c565b3480156106fb57600080fd5b506107196004803603602081101561071257600080fd5b5035611025565b604051808781526020018681526020018581526020018415151515815260200183815260200180602001828103825283818151815260200191508051906020019080838360005b83811015610778578082015183820152602001610760565b50505050905090810190601f1680156107a55780820380516001836020036101000a031916815260200191505b5097505050505050505060405180910390f35b610409600480360360208110156107ce57600080fd5b5035611106565b3480156107e157600080fd5b506107ea6111a2565b604051901515815260200160405180910390f35b34801561080a57600080fd5b5061024e6114e2565b34801561081f57600080fd5b5061031f6114e8565b34801561083457600080fd5b5061024e6114f7565b34801561084957600080fd5b5061024e6004803603602081101561086057600080fd5b5035611646565b34801561087357600080fd5b5061024e61165d565b34801561088857600080fd5b5061024e6004803603602081101561089f57600080fd5b5035611663565b3480156108b257600080fd5b5061024e611677565b3480156108c757600080fd5b5061040961167d565b3480156108dc57600080fd5b5061024e61172d565b3480156108f157600080fd5b5061024e611733565b34801561090657600080fd5b5061024e6004803603602081101561091d57600080fd5b5035611739565b34801561093057600080fd5b5061024e611754565b34801561094557600080fd5b5061024e61175a565b34801561095a57600080fd5b5061024e6117c2565b34801561096f57600080fd5b5061024e6004803603606081101561098657600080fd5b50803590602081013590604001356117c8565b3480156109a557600080fd5b5061029361180a565b3480156109ba57600080fd5b506109e7600480360360408110156109d157600080fd5b50803590602001356001600160a01b0316611935565b604051808481526020018060200180602001838103835285818151815260200191508051906020019060200280838360005b83811015610a31578082015183820152602001610a19565b50505050905001838103825284818151815260200191508051906020019060200280838360005b83811015610a70578082015183820152602001610a58565b505050509050019550505050505060405180910390f35b61040960048036036020811015610a9d57600080fd5b5035611a52565b348015610ab057600080fd5b5061024e60048036036020811015610ac757600080fd5b5035611af1565b600b5481565b60d960205280600052604060002080546001820154600283015460038401546004850154600586015460068701546007909701549597509395929491939092909188565b600c5481565b60108260648110610b2b57fe5b018181548110610b3757fe5b90600052602060002001546001600160a01b03169150829050565b6000610b68600c54610b62610f23565b03610d3c565b90505b90565b610ba582826000604051818152601f19601f8301168101602001604052908015610b9f576020820181803883390190505b50610d5a565b5050565b600e54600090815260d8602052604090206001015415610bfa5760405162461bcd60e51b8152600401808060200182810382526030815260200180613a336030913960400191505060405180910390fd5b6060610c0582611b08565b9050610c118382611b58565b610c615760405162461bcd60e51b815260206004820152600d60248201527f4e4f542056414c49442042455400000000000000000000000000000000000000604482015260640160405180910390fd5b610c6b8382611d2a565b7f2aeacb050561fc39cce82b85f933b4093153305890dd8ef86f07c861b720cb7e8382336040516001600160a01b0382166040820152606080825281906020820190820186818151815260200191508051906020019060200280838360005b83811015610ce2578082015183820152602001610cca565b50505050905001838103825285818151815260200191508051906020019060200280838360005b83811015610d21578082015183820152602001610d09565b505050509050019550505050505060405180910390a1505050565b6000600a548281610d4957fe5b046064029050919050565b600b5490565b610d62611e2b565b6001600160a01b0316336001600160a01b031614610d7f57600080fd5b60006064836040516020018082805190602001908083835b60208310610db65780518252601f199092019160209182019101610d97565b6001836020036101000a03801982511681845116179092525050509190910192506040915050516020818303038152906040528051906020012081610df757fe5b5050600e54600090815260d86020526063915081906040902055600e54600090815260d860205243906040902060010155600e54600090815260d860205284906040902060040155600e54600090815260d8602052829060409020600501908051610e669291602001906138c5565b507f7c6de1f7e0f7edc76500b2dbc8a8dd652b051b4439965204274ab58e849a51c46001600e54038286856040518085815260200184815260200183815260200180602001828103825283818151815260200191508051906020019080838360005b83811015610ee0578082015183820152602001610ec8565b50505050905090810190601f168015610f0d5780820380516001836020036101000a031916815260200191505b509550505050505060405180910390a150505050565b303190565b4390565b600080546001600160a01b03163314610f4457600080fd5b600e54600090815260d8602052604090206004015415610faa5760405162461bcd60e51b815260206004820152601f60248201527f5245515545535420666f72204e554d42455220414c52454144592053454e5400604482015260640160405180910390fd5b60006207a120610fbc82600183611ff4565b92507fc4dc360d0a9c0677a3379ae0a3d81e887f761e65fdf3d7e00859d1bcd3c473896040518080602001828103825260318152602001806139c56031913960400191505060405180910390a1600e54600090815260d860205283906040902060040155505090565b60d86020528060005260406000206000915090508060000154908060010154908060020154908060030160009054906101000a900460ff1690806004015490806005018054600181600116156101000203166002900480601f0160208091040260200160405190810160405280929190818152602001828054600181600116156101000203166002900480156110fc5780601f106110d1576101008083540402835291602001916110fc565b820191906000526020600020905b8154815290600101906020018083116110df57829003601f168201915b5050505050905086565b6000546001600160a01b0316331461111d57600080fd5b61112681612516565b34146111785760405162461bcd60e51b815260206004820152601e60248201527f6d73672e76616c756520213d20746f7055705f63686970202a20316531360000604482015260640160405180910390fd5b61118181612516565b341461118c57600080fd5b600b80543401905561119c610b52565b600f5550565b600080546001600160a01b031633146111ba57600080fd5b600e54600090815260d86020526040902060010154611230577f72c6694e8258da9df05f72188f564478e8a53afd79cc3af03fad0dfb96a473dd600e5460405180806020018381526020018281038252602981526020018061399c602991396040019250505060405180910390a1506000610b6b565b600e54600090815260d8602052604090206003015460ff161515600114156112af577f72c6694e8258da9df05f72188f564478e8a53afd79cc3af03fad0dfb96a473dd600e54604051808060200183815260200182810382526024815260200180613a63602491396040019250505060405180910390a1506000610b6b565b60005b600e54600090815260d86020526010906040902054606481106112d157fe5b015481101561142e57600e54600090815260d860205260106040822054606481106112f857fe5b01828154811061130457fe5b90600052602060002001546001600160a01b031690506000805b6001600160a01b038316600090815260d960205260409020600901600e548154811061134657fe5b906000526020600020015481101561141657600e54600090815260d860205260409020546001600160a01b038416600090815260d960205260409020600901600e548154811061139257fe5b9060005260206000200182815481106113a757fe5b9060005260206000200154141561140e576001600160a01b038316600090815260d96020526114099060409020600a01600e54815481106113e457fe5b9060005260206000200182815481106113f957fe5b9060005260206000200154611646565b820191505b60010161131e565b50611424600e54838361251d565b50506001016112b2565b50600e54600090815260d860205260019060409020600301805460ff191691151591909117905561145d61167d565b600e54600090815260d86020527f72c6694e8258da9df05f72188f564478e8a53afd79cc3af03fad0dfb96a473dd9060409020600201546040516020808201929092526040808252808201929092527f42455420524f554e44204953204f50454e454420617420424c4f434b204e6f3a6060820152608001905180910390a150600190565b60065481565b6000546001600160a01b031681565b6000611502336125c7565b33600090815260d96020526040812054116115635760405162461bcd60e51b815260206004820152601660248201527f506c61796572206973206f7574206f66206d6f6e657900000000000000000000604482015260640160405180910390fd5b61156b6126a8565b6115bb5760405162461bcd60e51b815260206004820152601560248201527f496e76616c69642062616c616e636520636865636b0000000000000000000000604482015260640160405180910390fd5b33600090815260d9602052604081205433600090815260d960205290915081906040902060020180549091019055600b805482900390556115fb336125c7565b33600090815260d960205260409020541561161257fe5b3381156108fc0282604051600060405180830381858888f19350505050158015611640573d6000803e3d6000fd5b50905090565b60006064600a5483028161165657fe5b0492915050565b600e5481565b6074816064811061167057fe5b0154905081565b600d5481565b6000546001600160a01b0316331461169457600080fd5b600e541561170157600e54600090815260d860205260409020600101546117015760405162461bcd60e51b815260206004820152601460248201527f4c617374526f756e64206e6f7420636c6f736564000000000000000000000000604482015260640160405180910390fd5b600e805460010190819055600090815260d860205243906040902060020155611728610b52565b600f55565b600f5490565b600f5481565b60006074826064811061174857fe5b0154600f540392915050565b60075481565b600080546001600160a01b0316331461177257600080fd5b6000600c5461177f610f23565b6000600c55600b80549290910391829003905590503381156108fc0282604051600060405180830381858888f19350505050158015611640573d6000803e3d6000fd5b60095481565b6000806117d485611739565b90508381101580156117e8575082600a5410155b156117f65783915050611803565b6117ff85611739565b9150505b9392505050565b60008060008060008060008061181e6126a8565b61186e5760405162461bcd60e51b815260206004820152601860248201527f4e6f742076616c696420506c617965722042616c616e63650000000000000000604482015260640160405180910390fd5b33600090815260d9602052604090205433600090815260d9602052604090206001015433600090815260d9602052604090206002015433600090815260d9602052604090206003015433600090815260d9602052604090206004015433600090815260d9602052604090206005015433600090815260d9602052604090206006015433600090815260d9602052604090206008016001600e54038154811061191257fe5b9060005260206000200154969f959e50939c50919a509850965094509092509050565b6001600160a01b038116600090815260d96020526060808460408420600901868154811061195f57fe5b9060005260206000206001600160a01b038716600090815260d96020529101906119f39060409020600a01888154811061199557fe5b906000526020600020018054806020026020016040519081016040528092919081815260200182805480156119e957602002820191906000526020600020905b8154815260200190600101908083116119d5575b50505050506127e4565b81805480602002602001604051908101604052809291908181526020018280548015611a3e57602002820191906000526020600020905b815481526020019060010190808311611a2a575b505050505091509250925092509250925092565b611a5b81612516565b3414611aad5760405162461bcd60e51b815260206004820152601e60248201527f6d73672e76616c756520213d20746f7055705f63686970202a20316531360000604482015260640160405180910390fd5b611ab681612516565b3414611ac157600080fd5b600b80543490810190915533600090815260d96020526040902060010180549091019055611aee336125c7565b50565b600060748260648110611b0057fe5b015492915050565b606060005b8251811015611b5157611b32838281518110611b2557fe5b6020026020010151612516565b838281518110611b3e57fe5b6020908102919091010152600101611b0d565b5090919050565b60008151835114611baf5760405162461bcd60e51b815260206004820152600f60248201527f204552524f522062657420617261790000000000000000000000000000000000604482015260640160405180910390fd5b6000805b8451811015611ccf57600654858281518110611bcb57fe5b602002602001015110158015611bf65750600754858281518110611beb57fe5b602002602001015111155b611c465760405162461bcd60e51b815260206004820152601760248201527f426574206e756d626572206f7574206f662072616e6765000000000000000000604482015260640160405180910390fd5b600954848281518110611c5557fe5b60200260200101511015611caf5760405162461bcd60e51b815260206004820152601f60248201527f42657420616d6f756e74206c657373207468616e206d696e20616d6f756e7400604482015260640160405180910390fd5b838181518110611cbb57fe5b602002602001015190910190600101611bb3565b5033600090815260d96020526040902054811115611d1e5760405162461bcd60e51b815260040180806020018281038252603d8152602001806139f6603d913960400191505060405180910390fd5b60019150505b92915050565b611d338161282d565b60005b8251811015611e265733600090815260d960205260409020600901600e5481548110611d5e57fe5b90600052602060002001838281518110611d7457fe5b6020026020010151815460018101808455600093845291926020902001919091555033600090815260d960205260409020600a01600e5481548110611db557fe5b90600052602060002001828281518110611dcb57fe5b60200260200101518154600181018084556000938452919260209020019190915550611e1e33848381518110611dfd57fe5b6020026020010151848481518110611e1157fe5b6020026020010151612878565b600101611d36565b505050565b6002546000906001600160a01b03161580611e585750600254611e56906001600160a01b03166129c6565b155b15611e6957611e6760006129ca565b505b6002546001600160a01b03166338cc48316040518163ffffffff1660e01b8152600401602060405180830381600087803b158015611ea657600080fd5b505af1158015611eba573d6000803e3d6000fd5b505050506040513d6020811015611ed057600080fd5b8101908080516001546001600160a01b039081169116149250611f81915050576002546001600160a01b03166338cc48316040518163ffffffff1660e01b8152600401602060405180830381600087803b158015611f2d57600080fd5b505af1158015611f41573d6000803e3d6000fd5b505050506040513d6020811015611f5757600080fd5b810190808051600180546001600160a01b0319166001600160a01b03929092169190911790555050505b6001546001600160a01b031663c281d19e6040518163ffffffff1660e01b815260040160206040518083038186803b158015611fbc57600080fd5b505afa158015611fd0573d6000803e3d6000fd5b505050506040513d6020811015611fe657600080fd5b810190808051935050505090565b60008083118015612006575060208311155b61200f57600080fd5b600a8402935060606001604051818152601f19601f8301168101602001604052908015612043576020820181803883390190505b5090508360f81b8160008151811061205757fe5b60200101907effffffffffffffffffffffffffffffffffffffffffffffffffffffffffffff1916908160001a90535060606020604051818152601f19601f83011681016020016040529080156120b4576020820181803883390190505b50905060606020604051818152601f19601f83011681016020016040529080156120e5576020820181803883390190505b50905060006120f26129d4565b90506020835242411860014303401860208401526020825280602083015260606020604051818152601f19601f830116810160200160405290801561213e576020820181803883390190505b50905088602082015260606008604051818152601f19601f8301168101602001604052908015612175576020820181803883390190505b5090506121888260186008846000612b65565b50612191613943565b604051806080016040528087815260200188815260200186815260200184815250905060006121f460405160408082019052600681527f72616e646f6d00000000000000000000000000000000000000000000000000006020820152838c612baf565b905060606008604051818152601f19601f8301168101602001604052908015612224576020820181803883390190505b50905060208401517f0100000000000000000000000000000000000000000000000000000000000000810460278301537e01000000000000000000000000000000000000000000000000000000000000810460268301537d010000000000000000000000000000000000000000000000000000000000810460258301537c0100000000000000000000000000000000000000000000000000000000810460248301537b01000000000000000000000000000000000000000000000000000000810460238301537a01000000000000000000000000000000000000000000000000000081046022830153790100000000000000000000000000000000000000000000000000810460218301537801000000000000000000000000000000000000000000000000810460208301535061250682826020860151600287516040518082805190602001908083835b6020831061238e5780518252601f19909201916020918201910161236f565b6001836020036101000a038019825116818451168082178552505050505050905001915050602060405180830381855afa1580156123d0573d6000803e3d6000fd5b5050506040513d60208110156123e557600080fd5b8101908080519250505060408801516040516020018085805190602001908083835b602083106124265780518252601f199092019160209182019101612407565b6001836020036101000a038019825116818451161790925250505091909101905084805190602001908083835b602083106124725780518252601f199092019160209182019101612453565b6001836020036101000a038019825116818451161790925250505091909101848152602001905082805190602001908083835b602083106124c45780518252601f1990920191602091820191016124a5565b6001836020036101000a038019825116818451161790925250505091909101955060409450505050505160208183030381529060405280519060200120612dbe565b509b9a5050505050505050505050565b6008540290565b6001600160a01b038216600090815260d96020526040902060050180546001019055801561258f576001600160a01b038216600090815260d9602052819060409020600401805490910190556001600160a01b038216600090815260d960205260019060409020600601805490910190555b6001600160a01b038216600090815260d960205281906040902060080184815481106125b757fe5b9060005260206000200155611e26825b6001600160a01b038116600090815260d96020526040902054600c80549190910390556001600160a01b038116600090815260d960205260409020600401546001600160a01b038216600090815260d960205260409020600301546001600160a01b038316600090815260d960205260409020600201546001600160a01b038416600090815260d9602052604090206001015403030160d96000836001600160a01b03166001600160a01b03168152602001908152602001600020556001600160a01b038116600090815260d96020526040902054600c8054909101905550565b33600090815260d9602052604081206004015433600090815260d9602052604090206003015433600090815260d9602052604090206002015433600090815260d9602052604090206001015403030160d96000336001600160a01b03166001600160a01b0316815260200190815260200160002054141561272b57506001610b6b565b33600090815260d9602052604090206004015433600090815260d9602052604090206003015433600090815260d9602052604090206002015433600090815260d9602052604090206001015403030160d96000336001600160a01b03166001600160a01b0316815260200190815260200160002054146127dc5760405162461bcd60e51b8152600401808060200182810382526033815260200180613a876033913960400191505060405180910390fd5b506000610b6b565b606060005b8251811015611b515761280e83828151811061280157fe5b6020026020010151612dd3565b83828151811061281a57fe5b60209081029190910101526001016127e9565b60005b815181101561286e5781818151811061284557fe5b602002602001015133600090815260d96020526040902060030180549091019055600101612830565b50611aee336125c7565b60006074836064811061288757fe5b0154600f540390506010836064811061289c57fe5b0180546001810180835560009283528692909190602090200180546001600160a01b0319166001600160a01b0393909316929092179091555081607484606481106128e357fe5b01805490910190557f72c6694e8258da9df05f72188f564478e8a53afd79cc3af03fad0dfb96a473dd83604051602081019190915260408082526016818301527f41646465642062657420666f72206e756d6265723a200000000000000000000060608301526080909101905180910390a17f72c6694e8258da9df05f72188f564478e8a53afd79cc3af03fad0dfb96a473dd82604051602081019190915260408082526012818301527f41646465642062657420616d6f756e743a20000000000000000000000000000060608301526080909101905180910390a15b50505050565b3b90565b6000611d24612de0565b6002546000906001600160a01b03161580612a0157506002546129ff906001600160a01b03166129c6565b155b15612a1257612a1060006129ca565b505b6002546001600160a01b03166338cc48316040518163ffffffff1660e01b8152600401602060405180830381600087803b158015612a4f57600080fd5b505af1158015612a63573d6000803e3d6000fd5b505050506040513d6020811015612a7957600080fd5b8101908080516001546001600160a01b039081169116149250612b2a915050576002546001600160a01b03166338cc48316040518163ffffffff1660e01b8152600401602060405180830381600087803b158015612ad657600080fd5b505af1158015612aea573d6000803e3d6000fd5b505050506040513d6020811015612b0057600080fd5b810190808051600180546001600160a01b0319166001600160a01b03929092169190911790555050505b6001546001600160a01b031663abaa5f3e6040518163ffffffff1660e01b815260040160206040518083038186803b158015611fbc57600080fd5b60608382018084511015612b7857600080fd5b60208087019084015b868860200101821015612ba257818901518682015260209182019101612b81565b5093979650505050505050565b6002546000906001600160a01b03161580612bdc5750600254612bda906001600160a01b03166129c6565b155b15612bed57612beb60006129ca565b505b6002546001600160a01b03166338cc48316040518163ffffffff1660e01b8152600401602060405180830381600087803b158015612c2a57600080fd5b505af1158015612c3e573d6000803e3d6000fd5b505050506040513d6020811015612c5457600080fd5b8101908080516001546001600160a01b039081169116149250612d05915050576002546001600160a01b03166338cc48316040518163ffffffff1660e01b8152600401602060405180830381600087803b158015612cb157600080fd5b505af1158015612cc5573d6000803e3d6000fd5b505050506040513d6020811015612cdb57600080fd5b810190808051600180546001600160a01b0319166001600160a01b03929092169190911790555050505b60606004604051908082528060200260200182016040528015612d3c57816020015b6060815260200190600190039081612d275790505b509050835181600081518110612d4e57fe5b6020908102919091010152836001602002015181600181518110612d6e57fe5b6020908102919091010152604084015181600281518110612d8b57fe5b6020908102919091010152606084015181600381518110612da857fe5b60200260200101819052506117ff85828561318b565b60008281526004602052819060409020555050565b6000600854828161165657fe5b600080612e00731d3b2638a7cc9f2cb3d298a3da7a90b67e5506ed6129c6565b1115612e7057600280546001600160a01b031916731d3b2638a7cc9f2cb3d298a3da7a90b67e5506ed179055612e6860405160408082019052600b81527f6574685f6d61696e6e6574000000000000000000000000000000000000000000602082015261355a565b506001610b6b565b6000612e8f73c03a2615d5efaf5f49f60b7bb6583eaec212fdf16129c6565b1115612ef757600280546001600160a01b03191673c03a2615d5efaf5f49f60b7bb6583eaec212fdf1179055612e6860405160408082019052600c81527f6574685f726f707374656e330000000000000000000000000000000000000000602082015261355a565b6000612f1673b7a07bcf2ba2f2703b24c0691b5278999c59ac7e6129c6565b1115612f7e57600280546001600160a01b03191673b7a07bcf2ba2f2703b24c0691b5278999c59ac7e179055612e6860405160408082019052600981527f6574685f6b6f76616e0000000000000000000000000000000000000000000000602082015261355a565b6000612f9d73146500cfd35b22e4a392fe0adc06de1a1368ed486129c6565b111561300557600280546001600160a01b03191673146500cfd35b22e4a392fe0adc06de1a1368ed48179055612e6860405160408082019052600b81527f6574685f72696e6b656279000000000000000000000000000000000000000000602082015261355a565b600061302473a2998efd205fb9d4b4963afb70778d6354ad3a416129c6565b111561308c57600280546001600160a01b03191673a2998efd205fb9d4b4963afb70778d6354ad3a41179055612e6860405160408082019052600a81527f6574685f676f65726c6900000000000000000000000000000000000000000000602082015261355a565b60006130ab736f485c8bf6fc43ea212e93bbf8ce046c7f1cb4756129c6565b11156130df5750600280546001600160a01b031916736f485c8bf6fc43ea212e93bbf8ce046c7f1cb4751790556001610b6b565b60006130fe7320e12a1f859b3feae5fb2a0a32c18f5a65555bbf6129c6565b11156131325750600280546001600160a01b0319167320e12a1f859b3feae5fb2a0a32c18f5a65555bbf1790556001610b6b565b60006131517351efaf4c8b3c9afbd5ab9f4bbc82784ab6ef8faa6129c6565b11156131855750600280546001600160a01b0319167351efaf4c8b3c9afbd5ab9f4bbc82784ab6ef8faa1790556001610b6b565b50600090565b6002546000906001600160a01b031615806131b857506002546131b6906001600160a01b03166129c6565b155b156131c9576131c760006129ca565b505b6002546001600160a01b03166338cc48316040518163ffffffff1660e01b8152600401602060405180830381600087803b15801561320657600080fd5b505af115801561321a573d6000803e3d6000fd5b505050506040513d602081101561323057600080fd5b8101908080516001546001600160a01b0390811691161492506132e1915050576002546001600160a01b03166338cc48316040518163ffffffff1660e01b8152600401602060405180830381600087803b15801561328d57600080fd5b505af11580156132a1573d6000803e3d6000fd5b505050506040513d60208110156132b757600080fd5b810190808051600180546001600160a01b0319166001600160a01b03929092169190911790555050505b6001546000906001600160a01b0316632ef3accc86856040518363ffffffff1660e01b81526004018080602001838152602001828103825284818151815260200191508051906020019080838360005b83811015613349578082015183820152602001613331565b50505050905090810190601f1680156133765780820380516001836020036101000a031916815260200191505b509350505050602060405180830381600087803b15801561339657600080fd5b505af11580156133aa573d6000803e3d6000fd5b505050506040513d60208110156133c057600080fd5b8101908080519350505050670de0b6b3a76400003a8402018111156133e9575060009050611803565b60606133f48561356d565b6001549091506001600160a01b031663c55c1cb68360008985896040518663ffffffff1660e01b8152600401808581526020018060200180602001848152602001838103835286818151815260200191508051906020019080838360005b8381101561346a578082015183820152602001613452565b50505050905090810190601f1680156134975780820380516001836020036101000a031916815260200191505b50838103825285818151815260200191508051906020019080838360005b838110156134cd5780820151838201526020016134b5565b50505050905090810190601f1680156134fa5780820380516001836020036101000a031916815260200191505b5096505050505050506020604051808303818588803b15801561351c57600080fd5b505af1158015613530573d6000803e3d6000fd5b50505050506040513d602081101561354757600080fd5b8101908080519998505050505050505050565b6003818051610ba59291602001906138c5565b60606135776135df565b61357f613969565b61358b816104006135eb565b61359481613619565b60005b83518110156135cc576135c48482815181106135af57fe5b6020026020010151839063ffffffff61362416565b600101613597565b506135d681613641565b80519392505050565b60405180590338823950565b8060208106156135fe5760208106602003015b60208301819052604051928390526000835290910160405250565b611aee816004613648565b6136318260028351613663565b611e26828263ffffffff61376e16565b611aee8160075b610ba582601f611fe0600585901b161763ffffffff61380716565b60178111613689576136848360e0600585901b16831763ffffffff61380716565b611e26565b60ff81116136c4576136ac836018611fe0600586901b161763ffffffff61380716565b6136be8382600163ffffffff61384016565b50611e26565b61ffff81116136fa576136e8836019611fe0600586901b161763ffffffff61380716565b6136be8382600263ffffffff61384016565b63ffffffff81116137325761372083601a611fe0600586901b161763ffffffff61380716565b6136be8382600463ffffffff61384016565b67ffffffffffffffff8111611e265761375c83601b611fe0600586901b161763ffffffff61380716565b6129c08382600863ffffffff61384016565b613776613969565b826020015183515183510111156137a2576137a28361379a85602001518551613894565b6002026138ab565b60008060008451905085518051602081830101945086510190526020850191505b602081106137e357815183526020928301929190910190601f19016137c3565b60001960208290036101000a01801983511681855116179093525093949350505050565b81602001518251516001011115613829576138298283602001516002026138ab565b815180516020818301018381535060010190525050565b613848613969565b83602001518451518301111561386a5761386a8461379a866020015185613894565b60001961010083900a01845180518481830101868419825116179052909301909252509192915050565b6000818311156138a5575081611d24565b50919050565b6060825190506138bb83836135eb565b6129c0838261376e565b828054600181600116156101000203166002900490600052602060002090601f016020900481019282601f1061390657805160ff1916838001178555613933565b82800160010185558215613933579182015b82811115613933578251825591602001919060010190613918565b5061393f929150613981565b5090565b604051608081016040526004815b60608152602001906001900390816139515790505090565b60405160408082019052606081526000602082015290565b610b6b91905b8082111561393f576000815560010161398756fe4e4f20524553554c54205945542c2043414e204e4f5420504159204f555420464f5220524f554e443a50726f7661626c65207175657279207761732073656e742c2077616974696e6720666f722074686520616e737765722e2e42455420414d4f554e542048494748455220504c4159455220544f54414c2042414c414e43452c20504c454153452041444a555354204f5552204245542e2e204e6f206d6f726520626574732c20706c65617365207761697420756e74696c206e65787420726f756e642e2e2e5041594f5554204455504c4943415445205245515545535420464f5220524f554e44203a76616c6964506c6179657242616c616e63653a20506c617965722062616c616e636520636865636b206e6f74206d6174636821a265627a7a7231582006ae2fdabd7fdfd340d10ff6fb29989fddcaa41e472ac1fdbbdbdb6ff0a2099e64736f6c634300050c0032",
  "source": "//SPDX-License-Identifier: UNLICENSED\n\n// GAME RULES:\n// Bet numbers a ranging from 0-99\n// Players can bet for \"A Number\" or for \"NOT A Number\" (Play as Player or Banker)\n// Players and Bankers bets are matched on principle of Market price Match. Price for each number can range from 1x to 99x.\n// Every day 1 bet round;\n// All bets will be closed 15 minutes prior result request (18h15);\n// All not matched orders will be deleted.\n// Every day at 18h30 contract will send request for random number to Oracle engine.\n// After result arrived, All players/bankers will receive Event notification.\n// Only winner pays: Contract Owner take 1%(?) of winning amount.\n// Newbets allowed after 19h:00\n\nimport \"./Ownable.sol\";\nimport \"./provableAPI_0.5.sol\";\npragma solidity 0.5.12;\n\ncontract CoinFlip100 is Ownable, usingProvable{\n\n    uint public BET_RANGE_MIN = 0;\n    uint public BET_RANGE_MAX = 99;\n\n    uint CHIP_TO_WEI = 10**15; //1 chips = 1 eth - Can be parametric\n    uint public BET_MIN_AMOUNT_WEI = CHIP_TO_WEI ; //All Amount are in ETH\n    uint BET_WIN_RATE = 7000; //Win rate = 70x with 2 decimals\n\n    uint public _contractBalance_;\n    uint public _totalAllPlayerBalance_; // Total balance deposited and not used by players (not locked in bets) can be withdrawn by players any time\n    uint public _lockedInBets_;  // Total amount locked in bets (can not be widthdraw by any one)\n    uint public _currentRoundNo_;  // Unique sequence Number of\n    uint public _coverAmount100_;  // coverable amount for all 100 numberclosedAtBlock\n\n    //uint[] public explicitCoverableAmount; // Explicit cover by banker for A number\n    address[][100] public _playerAddreses_;\n    uint[100] public _amountsMatched_;  //wei amount bet for each number\n\n    //uint[100] public _bankerAmountsMatched_;  //wei amount bet for each number\n    //uint[100] public _bankerAmountsWaiting_;  //wei amount bet for each number\n\n    struct BetTable {\n        uint result         ;  // each round will save result to this var\n        uint closedAtBlock  ;  // block number when bet closed and random number request sent\n        uint openedAtBlock  ;\n        bool paidOut        ;\n        bytes32 queryId     ;\n        bytes proof         ;\n        // Later: function to transfer waiting Amount to next round\n    }\n\n    //list of all activities of a player (update after finished solving each bet)\n\n    struct PlayerHistory {\n        uint totalBalance;\n        uint totalTopUp;\n        uint totalWithdrawn;\n        uint totalSpentAmount;\n        uint totalwinAmount;\n        uint totalGames;\n        uint totalWins;\n        uint playableAmount;\n        uint [] winAmount;\n        uint[][] numbersMatched;\n        uint[][] amountsMatched;\n        // later should add storage for all historic bets\n    }\n\n    // Storing all results from all rounds under betTable[_currentRoundNo_]... //should limit size to avoid overflow?\n    mapping (uint => BetTable) public betTable;\n\n    //playerList store information\n    // Should limit storage size somehow to avoid overflow in future?\n    mapping (address => PlayerHistory) public playerHistory;\n\n    //newBetCreated emit when created and not finished\n    event newBetCreated(uint[] betNumbers, uint[] betAmounts_chip, address playerAddress);\n\n    //betFinished emit when finished calculation PL for all players\n    event betFinished(uint roundNo, uint result);\n\n    //common notice\n    event notice(string noticeString, uint noticeValue);\n    event error (string noticeString, uint noticeValue);\n\n    //Oracle >>>>>>>>>>>>>>>>>>>>\n    uint256 constant NUM_RANDOM_BYTES_REQUESTED = 1; //Should change later for better randomnes\n\n    event generatedRandomNumber(uint roundNo, uint256 randomNumber , bytes32 Id,   bytes proof);\n    event LogNewProvableQuery(string notice);\n    event proofFailed(string description);\n\n    constructor() public payable {\n        provable_setProof(proofType_Ledger);\n        _contractBalance_ = msg.value ;\n        initNewRound();\n    }\n\n    function __callback(bytes32 _queryId, string memory _result, bytes memory _proof) public {\n\n        require(msg.sender == provable_cbAddress());\n        //if (\n        //    provable_randomDS_proofVerify__returnCode(\n        //        _queryId,\n        //        _result,\n        //        _proof\n        //    ) != 0\n        //) {\n        //    emit proofFailed(\"The proof verification failed in the callback\");\n        //} else {\n\n            uint256 randomNumber = uint256(keccak256(abi.encodePacked(_result)))%100;\n            // Temporary redefine to 99 for testing purpose\n            randomNumber = 99;\n\n            betTable[_currentRoundNo_].result = randomNumber;\n            betTable[_currentRoundNo_].closedAtBlock = block.number; //Allways check time to know wherether bet is closed!\n            betTable[_currentRoundNo_].queryId = _queryId;\n            betTable[_currentRoundNo_].proof = _proof;\n            //_currentRoundNo_ should be advanced before next round by PayOutCheck function\n\n            emit generatedRandomNumber(_currentRoundNo_-1, randomNumber,_queryId, _proof);\n        //}\n    }\n\n    //Oracle <<<<<<<<<<<<<<<<<<<<<\n\n\n    //Check Account Balance validity\n    function validPlayerBalance() private view returns(bool) {\n          if (playerHistory[msg.sender].totalBalance ==\n            playerHistory[msg.sender].totalTopUp - playerHistory[msg.sender].totalWithdrawn -\n            playerHistory[msg.sender].totalSpentAmount + playerHistory[msg.sender].totalwinAmount) {\n                return true;\n            } else {\n                require(playerHistory[msg.sender].totalBalance ==\n                  playerHistory[msg.sender].totalTopUp - playerHistory[msg.sender].totalWithdrawn -\n                  playerHistory[msg.sender].totalSpentAmount + playerHistory[msg.sender].totalwinAmount,\n                  \"validPlayerBalance: Player balance check not match!\");\n                return false;\n            }\n    }\n\n    function wei2Chip(uint _wei) private view returns(uint) {\n        return _wei / CHIP_TO_WEI;\n    }\n\n    function chip2Wei(uint chip) private view returns(uint) {\n        return chip * CHIP_TO_WEI;\n    }\n\n    function chip2Wei_ar(uint[] memory chip_ar) private view returns(uint[] memory) {\n        for (uint x=0; x<chip_ar.length; x++) {\n            chip_ar[x] = chip2Wei(chip_ar[x]);\n        }\n        return chip_ar;\n    }\n\n    function wei2Chip_ar(uint[] memory wei_ar) private view returns(uint[] memory) {\n        for (uint x=0; x<wei_ar.length; x++) {\n           wei_ar[x] = wei2Chip(wei_ar[x]);\n        }\n        return wei_ar;\n    }\n\n    function coverFund() public view returns(uint) {\n        return getCoverableAmount(realContractBalance() - _totalAllPlayerBalance_);\n    }\n\n    //Owner balance topUp\n    function ownerFundUp_chip(uint topUp_chip) public onlyOwner payable {\n\n        require(msg.value == chip2Wei(topUp_chip), \"msg.value != topUp_chip * 1e16\");\n        if (msg.value != chip2Wei(topUp_chip)) revert();\n        _contractBalance_ += msg.value ;\n        _coverAmount100_ = coverFund();\n    }\n\n    //Player account balance topUp\n    function playerTopUp_chip(uint topUp_chip) public payable {\n        //1eth = 1000000000000000000 wei\n        require(msg.value == chip2Wei(topUp_chip), \"msg.value != topUp_chip * 1e16\");\n        if (msg.value != chip2Wei(topUp_chip)) revert();\n\n        _contractBalance_ += msg.value ;\n        playerHistory[msg.sender].totalTopUp += msg.value;\n        updatePlayerBalance(msg.sender);\n    }\n\n    // Calculate values each time player status changed\n    // All values of playerHistory in wei\n    function updatePlayerBalance(address playerAddress) private {\n        _totalAllPlayerBalance_ -= playerHistory[playerAddress].totalBalance;\n        playerHistory[playerAddress].totalBalance =\n        playerHistory[playerAddress].totalTopUp -\n        playerHistory[playerAddress].totalWithdrawn -\n        playerHistory[playerAddress].totalSpentAmount +\n        playerHistory[playerAddress].totalwinAmount;\n        _totalAllPlayerBalance_ += playerHistory[playerAddress].totalBalance;\n        }\n\n\n    function mySpentBalance(uint[] memory spentAmounts_wei) private {\n        for (uint x=0; x<spentAmounts_wei.length; x++) {\n            playerHistory[msg.sender].totalSpentAmount += spentAmounts_wei[x];\n        }\n        updatePlayerBalance(msg.sender);\n    }\n\n    function myWinBalance(uint roundNo, address playerAddress, uint winAmount_wei) private  {\n        playerHistory[playerAddress].totalGames++;\n        if (winAmount_wei>0) {\n            playerHistory[playerAddress].totalwinAmount += winAmount_wei;\n            playerHistory[playerAddress].totalWins += 1;\n        }\n        playerHistory[playerAddress].winAmount[roundNo] = winAmount_wei;\n        updatePlayerBalance(playerAddress);\n    }\n\n    function getPlayerHistory() public view  returns(uint,uint,uint,uint,uint,uint,uint,uint) {\n        require(validPlayerBalance(), \"Not valid Player Balance\");\n        return  (   playerHistory[msg.sender].totalBalance,\n                    playerHistory[msg.sender].totalTopUp,\n                    playerHistory[msg.sender].totalWithdrawn,\n                    playerHistory[msg.sender].totalSpentAmount,\n                    playerHistory[msg.sender].totalwinAmount,\n                    playerHistory[msg.sender].totalGames,\n                    playerHistory[msg.sender].totalWins,\n                    playerHistory[msg.sender].winAmount[_currentRoundNo_-1] ); // add more returns here\n    }\n\n    function readVar_contractBalance_() public view returns(uint) {\n      return _contractBalance_;\n    }\n\n    function readVar_coverAmount100_() public view returns(uint) {\n      return _coverAmount100_;\n    }\n\n    function readVar_amountsMatched_(uint number) public view returns(uint) {\n      return _amountsMatched_[number];\n    }\n\n    function realContractBalance() public view returns(uint) {\n        return address(this).balance;\n    }\n\n    //Check how much amount left for covering a number\n    function coverAmountLeft(uint number) public view returns(uint) {\n        return _coverAmount100_ - _amountsMatched_[number];\n    }\n\n    //CHeck the amount/price can be matched for a number? return matching amount\n    function getPlayerBetableAmount(uint number, uint amount_wei, uint wantedWinRate) public view returns(uint) {\n        uint coverLeft = coverAmountLeft(number);\n        if ((coverLeft >= amount_wei) && (BET_WIN_RATE >= wantedWinRate)) //Later : add parametric Winrate\n            {  return  (amount_wei) ; }\n            else\n            { return coverAmountLeft(number);}\n    }\n\n    function verifyBet(uint[] memory betNumbers, uint[] memory betAmounts_wei) private view returns(bool) {\n        // verify that new bet is valid\n        require (betNumbers.length == betAmounts_wei.length,\" ERROR bet aray\") ;\n        uint sumbetAmounts = 0;\n\n        for (uint x = 0; x<betNumbers.length; x++) {\n            require(((betNumbers[x] >=  BET_RANGE_MIN) && (betNumbers[x] <=  BET_RANGE_MAX)), \"Bet number out of range\");\n            require(betAmounts_wei[x] >=  BET_MIN_AMOUNT_WEI, \"Bet amount less than min amount\");\n            sumbetAmounts += betAmounts_wei[x];\n        }\n        require(sumbetAmounts <= playerHistory[msg.sender].totalBalance , \"BET AMOUNT HIGHER PLAYER TOTAL BALANCE, PLEASE ADJUST OUR BET\");\n\n        return true;\n    }\n\n    function updateBetTableMatched(address playerAddress, uint number, uint amount) private {\n        uint basicCoverLeft = _coverAmount100_ - _amountsMatched_[number];\n        if (basicCoverLeft < 0) {\n            emit error(\"EROR cover number: \",number);\n        } else {\n            _playerAddreses_[number].push(playerAddress);\n            if (basicCoverLeft - amount < 0) {\n                //If _coverAmount100_ is not enough, then use only basicCoverLeft:\n                _amountsMatched_[number] += basicCoverLeft;\n                emit notice(\"Added bet for number: \",number);\n                emit notice(\"Added bet amount: \",basicCoverLeft);\n            } else {\n                _amountsMatched_[number] += amount;\n                emit notice(\"Added bet for number: \",number);\n                emit notice(\"Added bet amount: \",amount);\n            }\n        }\n    }\n\n    function updateplayerHistory(uint[] memory newBetNumbers, uint[] memory newbetAmounts_wei) private {\n        //append new bets with current Betlist\n        mySpentBalance(newbetAmounts_wei); //Deduct spent amount from player balance\n\n        for (uint x=0; x<newBetNumbers.length; x++) {\n            playerHistory[msg.sender]\n                .numbersMatched[_currentRoundNo_]\n                    .push(newBetNumbers[x]);\n\n            playerHistory[msg.sender]\n                .amountsMatched[_currentRoundNo_]\n                    .push(newbetAmounts_wei[x]);\n\n            updateBetTableMatched(msg.sender, newBetNumbers[x], newbetAmounts_wei[x]);\n        }\n    }\n\n    function createMyBet(uint[] memory betNumbers, uint[] memory betAmounts_chip) public {\n\n        //money amount received from frontEnd is in Chips;\n        //Should conver all chips to Wei\n        require(betTable[_currentRoundNo_].closedAtBlock == 0, \".. No more bets, please wait until next round...\");\n        uint[] memory betAmounts = chip2Wei_ar(betAmounts_chip);\n        require(verifyBet(betNumbers,betAmounts), \"NOT VALID BET\");\n        updateplayerHistory(betNumbers, betAmounts); //Update Active Betlist for a player\n        emit newBetCreated(betNumbers,betAmounts, msg.sender);\n    }\n\n    function getPlayersBet(uint _roundNo, address playerAddress) public view returns(uint , uint[] memory, uint[] memory)  {\n        //Data sent to front page from contract is in Chips\n        return (    _roundNo,\n                    playerHistory[playerAddress].numbersMatched[_roundNo],\n                    wei2Chip_ar(playerHistory[playerAddress].amountsMatched[_roundNo]) //wei\n                );\n    }\n\n    function getCoverableAmount(uint prize) public view returns(uint) {\n        return (prize/BET_WIN_RATE)*100;\n    }\n\n    function getwinAmountWei(uint winWei) public view returns(uint) {\n        return (winWei*BET_WIN_RATE)/100;\n    }\n\n\n    // This function should be called automatically everyday one time at 18h30;\n    // For now will be called by Owner for testing purpose only;\n    function contractRequestResultNumber() public payable onlyOwner returns(bytes32 waitingId){\n\n        //require (someBetsArePlaced())  //to avoid sending request for nothing\n        require (betTable[_currentRoundNo_].queryId == 0x0000000000000000000000000000000000000000000000000000000000000000,\n                \"REQUEST for NUMBER ALREADY SENT\");\n\n        uint256 QUERY_EXECUTION_DELAY = 0;\n        uint256 GAS_FOR_CALLBACK = 500000;\n        //Calling Oracle for random number // Oracle will call __callback function when number is ready\n        waitingId = provable_newRandomDSQuery(\n            QUERY_EXECUTION_DELAY,\n            NUM_RANDOM_BYTES_REQUESTED,\n            GAS_FOR_CALLBACK\n        );\n\n        emit LogNewProvableQuery(\"Provable query was sent, waiting for the answer..\");\n        betTable[_currentRoundNo_].queryId = waitingId;\n        return waitingId;\n    }\n\n    // After got result, contract should iterate thru all player that followed winning number to payout\n    // This function should be called automatically after result arrived from Oracle;\n    // Due to gas limit problem may cause __callback from Oracle to fails, this function may be call separately\n    // For now will be called by Owner for testing purpose only;\n    // New Round should start only after this function is finished\n\n    function payOutOldAndStartNewRound() public onlyOwner returns(bool) {\n        // Check for Banker PL : later\n        // Check for Player PL\n\n        if (betTable[_currentRoundNo_].closedAtBlock == 0)\n        {\n            emit notice(\"NO RESULT YET, CAN NOT PAY OUT FOR ROUND:\", _currentRoundNo_);\n            return (false);\n        }\n\n        if (betTable[_currentRoundNo_].paidOut == true) {\n            emit notice(\"PAYOUT DUPLICATE REQUEST FOR ROUND :\", _currentRoundNo_);\n            return (false);\n        }\n\n        //iterate thru winner list\n        for (uint x=0; x<_playerAddreses_[ betTable[_currentRoundNo_].result ].length; x++)\n        {\n            address winnerAddress = _playerAddreses_[ betTable[_currentRoundNo_].result ][x];\n            uint winAmount_wei = 0;\n            //Itera thru bet list and count win amount\n            for (uint xx=0; xx<playerHistory[winnerAddress].numbersMatched[_currentRoundNo_].length; xx++)\n            {\n            if (playerHistory[winnerAddress].numbersMatched[_currentRoundNo_][xx]\n                == betTable[_currentRoundNo_].result) {\n                    winAmount_wei += getwinAmountWei(playerHistory[winnerAddress].amountsMatched[_currentRoundNo_][xx]);\n                }\n            }\n            myWinBalance(_currentRoundNo_, winnerAddress, winAmount_wei); //Change player balance record\n        }\n        betTable[_currentRoundNo_].paidOut = true;\n\n        // opening bet for next ROUND\n        initNewRound();\n\n        emit notice(\"BET ROUND IS OPENED at BLOCK No:\", betTable[_currentRoundNo_].openedAtBlock);\n\n        return (true);\n    }\n\n    function blockNumber() public view returns(uint) {\n        return block.number;\n    }\n\n    function initNewRound() public onlyOwner {\n        if (_currentRoundNo_ !=0) {\n            require(betTable[_currentRoundNo_].closedAtBlock != 0, \"LastRound not closed\");\n        }\n        _currentRoundNo_ += 1;\n        betTable[_currentRoundNo_].openedAtBlock = block.number;\n        _coverAmount100_ = coverFund();\n    }\n\n    function ownerWithdrawAll() public onlyOwner returns(uint) {\n       //   Should add emergency Withdrawall\n       //   playerWithdrawAll(); //If owner plays, Withdraw as a player first\n       //   Should allow to withdraw only at certain time when beting closed(?)\n\n       uint toTransfer = realContractBalance() - _totalAllPlayerBalance_ ; // - _lockedInBets_; Should add later..\n\n       //Should cancel all bets before withdrawn\n       //Should return all players ballances before withdrawn\n       _totalAllPlayerBalance_ = 0;\n       _contractBalance_ -= toTransfer;\n\n       msg.sender.transfer(toTransfer);\n       return toTransfer;\n    }\n\n    function playerWithdrawAll() public returns(uint) {\n        //   Should allow to withdraw only at certain time when beting closed(?)\n\n        updatePlayerBalance(msg.sender);\n\n        require(playerHistory[msg.sender].totalBalance > 0, \"Player is out of money\");\n\n        require(validPlayerBalance(), \"Invalid balance check\");\n\n        uint toTransfer = playerHistory[msg.sender].totalBalance;\n\n        playerHistory[msg.sender].totalWithdrawn += toTransfer;\n\n        _contractBalance_ -= toTransfer;\n\n        updatePlayerBalance(msg.sender);\n\n        assert(playerHistory[msg.sender].totalBalance == 0);\n\n        msg.sender.transfer(toTransfer);\n\n        return toTransfer;\n    }\n\n}\n",
  "sourcePath": "/home/gab/storage/git/iot/test/coinFlip4/contracts/coinFlip100.sol",
  "compiler": {
    "name": "solc",
    "version": "0.5.12+commit.7709ece9.Emscripten.clang"
  },
  "schemaVersion": "3.0.23",
  "updatedAt": "2020-07-05T04:01:18.733Z",
  "networkType": "ethereum",
  "devdoc": {
    "methods": {
      "__callback(bytes32,string)": {
        "details": "The following `__callback` functions are just placeholders ideally     meant to be defined in child contract when proofs are used.     The function bodies simply silence compiler warnings."
      }
    }
  },
  "userdoc": {
    "methods": {}
  }
}