{
  "contractName": "Ownable",
  "abi": [
    {
      "inputs": [],
      "payable": true,
      "stateMutability": "payable",
      "type": "constructor"
    },
    {
      "constant": true,
      "inputs": [],
      "name": "owner",
      "outputs": [
        {
          "internalType": "address",
          "name": "",
          "type": "address"
        }
      ],
      "payable": false,
      "stateMutability": "view",
      "type": "function"
    }
  ],
  "bytecode": "0x6080604052600080546001600160a01b0319163317905560ad806100246000396000f3fe6080604052348015600f57600080fd5b506004361060285760003560e01c80638da5cb5b14602d575b600080fd5b6033605c565b6040805173ffffffffffffffffffffffffffffffffffffffff9092168252519081900360200190f35b60005473ffffffffffffffffffffffffffffffffffffffff168156fea265627a7a7231582024c479426e19c460fe398a6fe8723c9128938a173b9513aa9d548579dfca472964736f6c634300050c0032",
  "source": "//SPDX-License-Identifier: UNLICENSED\npragma solidity >=0.4.21 <0.7.0;\n//pragma solidity 0.6.10;\n\ncontract Ownable{\n  address public owner;\n\n  modifier onlyOwner(){\n      require(msg.sender == owner);\n      _; //Continue execution\n  }\n\n  constructor() public payable {\n      owner = msg.sender;\n  }\n}\n",
  "sourcePath": "/home/gab/storage/git/iot/test/coinFlip4/contracts/Ownable.sol",
  "compiler": {
    "name": "solc",
    "version": "0.5.12+commit.7709ece9.Emscripten.clang"
  },
  "schemaVersion": "3.0.23",
  "updatedAt": "2020-07-05T03:50:26.946Z",
  "devdoc": {
    "methods": {}
  },
  "userdoc": {
    "methods": {}
  }
}