{
  "contractName": "CoinFlip",
  "abi": [
    {
      "anonymous": false,
      "inputs": [
        {
          "indexed": false,
          "internalType": "uint256",
          "name": "betAmount",
          "type": "uint256"
        },
        {
          "indexed": false,
          "internalType": "uint256",
          "name": "winAmount",
          "type": "uint256"
        },
        {
          "indexed": false,
          "internalType": "uint256",
          "name": "result",
          "type": "uint256"
        }
      ],
      "name": "betFinished",
      "type": "event"
    },
    {
      "anonymous": false,
      "inputs": [
        {
          "indexed": false,
          "internalType": "uint256",
          "name": "betChoice",
          "type": "uint256"
        },
        {
          "indexed": false,
          "internalType": "uint256",
          "name": "betAmount",
          "type": "uint256"
        },
        {
          "indexed": false,
          "internalType": "address",
          "name": "playerAddress",
          "type": "address"
        }
      ],
      "name": "newBetCreated",
      "type": "event"
    },
    {
      "inputs": [],
      "name": "_contractBalance_",
      "outputs": [
        {
          "internalType": "uint256",
          "name": "",
          "type": "uint256"
        }
      ],
      "stateMutability": "view",
      "type": "function",
      "constant": true
    },
    {
      "inputs": [],
      "name": "owner",
      "outputs": [
        {
          "internalType": "address",
          "name": "",
          "type": "address"
        }
      ],
      "stateMutability": "view",
      "type": "function",
      "constant": true
    },
    {
      "inputs": [
        {
          "internalType": "address",
          "name": "",
          "type": "address"
        }
      ],
      "name": "playerHistory",
      "outputs": [
        {
          "internalType": "uint256",
          "name": "totalBalance",
          "type": "uint256"
        },
        {
          "internalType": "uint256",
          "name": "totalTopUp",
          "type": "uint256"
        },
        {
          "internalType": "uint256",
          "name": "totalWithdrawn",
          "type": "uint256"
        },
        {
          "internalType": "uint256",
          "name": "totalSpentAmount",
          "type": "uint256"
        },
        {
          "internalType": "uint256",
          "name": "totalWinAmount",
          "type": "uint256"
        },
        {
          "internalType": "uint256",
          "name": "totalGames",
          "type": "uint256"
        },
        {
          "internalType": "uint256",
          "name": "totalWins",
          "type": "uint256"
        },
        {
          "internalType": "uint256",
          "name": "lastWinAmount",
          "type": "uint256"
        }
      ],
      "stateMutability": "view",
      "type": "function",
      "constant": true
    },
    {
      "inputs": [
        {
          "internalType": "uint256",
          "name": "topUp_eth",
          "type": "uint256"
        }
      ],
      "name": "ownerFundUp_eth",
      "outputs": [],
      "stateMutability": "payable",
      "type": "function",
      "payable": true
    },
    {
      "inputs": [
        {
          "internalType": "uint256",
          "name": "topUp_eth",
          "type": "uint256"
        }
      ],
      "name": "playerTopUp_eth",
      "outputs": [],
      "stateMutability": "payable",
      "type": "function",
      "payable": true
    },
    {
      "inputs": [],
      "name": "getPlayerHistory",
      "outputs": [
        {
          "internalType": "uint256",
          "name": "",
          "type": "uint256"
        },
        {
          "internalType": "uint256",
          "name": "",
          "type": "uint256"
        },
        {
          "internalType": "uint256",
          "name": "",
          "type": "uint256"
        },
        {
          "internalType": "uint256",
          "name": "",
          "type": "uint256"
        },
        {
          "internalType": "uint256",
          "name": "",
          "type": "uint256"
        },
        {
          "internalType": "uint256",
          "name": "",
          "type": "uint256"
        },
        {
          "internalType": "uint256",
          "name": "",
          "type": "uint256"
        },
        {
          "internalType": "uint256",
          "name": "",
          "type": "uint256"
        }
      ],
      "stateMutability": "view",
      "type": "function",
      "constant": true
    },
    {
      "inputs": [],
      "name": "getContractBalance",
      "outputs": [
        {
          "internalType": "uint256",
          "name": "",
          "type": "uint256"
        }
      ],
      "stateMutability": "view",
      "type": "function",
      "constant": true
    },
    {
      "inputs": [],
      "name": "playableFund",
      "outputs": [
        {
          "internalType": "uint256",
          "name": "",
          "type": "uint256"
        }
      ],
      "stateMutability": "view",
      "type": "function",
      "constant": true
    },
    {
      "inputs": [
        {
          "internalType": "uint256",
          "name": "betChoice",
          "type": "uint256"
        },
        {
          "internalType": "uint256",
          "name": "betAmount_eth",
          "type": "uint256"
        }
      ],
      "name": "createMyBet",
      "outputs": [],
      "stateMutability": "nonpayable",
      "type": "function"
    },
    {
      "inputs": [],
      "name": "getMyBet",
      "outputs": [
        {
          "internalType": "uint256[]",
          "name": "",
          "type": "uint256[]"
        },
        {
          "internalType": "uint256[]",
          "name": "",
          "type": "uint256[]"
        }
      ],
      "stateMutability": "view",
      "type": "function",
      "constant": true
    },
    {
      "inputs": [],
      "name": "playerTossCoin",
      "outputs": [
        {
          "internalType": "uint256",
          "name": "",
          "type": "uint256"
        },
        {
          "internalType": "uint256",
          "name": "",
          "type": "uint256"
        },
        {
          "internalType": "uint256",
          "name": "",
          "type": "uint256"
        }
      ],
      "stateMutability": "nonpayable",
      "type": "function"
    },
    {
      "inputs": [],
      "name": "withdrawAll",
      "outputs": [
        {
          "internalType": "uint256",
          "name": "",
          "type": "uint256"
        }
      ],
      "stateMutability": "nonpayable",
      "type": "function"
    },
    {
      "inputs": [],
      "name": "playerWithdrawAll",
      "outputs": [
        {
          "internalType": "uint256",
          "name": "",
          "type": "uint256"
        }
      ],
      "stateMutability": "nonpayable",
      "type": "function"
    }
  ],
  "bytecode": "0x60806040526103e860045534801561001657600080fd5b50336000806101000a81548173ffffffffffffffffffffffffffffffffffffffff021916908373ffffffffffffffffffffffffffffffffffffffff160217905550612347806100666000396000f3fe6080604052600436106100c25760003560e01c80638085688c1161007f57806394ebe6081161005957806394ebe6081461030c578063b24b05f814610337578063e3c12872146103eb578063fdc8e53c14610447576100c2565b80638085688c14610251578063853828b61461028a5780638da5cb5b146102b5576100c2565b80630a39a58e146100c75780630da27790146100f2578063616446f5146101885780636f9fb98a146101b35780637417df70146101de57806377d7d10b1461020c575b600080fd5b3480156100d357600080fd5b506100dc610475565b6040518082815260200191505060405180910390f35b3480156100fe57600080fd5b506101416004803603602081101561011557600080fd5b81019080803573ffffffffffffffffffffffffffffffffffffffff16906020019092919050505061047b565b604051808981526020018881526020018781526020018681526020018581526020018481526020018381526020018281526020019850505050505050505060405180910390f35b34801561019457600080fd5b5061019d6104c3565b6040518082815260200191505060405180910390f35b3480156101bf57600080fd5b506101c8610511565b6040518082815260200191505060405180910390f35b61020a600480360360208110156101f457600080fd5b810190808035906020019092919050505061051b565b005b34801561021857600080fd5b5061024f6004803603604081101561022f57600080fd5b810190808035906020019092919080359060200190929190505050610618565b005b34801561025d57600080fd5b50610266610e24565b60405180848152602001838152602001828152602001935050505060405180910390f35b34801561029657600080fd5b5061029f61141e565b6040518082815260200191505060405180910390f35b3480156102c157600080fd5b506102ca6114db565b604051808273ffffffffffffffffffffffffffffffffffffffff1673ffffffffffffffffffffffffffffffffffffffff16815260200191505060405180910390f35b34801561031857600080fd5b50610321611500565b6040518082815260200191505060405180910390f35b34801561034357600080fd5b5061034c6117ae565b604051808060200180602001838103835285818151815260200191508051906020019060200280838360005b83811015610393578082015181840152602081019050610378565b50505050905001838103825284818151815260200191508051906020019060200280838360005b838110156103d55780820151818401526020810190506103ba565b5050505090500194505050505060405180910390f35b3480156103f757600080fd5b506104006118e1565b604051808981526020018881526020018781526020018681526020018581526020018481526020018381526020018281526020019850505050505050505060405180910390f35b6104736004803603602081101561045d57600080fd5b8101908080359060200190929190505050611cc7565b005b60015481565b60036020528060005260406000206000915090508060000154908060010154908060020154908060030154908060040154908060050154908060060154908060070154905088565b6000600360003373ffffffffffffffffffffffffffffffffffffffff1673ffffffffffffffffffffffffffffffffffffffff1681526020019081526020016000206000015460015403905090565b6000600154905090565b6000809054906101000a900473ffffffffffffffffffffffffffffffffffffffff1673ffffffffffffffffffffffffffffffffffffffff163373ffffffffffffffffffffffffffffffffffffffff161461057457600080fd5b61057d81611dc3565b34146105f1576040517f08c379a000000000000000000000000000000000000000000000000000000000815260040180806020018281038252601d8152602001807f6d73672e76616c756520213d20746f7055705f657468202a203165313600000081525060200191505060405180910390fd5b6105fa81611dc3565b341461060557600080fd5b3460016000828254019250508190555050565b600360003373ffffffffffffffffffffffffffffffffffffffff1673ffffffffffffffffffffffffffffffffffffffff16815260200190815260200160002060040154600360003373ffffffffffffffffffffffffffffffffffffffff1673ffffffffffffffffffffffffffffffffffffffff16815260200190815260200160002060030154600360003373ffffffffffffffffffffffffffffffffffffffff1673ffffffffffffffffffffffffffffffffffffffff16815260200190815260200160002060020154600360003373ffffffffffffffffffffffffffffffffffffffff1673ffffffffffffffffffffffffffffffffffffffff16815260200190815260200160002060010154030301600360003373ffffffffffffffffffffffffffffffffffffffff1673ffffffffffffffffffffffffffffffffffffffff16815260200190815260200160002060000154146107c0576040517f08c379a00000000000000000000000000000000000000000000000000000000081526004018080602001828103825260218152602001806122496021913960400191505060405180910390fd5b60006107cb82611dc3565b9050600454811015610845576040517f08c379a00000000000000000000000000000000000000000000000000000000081526004018080602001828103825260148152602001807f42657420616d6f756e7420746f6f20736d616c6c00000000000000000000000081525060200191505060405180910390fd5b80600360003373ffffffffffffffffffffffffffffffffffffffff1673ffffffffffffffffffffffffffffffffffffffff1681526020019081526020016000206000015410156108e0576040517f08c379a000000000000000000000000000000000000000000000000000000000815260040180806020018281038252602b815260200180612291602b913960400191505060405180910390fd5b806002026108ec6104c3565b1015610943576040517f08c379a000000000000000000000000000000000000000000000000000000000815260040180806020018281038252602781526020018061226a6027913960400191505060405180910390fd5b60018314806109525750600083145b6109c4576040517f08c379a00000000000000000000000000000000000000000000000000000000081526004018080602001828103825260148152602001807f4265742073686f756c642062652031206f72203000000000000000000000000081525060200191505060405180910390fd5b6000600260003373ffffffffffffffffffffffffffffffffffffffff1673ffffffffffffffffffffffffffffffffffffffff1681526020019081526020016000206000018054905090506000600260003373ffffffffffffffffffffffffffffffffffffffff1673ffffffffffffffffffffffffffffffffffffffff168152602001908152602001600020600101805490509050808214610acd576040517f08c379a00000000000000000000000000000000000000000000000000000000081526004018080602001828103825260108152602001807f496e76616c69642064617461626173650000000000000000000000000000000081525060200191505060405180910390fd5b60038210610b26576040517f08c379a00000000000000000000000000000000000000000000000000000000081526004018080602001828103825260338152602001806122df6033913960400191505060405180910390fd5b610b2f83611dd7565b600260003373ffffffffffffffffffffffffffffffffffffffff1673ffffffffffffffffffffffffffffffffffffffff168152602001908152602001600020600001859080600181540180825580915050600190039060005260206000200160009091909190915055600260003373ffffffffffffffffffffffffffffffffffffffff1673ffffffffffffffffffffffffffffffffffffffff168152602001908152602001600020600101839080600181540180825580915050600190039060005260206000200160009091909190915055600260003373ffffffffffffffffffffffffffffffffffffffff1673ffffffffffffffffffffffffffffffffffffffff168152602001908152602001600020600001805490509150600260003373ffffffffffffffffffffffffffffffffffffffff1673ffffffffffffffffffffffffffffffffffffffff1681526020019081526020016000206001018054905090508483604051602001808381526020018281526020019250505060405160208183030381529060405280519060200120600260003373ffffffffffffffffffffffffffffffffffffffff1673ffffffffffffffffffffffffffffffffffffffff1681526020019081526020016000206000016001840381548110610d1057fe5b9060005260206000200154600260003373ffffffffffffffffffffffffffffffffffffffff1673ffffffffffffffffffffffffffffffffffffffff1681526020019081526020016000206001016001840381548110610d6b57fe5b906000526020600020015460405160200180838152602001828152602001925050506040516020818303038152906040528051906020012014610daa57fe5b7f708e20749d242a7a40f190aed9586d298609a0391699344a787a3fb0006f295a858433604051808481526020018381526020018273ffffffffffffffffffffffffffffffffffffffff1673ffffffffffffffffffffffffffffffffffffffff168152602001935050505060405180910390a15050505050565b6000806000600360003373ffffffffffffffffffffffffffffffffffffffff1673ffffffffffffffffffffffffffffffffffffffff16815260200190815260200160002060040154600360003373ffffffffffffffffffffffffffffffffffffffff1673ffffffffffffffffffffffffffffffffffffffff16815260200190815260200160002060030154600360003373ffffffffffffffffffffffffffffffffffffffff1673ffffffffffffffffffffffffffffffffffffffff16815260200190815260200160002060020154600360003373ffffffffffffffffffffffffffffffffffffffff1673ffffffffffffffffffffffffffffffffffffffff16815260200190815260200160002060010154030301600360003373ffffffffffffffffffffffffffffffffffffffff1673ffffffffffffffffffffffffffffffffffffffff1681526020019081526020016000206000015414610fd1576040517f08c379a00000000000000000000000000000000000000000000000000000000081526004018080602001828103825260218152602001806122496021913960400191505060405180910390fd5b6000610fdb611e32565b9050600080905060008090506001831480610ff65750600083145b610fff57600080fd5b6000600260003373ffffffffffffffffffffffffffffffffffffffff1673ffffffffffffffffffffffffffffffffffffffff168152602001908152602001600020600001805490501161109d576040517f08c379a00000000000000000000000000000000000000000000000000000000081526004018080602001828103825260238152602001806122bc6023913960400191505060405180910390fd5b6000600260003373ffffffffffffffffffffffffffffffffffffffff1673ffffffffffffffffffffffffffffffffffffffff168152602001908152602001600020600101805490501161113b576040517f08c379a00000000000000000000000000000000000000000000000000000000081526004018080602001828103825260238152602001806122bc6023913960400191505060405180910390fd5b600260003373ffffffffffffffffffffffffffffffffffffffff1673ffffffffffffffffffffffffffffffffffffffff16815260200190815260200160002060000180549050600260003373ffffffffffffffffffffffffffffffffffffffff1673ffffffffffffffffffffffffffffffffffffffff168152602001908152602001600020600101805490501461123a576040517f08c379a000000000000000000000000000000000000000000000000000000000815260040180806020018281038252600e8152602001807f4572726f7220626574206461746100000000000000000000000000000000000081525060200191505060405180910390fd5b60008090505b600260003373ffffffffffffffffffffffffffffffffffffffff1673ffffffffffffffffffffffffffffffffffffffff168152602001908152602001600020600001805490508110156113b457600260003373ffffffffffffffffffffffffffffffffffffffff1673ffffffffffffffffffffffffffffffffffffffff16815260200190815260200160002060010181815481106112da57fe5b90600052602060002001548301925083600260003373ffffffffffffffffffffffffffffffffffffffff1673ffffffffffffffffffffffffffffffffffffffff168152602001908152602001600020600001828154811061133757fe5b906000526020600020015414156113a75760028060003373ffffffffffffffffffffffffffffffffffffffff1673ffffffffffffffffffffffffffffffffffffffff168152602001908152602001600020600101828154811061139657fe5b906000526020600020015402820191505b8080600101915050611240565b506113be81611e44565b6113c6611f93565b7f0957d90febb3cf2ed06552f937058347e227571bae97c3f6281d23c67e31987f82828560405180848152602001838152602001828152602001935050505060405180910390a1818184955095509550505050909192565b60008060009054906101000a900473ffffffffffffffffffffffffffffffffffffffff1673ffffffffffffffffffffffffffffffffffffffff163373ffffffffffffffffffffffffffffffffffffffff161461147957600080fd5b6000611483610511565b905060006001819055503373ffffffffffffffffffffffffffffffffffffffff166108fc829081150290604051600060405180830381858888f193505050501580156114d3573d6000803e3d6000fd5b508091505090565b6000809054906101000a900473ffffffffffffffffffffffffffffffffffffffff1681565b6000600360003373ffffffffffffffffffffffffffffffffffffffff1673ffffffffffffffffffffffffffffffffffffffff16815260200190815260200160002060040154600360003373ffffffffffffffffffffffffffffffffffffffff1673ffffffffffffffffffffffffffffffffffffffff16815260200190815260200160002060030154600360003373ffffffffffffffffffffffffffffffffffffffff1673ffffffffffffffffffffffffffffffffffffffff16815260200190815260200160002060020154600360003373ffffffffffffffffffffffffffffffffffffffff1673ffffffffffffffffffffffffffffffffffffffff16815260200190815260200160002060010154030301600360003373ffffffffffffffffffffffffffffffffffffffff1673ffffffffffffffffffffffffffffffffffffffff16815260200190815260200160002060000154146116aa576040517f08c379a00000000000000000000000000000000000000000000000000000000081526004018080602001828103825260218152602001806122496021913960400191505060405180910390fd5b6116b261201b565b6000600360003373ffffffffffffffffffffffffffffffffffffffff1673ffffffffffffffffffffffffffffffffffffffff16815260200190815260200160002060000154905080600360003373ffffffffffffffffffffffffffffffffffffffff1673ffffffffffffffffffffffffffffffffffffffff168152602001908152602001600020600201819055508060016000828254039250508190555061175861201b565b611760612172565b3373ffffffffffffffffffffffffffffffffffffffff166108fc829081150290604051600060405180830381858888f193505050501580156117a6573d6000803e3d6000fd5b508091505090565b606080600260003373ffffffffffffffffffffffffffffffffffffffff1673ffffffffffffffffffffffffffffffffffffffff168152602001908152602001600020600001600260003373ffffffffffffffffffffffffffffffffffffffff1673ffffffffffffffffffffffffffffffffffffffff1681526020019081526020016000206001018180548060200260200160405190810160405280929190818152602001828054801561188057602002820191906000526020600020905b81548152602001906001019080831161186c575b50505050509150808054806020026020016040519081016040528092919081815260200182805480156118d257602002820191906000526020600020905b8154815260200190600101908083116118be575b50505050509050915091509091565b600080600080600080600080600360003373ffffffffffffffffffffffffffffffffffffffff1673ffffffffffffffffffffffffffffffffffffffff16815260200190815260200160002060040154600360003373ffffffffffffffffffffffffffffffffffffffff1673ffffffffffffffffffffffffffffffffffffffff16815260200190815260200160002060030154600360003373ffffffffffffffffffffffffffffffffffffffff1673ffffffffffffffffffffffffffffffffffffffff16815260200190815260200160002060020154600360003373ffffffffffffffffffffffffffffffffffffffff1673ffffffffffffffffffffffffffffffffffffffff16815260200190815260200160002060010154030301600360003373ffffffffffffffffffffffffffffffffffffffff1673ffffffffffffffffffffffffffffffffffffffff1681526020019081526020016000206000015414611a95576040517f08c379a00000000000000000000000000000000000000000000000000000000081526004018080602001828103825260218152602001806122496021913960400191505060405180910390fd5b600360003373ffffffffffffffffffffffffffffffffffffffff1673ffffffffffffffffffffffffffffffffffffffff16815260200190815260200160002060000154600360003373ffffffffffffffffffffffffffffffffffffffff1673ffffffffffffffffffffffffffffffffffffffff16815260200190815260200160002060010154600360003373ffffffffffffffffffffffffffffffffffffffff1673ffffffffffffffffffffffffffffffffffffffff16815260200190815260200160002060020154600360003373ffffffffffffffffffffffffffffffffffffffff1673ffffffffffffffffffffffffffffffffffffffff16815260200190815260200160002060030154600360003373ffffffffffffffffffffffffffffffffffffffff1673ffffffffffffffffffffffffffffffffffffffff16815260200190815260200160002060040154600360003373ffffffffffffffffffffffffffffffffffffffff1673ffffffffffffffffffffffffffffffffffffffff16815260200190815260200160002060050154600360003373ffffffffffffffffffffffffffffffffffffffff1673ffffffffffffffffffffffffffffffffffffffff16815260200190815260200160002060060154600360003373ffffffffffffffffffffffffffffffffffffffff1673ffffffffffffffffffffffffffffffffffffffff16815260200190815260200160002060070154975097509750975097509750975097509091929394959697565b611cd081611dc3565b3414611d44576040517f08c379a000000000000000000000000000000000000000000000000000000000815260040180806020018281038252601d8152602001807f6d73672e76616c756520213d20746f7055705f657468202a203165313600000081525060200191505060405180910390fd5b611d4d81611dc3565b3414611d5857600080fd5b3460016000828254019250508190555034600360003373ffffffffffffffffffffffffffffffffffffffff1673ffffffffffffffffffffffffffffffffffffffff16815260200190815260200160002060010160008282540192505081905550611dc061201b565b50565b6000670de0b6b3a764000082029050919050565b80600360003373ffffffffffffffffffffffffffffffffffffffff1673ffffffffffffffffffffffffffffffffffffffff16815260200190815260200160002060030160008282540192505081905550611e2f61201b565b50565b600060024281611e3e57fe5b06905090565b600360003373ffffffffffffffffffffffffffffffffffffffff1673ffffffffffffffffffffffffffffffffffffffff168152602001908152602001600020600501600081548092919060010191905055506000811115611f415780600360003373ffffffffffffffffffffffffffffffffffffffff1673ffffffffffffffffffffffffffffffffffffffff168152602001908152602001600020600401600082825401925050819055506001600360003373ffffffffffffffffffffffffffffffffffffffff1673ffffffffffffffffffffffffffffffffffffffff168152602001908152602001600020600601600082825401925050819055505b80600360003373ffffffffffffffffffffffffffffffffffffffff1673ffffffffffffffffffffffffffffffffffffffff16815260200190815260200160002060070181905550611f9061201b565b50565b611f9b6121bc565b80600260003373ffffffffffffffffffffffffffffffffffffffff1673ffffffffffffffffffffffffffffffffffffffff1681526020019081526020016000206000820151816000019080519060200190611ff79291906121d6565b5060208201518160010190805190602001906120149291906121d6565b5090505050565b600360003373ffffffffffffffffffffffffffffffffffffffff1673ffffffffffffffffffffffffffffffffffffffff16815260200190815260200160002060040154600360003373ffffffffffffffffffffffffffffffffffffffff1673ffffffffffffffffffffffffffffffffffffffff16815260200190815260200160002060030154600360003373ffffffffffffffffffffffffffffffffffffffff1673ffffffffffffffffffffffffffffffffffffffff16815260200190815260200160002060020154600360003373ffffffffffffffffffffffffffffffffffffffff1673ffffffffffffffffffffffffffffffffffffffff16815260200190815260200160002060010154030301600360003373ffffffffffffffffffffffffffffffffffffffff1673ffffffffffffffffffffffffffffffffffffffff16815260200190815260200160002060000181905550565b6000600360003373ffffffffffffffffffffffffffffffffffffffff1673ffffffffffffffffffffffffffffffffffffffff16815260200190815260200160002060000181905550565b604051806040016040528060608152602001606081525090565b828054828255906000526020600020908101928215612212579160200282015b828111156122115782518255916020019190600101906121f6565b5b50905061221f9190612223565b5090565b61224591905b80821115612241576000816000905550600101612229565b5090565b9056fe4552524f522043414c43554c4154494e4720504c415945522042414c4c414e4345546f20626967204265742c20636f6e74726163742066756e64206973206e6f7420656e6f756768544f4f20424947204245542c204e4f5420454e4f5547482042414c414e4345204f4e20434f4e54524143544e6f2062657420706c616365642c20706c61736520706c616365207468652062657421546f6f206d616e79206265747320666f72206f6e6520647261773b20506c656173652068697420464c495020627574746f6e21a264697066735822122006e7724a4947c86d72d47120c48cf6f058e1f188d674f38cd88458175d2f94f064736f6c634300060a0033",
  "immutableReferences": {},
  "source": "//SPDX-License-Identifier: UNLICENSED\r\n\r\nimport \"./Ownable.sol\";\r\npragma solidity 0.6.10;\r\n\r\ncontract CoinFlip is Ownable{\r\n\r\n    uint public _contractBalance_;\r\n\r\n    // status of active bets; Each player can have multiple bets before each flip\r\n    //Update each time player submited new bet\r\n\r\n    struct activeBet  {\r\n        uint[] betListPrecdictions;  // 0 or 1\r\n        uint[] betListAmount; //wei\r\n        }\r\n\r\n    //list of all activities of a player (update after finished solving each bet)\r\n    struct betHistory {\r\n        uint totalBalance;\r\n        uint totalTopUp;\r\n        uint totalWithdrawn;\r\n        uint totalSpentAmount;\r\n        uint totalWinAmount;\r\n        uint totalGames;\r\n        uint totalWins;\r\n        uint lastWinAmount;\r\n    }\r\n\r\n    //betList is a list of all active bets\r\n    // Should limit storage size somehow to avoid everflow in future?\r\n    mapping (address => activeBet) private activeBetList;\r\n\r\n    //playerList store information\r\n    // Should limit storage size somehow to avoid everflow in future?\r\n    mapping (address => betHistory) public playerHistory;\r\n\r\n    //newBetCreated emit when created and not finished\r\n    event newBetCreated(uint betChoice, uint betAmount, address playerAddress);\r\n\r\n    //betFinished emit when\r\n    event betFinished(uint betAmount, uint winAmount, uint result);\r\n\r\n    uint _minBetAmount = 1000; //All Amount are in Wei unless has _eth ending\r\n\r\n    //Check Account Balance validity\r\n    modifier validPlayerBalance() {\r\n        require(playerHistory[msg.sender].totalBalance ==\r\n            playerHistory[msg.sender].totalTopUp - playerHistory[msg.sender].totalWithdrawn -\r\n            playerHistory[msg.sender].totalSpentAmount + playerHistory[msg.sender].totalWinAmount,\r\n            \"ERROR CALCULATING PLAYER BALLANCE\");\r\n        _;\r\n    }\r\n\r\n    function eth2Wei(uint eth) private view returns(uint) {\r\n        return eth*1000000000000000000;\r\n    }\r\n    //Owner balance topUp\r\n    function ownerFundUp_eth(uint topUp_eth) public onlyOwner payable {\r\n\r\n        require(msg.value == eth2Wei(topUp_eth), \"msg.value != topUp_eth * 1e16\");\r\n        if (msg.value != eth2Wei(topUp_eth)) revert();\r\n\r\n        _contractBalance_ += msg.value ;\r\n    }\r\n\r\n\r\n    //Player account balance topUp\r\n    function playerTopUp_eth(uint topUp_eth) public payable {\r\n        //1eth = 1000000000000000000 wei\r\n        require(msg.value == eth2Wei(topUp_eth), \"msg.value != topUp_eth * 1e16\");\r\n        if (msg.value != eth2Wei(topUp_eth)) revert();\r\n\r\n        _contractBalance_ += msg.value ;\r\n        playerHistory[msg.sender].totalTopUp += msg.value;\r\n        updateMyBalance();\r\n    }\r\n\r\n    //Calculate values each time player status changed\r\n    function updateMyBalance() private {\r\n        playerHistory[msg.sender].totalBalance =\r\n        playerHistory[msg.sender].totalTopUp -\r\n        playerHistory[msg.sender].totalWithdrawn -\r\n        playerHistory[msg.sender].totalSpentAmount +\r\n        playerHistory[msg.sender].totalWinAmount;\r\n        }\r\n\r\n\r\n    function resetMyBalance() private  {\r\n        playerHistory[msg.sender].totalBalance = 0;\r\n    }\r\n\r\n    function mySpentBalance(uint spentAmount) private  {\r\n        playerHistory[msg.sender].totalSpentAmount += spentAmount;\r\n        updateMyBalance();\r\n    }\r\n\r\n    function myWinBalance(uint winAmount) private  {\r\n        playerHistory[msg.sender].totalGames++;\r\n        if (winAmount>0) {\r\n            playerHistory[msg.sender].totalWinAmount += winAmount;\r\n            playerHistory[msg.sender].totalWins += 1;\r\n        }\r\n        playerHistory[msg.sender].lastWinAmount = winAmount;\r\n        updateMyBalance();\r\n    }\r\n\r\n    function getPlayerHistory() public view validPlayerBalance returns(uint,uint,uint,uint,uint,uint,uint,uint) {\r\n\r\n        return  (   playerHistory[msg.sender].totalBalance,\r\n                    playerHistory[msg.sender].totalTopUp,\r\n                    playerHistory[msg.sender].totalWithdrawn,\r\n                    playerHistory[msg.sender].totalSpentAmount,\r\n                    playerHistory[msg.sender].totalWinAmount,\r\n                    playerHistory[msg.sender].totalGames,\r\n                    playerHistory[msg.sender].totalWins,\r\n                    playerHistory[msg.sender].lastWinAmount );\r\n    }\r\n\r\n    function getContractBalance() public view returns (uint) {\r\n      return _contractBalance_;\r\n    }\r\n\r\n    function playableFund() public view returns(uint) {\r\n        return _contractBalance_ - playerHistory[msg.sender].totalBalance;\r\n    }\r\n\r\n    function createMyBet(uint betChoice, uint betAmount_eth) public validPlayerBalance {\r\n        uint betAmount = eth2Wei(betAmount_eth);\r\n        require(betAmount >= _minBetAmount, \"Bet amount too small\");\r\n        require(playerHistory[msg.sender].totalBalance >= betAmount , \"TOO BIG BET, NOT ENOUGH BALANCE ON CONTRACT\");\r\n        require(playableFund() >= 2 * betAmount, \"To big Bet, contract fund is not enough\");\r\n        require(betChoice == 1 || betChoice == 0, \"Bet should be 1 or 0\");\r\n\r\n        uint totalActivePredicts = activeBetList[msg.sender].betListPrecdictions.length;\r\n        uint totalActiveBets = activeBetList[msg.sender].betListAmount.length;\r\n\r\n        require(totalActivePredicts == totalActiveBets, \"Invalid database\");\r\n        require(totalActivePredicts < 3, \"Too many bets for one draw; Please hit FLIP button!\");\r\n\r\n        mySpentBalance(betAmount);\r\n\r\n        activeBetList[msg.sender].betListPrecdictions.push(betChoice);\r\n        activeBetList[msg.sender].betListAmount.push(betAmount);\r\n\r\n        totalActivePredicts = activeBetList[msg.sender].betListPrecdictions.length;\r\n        totalActiveBets = activeBetList[msg.sender].betListAmount.length;\r\n\r\n        assert(\r\n            keccak256(\r\n                abi.encodePacked(\r\n                    activeBetList[msg.sender].betListPrecdictions[totalActivePredicts - 1],\r\n                    activeBetList[msg.sender].betListAmount[totalActiveBets - 1]\r\n                )\r\n            )\r\n            ==\r\n            keccak256(\r\n                abi.encodePacked(\r\n                    betChoice,\r\n                    betAmount\r\n                )\r\n            )\r\n        );\r\n\r\n        emit newBetCreated(betChoice, betAmount, msg.sender);\r\n    }\r\n\r\n    function getMyBet() public view returns(uint[] memory, uint[] memory)\r\n    {\r\n        return (\r\n            activeBetList[msg.sender].betListPrecdictions,\r\n            activeBetList[msg.sender].betListAmount\r\n        );\r\n    }\r\n\r\n    function random() private view returns(uint) {\r\n        return now % 2;\r\n    }\r\n\r\n    function resetPlayerBetList() private {\r\n        activeBet memory noBets;\r\n        activeBetList[msg.sender] = noBets;\r\n    }\r\n\r\n    function playerTossCoin() public validPlayerBalance returns(uint , uint, uint) {\r\n        uint result = random();\r\n        uint spentAmount = 0;\r\n        uint winAmount = 0;\r\n\r\n        require(    result == 1 || result==0);\r\n        require(    activeBetList[msg.sender].betListPrecdictions.length > 0,\r\n                    \"No bet placed, plase place the bet!\");\r\n\r\n        require(    activeBetList[msg.sender].betListAmount.length > 0,\r\n                    \"No bet placed, plase place the bet!\");\r\n\r\n        require(    activeBetList[msg.sender].betListAmount.length == activeBetList[msg.sender].betListPrecdictions.length,\r\n                    \"Error bet data\");\r\n\r\n        for (uint x=0; x < activeBetList[msg.sender].betListPrecdictions.length; x++) {\r\n            spentAmount += activeBetList[msg.sender].betListAmount[x];\r\n            if (activeBetList[msg.sender].betListPrecdictions[x] == result) {\r\n                winAmount += activeBetList[msg.sender].betListAmount[x] * 2;\r\n            }\r\n        }\r\n\r\n        myWinBalance(winAmount);\r\n\r\n        resetPlayerBetList();\r\n\r\n        emit betFinished(spentAmount, winAmount, result);\r\n        return (spentAmount, winAmount, result);\r\n    }\r\n\r\n    function withdrawAll() public onlyOwner returns(uint) {\r\n       uint toTransfer = getContractBalance();\r\n       _contractBalance_ = 0;\r\n       msg.sender.transfer(toTransfer);\r\n       return toTransfer;\r\n    }\r\n\r\n    function playerWithdrawAll() public validPlayerBalance returns(uint) {\r\n        updateMyBalance();\r\n\r\n        uint toTransfer = playerHistory[msg.sender].totalBalance;\r\n\r\n        playerHistory[msg.sender].totalWithdrawn = toTransfer;\r\n\r\n        _contractBalance_ -= toTransfer;\r\n\r\n        updateMyBalance();\r\n        \r\n        resetMyBalance();\r\n\r\n        msg.sender.transfer(toTransfer);\r\n\r\n        return toTransfer;\r\n    }\r\n\r\n}\r\n",
  "sourcePath": "D:\\@TUNG 2020\\IVANONTECH\\SOLIDITY 201\\coinFlip4\\contracts\\CoinFlip.sol",
  "compiler": {
    "name": "solc",
    "version": "0.6.10+commit.00c0fcaf.Emscripten.clang"
  },
  "schemaVersion": "3.2.0",
  "updatedAt": "2020-06-21T13:28:10.594Z",
  "networkType": "ethereum",
  "devdoc": {
    "methods": {}
  },
  "userdoc": {
    "methods": {}
  }
}