{
  "contractName": "CoinFlip100",
  "abi": [
    {
      "constant": true,
      "inputs": [],
      "name": "_contractBalance_",
      "outputs": [
        {
          "name": "",
          "type": "uint256"
        }
      ],
      "payable": false,
      "stateMutability": "view",
      "type": "function"
    },
    {
      "constant": true,
      "inputs": [
        {
          "name": "",
          "type": "address"
        }
      ],
      "name": "playerHistory",
      "outputs": [
        {
          "name": "totalBalance",
          "type": "uint256"
        },
        {
          "name": "totalTopUp",
          "type": "uint256"
        },
        {
          "name": "totalWithdrawn",
          "type": "uint256"
        },
        {
          "name": "totalSpentAmount",
          "type": "uint256"
        },
        {
          "name": "totalwinAmount",
          "type": "uint256"
        },
        {
          "name": "totalGames",
          "type": "uint256"
        },
        {
          "name": "totalWins",
          "type": "uint256"
        },
        {
          "name": "playableAmount",
          "type": "uint256"
        }
      ],
      "payable": false,
      "stateMutability": "view",
      "type": "function"
    },
    {
      "constant": true,
      "inputs": [],
      "name": "_totalAllPlayerBalance_",
      "outputs": [
        {
          "name": "",
          "type": "uint256"
        }
      ],
      "payable": false,
      "stateMutability": "view",
      "type": "function"
    },
    {
      "constant": true,
      "inputs": [
        {
          "name": "",
          "type": "uint256"
        },
        {
          "name": "",
          "type": "uint256"
        }
      ],
      "name": "_playerAddreses_",
      "outputs": [
        {
          "name": "",
          "type": "address"
        }
      ],
      "payable": false,
      "stateMutability": "view",
      "type": "function"
    },
    {
      "constant": true,
      "inputs": [
        {
          "name": "",
          "type": "uint256"
        }
      ],
      "name": "betTable",
      "outputs": [
        {
          "name": "result",
          "type": "uint256"
        },
        {
          "name": "closedAtBlock",
          "type": "uint256"
        },
        {
          "name": "openedAtBlock",
          "type": "uint256"
        },
        {
          "name": "paidOut",
          "type": "bool"
        },
        {
          "name": "queryId",
          "type": "bytes32"
        },
        {
          "name": "proof",
          "type": "bytes"
        }
      ],
      "payable": false,
      "stateMutability": "view",
      "type": "function"
    },
    {
      "constant": true,
      "inputs": [],
      "name": "BET_RANGE_MIN",
      "outputs": [
        {
          "name": "",
          "type": "uint256"
        }
      ],
      "payable": false,
      "stateMutability": "view",
      "type": "function"
    },
    {
      "constant": true,
      "inputs": [],
      "name": "owner",
      "outputs": [
        {
          "name": "",
          "type": "address"
        }
      ],
      "payable": false,
      "stateMutability": "view",
      "type": "function"
    },
    {
      "constant": true,
      "inputs": [],
      "name": "_currentRoundNo_",
      "outputs": [
        {
          "name": "",
          "type": "uint256"
        }
      ],
      "payable": false,
      "stateMutability": "view",
      "type": "function"
    },
    {
      "constant": true,
      "inputs": [
        {
          "name": "",
          "type": "uint256"
        }
      ],
      "name": "_amountsMatched_",
      "outputs": [
        {
          "name": "",
          "type": "uint256"
        }
      ],
      "payable": false,
      "stateMutability": "view",
      "type": "function"
    },
    {
      "constant": true,
      "inputs": [],
      "name": "_lockedInBets_",
      "outputs": [
        {
          "name": "",
          "type": "uint256"
        }
      ],
      "payable": false,
      "stateMutability": "view",
      "type": "function"
    },
    {
      "constant": true,
      "inputs": [],
      "name": "_coverAmount100_",
      "outputs": [
        {
          "name": "",
          "type": "uint256"
        }
      ],
      "payable": false,
      "stateMutability": "view",
      "type": "function"
    },
    {
      "constant": true,
      "inputs": [],
      "name": "BET_RANGE_MAX",
      "outputs": [
        {
          "name": "",
          "type": "uint256"
        }
      ],
      "payable": false,
      "stateMutability": "view",
      "type": "function"
    },
    {
      "constant": true,
      "inputs": [],
      "name": "BET_MIN_AMOUNT_WEI",
      "outputs": [
        {
          "name": "",
          "type": "uint256"
        }
      ],
      "payable": false,
      "stateMutability": "view",
      "type": "function"
    },
    {
      "inputs": [],
      "payable": true,
      "stateMutability": "payable",
      "type": "constructor"
    },
    {
      "anonymous": false,
      "inputs": [
        {
          "indexed": false,
          "name": "betNumbers",
          "type": "uint256[]"
        },
        {
          "indexed": false,
          "name": "betAmounts_chip",
          "type": "uint256[]"
        },
        {
          "indexed": false,
          "name": "playerAddress",
          "type": "address"
        }
      ],
      "name": "newBetCreated",
      "type": "event"
    },
    {
      "anonymous": false,
      "inputs": [
        {
          "indexed": false,
          "name": "roundNo",
          "type": "uint256"
        },
        {
          "indexed": false,
          "name": "result",
          "type": "uint256"
        }
      ],
      "name": "betFinished",
      "type": "event"
    },
    {
      "anonymous": false,
      "inputs": [
        {
          "indexed": false,
          "name": "noticeString",
          "type": "string"
        },
        {
          "indexed": false,
          "name": "noticeValue",
          "type": "uint256"
        }
      ],
      "name": "notice",
      "type": "event"
    },
    {
      "anonymous": false,
      "inputs": [
        {
          "indexed": false,
          "name": "noticeString",
          "type": "string"
        },
        {
          "indexed": false,
          "name": "noticeValue",
          "type": "uint256"
        }
      ],
      "name": "error",
      "type": "event"
    },
    {
      "anonymous": false,
      "inputs": [
        {
          "indexed": false,
          "name": "roundNo",
          "type": "uint256"
        },
        {
          "indexed": false,
          "name": "randomNumber",
          "type": "uint256"
        },
        {
          "indexed": false,
          "name": "Id",
          "type": "bytes32"
        },
        {
          "indexed": false,
          "name": "proof",
          "type": "bytes"
        }
      ],
      "name": "generatedRandomNumber",
      "type": "event"
    },
    {
      "anonymous": false,
      "inputs": [
        {
          "indexed": false,
          "name": "notice",
          "type": "string"
        }
      ],
      "name": "LogNewProvableQuery",
      "type": "event"
    },
    {
      "anonymous": false,
      "inputs": [
        {
          "indexed": false,
          "name": "description",
          "type": "string"
        }
      ],
      "name": "proofFailed",
      "type": "event"
    },
    {
      "constant": false,
      "inputs": [
        {
          "name": "_queryId",
          "type": "bytes32"
        },
        {
          "name": "_result",
          "type": "string"
        },
        {
          "name": "_proof",
          "type": "bytes"
        }
      ],
      "name": "__callback",
      "outputs": [],
      "payable": false,
      "stateMutability": "nonpayable",
      "type": "function"
    },
    {
      "constant": true,
      "inputs": [],
      "name": "coverFund",
      "outputs": [
        {
          "name": "",
          "type": "uint256"
        }
      ],
      "payable": false,
      "stateMutability": "view",
      "type": "function"
    },
    {
      "constant": false,
      "inputs": [
        {
          "name": "topUp_chip",
          "type": "uint256"
        }
      ],
      "name": "ownerFundUp_chip",
      "outputs": [],
      "payable": true,
      "stateMutability": "payable",
      "type": "function"
    },
    {
      "constant": false,
      "inputs": [
        {
          "name": "topUp_chip",
          "type": "uint256"
        }
      ],
      "name": "playerTopUp_chip",
      "outputs": [],
      "payable": true,
      "stateMutability": "payable",
      "type": "function"
    },
    {
      "constant": true,
      "inputs": [],
      "name": "getPlayerHistory",
      "outputs": [
        {
          "name": "",
          "type": "uint256"
        },
        {
          "name": "",
          "type": "uint256"
        },
        {
          "name": "",
          "type": "uint256"
        },
        {
          "name": "",
          "type": "uint256"
        },
        {
          "name": "",
          "type": "uint256"
        },
        {
          "name": "",
          "type": "uint256"
        },
        {
          "name": "",
          "type": "uint256"
        },
        {
          "name": "",
          "type": "uint256"
        }
      ],
      "payable": false,
      "stateMutability": "view",
      "type": "function"
    },
    {
      "constant": true,
      "inputs": [],
      "name": "readVar_contractBalance_",
      "outputs": [
        {
          "name": "",
          "type": "uint256"
        }
      ],
      "payable": false,
      "stateMutability": "view",
      "type": "function"
    },
    {
      "constant": true,
      "inputs": [],
      "name": "readVar_coverAmount100_",
      "outputs": [
        {
          "name": "",
          "type": "uint256"
        }
      ],
      "payable": false,
      "stateMutability": "view",
      "type": "function"
    },
    {
      "constant": true,
      "inputs": [
        {
          "name": "number",
          "type": "uint256"
        }
      ],
      "name": "readVar_amountsMatched_",
      "outputs": [
        {
          "name": "",
          "type": "uint256"
        }
      ],
      "payable": false,
      "stateMutability": "view",
      "type": "function"
    },
    {
      "constant": true,
      "inputs": [],
      "name": "realContractBalance",
      "outputs": [
        {
          "name": "",
          "type": "uint256"
        }
      ],
      "payable": false,
      "stateMutability": "view",
      "type": "function"
    },
    {
      "constant": true,
      "inputs": [
        {
          "name": "number",
          "type": "uint256"
        }
      ],
      "name": "coverAmountLeft",
      "outputs": [
        {
          "name": "",
          "type": "uint256"
        }
      ],
      "payable": false,
      "stateMutability": "view",
      "type": "function"
    },
    {
      "constant": true,
      "inputs": [
        {
          "name": "number",
          "type": "uint256"
        },
        {
          "name": "amount_wei",
          "type": "uint256"
        },
        {
          "name": "wantedWinRate",
          "type": "uint256"
        }
      ],
      "name": "getPlayerBetableAmount",
      "outputs": [
        {
          "name": "",
          "type": "uint256"
        }
      ],
      "payable": false,
      "stateMutability": "view",
      "type": "function"
    },
    {
      "constant": false,
      "inputs": [
        {
          "name": "betNumbers",
          "type": "uint256[]"
        },
        {
          "name": "betAmounts_chip",
          "type": "uint256[]"
        }
      ],
      "name": "createMyBet",
      "outputs": [],
      "payable": false,
      "stateMutability": "nonpayable",
      "type": "function"
    },
    {
      "constant": true,
      "inputs": [
        {
          "name": "_roundNo",
          "type": "uint256"
        },
        {
          "name": "playerAddress",
          "type": "address"
        }
      ],
      "name": "getPlayersBet",
      "outputs": [
        {
          "name": "",
          "type": "uint256"
        },
        {
          "name": "",
          "type": "uint256[]"
        },
        {
          "name": "",
          "type": "uint256[]"
        }
      ],
      "payable": false,
      "stateMutability": "view",
      "type": "function"
    },
    {
      "constant": true,
      "inputs": [
        {
          "name": "prize",
          "type": "uint256"
        }
      ],
      "name": "getCoverableAmount",
      "outputs": [
        {
          "name": "",
          "type": "uint256"
        }
      ],
      "payable": false,
      "stateMutability": "view",
      "type": "function"
    },
    {
      "constant": true,
      "inputs": [
        {
          "name": "winWei",
          "type": "uint256"
        }
      ],
      "name": "getwinAmountWei",
      "outputs": [
        {
          "name": "",
          "type": "uint256"
        }
      ],
      "payable": false,
      "stateMutability": "view",
      "type": "function"
    },
    {
      "constant": false,
      "inputs": [],
      "name": "contractRequestResultNumber",
      "outputs": [
        {
          "name": "waitingId",
          "type": "bytes32"
        }
      ],
      "payable": true,
      "stateMutability": "payable",
      "type": "function"
    },
    {
      "constant": false,
      "inputs": [],
      "name": "payOutOldAndStartNewRound",
      "outputs": [
        {
          "name": "",
          "type": "bool"
        }
      ],
      "payable": false,
      "stateMutability": "nonpayable",
      "type": "function"
    },
    {
      "constant": true,
      "inputs": [],
      "name": "blockNumber",
      "outputs": [
        {
          "name": "",
          "type": "uint256"
        }
      ],
      "payable": false,
      "stateMutability": "view",
      "type": "function"
    },
    {
      "constant": false,
      "inputs": [],
      "name": "initNewRound",
      "outputs": [],
      "payable": false,
      "stateMutability": "nonpayable",
      "type": "function"
    },
    {
      "constant": false,
      "inputs": [],
      "name": "ownerWithdrawAll",
      "outputs": [
        {
          "name": "",
          "type": "uint256"
        }
      ],
      "payable": false,
      "stateMutability": "nonpayable",
      "type": "function"
    },
    {
      "constant": false,
      "inputs": [],
      "name": "playerWithdrawAll",
      "outputs": [
        {
          "name": "",
          "type": "uint256"
        }
      ],
      "payable": false,
      "stateMutability": "nonpayable",
      "type": "function"
    }
  ],
  "bytecode": "0x60806040526000600655606360075566038d7ea4c68000600855600854600955611b58600a55336000806101000a81548173ffffffffffffffffffffffffffffffffffffffff021916908373ffffffffffffffffffffffffffffffffffffffff160217905550620000a260307f010000000000000000000000000000000000000000000000000000000000000002620000c8640100000000026401000000009004565b34600b81905550620000c262000480640100000000026401000000009004565b62000d7e565b6000600260009054906101000a900473ffffffffffffffffffffffffffffffffffffffff1673ffffffffffffffffffffffffffffffffffffffff1614806200014b5750600062000149600260009054906101000a900473ffffffffffffffffffffffffffffffffffffffff16620005cb640100000000026401000000009004565b145b156200016e576200016c6000620005d6640100000000026401000000009004565b505b600260009054906101000a900473ffffffffffffffffffffffffffffffffffffffff1673ffffffffffffffffffffffffffffffffffffffff166338cc48316040518163ffffffff167c0100000000000000000000000000000000000000000000000000000000028152600401602060405180830381600087803b158015620001f557600080fd5b505af11580156200020a573d6000803e3d6000fd5b505050506040513d60208110156200022157600080fd5b810190808051906020019092919050505073ffffffffffffffffffffffffffffffffffffffff16600160009054906101000a900473ffffffffffffffffffffffffffffffffffffffff1673ffffffffffffffffffffffffffffffffffffffff161415156200038e57600260009054906101000a900473ffffffffffffffffffffffffffffffffffffffff1673ffffffffffffffffffffffffffffffffffffffff166338cc48316040518163ffffffff167c0100000000000000000000000000000000000000000000000000000000028152600401602060405180830381600087803b1580156200031057600080fd5b505af115801562000325573d6000803e3d6000fd5b505050506040513d60208110156200033c57600080fd5b8101908080519060200190929190505050600160006101000a81548173ffffffffffffffffffffffffffffffffffffffff021916908373ffffffffffffffffffffffffffffffffffffffff1602179055505b600160009054906101000a900473ffffffffffffffffffffffffffffffffffffffff1673ffffffffffffffffffffffffffffffffffffffff1663688dcfd7826040518263ffffffff167c010000000000000000000000000000000000000000000000000000000002815260040180827effffffffffffffffffffffffffffffffffffffffffffffffffffffffffffff19167effffffffffffffffffffffffffffffffffffffffffffffffffffffffffffff19168152602001915050600060405180830381600087803b1580156200046457600080fd5b505af115801562000479573d6000803e3d6000fd5b5050505050565b6000809054906101000a900473ffffffffffffffffffffffffffffffffffffffff1673ffffffffffffffffffffffffffffffffffffffff163373ffffffffffffffffffffffffffffffffffffffff16141515620004dc57600080fd5b6000600e541415156200057c57600060d86000600e54815260200190815260200160002060010154141515156200057b576040517f08c379a00000000000000000000000000000000000000000000000000000000081526004018080602001828103825260148152602001807f4c617374526f756e64206e6f7420636c6f73656400000000000000000000000081525060200191505060405180910390fd5b5b6001600e600082825401925050819055504360d86000600e54815260200190815260200160002060020181905550620005c3620005f8640100000000026401000000009004565b600f81905550565b6000813b9050919050565b6000620005f162000635640100000000026401000000009004565b9050919050565b600062000630600c546200061a62000c79640100000000026401000000009004565b0362000c98640100000000026401000000009004565b905090565b60008062000666731d3b2638a7cc9f2cb3d298a3da7a90b67e5506ed620005cb640100000000026401000000009004565b11156200071b57731d3b2638a7cc9f2cb3d298a3da7a90b67e5506ed600260006101000a81548173ffffffffffffffffffffffffffffffffffffffff021916908373ffffffffffffffffffffffffffffffffffffffff160217905550620007116040805190810160405280600b81526020017f6574685f6d61696e6e657400000000000000000000000000000000000000000081525062000cb3640100000000026401000000009004565b6001905062000c76565b60006200074b73c03a2615d5efaf5f49f60b7bb6583eaec212fdf1620005cb640100000000026401000000009004565b1115620008005773c03a2615d5efaf5f49f60b7bb6583eaec212fdf1600260006101000a81548173ffffffffffffffffffffffffffffffffffffffff021916908373ffffffffffffffffffffffffffffffffffffffff160217905550620007f66040805190810160405280600c81526020017f6574685f726f707374656e33000000000000000000000000000000000000000081525062000cb3640100000000026401000000009004565b6001905062000c76565b60006200083073b7a07bcf2ba2f2703b24c0691b5278999c59ac7e620005cb640100000000026401000000009004565b1115620008e55773b7a07bcf2ba2f2703b24c0691b5278999c59ac7e600260006101000a81548173ffffffffffffffffffffffffffffffffffffffff021916908373ffffffffffffffffffffffffffffffffffffffff160217905550620008db6040805190810160405280600981526020017f6574685f6b6f76616e000000000000000000000000000000000000000000000081525062000cb3640100000000026401000000009004565b6001905062000c76565b60006200091573146500cfd35b22e4a392fe0adc06de1a1368ed48620005cb640100000000026401000000009004565b1115620009ca5773146500cfd35b22e4a392fe0adc06de1a1368ed48600260006101000a81548173ffffffffffffffffffffffffffffffffffffffff021916908373ffffffffffffffffffffffffffffffffffffffff160217905550620009c06040805190810160405280600b81526020017f6574685f72696e6b65627900000000000000000000000000000000000000000081525062000cb3640100000000026401000000009004565b6001905062000c76565b6000620009fa73a2998efd205fb9d4b4963afb70778d6354ad3a41620005cb640100000000026401000000009004565b111562000aaf5773a2998efd205fb9d4b4963afb70778d6354ad3a41600260006101000a81548173ffffffffffffffffffffffffffffffffffffffff021916908373ffffffffffffffffffffffffffffffffffffffff16021790555062000aa56040805190810160405280600a81526020017f6574685f676f65726c690000000000000000000000000000000000000000000081525062000cb3640100000000026401000000009004565b6001905062000c76565b600062000adf736f485c8bf6fc43ea212e93bbf8ce046c7f1cb475620005cb640100000000026401000000009004565b111562000b4557736f485c8bf6fc43ea212e93bbf8ce046c7f1cb475600260006101000a81548173ffffffffffffffffffffffffffffffffffffffff021916908373ffffffffffffffffffffffffffffffffffffffff1602179055506001905062000c76565b600062000b757320e12a1f859b3feae5fb2a0a32c18f5a65555bbf620005cb640100000000026401000000009004565b111562000bdb577320e12a1f859b3feae5fb2a0a32c18f5a65555bbf600260006101000a81548173ffffffffffffffffffffffffffffffffffffffff021916908373ffffffffffffffffffffffffffffffffffffffff1602179055506001905062000c76565b600062000c0b7351efaf4c8b3c9afbd5ab9f4bbc82784ab6ef8faa620005cb640100000000026401000000009004565b111562000c71577351efaf4c8b3c9afbd5ab9f4bbc82784ab6ef8faa600260006101000a81548173ffffffffffffffffffffffffffffffffffffffff021916908373ffffffffffffffffffffffffffffffffffffffff1602179055506001905062000c76565b600090505b90565b60003073ffffffffffffffffffffffffffffffffffffffff1631905090565b60006064600a548381151562000caa57fe5b04029050919050565b806005908051906020019062000ccb92919062000ccf565b5050565b828054600181600116156101000203166002900490600052602060002090601f016020900481019282601f1062000d1257805160ff191683800117855562000d43565b8280016001018555821562000d43579182015b8281111562000d4257825182559160200191906001019062000d25565b5b50905062000d52919062000d56565b5090565b62000d7b91905b8082111562000d7757600081600090555060010162000d5d565b5090565b90565b6156d48062000d8e6000396000f3006080604052600436106101ac576000357c0100000000000000000000000000000000000000000000000000000000900463ffffffff1680630a39a58e146101b15780630da27790146101dc578063180bfdf6146102645780632136561b1461028f5780632765ce91146103065780632890a9f8146103315780632cf986eb146103da57806333822f351461041b57806338bbfa50146104465780634adc3dd51461050357806357e871e71461052e5780636bc1283614610559578063716dd6741461057f57806376b0a4a01461065457806387048226146106745780638a8b19e5146106a35780638da5cb5b146106ce57806394ebe608146107255780639d10561a14610750578063b2c693b114610791578063b43e8a54146107bc578063b4b0b27e146107fd578063c3b91f4514610828578063c4d211b41461083f578063cf4382de1461086a578063daeda51b14610895578063dd85881f146108d6578063e0d5af9414610901578063e1bc44e71461092c578063e1c63e3314610957578063e3c12872146109ac578063e6dbcae314610a08578063e862f79d14610af9578063f899133e14610b19575b600080fd5b3480156101bd57600080fd5b506101c6610b5a565b6040518082815260200191505060405180910390f35b3480156101e857600080fd5b5061021d600480360381019080803573ffffffffffffffffffffffffffffffffffffffff169060200190929190505050610b60565b604051808981526020018881526020018781526020018681526020018581526020018481526020018381526020018281526020019850505050505050505060405180910390f35b34801561027057600080fd5b50610279610ba8565b6040518082815260200191505060405180910390f35b34801561029b57600080fd5b506102c46004803603810190808035906020019092919080359060200190929190505050610bae565b604051808273ffffffffffffffffffffffffffffffffffffffff1673ffffffffffffffffffffffffffffffffffffffff16815260200191505060405180910390f35b34801561031257600080fd5b5061031b610bfd565b6040518082815260200191505060405180910390f35b34801561033d57600080fd5b506103d86004803603810190808035906020019082018035906020019080806020026020016040519081016040528093929190818152602001838360200280828437820191505050505050919291929080359060200190820180359060200190808060200260200160405190810160405280939291908181526020018383602002808284378201915050505050509192919290505050610c18565b005b3480156103e657600080fd5b5061040560048036038101908080359060200190929190505050610e5d565b6040518082815260200191505060405180910390f35b34801561042757600080fd5b50610430610e77565b6040518082815260200191505060405180910390f35b34801561045257600080fd5b506105016004803603810190808035600019169060200190929190803590602001908201803590602001908080601f0160208091040260200160405190810160405280939291908181526020018383808284378201915050505050509192919290803590602001908201803590602001908080601f0160208091040260200160405190810160405280939291908181526020018383808284378201915050505050509192919290505050610e81565b005b34801561050f57600080fd5b506105186110f8565b6040518082815260200191505060405180910390f35b34801561053a57600080fd5b50610543611117565b6040518082815260200191505060405180910390f35b61056161111f565b60405180826000191660001916815260200191505060405180910390f35b34801561058b57600080fd5b506105aa600480360381019080803590602001909291905050506112e5565b6040518087815260200186815260200185815260200184151515158152602001836000191660001916815260200180602001828103825283818151815260200191508051906020019080838360005b838110156106145780820151818401526020810190506105f9565b50505050905090810190601f1680156106415780820380516001836020036101000a031916815260200191505b5097505050505050505060405180910390f35b610672600480360381019080803590602001909291905050506113c6565b005b34801561068057600080fd5b506106896114d7565b604051808215151515815260200191505060405180910390f35b3480156106af57600080fd5b506106b86119de565b6040518082815260200191505060405180910390f35b3480156106da57600080fd5b506106e36119e4565b604051808273ffffffffffffffffffffffffffffffffffffffff1673ffffffffffffffffffffffffffffffffffffffff16815260200191505060405180910390f35b34801561073157600080fd5b5061073a611a09565b6040518082815260200191505060405180910390f35b34801561075c57600080fd5b5061077b60048036038101908080359060200190929190505050611c95565b6040518082815260200191505060405180910390f35b34801561079d57600080fd5b506107a6611caf565b6040518082815260200191505060405180910390f35b3480156107c857600080fd5b506107e760048036038101908080359060200190929190505050611cb5565b6040518082815260200191505060405180910390f35b34801561080957600080fd5b50610812611ccf565b6040518082815260200191505060405180910390f35b34801561083457600080fd5b5061083d611cd5565b005b34801561084b57600080fd5b50610854611e0c565b6040518082815260200191505060405180910390f35b34801561087657600080fd5b5061087f611e16565b6040518082815260200191505060405180910390f35b3480156108a157600080fd5b506108c060048036038101908080359060200190929190505050611e1c565b6040518082815260200191505060405180910390f35b3480156108e257600080fd5b506108eb611e3a565b6040518082815260200191505060405180910390f35b34801561090d57600080fd5b50610916611e40565b6040518082815260200191505060405180910390f35b34801561093857600080fd5b50610941611f12565b6040518082815260200191505060405180910390f35b34801561096357600080fd5b50610996600480360381019080803590602001909291908035906020019092919080359060200190929190505050611f18565b6040518082815260200191505060405180910390f35b3480156109b857600080fd5b506109c1611f59565b604051808981526020018881526020018781526020018681526020018581526020018481526020018381526020018281526020019850505050505050505060405180910390f35b348015610a1457600080fd5b50610a5360048036038101908080359060200190929190803573ffffffffffffffffffffffffffffffffffffffff16906020019092919050505061222f565b604051808481526020018060200180602001838103835285818151815260200191508051906020019060200280838360005b83811015610aa0578082015181840152602081019050610a85565b50505050905001838103825284818151815260200191508051906020019060200280838360005b83811015610ae2578082015181840152602081019050610ac7565b505050509050019550505050505060405180910390f35b610b176004803603810190808035906020019092919050505061239d565b005b348015610b2557600080fd5b50610b446004803603810190808035906020019092919050505061249e565b6040518082815260200191505060405180910390f35b600b5481565b60d96020528060005260406000206000915090508060000154908060010154908060020154908060030154908060040154908060050154908060060154908060070154905088565b600c5481565b601082606481101515610bbd57fe5b0181815481101515610bcb57fe5b906000526020600020016000915091509054906101000a900473ffffffffffffffffffffffffffffffffffffffff1681565b6000610c13600c54610c0d6110f8565b03610e5d565b905090565b6060600060d86000600e54815260200190815260200160002060010154141515610cd0576040517f08c379a00000000000000000000000000000000000000000000000000000000081526004018080602001828103825260308152602001807f2e2e204e6f206d6f726520626574732c20706c65617365207761697420756e7481526020017f696c206e65787420726f756e642e2e2e0000000000000000000000000000000081525060400191505060405180910390fd5b610cd9826124b8565b9050610ce5838261251b565b1515610d59576040517f08c379a000000000000000000000000000000000000000000000000000000000815260040180806020018281038252600d8152602001807f4e4f542056414c4944204245540000000000000000000000000000000000000081525060200191505060405180910390fd5b610d638382612807565b7f2aeacb050561fc39cce82b85f933b4093153305890dd8ef86f07c861b720cb7e8382336040518080602001806020018473ffffffffffffffffffffffffffffffffffffffff1673ffffffffffffffffffffffffffffffffffffffff168152602001838103835286818151815260200191508051906020019060200280838360005b83811015610e00578082015181840152602081019050610de5565b50505050905001838103825285818151815260200191508051906020019060200280838360005b83811015610e42578082015181840152602081019050610e27565b505050509050019550505050505060405180910390a1505050565b60006064600a5483811515610e6e57fe5b04029050919050565b6000600b54905090565b6000610e8b6129a3565b73ffffffffffffffffffffffffffffffffffffffff163373ffffffffffffffffffffffffffffffffffffffff16141515610ec457600080fd5b6064836040516020018082805190602001908083835b602083101515610eff5780518252602082019150602081019050602083039250610eda565b6001836020036101000a0380198251168184511680821785525050505050509050019150506040516020818303038152906040526040518082805190602001908083835b602083101515610f685780518252602082019150602081019050602083039250610f43565b6001836020036101000a038019825116818451168082178552505050505050905001915050604051809103902060019004811515610fa257fe5b069050606390508060d86000600e548152602001908152602001600020600001819055504360d86000600e548152602001908152602001600020600101819055508360d86000600e54815260200190815260200160002060040181600019169055508160d86000600e5481526020019081526020016000206005019080519060200190611030929190615541565b507f7c6de1f7e0f7edc76500b2dbc8a8dd652b051b4439965204274ab58e849a51c46001600e540382868560405180858152602001848152602001836000191660001916815260200180602001828103825283818151815260200191508051906020019080838360005b838110156110b557808201518184015260208101905061109a565b50505050905090810190601f1680156110e25780820380516001836020036101000a031916815260200191505b509550505050505060405180910390a150505050565b60003073ffffffffffffffffffffffffffffffffffffffff1631905090565b600043905090565b60008060008060009054906101000a900473ffffffffffffffffffffffffffffffffffffffff1673ffffffffffffffffffffffffffffffffffffffff163373ffffffffffffffffffffffffffffffffffffffff1614151561117f57600080fd5b600060010260d86000600e5481526020019081526020016000206004015460001916141515611216576040517f08c379a000000000000000000000000000000000000000000000000000000000815260040180806020018281038252601f8152602001807f5245515545535420666f72204e554d42455220414c52454144592053454e540081525060200191505060405180910390fd5b600091506207a120905061122c82600183612d05565b92507fc4dc360d0a9c0677a3379ae0a3d81e887f761e65fdf3d7e00859d1bcd3c473896040518080602001828103825260318152602001807f50726f7661626c65207175657279207761732073656e742c2077616974696e6781526020017f20666f722074686520616e737765722e2e00000000000000000000000000000081525060400191505060405180910390a18260d86000600e5481526020019081526020016000206004018160001916905550829250505090565b60d86020528060005260406000206000915090508060000154908060010154908060020154908060030160009054906101000a900460ff1690806004015490806005018054600181600116156101000203166002900480601f0160208091040260200160405190810160405280929190818152602001828054600181600116156101000203166002900480156113bc5780601f10611391576101008083540402835291602001916113bc565b820191906000526020600020905b81548152906001019060200180831161139f57829003601f168201915b5050505050905086565b6000809054906101000a900473ffffffffffffffffffffffffffffffffffffffff1673ffffffffffffffffffffffffffffffffffffffff163373ffffffffffffffffffffffffffffffffffffffff1614151561142157600080fd5b61142a81613337565b341415156114a0576040517f08c379a000000000000000000000000000000000000000000000000000000000815260040180806020018281038252601e8152602001807f6d73672e76616c756520213d20746f7055705f63686970202a2031653136000081525060200191505060405180910390fd5b6114a981613337565b341415156114b657600080fd5b34600b600082825401925050819055506114ce610bfd565b600f8190555050565b60008060008060008060009054906101000a900473ffffffffffffffffffffffffffffffffffffffff1673ffffffffffffffffffffffffffffffffffffffff163373ffffffffffffffffffffffffffffffffffffffff1614151561153a57600080fd5b600060d86000600e5481526020019081526020016000206001015414156115fc577f72c6694e8258da9df05f72188f564478e8a53afd79cc3af03fad0dfb96a473dd600e546040518080602001838152602001828103825260298152602001807f4e4f20524553554c54205945542c2043414e204e4f5420504159204f5554204681526020017f4f5220524f554e443a00000000000000000000000000000000000000000000008152506040019250505060405180910390a1600094506119d7565b6001151560d86000600e54815260200190815260200160002060030160009054906101000a900460ff16151514156116cf577f72c6694e8258da9df05f72188f564478e8a53afd79cc3af03fad0dfb96a473dd600e546040518080602001838152602001828103825260248152602001807f5041594f5554204455504c4943415445205245515545535420464f5220524f5581526020017f4e44203a000000000000000000000000000000000000000000000000000000008152506040019250505060405180910390a1600094506119d7565b600093505b601060d86000600e548152602001908152602001600020600001546064811015156116fb57fe5b018054905084101561191157601060d86000600e5481526020019081526020016000206000015460648110151561172e57fe5b018481548110151561173c57fe5b9060005260206000200160009054906101000a900473ffffffffffffffffffffffffffffffffffffffff16925060009150600090505b60d960008473ffffffffffffffffffffffffffffffffffffffff1673ffffffffffffffffffffffffffffffffffffffff168152602001908152602001600020600901600e548154811015156117c357fe5b90600052602060002001805490508110156118f75760d86000600e5481526020019081526020016000206000015460d960008573ffffffffffffffffffffffffffffffffffffffff1673ffffffffffffffffffffffffffffffffffffffff168152602001908152602001600020600901600e5481548110151561184257fe5b906000526020600020018281548110151561185957fe5b906000526020600020015414156118ea576118e560d960008573ffffffffffffffffffffffffffffffffffffffff1673ffffffffffffffffffffffffffffffffffffffff168152602001908152602001600020600a01600e548154811015156118be57fe5b90600052602060002001828154811015156118d557fe5b9060005260206000200154611c95565b820191505b8080600101915050611772565b611904600e548484613345565b83806001019450506116d4565b600160d86000600e54815260200190815260200160002060030160006101000a81548160ff02191690831515021790555061194a611cd5565b7f72c6694e8258da9df05f72188f564478e8a53afd79cc3af03fad0dfb96a473dd60d86000600e548152602001908152602001600020600201546040518080602001838152602001828103825260208152602001807f42455420524f554e44204953204f50454e454420617420424c4f434b204e6f3a8152506020019250505060405180910390a1600194505b5050505090565b60065481565b6000809054906101000a900473ffffffffffffffffffffffffffffffffffffffff1681565b600080611a15336134ae565b600060d960003373ffffffffffffffffffffffffffffffffffffffff1673ffffffffffffffffffffffffffffffffffffffff16815260200190815260200160002060000154111515611acf576040517f08c379a00000000000000000000000000000000000000000000000000000000081526004018080602001828103825260168152602001807f506c61796572206973206f7574206f66206d6f6e65790000000000000000000081525060200191505060405180910390fd5b611ad76136aa565b1515611b4b576040517f08c379a00000000000000000000000000000000000000000000000000000000081526004018080602001828103825260158152602001807f496e76616c69642062616c616e636520636865636b000000000000000000000081525060200191505060405180910390fd5b60d960003373ffffffffffffffffffffffffffffffffffffffff1673ffffffffffffffffffffffffffffffffffffffff1681526020019081526020016000206000015490508060d960003373ffffffffffffffffffffffffffffffffffffffff1673ffffffffffffffffffffffffffffffffffffffff1681526020019081526020016000206002016000828254019250508190555080600b60008282540392505081905550611bf9336134ae565b600060d960003373ffffffffffffffffffffffffffffffffffffffff1673ffffffffffffffffffffffffffffffffffffffff16815260200190815260200160002060000154141515611c4757fe5b3373ffffffffffffffffffffffffffffffffffffffff166108fc829081150290604051600060405180830381858888f19350505050158015611c8d573d6000803e3d6000fd5b508091505090565b60006064600a548302811515611ca757fe5b049050919050565b600e5481565b607481606481101515611cc457fe5b016000915090505481565b600d5481565b6000809054906101000a900473ffffffffffffffffffffffffffffffffffffffff1673ffffffffffffffffffffffffffffffffffffffff163373ffffffffffffffffffffffffffffffffffffffff16141515611d3057600080fd5b6000600e54141515611dce57600060d86000600e5481526020019081526020016000206001015414151515611dcd576040517f08c379a00000000000000000000000000000000000000000000000000000000081526004018080602001828103825260148152602001807f4c617374526f756e64206e6f7420636c6f73656400000000000000000000000081525060200191505060405180910390fd5b5b6001600e600082825401925050819055504360d86000600e54815260200190815260200160002060020181905550611e04610bfd565b600f81905550565b6000600f54905090565b600f5481565b6000607482606481101515611e2d57fe5b0154600f54039050919050565b60075481565b6000806000809054906101000a900473ffffffffffffffffffffffffffffffffffffffff1673ffffffffffffffffffffffffffffffffffffffff163373ffffffffffffffffffffffffffffffffffffffff16141515611e9e57600080fd5b600c54611ea96110f8565b0390506000600c8190555080600b600082825403925050819055503373ffffffffffffffffffffffffffffffffffffffff166108fc829081150290604051600060405180830381858888f19350505050158015611f0a573d6000803e3d6000fd5b508091505090565b60095481565b600080611f2485611e1c565b9050838110158015611f38575082600a5410155b15611f4557839150611f51565b611f4e85611e1c565b91505b509392505050565b600080600080600080600080611f6d6136aa565b1515611fe1576040517f08c379a00000000000000000000000000000000000000000000000000000000081526004018080602001828103825260188152602001807f4e6f742076616c696420506c617965722042616c616e6365000000000000000081525060200191505060405180910390fd5b60d960003373ffffffffffffffffffffffffffffffffffffffff1673ffffffffffffffffffffffffffffffffffffffff1681526020019081526020016000206000015460d960003373ffffffffffffffffffffffffffffffffffffffff1673ffffffffffffffffffffffffffffffffffffffff1681526020019081526020016000206001015460d960003373ffffffffffffffffffffffffffffffffffffffff1673ffffffffffffffffffffffffffffffffffffffff1681526020019081526020016000206002015460d960003373ffffffffffffffffffffffffffffffffffffffff1673ffffffffffffffffffffffffffffffffffffffff1681526020019081526020016000206003015460d960003373ffffffffffffffffffffffffffffffffffffffff1673ffffffffffffffffffffffffffffffffffffffff1681526020019081526020016000206004015460d960003373ffffffffffffffffffffffffffffffffffffffff1673ffffffffffffffffffffffffffffffffffffffff1681526020019081526020016000206005015460d960003373ffffffffffffffffffffffffffffffffffffffff1673ffffffffffffffffffffffffffffffffffffffff1681526020019081526020016000206006015460d960003373ffffffffffffffffffffffffffffffffffffffff1673ffffffffffffffffffffffffffffffffffffffff1681526020019081526020016000206008016001600e540381548110151561220a57fe5b9060005260206000200154975097509750975097509750975097509091929394959697565b60006060808460d960008673ffffffffffffffffffffffffffffffffffffffff1673ffffffffffffffffffffffffffffffffffffffff1681526020019081526020016000206009018681548110151561228457fe5b9060005260206000200161233e60d960008873ffffffffffffffffffffffffffffffffffffffff1673ffffffffffffffffffffffffffffffffffffffff168152602001908152602001600020600a01888154811015156122e057fe5b9060005260206000200180548060200260200160405190810160405280929190818152602001828054801561233457602002820191906000526020600020905b815481526020019060010190808311612320575b5050505050613a02565b8180548060200260200160405190810160405280929190818152602001828054801561238957602002820191906000526020600020905b815481526020019060010190808311612375575b505050505091509250925092509250925092565b6123a681613337565b3414151561241c576040517f08c379a000000000000000000000000000000000000000000000000000000000815260040180806020018281038252601e8152602001807f6d73672e76616c756520213d20746f7055705f63686970202a2031653136000081525060200191505060405180910390fd5b61242581613337565b3414151561243257600080fd5b34600b600082825401925050819055503460d960003373ffffffffffffffffffffffffffffffffffffffff1673ffffffffffffffffffffffffffffffffffffffff1681526020019081526020016000206001016000828254019250508190555061249b336134ae565b50565b60006074826064811015156124af57fe5b01549050919050565b606060008090505b8251811015612512576124e983828151811015156124da57fe5b90602001906020020151613337565b83828151811015156124f757fe5b906020019060200201818152505080806001019150506124c0565b82915050919050565b600080600083518551141515612599576040517f08c379a000000000000000000000000000000000000000000000000000000000815260040180806020018281038252600f8152602001807f204552524f52206265742061726179000000000000000000000000000000000081525060200191505060405180910390fd5b60009150600090505b845181101561271b5760065485828151811015156125bc57fe5b90602001906020020151101580156125ed575060075485828151811015156125e057fe5b9060200190602002015111155b1515612661576040517f08c379a00000000000000000000000000000000000000000000000000000000081526004018080602001828103825260178152602001807f426574206e756d626572206f7574206f662072616e676500000000000000000081525060200191505060405180910390fd5b600954848281518110151561267257fe5b90602001906020020151101515156126f2576040517f08c379a000000000000000000000000000000000000000000000000000000000815260040180806020018281038252601f8152602001807f42657420616d6f756e74206c657373207468616e206d696e20616d6f756e740081525060200191505060405180910390fd5b838181518110151561270057fe5b906020019060200201518201915080806001019150506125a2565b60d960003373ffffffffffffffffffffffffffffffffffffffff1673ffffffffffffffffffffffffffffffffffffffff1681526020019081526020016000206000015482111515156127fb576040517f08c379a000000000000000000000000000000000000000000000000000000000815260040180806020018281038252603d8152602001807f42455420414d4f554e542048494748455220504c4159455220544f54414c204281526020017f414c414e43452c20504c454153452041444a555354204f55522042455400000081525060400191505060405180910390fd5b60019250505092915050565b600061281282613a65565b600090505b825181101561299e5760d960003373ffffffffffffffffffffffffffffffffffffffff1673ffffffffffffffffffffffffffffffffffffffff168152602001908152602001600020600901600e5481548110151561287157fe5b90600052602060002001838281518110151561288957fe5b90602001906020020151908060018154018082558091505090600182039060005260206000200160009091929091909150555060d960003373ffffffffffffffffffffffffffffffffffffffff1673ffffffffffffffffffffffffffffffffffffffff168152602001908152602001600020600a01600e5481548110151561290d57fe5b90600052602060002001828281518110151561292557fe5b90602001906020020151908060018154018082558091505090600182039060005260206000200160009091929091909150555061299133848381518110151561296a57fe5b90602001906020020151848481518110151561298257fe5b90602001906020020151613af5565b8080600101915050612817565b505050565b600080600260009054906101000a900473ffffffffffffffffffffffffffffffffffffffff1673ffffffffffffffffffffffffffffffffffffffff161480612a1557506000612a13600260009054906101000a900473ffffffffffffffffffffffffffffffffffffffff16613e14565b145b15612a2657612a246000613e1f565b505b600260009054906101000a900473ffffffffffffffffffffffffffffffffffffffff1673ffffffffffffffffffffffffffffffffffffffff166338cc48316040518163ffffffff167c0100000000000000000000000000000000000000000000000000000000028152600401602060405180830381600087803b158015612aac57600080fd5b505af1158015612ac0573d6000803e3d6000fd5b505050506040513d6020811015612ad657600080fd5b810190808051906020019092919050505073ffffffffffffffffffffffffffffffffffffffff16600160009054906101000a900473ffffffffffffffffffffffffffffffffffffffff1673ffffffffffffffffffffffffffffffffffffffff16141515612c3f57600260009054906101000a900473ffffffffffffffffffffffffffffffffffffffff1673ffffffffffffffffffffffffffffffffffffffff166338cc48316040518163ffffffff167c0100000000000000000000000000000000000000000000000000000000028152600401602060405180830381600087803b158015612bc357600080fd5b505af1158015612bd7573d6000803e3d6000fd5b505050506040513d6020811015612bed57600080fd5b8101908080519060200190929190505050600160006101000a81548173ffffffffffffffffffffffffffffffffffffffff021916908373ffffffffffffffffffffffffffffffffffffffff1602179055505b600160009054906101000a900473ffffffffffffffffffffffffffffffffffffffff1673ffffffffffffffffffffffffffffffffffffffff1663c281d19e6040518163ffffffff167c0100000000000000000000000000000000000000000000000000000000028152600401602060405180830381600087803b158015612cc557600080fd5b505af1158015612cd9573d6000803e3d6000fd5b505050506040513d6020811015612cef57600080fd5b8101908080519060200190929190505050905090565b600060608060606000606080612d196155c1565b6000606060008c118015612d2e575060208c11155b1515612d3957600080fd5b600a8d029c5060016040519080825280601f01601f191660200182016040528015612d735781602001602082028038833980820191505090505b5098508b7f010000000000000000000000000000000000000000000000000000000000000002896000815181101515612da857fe5b9060200101907effffffffffffffffffffffffffffffffffffffffffffffffffffffffffffff1916908160001a90535060206040519080825280601f01601f191660200182016040528015612e0c5781602001602082028038833980820191505090505b50975060206040519080825280601f01601f191660200182016040528015612e435781602001602082028038833980820191505090505b509650612e4e613e30565b95506020885242411860014303401860208901526020875285602088015260206040519080825280601f01601f191660200182016040528015612ea05781602001602082028038833980820191505090505b5094508c602086015260086040519080825280601f01601f191660200182016040528015612edd5781602001602082028038833980820191505090505b509350612ef08560186008876000614192565b506080604051908101604052808981526020018a8152602001888152602001868152509250612f556040805190810160405280600681526020017f72616e646f6d0000000000000000000000000000000000000000000000000000815250848d6141f2565b915060086040519080825280601f01601f191660200182016040528015612f8b5781602001602082028038833980820191505090505b50905060208401517f0100000000000000000000000000000000000000000000000000000000000000810460278301537e01000000000000000000000000000000000000000000000000000000000000810460268301537d010000000000000000000000000000000000000000000000000000000000810460258301537c0100000000000000000000000000000000000000000000000000000000810460248301537b01000000000000000000000000000000000000000000000000000000810460238301537a01000000000000000000000000000000000000000000000000000081046022830153790100000000000000000000000000000000000000000000000000810460218301537801000000000000000000000000000000000000000000000000810460208301535061332482828560016004811015156130cc57fe5b602002015160028760006004811015156130e257fe5b60200201516040518082805190602001908083835b60208310151561311c57805182526020820191506020810190506020830392506130f7565b6001836020036101000a0380198251168184511680821785525050505050509050019150506020604051808303816000865af1158015613160573d6000803e3d6000fd5b5050506040513d602081101561317557600080fd5b810190808051906020019092919050505087600260048110151561319557fe5b60200201516040516020018085805190602001908083835b6020831015156131d257805182526020820191506020810190506020830392506131ad565b6001836020036101000a03801982511681845116808217855250505050505090500184805190602001908083835b6020831015156132255780518252602082019150602081019050602083039250613200565b6001836020036101000a038019825116818451168082178552505050505050905001836000191660001916815260200182805190602001908083835b6020831015156132865780518252602082019150602081019050602083039250613261565b6001836020036101000a0380198251168184511680821785525050505050509050019450505050506040516020818303038152906040526040518082805190602001908083835b6020831015156132f257805182526020820191506020810190506020830392506132cd565b6001836020036101000a038019825116818451168082178552505050505050905001915050604051809103902061459e565b8199505050505050505050509392505050565b600060085482029050919050565b60d960008373ffffffffffffffffffffffffffffffffffffffff1673ffffffffffffffffffffffffffffffffffffffff168152602001908152602001600020600501600081548092919060010191905055506000811115613442578060d960008473ffffffffffffffffffffffffffffffffffffffff1673ffffffffffffffffffffffffffffffffffffffff16815260200190815260200160002060040160008282540192505081905550600160d960008473ffffffffffffffffffffffffffffffffffffffff1673ffffffffffffffffffffffffffffffffffffffff168152602001908152602001600020600601600082825401925050819055505b8060d960008473ffffffffffffffffffffffffffffffffffffffff1673ffffffffffffffffffffffffffffffffffffffff1681526020019081526020016000206008018481548110151561349257fe5b90600052602060002001819055506134a9826134ae565b505050565b60d960008273ffffffffffffffffffffffffffffffffffffffff1673ffffffffffffffffffffffffffffffffffffffff16815260200190815260200160002060000154600c6000828254039250508190555060d960008273ffffffffffffffffffffffffffffffffffffffff1673ffffffffffffffffffffffffffffffffffffffff1681526020019081526020016000206004015460d960008373ffffffffffffffffffffffffffffffffffffffff1673ffffffffffffffffffffffffffffffffffffffff1681526020019081526020016000206003015460d960008473ffffffffffffffffffffffffffffffffffffffff1673ffffffffffffffffffffffffffffffffffffffff1681526020019081526020016000206002015460d960008573ffffffffffffffffffffffffffffffffffffffff1673ffffffffffffffffffffffffffffffffffffffff1681526020019081526020016000206001015403030160d960008373ffffffffffffffffffffffffffffffffffffffff1673ffffffffffffffffffffffffffffffffffffffff1681526020019081526020016000206000018190555060d960008273ffffffffffffffffffffffffffffffffffffffff1673ffffffffffffffffffffffffffffffffffffffff16815260200190815260200160002060000154600c6000828254019250508190555050565b600060d960003373ffffffffffffffffffffffffffffffffffffffff1673ffffffffffffffffffffffffffffffffffffffff1681526020019081526020016000206004015460d960003373ffffffffffffffffffffffffffffffffffffffff1673ffffffffffffffffffffffffffffffffffffffff1681526020019081526020016000206003015460d960003373ffffffffffffffffffffffffffffffffffffffff1673ffffffffffffffffffffffffffffffffffffffff1681526020019081526020016000206002015460d960003373ffffffffffffffffffffffffffffffffffffffff1673ffffffffffffffffffffffffffffffffffffffff1681526020019081526020016000206001015403030160d960003373ffffffffffffffffffffffffffffffffffffffff1673ffffffffffffffffffffffffffffffffffffffff16815260200190815260200160002060000154141561380d57600190506139ff565b60d960003373ffffffffffffffffffffffffffffffffffffffff1673ffffffffffffffffffffffffffffffffffffffff1681526020019081526020016000206004015460d960003373ffffffffffffffffffffffffffffffffffffffff1673ffffffffffffffffffffffffffffffffffffffff1681526020019081526020016000206003015460d960003373ffffffffffffffffffffffffffffffffffffffff1673ffffffffffffffffffffffffffffffffffffffff1681526020019081526020016000206002015460d960003373ffffffffffffffffffffffffffffffffffffffff1673ffffffffffffffffffffffffffffffffffffffff1681526020019081526020016000206001015403030160d960003373ffffffffffffffffffffffffffffffffffffffff1673ffffffffffffffffffffffffffffffffffffffff168152602001908152602001600020600001541415156139fa576040517f08c379a00000000000000000000000000000000000000000000000000000000081526004018080602001828103825260338152602001807f76616c6964506c6179657242616c616e63653a20506c617965722062616c616e81526020017f636520636865636b206e6f74206d61746368210000000000000000000000000081525060400191505060405180910390fd5b600090505b90565b606060008090505b8251811015613a5c57613a338382815181101515613a2457fe5b906020019060200201516145c6565b8382815181101515613a4157fe5b90602001906020020181815250508080600101915050613a0a565b82915050919050565b60008090505b8151811015613ae8578181815181101515613a8257fe5b9060200190602002015160d960003373ffffffffffffffffffffffffffffffffffffffff1673ffffffffffffffffffffffffffffffffffffffff168152602001908152602001600020600301600082825401925050819055508080600101915050613a6b565b613af1336134ae565b5050565b6000607483606481101515613b0657fe5b0154600f540390506000811015613b8c577f07e27dcebd16f8a6f41eb7010022046191620f018cdb641188a52812ac39031c836040518080602001838152602001828103825260138152602001807f45524f5220636f766572206e756d6265723a20000000000000000000000000008152506020019250505060405180910390a1613e0e565b601083606481101515613b9b57fe5b018490806001815401808255809150509060018203906000526020600020016000909192909190916101000a81548173ffffffffffffffffffffffffffffffffffffffff021916908373ffffffffffffffffffffffffffffffffffffffff1602179055505060008282031015613d0e5780607484606481101515613c1b57fe5b01600082825401925050819055507f72c6694e8258da9df05f72188f564478e8a53afd79cc3af03fad0dfb96a473dd836040518080602001838152602001828103825260168152602001807f41646465642062657420666f72206e756d6265723a20000000000000000000008152506020019250505060405180910390a17f72c6694e8258da9df05f72188f564478e8a53afd79cc3af03fad0dfb96a473dd816040518080602001838152602001828103825260128152602001807f41646465642062657420616d6f756e743a2000000000000000000000000000008152506020019250505060405180910390a1613e0d565b81607484606481101515613d1e57fe5b01600082825401925050819055507f72c6694e8258da9df05f72188f564478e8a53afd79cc3af03fad0dfb96a473dd836040518080602001838152602001828103825260168152602001807f41646465642062657420666f72206e756d6265723a20000000000000000000008152506020019250505060405180910390a17f72c6694e8258da9df05f72188f564478e8a53afd79cc3af03fad0dfb96a473dd826040518080602001838152602001828103825260128152602001807f41646465642062657420616d6f756e743a2000000000000000000000000000008152506020019250505060405180910390a15b5b50505050565b6000813b9050919050565b6000613e296145dd565b9050919050565b600080600260009054906101000a900473ffffffffffffffffffffffffffffffffffffffff1673ffffffffffffffffffffffffffffffffffffffff161480613ea257506000613ea0600260009054906101000a900473ffffffffffffffffffffffffffffffffffffffff16613e14565b145b15613eb357613eb16000613e1f565b505b600260009054906101000a900473ffffffffffffffffffffffffffffffffffffffff1673ffffffffffffffffffffffffffffffffffffffff166338cc48316040518163ffffffff167c0100000000000000000000000000000000000000000000000000000000028152600401602060405180830381600087803b158015613f3957600080fd5b505af1158015613f4d573d6000803e3d6000fd5b505050506040513d6020811015613f6357600080fd5b810190808051906020019092919050505073ffffffffffffffffffffffffffffffffffffffff16600160009054906101000a900473ffffffffffffffffffffffffffffffffffffffff1673ffffffffffffffffffffffffffffffffffffffff161415156140cc57600260009054906101000a900473ffffffffffffffffffffffffffffffffffffffff1673ffffffffffffffffffffffffffffffffffffffff166338cc48316040518163ffffffff167c0100000000000000000000000000000000000000000000000000000000028152600401602060405180830381600087803b15801561405057600080fd5b505af1158015614064573d6000803e3d6000fd5b505050506040513d602081101561407a57600080fd5b8101908080519060200190929190505050600160006101000a81548173ffffffffffffffffffffffffffffffffffffffff021916908373ffffffffffffffffffffffffffffffffffffffff1602179055505b600160009054906101000a900473ffffffffffffffffffffffffffffffffffffffff1673ffffffffffffffffffffffffffffffffffffffff1663abaa5f3e6040518163ffffffff167c0100000000000000000000000000000000000000000000000000000000028152600401602060405180830381600087803b15801561415257600080fd5b505af1158015614166573d6000803e3d6000fd5b505050506040513d602081101561417c57600080fd5b8101908080519060200190929190505050905090565b606060008060008487019250828651101515156141ae57600080fd5b8760200191508460200190505b8688602001018210156141e357818901518082880152506020820191506020810190506141bb565b85935050505095945050505050565b600060606000600260009054906101000a900473ffffffffffffffffffffffffffffffffffffffff1673ffffffffffffffffffffffffffffffffffffffff16148061426757506000614265600260009054906101000a900473ffffffffffffffffffffffffffffffffffffffff16613e14565b145b15614278576142766000613e1f565b505b600260009054906101000a900473ffffffffffffffffffffffffffffffffffffffff1673ffffffffffffffffffffffffffffffffffffffff166338cc48316040518163ffffffff167c0100000000000000000000000000000000000000000000000000000000028152600401602060405180830381600087803b1580156142fe57600080fd5b505af1158015614312573d6000803e3d6000fd5b505050506040513d602081101561432857600080fd5b810190808051906020019092919050505073ffffffffffffffffffffffffffffffffffffffff16600160009054906101000a900473ffffffffffffffffffffffffffffffffffffffff1673ffffffffffffffffffffffffffffffffffffffff1614151561449157600260009054906101000a900473ffffffffffffffffffffffffffffffffffffffff1673ffffffffffffffffffffffffffffffffffffffff166338cc48316040518163ffffffff167c0100000000000000000000000000000000000000000000000000000000028152600401602060405180830381600087803b15801561441557600080fd5b505af1158015614429573d6000803e3d6000fd5b505050506040513d602081101561443f57600080fd5b8101908080519060200190929190505050600160006101000a81548173ffffffffffffffffffffffffffffffffffffffff021916908373ffffffffffffffffffffffffffffffffffffffff1602179055505b60046040519080825280602002602001820160405280156144c657816020015b60608152602001906001900390816144b15790505b5090508360006004811015156144d857fe5b60200201518160008151811015156144ec57fe5b9060200190602002018190525083600160048110151561450857fe5b602002015181600181518110151561451c57fe5b9060200190602002018190525083600260048110151561453857fe5b602002015181600281518110151561454c57fe5b9060200190602002018190525083600360048110151561456857fe5b602002015181600381518110151561457c57fe5b90602001906020020181905250614594858285614b34565b9150509392505050565b8060036000846000191660001916815260200190815260200160002081600019169055505050565b6000600854828115156145d557fe5b049050919050565b6000806145fd731d3b2638a7cc9f2cb3d298a3da7a90b67e5506ed613e14565b111561469f57731d3b2638a7cc9f2cb3d298a3da7a90b67e5506ed600260006101000a81548173ffffffffffffffffffffffffffffffffffffffff021916908373ffffffffffffffffffffffffffffffffffffffff1602179055506146966040805190810160405280600b81526020017f6574685f6d61696e6e65740000000000000000000000000000000000000000008152506150f6565b60019050614b31565b60006146be73c03a2615d5efaf5f49f60b7bb6583eaec212fdf1613e14565b11156147605773c03a2615d5efaf5f49f60b7bb6583eaec212fdf1600260006101000a81548173ffffffffffffffffffffffffffffffffffffffff021916908373ffffffffffffffffffffffffffffffffffffffff1602179055506147576040805190810160405280600c81526020017f6574685f726f707374656e3300000000000000000000000000000000000000008152506150f6565b60019050614b31565b600061477f73b7a07bcf2ba2f2703b24c0691b5278999c59ac7e613e14565b11156148215773b7a07bcf2ba2f2703b24c0691b5278999c59ac7e600260006101000a81548173ffffffffffffffffffffffffffffffffffffffff021916908373ffffffffffffffffffffffffffffffffffffffff1602179055506148186040805190810160405280600981526020017f6574685f6b6f76616e00000000000000000000000000000000000000000000008152506150f6565b60019050614b31565b600061484073146500cfd35b22e4a392fe0adc06de1a1368ed48613e14565b11156148e25773146500cfd35b22e4a392fe0adc06de1a1368ed48600260006101000a81548173ffffffffffffffffffffffffffffffffffffffff021916908373ffffffffffffffffffffffffffffffffffffffff1602179055506148d96040805190810160405280600b81526020017f6574685f72696e6b6562790000000000000000000000000000000000000000008152506150f6565b60019050614b31565b600061490173a2998efd205fb9d4b4963afb70778d6354ad3a41613e14565b11156149a35773a2998efd205fb9d4b4963afb70778d6354ad3a41600260006101000a81548173ffffffffffffffffffffffffffffffffffffffff021916908373ffffffffffffffffffffffffffffffffffffffff16021790555061499a6040805190810160405280600a81526020017f6574685f676f65726c69000000000000000000000000000000000000000000008152506150f6565b60019050614b31565b60006149c2736f485c8bf6fc43ea212e93bbf8ce046c7f1cb475613e14565b1115614a2657736f485c8bf6fc43ea212e93bbf8ce046c7f1cb475600260006101000a81548173ffffffffffffffffffffffffffffffffffffffff021916908373ffffffffffffffffffffffffffffffffffffffff16021790555060019050614b31565b6000614a457320e12a1f859b3feae5fb2a0a32c18f5a65555bbf613e14565b1115614aa9577320e12a1f859b3feae5fb2a0a32c18f5a65555bbf600260006101000a81548173ffffffffffffffffffffffffffffffffffffffff021916908373ffffffffffffffffffffffffffffffffffffffff16021790555060019050614b31565b6000614ac87351efaf4c8b3c9afbd5ab9f4bbc82784ab6ef8faa613e14565b1115614b2c577351efaf4c8b3c9afbd5ab9f4bbc82784ab6ef8faa600260006101000a81548173ffffffffffffffffffffffffffffffffffffffff021916908373ffffffffffffffffffffffffffffffffffffffff16021790555060019050614b31565b600090505b90565b60008060606000600260009054906101000a900473ffffffffffffffffffffffffffffffffffffffff1673ffffffffffffffffffffffffffffffffffffffff161480614baa57506000614ba8600260009054906101000a900473ffffffffffffffffffffffffffffffffffffffff16613e14565b145b15614bbb57614bb96000613e1f565b505b600260009054906101000a900473ffffffffffffffffffffffffffffffffffffffff1673ffffffffffffffffffffffffffffffffffffffff166338cc48316040518163ffffffff167c0100000000000000000000000000000000000000000000000000000000028152600401602060405180830381600087803b158015614c4157600080fd5b505af1158015614c55573d6000803e3d6000fd5b505050506040513d6020811015614c6b57600080fd5b810190808051906020019092919050505073ffffffffffffffffffffffffffffffffffffffff16600160009054906101000a900473ffffffffffffffffffffffffffffffffffffffff1673ffffffffffffffffffffffffffffffffffffffff16141515614dd457600260009054906101000a900473ffffffffffffffffffffffffffffffffffffffff1673ffffffffffffffffffffffffffffffffffffffff166338cc48316040518163ffffffff167c0100000000000000000000000000000000000000000000000000000000028152600401602060405180830381600087803b158015614d5857600080fd5b505af1158015614d6c573d6000803e3d6000fd5b505050506040513d6020811015614d8257600080fd5b8101908080519060200190929190505050600160006101000a81548173ffffffffffffffffffffffffffffffffffffffff021916908373ffffffffffffffffffffffffffffffffffffffff1602179055505b600160009054906101000a900473ffffffffffffffffffffffffffffffffffffffff1673ffffffffffffffffffffffffffffffffffffffff16632ef3accc87866040518363ffffffff167c01000000000000000000000000000000000000000000000000000000000281526004018080602001838152602001828103825284818151815260200191508051906020019080838360005b83811015614e85578082015181840152602081019050614e6a565b50505050905090810190601f168015614eb25780820380516001836020036101000a031916815260200191505b509350505050602060405180830381600087803b158015614ed257600080fd5b505af1158015614ee6573d6000803e3d6000fd5b505050506040513d6020811015614efc57600080fd5b81019080805190602001909291905050509150833a02670de0b6b3a764000001821115614f2f57600060010292506150ed565b614f3885615110565b9050600160009054906101000a900473ffffffffffffffffffffffffffffffffffffffff1673ffffffffffffffffffffffffffffffffffffffff1663c55c1cb68360008985896040518663ffffffff167c0100000000000000000000000000000000000000000000000000000000028152600401808581526020018060200180602001848152602001838103835286818151815260200191508051906020019080838360005b83811015614ff9578082015181840152602081019050614fde565b50505050905090810190601f1680156150265780820380516001836020036101000a031916815260200191505b50838103825285818151815260200191508051906020019080838360005b8381101561505f578082015181840152602081019050615044565b50505050905090810190601f16801561508c5780820380516001836020036101000a031916815260200191505b5096505050505050506020604051808303818588803b1580156150ae57600080fd5b505af11580156150c2573d6000803e3d6000fd5b50505050506040513d60208110156150d957600080fd5b810190808051906020019092919050505092505b50509392505050565b806005908051906020019061510c9291906155e9565b5050565b606061511a615669565b6000615124615195565b615130826104006151a1565b615139826151f1565b600090505b835181101561517e57615171848281518110151561515857fe5b90602001906020020151836151ff90919063ffffffff16565b808060010191505061513e565b61518782615224565b816000015192505050919050565b60405180590338823950565b600081905060006020828115156151b457fe5b061415156151d1576020818115156151c857fe5b06602003810190505b808360200181815250506040518084526000815281810160405250505050565b6151fc816004615232565b50565b61520c8260028351615256565b61521f81836153af90919063ffffffff16565b505050565b61522f816007615232565b50565b615252601f60058360ff169060020a02178361545b90919063ffffffff16565b5050565b601781111515615287576152828160058460ff169060020a0260ff16178461545b90919063ffffffff16565b6153aa565b60ff811115156152cd576152b1601860058460ff169060020a02178461545b90919063ffffffff16565b6152c78160018561549b9092919063ffffffff16565b506153a9565b61ffff81111515615314576152f8601960058460ff169060020a02178461545b90919063ffffffff16565b61530e8160028561549b9092919063ffffffff16565b506153a8565b63ffffffff8111151561535d57615341601a60058460ff169060020a02178461545b90919063ffffffff16565b6153578160048561549b9092919063ffffffff16565b506153a7565b67ffffffffffffffff811115156153a65761538e601b60058460ff169060020a02178461545b90919063ffffffff16565b6153a48160088561549b9092919063ffffffff16565b505b5b5b5b5b505050565b6153b7615669565b600080600080866020015187600001515187510111156153ed576153ec8760026153e68a602001518a51615502565b0261551e565b5b8551915086518051602081830101955087518101825260208801945050505b602082101515615431578251845260208401935060208301925060208203915061540c565b6001826020036101000a039050801983511681855116818117865250508694505050505092915050565b816020015160018360000151510111156154815761548082600284602001510261551e565b5b815180516020818301018381536001820183525050505050565b6154a3615669565b60008460200151856000015151840111156154d3576154d28560026154cc886020015187615502565b0261551e565b5b6001836101000a0390508451805184818301018684198251161781528582018352505050849150509392505050565b60008183111561551457829050615518565b8190505b92915050565b60608260000151905061553183836151a1565b61553b83826153af565b50505050565b828054600181600116156101000203166002900490600052602060002090601f016020900481019282601f1061558257805160ff19168380011785556155b0565b828001600101855582156155b0579182015b828111156155af578251825591602001919060010190615594565b5b5090506155bd9190615683565b5090565b6080604051908101604052806004905b60608152602001906001900390816155d15790505090565b828054600181600116156101000203166002900490600052602060002090601f016020900481019282601f1061562a57805160ff1916838001178555615658565b82800160010185558215615658579182015b8281111561565757825182559160200191906001019061563c565b5b5090506156659190615683565b5090565b604080519081016040528060608152602001600081525090565b6156a591905b808211156156a1576000816000905550600101615689565b5090565b905600a165627a7a72305820eeca291ebdae8b6de07d0a2b977d75e63fd99d53828596b74d6f97a62cfb38230029",
  "source": "//SPDX-License-Identifier: UNLICENSED\r\n\r\n// GAME RULES:\r\n// Bet numbers a ranging from 0-99\r\n// Players can bet for \"A Number\" or for \"NOT A Number\" (Play as Player or Banker)\r\n// Players and Bankers bets are matched on principle of Market price Match. Price for each number can range from 1x to 99x.\r\n// Every day 1 bet round;\r\n// All bets will be closed 15 minutes prior result request (18h15);\r\n// All not matched orders will be deleted.\r\n// Every day at 18h30 contract will send request for random number to Oracle engine.\r\n// After result arrived, All players/bankers will receive Event notification.\r\n// Only winner pays: Contract Owner take 1%(?) of winning amount.\r\n// Newbets allowed after 19h:00\r\n\r\nimport \"./Ownable.sol\";\r\nimport \"./provableAPI_0.4.25_simplified.sol\";\r\npragma solidity 0.4.26;\r\n\r\ncontract CoinFlip100 is Ownable, usingProvable{\r\n\r\n    uint public BET_RANGE_MIN = 0;\r\n    uint public BET_RANGE_MAX = 99;\r\n\r\n    uint CHIP_TO_WEI = 10**15; //1 chips = 1 eth - Can be parametric\r\n    uint public BET_MIN_AMOUNT_WEI = CHIP_TO_WEI ; //All Amount are in ETH\r\n    uint BET_WIN_RATE = 7000; //Win rate = 70x with 2 decimals\r\n\r\n    uint public _contractBalance_;\r\n    uint public _totalAllPlayerBalance_; // Total balance deposited and not used by players (not locked in bets) can be withdrawn by players any time\r\n    uint public _lockedInBets_;  // Total amount locked in bets (can not be widthdraw by any one)\r\n    uint public _currentRoundNo_;  // Unique sequence Number of\r\n    uint public _coverAmount100_;  // coverable amount for all 100 numberclosedAtBlock\r\n\r\n    //uint[] public explicitCoverableAmount; // Explicit cover by banker for A number\r\n    address[][100] public _playerAddreses_;\r\n    uint[100] public _amountsMatched_;  //wei amount bet for each number\r\n\r\n    //uint[100] public _bankerAmountsMatched_;  //wei amount bet for each number\r\n    //uint[100] public _bankerAmountsWaiting_;  //wei amount bet for each number\r\n\r\n    struct BetTable {\r\n        uint result         ;  // each round will save result to this var\r\n        uint closedAtBlock  ;  // block number when bet closed and random number request sent\r\n        uint openedAtBlock  ;\r\n        bool paidOut        ;\r\n        bytes32 queryId     ;\r\n        bytes proof         ;\r\n        // Later: function to transfer waiting Amount to next round\r\n    }\r\n\r\n    //list of all activities of a player (update after finished solving each bet)\r\n\r\n    struct PlayerHistory {\r\n        uint totalBalance;\r\n        uint totalTopUp;\r\n        uint totalWithdrawn;\r\n        uint totalSpentAmount;\r\n        uint totalwinAmount;\r\n        uint totalGames;\r\n        uint totalWins;\r\n        uint playableAmount;\r\n        uint [] winAmount;\r\n        uint[][] numbersMatched;\r\n        uint[][] amountsMatched;\r\n        // later should add storage for all historic bets\r\n    }\r\n\r\n    // Storing all results from all rounds under betTable[_currentRoundNo_]... //should limit size to avoid overflow?\r\n    mapping (uint => BetTable) public betTable;\r\n\r\n    //playerList store information\r\n    // Should limit storage size somehow to avoid overflow in future?\r\n    mapping (address => PlayerHistory) public playerHistory;\r\n\r\n    //newBetCreated emit when created and not finished\r\n    event newBetCreated(uint[] betNumbers, uint[] betAmounts_chip, address playerAddress);\r\n\r\n    //betFinished emit when finished calculation PL for all players\r\n    event betFinished(uint roundNo, uint result);\r\n\r\n    //common notice\r\n    event notice(string noticeString, uint noticeValue);\r\n    event error (string noticeString, uint noticeValue);\r\n\r\n    //Oracle >>>>>>>>>>>>>>>>>>>>\r\n    uint256 constant NUM_RANDOM_BYTES_REQUESTED = 1; //Should change later for better randomnes\r\n\r\n    event generatedRandomNumber(uint roundNo, uint256 randomNumber , bytes32 Id,   bytes proof);\r\n    event LogNewProvableQuery(string notice);\r\n    event proofFailed(string description);\r\n\r\n    constructor() public payable {\r\n        provable_setProof(proofType_Ledger);\r\n        _contractBalance_ = msg.value ;\r\n        initNewRound();\r\n    }\r\n\r\n    function __callback(bytes32 _queryId, string _result, bytes _proof) public {\r\n\r\n        require(msg.sender == provable_cbAddress());\r\n        //if (\r\n        //    provable_randomDS_proofVerify__returnCode(\r\n        //        _queryId,\r\n        //        _result,\r\n        //        _proof\r\n        //    ) != 0\r\n        //) {\r\n        //    emit proofFailed(\"The proof verification failed in the callback\");\r\n        //} else {\r\n\r\n            uint256 randomNumber = uint256(keccak256(abi.encodePacked(_result)))%100;\r\n            // Temporary redefine to 99 for testing purpose\r\n            randomNumber = 99;\r\n\r\n            betTable[_currentRoundNo_].result = randomNumber;\r\n            betTable[_currentRoundNo_].closedAtBlock = block.number; //Allways check time to know wherether bet is closed!\r\n            betTable[_currentRoundNo_].queryId = _queryId;\r\n            betTable[_currentRoundNo_].proof = _proof;\r\n            //_currentRoundNo_ should be advanced before next round by PayOutCheck function\r\n\r\n            emit generatedRandomNumber(_currentRoundNo_-1, randomNumber,_queryId, _proof);\r\n        //}\r\n    }\r\n\r\n    //Oracle <<<<<<<<<<<<<<<<<<<<<\r\n\r\n\r\n    //Check Account Balance validity\r\n    function validPlayerBalance() private view returns(bool) {\r\n          if (playerHistory[msg.sender].totalBalance ==\r\n            playerHistory[msg.sender].totalTopUp - playerHistory[msg.sender].totalWithdrawn -\r\n            playerHistory[msg.sender].totalSpentAmount + playerHistory[msg.sender].totalwinAmount) {\r\n                return true;\r\n            } else {\r\n                require(playerHistory[msg.sender].totalBalance ==\r\n                  playerHistory[msg.sender].totalTopUp - playerHistory[msg.sender].totalWithdrawn -\r\n                  playerHistory[msg.sender].totalSpentAmount + playerHistory[msg.sender].totalwinAmount,\r\n                  \"validPlayerBalance: Player balance check not match!\");\r\n                return false;\r\n            }\r\n    }\r\n\r\n    function wei2Chip(uint _wei) private view returns(uint) {\r\n        return _wei / CHIP_TO_WEI;\r\n    }\r\n\r\n    function chip2Wei(uint chip) private view returns(uint) {\r\n        return chip * CHIP_TO_WEI;\r\n    }\r\n\r\n    function chip2Wei_ar(uint[] memory chip_ar) private view returns(uint[] memory) {\r\n        for (uint x=0; x<chip_ar.length; x++) {\r\n            chip_ar[x] = chip2Wei(chip_ar[x]);\r\n        }\r\n        return chip_ar;\r\n    }\r\n\r\n    function wei2Chip_ar(uint[] memory wei_ar) private view returns(uint[] memory) {\r\n        for (uint x=0; x<wei_ar.length; x++) {\r\n           wei_ar[x] = wei2Chip(wei_ar[x]);\r\n        }\r\n        return wei_ar;\r\n    }\r\n\r\n    function coverFund() public view returns(uint) {\r\n        return getCoverableAmount(realContractBalance() - _totalAllPlayerBalance_);\r\n    }\r\n\r\n    //Owner balance topUp\r\n    function ownerFundUp_chip(uint topUp_chip) public onlyOwner payable {\r\n\r\n        require(msg.value == chip2Wei(topUp_chip), \"msg.value != topUp_chip * 1e16\");\r\n        if (msg.value != chip2Wei(topUp_chip)) revert();\r\n        _contractBalance_ += msg.value ;\r\n        _coverAmount100_ = coverFund();\r\n    }\r\n\r\n    //Player account balance topUp\r\n    function playerTopUp_chip(uint topUp_chip) public payable {\r\n        //1eth = 1000000000000000000 wei\r\n        require(msg.value == chip2Wei(topUp_chip), \"msg.value != topUp_chip * 1e16\");\r\n        if (msg.value != chip2Wei(topUp_chip)) revert();\r\n\r\n        _contractBalance_ += msg.value ;\r\n        playerHistory[msg.sender].totalTopUp += msg.value;\r\n        updatePlayerBalance(msg.sender);\r\n    }\r\n\r\n    // Calculate values each time player status changed\r\n    // All values of playerHistory in wei\r\n    function updatePlayerBalance(address playerAddress) private {\r\n        _totalAllPlayerBalance_ -= playerHistory[playerAddress].totalBalance;\r\n        playerHistory[playerAddress].totalBalance =\r\n        playerHistory[playerAddress].totalTopUp -\r\n        playerHistory[playerAddress].totalWithdrawn -\r\n        playerHistory[playerAddress].totalSpentAmount +\r\n        playerHistory[playerAddress].totalwinAmount;\r\n        _totalAllPlayerBalance_ += playerHistory[playerAddress].totalBalance;\r\n        }\r\n\r\n\r\n    function mySpentBalance(uint[] memory spentAmounts_wei) private {\r\n        for (uint x=0; x<spentAmounts_wei.length; x++) {\r\n            playerHistory[msg.sender].totalSpentAmount += spentAmounts_wei[x];\r\n        }\r\n        updatePlayerBalance(msg.sender);\r\n    }\r\n\r\n    function myWinBalance(uint roundNo, address playerAddress, uint winAmount_wei) private  {\r\n        playerHistory[playerAddress].totalGames++;\r\n        if (winAmount_wei>0) {\r\n            playerHistory[playerAddress].totalwinAmount += winAmount_wei;\r\n            playerHistory[playerAddress].totalWins += 1;\r\n        }\r\n        playerHistory[playerAddress].winAmount[roundNo] = winAmount_wei;\r\n        updatePlayerBalance(playerAddress);\r\n    }\r\n\r\n    function getPlayerHistory() public view  returns(uint,uint,uint,uint,uint,uint,uint,uint) {\r\n        require(validPlayerBalance(), \"Not valid Player Balance\");\r\n        return  (   playerHistory[msg.sender].totalBalance,\r\n                    playerHistory[msg.sender].totalTopUp,\r\n                    playerHistory[msg.sender].totalWithdrawn,\r\n                    playerHistory[msg.sender].totalSpentAmount,\r\n                    playerHistory[msg.sender].totalwinAmount,\r\n                    playerHistory[msg.sender].totalGames,\r\n                    playerHistory[msg.sender].totalWins,\r\n                    playerHistory[msg.sender].winAmount[_currentRoundNo_-1] ); // add more returns here\r\n    }\r\n\r\n    function readVar_contractBalance_() public view returns(uint) {\r\n      return _contractBalance_;\r\n    }\r\n\r\n    function readVar_coverAmount100_() public view returns(uint) {\r\n      return _coverAmount100_;\r\n    }\r\n\r\n    function readVar_amountsMatched_(uint number) public view returns(uint) {\r\n      return _amountsMatched_[number];\r\n    }\r\n\r\n    function realContractBalance() public view returns(uint) {\r\n        return address(this).balance;\r\n    }\r\n\r\n    //Check how much amount left for covering a number\r\n    function coverAmountLeft(uint number) public view returns(uint) {\r\n        return _coverAmount100_ - _amountsMatched_[number];\r\n    }\r\n\r\n    //CHeck the amount/price can be matched for a number? return matching amount\r\n    function getPlayerBetableAmount(uint number, uint amount_wei, uint wantedWinRate) public view returns(uint) {\r\n        uint coverLeft = coverAmountLeft(number);\r\n        if ((coverLeft >= amount_wei) && (BET_WIN_RATE >= wantedWinRate)) //Later : add parametric Winrate\r\n            {  return  (amount_wei) ; }\r\n            else\r\n            { return coverAmountLeft(number);}\r\n    }\r\n\r\n    function verifyBet(uint[] memory betNumbers, uint[] memory betAmounts_wei) private view returns(bool) {\r\n        // verify that new bet is valid\r\n        require (betNumbers.length == betAmounts_wei.length,\" ERROR bet aray\") ;\r\n        uint sumbetAmounts = 0;\r\n\r\n        for (uint x = 0; x<betNumbers.length; x++) {\r\n            require(((betNumbers[x] >=  BET_RANGE_MIN) && (betNumbers[x] <=  BET_RANGE_MAX)), \"Bet number out of range\");\r\n            require(betAmounts_wei[x] >=  BET_MIN_AMOUNT_WEI, \"Bet amount less than min amount\");\r\n            sumbetAmounts += betAmounts_wei[x];\r\n        }\r\n        require(sumbetAmounts <= playerHistory[msg.sender].totalBalance , \"BET AMOUNT HIGHER PLAYER TOTAL BALANCE, PLEASE ADJUST OUR BET\");\r\n\r\n        return true;\r\n    }\r\n\r\n    function updateBetTableMatched(address playerAddress, uint number, uint amount) private {\r\n        uint basicCoverLeft = _coverAmount100_ - _amountsMatched_[number];\r\n        if (basicCoverLeft < 0) {\r\n            emit error(\"EROR cover number: \",number);\r\n        } else {\r\n            _playerAddreses_[number].push(playerAddress);\r\n            if (basicCoverLeft - amount < 0) {\r\n                //If _coverAmount100_ is not enough, then use only basicCoverLeft:\r\n                _amountsMatched_[number] += basicCoverLeft;\r\n                emit notice(\"Added bet for number: \",number);\r\n                emit notice(\"Added bet amount: \",basicCoverLeft);\r\n            } else {\r\n                _amountsMatched_[number] += amount;\r\n                emit notice(\"Added bet for number: \",number);\r\n                emit notice(\"Added bet amount: \",amount);\r\n            }\r\n        }\r\n    }\r\n\r\n    function updateplayerHistory(uint[] memory newBetNumbers, uint[] memory newbetAmounts_wei) private {\r\n        //append new bets with current Betlist\r\n        mySpentBalance(newbetAmounts_wei); //Deduct spent amount from player balance\r\n\r\n        for (uint x=0; x<newBetNumbers.length; x++) {\r\n            playerHistory[msg.sender]\r\n                .numbersMatched[_currentRoundNo_]\r\n                    .push(newBetNumbers[x]);\r\n\r\n            playerHistory[msg.sender]\r\n                .amountsMatched[_currentRoundNo_]\r\n                    .push(newbetAmounts_wei[x]);\r\n\r\n            updateBetTableMatched(msg.sender, newBetNumbers[x], newbetAmounts_wei[x]);\r\n        }\r\n    }\r\n\r\n    function createMyBet(uint[] memory betNumbers, uint[] memory betAmounts_chip) public {\r\n\r\n        //money amount received from frontEnd is in Chips;\r\n        //Should conver all chips to Wei\r\n        require(betTable[_currentRoundNo_].closedAtBlock == 0, \".. No more bets, please wait until next round...\");\r\n        uint[] memory betAmounts = chip2Wei_ar(betAmounts_chip);\r\n        require(verifyBet(betNumbers,betAmounts), \"NOT VALID BET\");\r\n        updateplayerHistory(betNumbers, betAmounts); //Update Active Betlist for a player\r\n        emit newBetCreated(betNumbers,betAmounts, msg.sender);\r\n    }\r\n\r\n    function getPlayersBet(uint _roundNo, address playerAddress) public view returns(uint , uint[] memory, uint[] memory)  {\r\n        //Data sent to front page from contract is in Chips\r\n        return (    _roundNo,\r\n                    playerHistory[playerAddress].numbersMatched[_roundNo],\r\n                    wei2Chip_ar(playerHistory[playerAddress].amountsMatched[_roundNo]) //wei\r\n                );\r\n    }\r\n\r\n    function getCoverableAmount(uint prize) public view returns(uint) {\r\n        return (prize/BET_WIN_RATE)*100;\r\n    }\r\n\r\n    function getwinAmountWei(uint winWei) public view returns(uint) {\r\n        return (winWei*BET_WIN_RATE)/100;\r\n    }\r\n\r\n\r\n    // This function should be called automatically everyday one time at 18h30;\r\n    // For now will be called by Owner for testing purpose only;\r\n    function contractRequestResultNumber() public payable onlyOwner returns(bytes32 waitingId){\r\n\r\n        //require (someBetsArePlaced())  //to avoid sending request for nothing\r\n        require (betTable[_currentRoundNo_].queryId == 0x0000000000000000000000000000000000000000000000000000000000000000,\r\n                \"REQUEST for NUMBER ALREADY SENT\");\r\n\r\n        uint256 QUERY_EXECUTION_DELAY = 0;\r\n        uint256 GAS_FOR_CALLBACK = 500000;\r\n        //Calling Oracle for random number // Oracle will call __callback function when number is ready\r\n        waitingId = provable_newRandomDSQuery(\r\n            QUERY_EXECUTION_DELAY,\r\n            NUM_RANDOM_BYTES_REQUESTED,\r\n            GAS_FOR_CALLBACK\r\n        );\r\n\r\n        emit LogNewProvableQuery(\"Provable query was sent, waiting for the answer..\");\r\n        betTable[_currentRoundNo_].queryId = waitingId;\r\n        return waitingId;\r\n    }\r\n\r\n    // After got result, contract should iterate thru all player that followed winning number to payout\r\n    // This function should be called automatically after result arrived from Oracle;\r\n    // Due to gas limit problem may cause __callback from Oracle to fails, this function may be call separately\r\n    // For now will be called by Owner for testing purpose only;\r\n    // New Round should start only after this function is finished\r\n\r\n    function payOutOldAndStartNewRound() public onlyOwner returns(bool) {\r\n        // Check for Banker PL : later\r\n        // Check for Player PL\r\n\r\n        if (betTable[_currentRoundNo_].closedAtBlock == 0)\r\n        {\r\n            emit notice(\"NO RESULT YET, CAN NOT PAY OUT FOR ROUND:\", _currentRoundNo_);\r\n            return (false);\r\n        }\r\n\r\n        if (betTable[_currentRoundNo_].paidOut == true) {\r\n            emit notice(\"PAYOUT DUPLICATE REQUEST FOR ROUND :\", _currentRoundNo_);\r\n            return (false);\r\n        }\r\n\r\n        //iterate thru winner list\r\n        for (uint x=0; x<_playerAddreses_[ betTable[_currentRoundNo_].result ].length; x++)\r\n        {\r\n            address winnerAddress = _playerAddreses_[ betTable[_currentRoundNo_].result ][x];\r\n            uint winAmount_wei = 0;\r\n            //Itera thru bet list and count win amount\r\n            for (uint xx=0; xx<playerHistory[winnerAddress].numbersMatched[_currentRoundNo_].length; xx++)\r\n            {\r\n            if (playerHistory[winnerAddress].numbersMatched[_currentRoundNo_][xx]\r\n                == betTable[_currentRoundNo_].result) {\r\n                    winAmount_wei += getwinAmountWei(playerHistory[winnerAddress].amountsMatched[_currentRoundNo_][xx]);\r\n                }\r\n            }\r\n            myWinBalance(_currentRoundNo_, winnerAddress, winAmount_wei); //Change player balance record\r\n        }\r\n        betTable[_currentRoundNo_].paidOut = true;\r\n\r\n        // opening bet for next ROUND\r\n        initNewRound();\r\n\r\n        emit notice(\"BET ROUND IS OPENED at BLOCK No:\", betTable[_currentRoundNo_].openedAtBlock);\r\n\r\n        return (true);\r\n    }\r\n\r\n    function blockNumber() public view returns(uint) {\r\n        return block.number;\r\n    }\r\n\r\n    function initNewRound() public onlyOwner {\r\n        if (_currentRoundNo_ !=0) {\r\n            require(betTable[_currentRoundNo_].closedAtBlock != 0, \"LastRound not closed\");\r\n        }\r\n        _currentRoundNo_ += 1;\r\n        betTable[_currentRoundNo_].openedAtBlock = block.number;\r\n        _coverAmount100_ = coverFund();\r\n    }\r\n\r\n    function ownerWithdrawAll() public onlyOwner returns(uint) {\r\n       //   Should add emergency Withdrawall\r\n       //   playerWithdrawAll(); //If owner plays, Withdraw as a player first\r\n       //   Should allow to withdraw only at certain time when beting closed(?)\r\n\r\n       uint toTransfer = realContractBalance() - _totalAllPlayerBalance_ ; // - _lockedInBets_; Should add later..\r\n\r\n       //Should cancel all bets before withdrawn\r\n       //Should return all players ballances before withdrawn\r\n       _totalAllPlayerBalance_ = 0;\r\n       _contractBalance_ -= toTransfer;\r\n\r\n       msg.sender.transfer(toTransfer);\r\n       return toTransfer;\r\n    }\r\n\r\n    function playerWithdrawAll() public returns(uint) {\r\n        //   Should allow to withdraw only at certain time when beting closed(?)\r\n\r\n        updatePlayerBalance(msg.sender);\r\n\r\n        require(playerHistory[msg.sender].totalBalance > 0, \"Player is out of money\");\r\n\r\n        require(validPlayerBalance(), \"Invalid balance check\");\r\n\r\n        uint toTransfer = playerHistory[msg.sender].totalBalance;\r\n\r\n        playerHistory[msg.sender].totalWithdrawn += toTransfer;\r\n\r\n        _contractBalance_ -= toTransfer;\r\n\r\n        updatePlayerBalance(msg.sender);\r\n\r\n        assert(playerHistory[msg.sender].totalBalance == 0);\r\n\r\n        msg.sender.transfer(toTransfer);\r\n\r\n        return toTransfer;\r\n    }\r\n\r\n}\r\n",
  "sourcePath": "D:\\@TUNG 2020\\IVANONTECH\\SOLIDITY 201\\coinFlip4\\contracts\\CoinFlip100.sol",
  "compiler": {
    "name": "solc",
    "version": "0.4.26+commit.4563c3fc.Emscripten.clang"
  },
  "schemaVersion": "2.0.3",
  "updatedAt": "2020-07-04T03:00:05.292Z"
}