{
  "contractName": "CoinFlip",
  "abi": [
    {
      "anonymous": false,
      "inputs": [
        {
          "indexed": false,
          "internalType": "uint256",
          "name": "betAmount",
          "type": "uint256"
        },
        {
          "indexed": false,
          "internalType": "uint256",
          "name": "winAmount",
          "type": "uint256"
        },
        {
          "indexed": false,
          "internalType": "uint256",
          "name": "result",
          "type": "uint256"
        }
      ],
      "name": "betFinished",
      "type": "event"
    },
    {
      "anonymous": false,
      "inputs": [
        {
          "indexed": false,
          "internalType": "uint256",
          "name": "betChoice",
          "type": "uint256"
        },
        {
          "indexed": false,
          "internalType": "uint256",
          "name": "betAmount",
          "type": "uint256"
        }
      ],
      "name": "newBetCreated",
      "type": "event"
    },
    {
      "constant": true,
      "inputs": [],
      "name": "_contractBalance_",
      "outputs": [
        {
          "internalType": "uint256",
          "name": "",
          "type": "uint256"
        }
      ],
      "payable": false,
      "stateMutability": "view",
      "type": "function"
    },
    {
      "constant": true,
      "inputs": [],
      "name": "owner",
      "outputs": [
        {
          "internalType": "address",
          "name": "",
          "type": "address"
        }
      ],
      "payable": false,
      "stateMutability": "view",
      "type": "function"
    },
    {
      "constant": false,
      "inputs": [],
      "name": "topUp",
      "outputs": [],
      "payable": true,
      "stateMutability": "payable",
      "type": "function"
    },
    {
      "constant": true,
      "inputs": [],
      "name": "balance",
      "outputs": [
        {
          "internalType": "uint256",
          "name": "",
          "type": "uint256"
        }
      ],
      "payable": false,
      "stateMutability": "view",
      "type": "function"
    },
    {
      "constant": false,
      "inputs": [
        {
          "internalType": "uint256",
          "name": "betChoice",
          "type": "uint256"
        }
      ],
      "name": "createBet",
      "outputs": [],
      "payable": true,
      "stateMutability": "payable",
      "type": "function"
    },
    {
      "constant": true,
      "inputs": [],
      "name": "getMyBet",
      "outputs": [
        {
          "internalType": "uint256[]",
          "name": "",
          "type": "uint256[]"
        },
        {
          "internalType": "uint256[]",
          "name": "",
          "type": "uint256[]"
        }
      ],
      "payable": false,
      "stateMutability": "view",
      "type": "function"
    },
    {
      "constant": true,
      "inputs": [],
      "name": "getMyHistory",
      "outputs": [
        {
          "internalType": "uint256",
          "name": "",
          "type": "uint256"
        },
        {
          "internalType": "uint256",
          "name": "",
          "type": "uint256"
        },
        {
          "internalType": "uint256",
          "name": "",
          "type": "uint256"
        },
        {
          "internalType": "uint256",
          "name": "",
          "type": "uint256"
        },
        {
          "internalType": "uint256",
          "name": "",
          "type": "uint256"
        }
      ],
      "payable": false,
      "stateMutability": "view",
      "type": "function"
    },
    {
      "constant": false,
      "inputs": [],
      "name": "payOut",
      "outputs": [],
      "payable": false,
      "stateMutability": "nonpayable",
      "type": "function"
    },
    {
      "constant": false,
      "inputs": [
        {
          "internalType": "address payable",
          "name": "playerAddress",
          "type": "address"
        }
      ],
      "name": "FlipNPayOut",
      "outputs": [
        {
          "internalType": "uint256",
          "name": "",
          "type": "uint256"
        },
        {
          "internalType": "uint256",
          "name": "",
          "type": "uint256"
        },
        {
          "internalType": "uint256",
          "name": "",
          "type": "uint256"
        }
      ],
      "payable": false,
      "stateMutability": "nonpayable",
      "type": "function"
    }
  ],
  "bytecode": "0x60806040526103e8600455336000806101000a81548173ffffffffffffffffffffffffffffffffffffffff021916908373ffffffffffffffffffffffffffffffffffffffff160217905550611037806100596000396000f3fe6080604052600436106100865760003560e01c8063ac793a6011610059578063ac793a60146101c7578063b24b05f8146101f5578063b69ef8a8146102a9578063c2052403146102d4578063dc29f1de146102eb57610086565b80630a39a58e1461008b5780635a148a86146100b657806369ded732146100fd5780638da5cb5b14610170575b600080fd5b34801561009757600080fd5b506100a06102f5565b6040518082815260200191505060405180910390f35b3480156100c257600080fd5b506100cb6102fb565b604051808681526020018581526020018481526020018381526020018281526020019550505050505060405180910390f35b34801561010957600080fd5b5061014c6004803603602081101561012057600080fd5b81019080803573ffffffffffffffffffffffffffffffffffffffff169060200190929190505050610463565b60405180848152602001838152602001828152602001935050505060405180910390f35b34801561017c57600080fd5b50610185610750565b604051808273ffffffffffffffffffffffffffffffffffffffff1673ffffffffffffffffffffffffffffffffffffffff16815260200191505060405180910390f35b6101f3600480360360208110156101dd57600080fd5b8101908080359060200190929190505050610775565b005b34801561020157600080fd5b5061020a610a18565b604051808060200180602001838103835285818151815260200191508051906020019060200280838360005b83811015610251578082015181840152602081019050610236565b50505050905001838103825284818151815260200191508051906020019060200280838360005b83811015610293578082015181840152602081019050610278565b5050505090500194505050505060405180910390f35b3480156102b557600080fd5b506102be610b4b565b6040518082815260200191505060405180910390f35b3480156102e057600080fd5b506102e9610b55565b005b6102f3610b63565b005b60015481565b6000806000806000600360003373ffffffffffffffffffffffffffffffffffffffff1673ffffffffffffffffffffffffffffffffffffffff16815260200190815260200160002060000154600360003373ffffffffffffffffffffffffffffffffffffffff1673ffffffffffffffffffffffffffffffffffffffff16815260200190815260200160002060010154600360003373ffffffffffffffffffffffffffffffffffffffff1673ffffffffffffffffffffffffffffffffffffffff16815260200190815260200160002060030154600360003373ffffffffffffffffffffffffffffffffffffffff1673ffffffffffffffffffffffffffffffffffffffff16815260200190815260200160002060020154600360003373ffffffffffffffffffffffffffffffffffffffff1673ffffffffffffffffffffffffffffffffffffffff16815260200190815260200160002060040154945094509450945094509091929394565b600080600080610471610b75565b9050600080905060008090506000600260008973ffffffffffffffffffffffffffffffffffffffff1673ffffffffffffffffffffffffffffffffffffffff168152602001908152602001600020600001805490501161051b576040517f08c379a0000000000000000000000000000000000000000000000000000000008152600401808060200182810382526023815260200180610fad6023913960400191505060405180910390fd5b60008090505b600260008973ffffffffffffffffffffffffffffffffffffffff1673ffffffffffffffffffffffffffffffffffffffff1681526020019081526020016000206000018054905081101561069357600260008973ffffffffffffffffffffffffffffffffffffffff1673ffffffffffffffffffffffffffffffffffffffff16815260200190815260200160002060010181815481106105bb57fe5b90600052602060002001548301925083600260008a73ffffffffffffffffffffffffffffffffffffffff1673ffffffffffffffffffffffffffffffffffffffff168152602001908152602001600020600001828154811061061857fe5b9060005260206000200154141561068657600260008973ffffffffffffffffffffffffffffffffffffffff1673ffffffffffffffffffffffffffffffffffffffff168152602001908152602001600020600101818154811061067657fe5b9060005260206000200154820191505b8080600101915050610521565b5061069e8282610b87565b6106a6610d1f565b60008111156106f657806001600082825403925050819055508673ffffffffffffffffffffffffffffffffffffffff166108fc829081150290604051600060405180830381858888f19350505050505b7f0957d90febb3cf2ed06552f937058347e227571bae97c3f6281d23c67e31987f82828560405180848152602001838152602001828152602001935050505060405180910390a18181849550955095505050509193909250565b6000809054906101000a900473ffffffffffffffffffffffffffffffffffffffff1681565b60045434101561078457600080fd5b60018114806107935750600081145b610805576040517f08c379a00000000000000000000000000000000000000000000000000000000081526004018080602001828103825260148152602001807f4265742073686f756c642062652031206f72203000000000000000000000000081525060200191505060405180910390fd5b3460016000828254019250508190555061081e81610da7565b6000600260003373ffffffffffffffffffffffffffffffffffffffff1673ffffffffffffffffffffffffffffffffffffffff1681526020019081526020016000206000018054905090506000600260003373ffffffffffffffffffffffffffffffffffffffff1673ffffffffffffffffffffffffffffffffffffffff1681526020019081526020016000206001018054905090508082146108bb57fe5b8234604051602001808381526020018281526020019250505060405160208183030381529060405280519060200120600260003373ffffffffffffffffffffffffffffffffffffffff1673ffffffffffffffffffffffffffffffffffffffff168152602001908152602001600020600001600184038154811061093a57fe5b9060005260206000200154600260003373ffffffffffffffffffffffffffffffffffffffff1673ffffffffffffffffffffffffffffffffffffffff168152602001908152602001600020600101600184038154811061099557fe5b9060005260206000200154604051602001808381526020018281526020019250505060405160208183030381529060405280519060200120146109d457fe5b7ff7f92f2f28ca9b06667129c135839ce7b3798d2b107935454ff4eabd2097f47e8334604051808381526020018281526020019250505060405180910390a1505050565b606080600260003373ffffffffffffffffffffffffffffffffffffffff1673ffffffffffffffffffffffffffffffffffffffff168152602001908152602001600020600001600260003373ffffffffffffffffffffffffffffffffffffffff1673ffffffffffffffffffffffffffffffffffffffff16815260200190815260200160002060010181805480602002602001604051908101604052809291908181526020018280548015610aea57602002820191906000526020600020905b815481526020019060010190808311610ad6575b5050505050915080805480602002602001604051908101604052809291908181526020018280548015610b3c57602002820191906000526020600020905b815481526020019060010190808311610b28575b50505050509050915091509091565b6000600154905090565b610b5e33610463565b505050565b34600160008282540192505081905550565b600060024281610b8157fe5b06905090565b81600360003373ffffffffffffffffffffffffffffffffffffffff1673ffffffffffffffffffffffffffffffffffffffff1681526020019081526020016000206000016000828254019250508190555080600360003373ffffffffffffffffffffffffffffffffffffffff1673ffffffffffffffffffffffffffffffffffffffff16815260200190815260200160002060010160008282540192505081905550600360003373ffffffffffffffffffffffffffffffffffffffff1673ffffffffffffffffffffffffffffffffffffffff168152602001908152602001600020600201600081548092919060010191905055506000811115610cd4576001600360003373ffffffffffffffffffffffffffffffffffffffff1673ffffffffffffffffffffffffffffffffffffffff168152602001908152602001600020600301600082825401925050819055505b80600360003373ffffffffffffffffffffffffffffffffffffffff1673ffffffffffffffffffffffffffffffffffffffff168152602001908152602001600020600401819055505050565b610d27610f20565b80600260003373ffffffffffffffffffffffffffffffffffffffff1673ffffffffffffffffffffffffffffffffffffffff1681526020019081526020016000206000820151816000019080519060200190610d83929190610f3a565b506020820151816001019080519060200190610da0929190610f3a565b5090505050565b600a600260003373ffffffffffffffffffffffffffffffffffffffff1673ffffffffffffffffffffffffffffffffffffffff1681526020019081526020016000206000018054905010610e45576040517f08c379a0000000000000000000000000000000000000000000000000000000008152600401808060200182810382526033815260200180610fd06033913960400191505060405180910390fd5b600260003373ffffffffffffffffffffffffffffffffffffffff1673ffffffffffffffffffffffffffffffffffffffff168152602001908152602001600020600001819080600181540180825580915050906001820390600052602060002001600090919290919091505550600260003373ffffffffffffffffffffffffffffffffffffffff1673ffffffffffffffffffffffffffffffffffffffff16815260200190815260200160002060010134908060018154018082558091505090600182039060005260206000200160009091929091909150555050565b604051806040016040528060608152602001606081525090565b828054828255906000526020600020908101928215610f76579160200282015b82811115610f75578251825591602001919060010190610f5a565b5b509050610f839190610f87565b5090565b610fa991905b80821115610fa5576000816000905550600101610f8d565b5090565b9056fe4e6f2062657420706c616365642c20706c61736520706c616365207468652062657421546f6f206d616e79206265747320666f72206f6e6520647261773b20506c656173652068697420464c495020627574746f6e21a265627a7a72315820fdc87c2a6318f71399322fe8b811c799e389a123f29033b425e758ca33028cb564736f6c634300050c0032",
  "source": "import \"./Ownable.sol\";\r\npragma solidity 0.5.12;\r\n\r\ncontract CoinFlip is Ownable{\r\n\r\n    uint public _contractBalance_;\r\n\r\n    // status of active bets; Each player can have multiple bets before each flip\r\n    //Update each time player submited new bet\r\n\r\n    struct activeBet {\r\n        uint[] betListPrecdictions;  // 0 or 1\r\n        uint[] betListAmount; //wei\r\n        }\r\n\r\n    //list of all activities of a player (update after finished solving each bet)\r\n    struct betHistory {\r\n        uint totalSpentAmount;\r\n        uint totalWinAmount;\r\n        uint totalGames;\r\n        uint totalWins;\r\n        uint lastWinAmount;\r\n    }\r\n\r\n    //betList is a list of all active bets\r\n    // Should limit storage size somehow to avoid everflow in future?\r\n    mapping (address => activeBet) private playerActiveBetList;\r\n\r\n    //playerList store information\r\n    // Should limit storage size somehow to avoid everflow in future?\r\n    mapping (address => betHistory) private playerHistory;\r\n\r\n    //newBetCreated emit when created and not finished\r\n    event newBetCreated(uint betChoice, uint betAmount);\r\n\r\n    //betFinished emit when\r\n    event betFinished(uint betAmount, uint winAmount, uint result);\r\n\r\n    uint _minBetAmount = 1000;\r\n\r\n    modifier higherMin(){\r\n        require(msg.value >= _minBetAmount);\r\n        _;\r\n    }\r\n\r\n    function topUp() public payable {\r\n        _contractBalance_ += msg.value;\r\n    }\r\n\r\n    function balance() public view returns (uint) {\r\n      return _contractBalance_;\r\n    }\r\n\r\n    function createBet(uint betChoice) public payable higherMin() {\r\n        require(betChoice == 1 || betChoice == 0, \"Bet should be 1 or 0\");\r\n        _contractBalance_ += msg.value;\r\n\r\n        insertNewBet(betChoice);\r\n\r\n        uint totalActivePredicts = playerActiveBetList[msg.sender].betListPrecdictions.length;\r\n        uint  totalActiveBets = playerActiveBetList[msg.sender].betListAmount.length;\r\n\r\n        assert(totalActivePredicts == totalActiveBets);\r\n        assert(\r\n            keccak256(\r\n                abi.encodePacked(\r\n                    playerActiveBetList[msg.sender].betListPrecdictions[totalActivePredicts - 1],\r\n                    playerActiveBetList[msg.sender].betListAmount[totalActiveBets - 1]\r\n                )\r\n            )\r\n            ==\r\n            keccak256(\r\n                abi.encodePacked(\r\n                    betChoice,\r\n                    msg.value\r\n                )\r\n            )\r\n        );\r\n\r\n        emit newBetCreated(betChoice, msg.value);\r\n        //checkPayOut(newPlayersBet)\r\n    }\r\n\r\n    function insertNewBet(uint betChoice) private {\r\n        require(playerActiveBetList[msg.sender].betListPrecdictions.length < 10, \"Too many bets for one draw; Please hit FLIP button!\");\r\n        playerActiveBetList[msg.sender].betListPrecdictions.push(betChoice);\r\n        playerActiveBetList[msg.sender].betListAmount.push(msg.value);\r\n    }\r\n\r\n    function getMyBet() public view returns(uint[] memory, uint[] memory)\r\n    {\r\n        return (\r\n            playerActiveBetList[msg.sender].betListPrecdictions,\r\n            playerActiveBetList[msg.sender].betListAmount\r\n        );\r\n    }\r\n\r\n    function getMyHistory() public view returns(uint, uint, uint, uint, uint)\r\n    {\r\n        return (\r\n            playerHistory[msg.sender].totalSpentAmount,\r\n            playerHistory[msg.sender].totalWinAmount,\r\n            playerHistory[msg.sender].totalWins,\r\n            playerHistory[msg.sender].totalGames,\r\n            playerHistory[msg.sender].lastWinAmount\r\n        );\r\n    }\r\n\r\n    function random() internal view returns(uint) {\r\n        return now % 2;\r\n    }\r\n\r\n    function updatePlayerHistory(uint spentAmount, uint winAmount) internal {\r\n        playerHistory[msg.sender].totalSpentAmount +=  spentAmount;\r\n        playerHistory[msg.sender].totalWinAmount += winAmount;\r\n        playerHistory[msg.sender].totalGames++;\r\n        if (winAmount>0) {\r\n            playerHistory[msg.sender].totalWins += 1;\r\n        }\r\n        playerHistory[msg.sender].lastWinAmount = winAmount;\r\n    }\r\n\r\n    function resetPlayerBetList() internal {\r\n        activeBet memory noBets;\r\n        playerActiveBetList[msg.sender] = noBets;\r\n    }\r\n\r\n    function payOut() public {\r\n      FlipNPayOut(msg.sender);\r\n    }\r\n\r\n    function FlipNPayOut(address payable playerAddress) public returns(uint , uint, uint) {\r\n        uint result = random();\r\n        uint spentAmount = 0;\r\n        uint winAmount = 0;\r\n\r\n        require(    playerActiveBetList[playerAddress].betListPrecdictions.length > 0,\r\n                    \"No bet placed, plase place the bet!\");\r\n\r\n        for (uint x=0; x < playerActiveBetList[playerAddress].betListPrecdictions.length; x++) {\r\n            spentAmount += playerActiveBetList[playerAddress].betListAmount[x];\r\n            if (playerActiveBetList[playerAddress].betListPrecdictions[x] == result) {\r\n                winAmount += playerActiveBetList[playerAddress].betListAmount[x];\r\n            }\r\n        }\r\n\r\n        updatePlayerHistory(spentAmount, winAmount);\r\n\r\n        resetPlayerBetList();\r\n\r\n        if (winAmount>0) {\r\n            _contractBalance_ -= winAmount;\r\n            playerAddress.send(winAmount); //Should change WIn rate later..\r\n        }\r\n\r\n        emit betFinished(spentAmount, winAmount, result);\r\n        return (spentAmount, winAmount, result);\r\n    }\r\n\r\n    /*\r\n    function deleteplayer(address creator) public onlyOwner {\r\n      string memory name = people[creator].name;\r\n      bool senior = people[creator].senior;\r\n\r\n       delete people[creator];\r\n       assert(people[creator].age == 0);\r\n       emit playerDeleted(name, senior, owner);\r\n   }\r\n   function getCreator(uint index) public view onlyOwner returns(address){\r\n       return creators[index];\r\n   }\r\n   function withdrawAll() public onlyOwner returns(uint) {\r\n       uint toTransfer = balance;\r\n       balance = 0;\r\n       msg.sender.transfer(toTransfer);\r\n       return toTransfer;\r\n   }\r\n   */\r\n\r\n}\r\n",
  "sourcePath": "D:\\@TUNG 2020\\IVANONTECH\\SOLIDITY 201\\coinFlip3\\contracts\\CoinFlip.sol",
  "compiler": {
    "name": "solc",
    "version": "0.5.12+commit.7709ece9.Emscripten.clang"
  },
  "schemaVersion": "3.2.0",
  "updatedAt": "2020-06-20T04:44:34.339Z",
  "networkType": "ethereum",
  "devdoc": {
    "methods": {}
  },
  "userdoc": {
    "methods": {}
  }
}