{
  "contractName": "CoinFlip100",
  "abi": [
    {
      "constant": true,
      "inputs": [],
      "name": "_contractBalance_",
      "outputs": [
        {
          "name": "",
          "type": "uint256"
        }
      ],
      "payable": false,
      "stateMutability": "view",
      "type": "function"
    },
    {
      "constant": true,
      "inputs": [
        {
          "name": "",
          "type": "address"
        }
      ],
      "name": "playerHistory",
      "outputs": [
        {
          "name": "totalBalance",
          "type": "uint256"
        },
        {
          "name": "totalTopUp",
          "type": "uint256"
        },
        {
          "name": "totalWithdrawn",
          "type": "uint256"
        },
        {
          "name": "totalSpentAmount",
          "type": "uint256"
        },
        {
          "name": "totalWinAmount",
          "type": "uint256"
        },
        {
          "name": "totalGames",
          "type": "uint256"
        },
        {
          "name": "totalWins",
          "type": "uint256"
        },
        {
          "name": "lastWinAmount",
          "type": "uint256"
        }
      ],
      "payable": false,
      "stateMutability": "view",
      "type": "function"
    },
    {
      "constant": true,
      "inputs": [],
      "name": "_totalAllPlayerBalance_",
      "outputs": [
        {
          "name": "",
          "type": "uint256"
        }
      ],
      "payable": false,
      "stateMutability": "view",
      "type": "function"
    },
    {
      "constant": true,
      "inputs": [
        {
          "name": "",
          "type": "address"
        }
      ],
      "name": "activeBet",
      "outputs": [
        {
          "name": "waitingResult",
          "type": "bool"
        },
        {
          "name": "waitingId",
          "type": "bytes32"
        },
        {
          "name": "paidOut",
          "type": "bool"
        },
        {
          "name": "lastResult",
          "type": "uint256"
        }
      ],
      "payable": false,
      "stateMutability": "view",
      "type": "function"
    },
    {
      "constant": true,
      "inputs": [],
      "name": "BET_RANGE_MIN",
      "outputs": [
        {
          "name": "",
          "type": "uint256"
        }
      ],
      "payable": false,
      "stateMutability": "view",
      "type": "function"
    },
    {
      "constant": true,
      "inputs": [],
      "name": "owner",
      "outputs": [
        {
          "name": "",
          "type": "address"
        }
      ],
      "payable": false,
      "stateMutability": "view",
      "type": "function"
    },
    {
      "constant": true,
      "inputs": [],
      "name": "latestNumber",
      "outputs": [
        {
          "name": "",
          "type": "uint256"
        }
      ],
      "payable": false,
      "stateMutability": "view",
      "type": "function"
    },
    {
      "constant": true,
      "inputs": [],
      "name": "BET_RANGE_MAX",
      "outputs": [
        {
          "name": "",
          "type": "uint256"
        }
      ],
      "payable": false,
      "stateMutability": "view",
      "type": "function"
    },
    {
      "constant": true,
      "inputs": [],
      "name": "BET_MIN_AMOUNT_WEI",
      "outputs": [
        {
          "name": "",
          "type": "uint256"
        }
      ],
      "payable": false,
      "stateMutability": "view",
      "type": "function"
    },
    {
      "anonymous": false,
      "inputs": [
        {
          "indexed": false,
          "name": "betNumbers",
          "type": "uint256[]"
        },
        {
          "indexed": false,
          "name": "betAmounts_chip",
          "type": "uint256[]"
        },
        {
          "indexed": false,
          "name": "playerAddress",
          "type": "address"
        }
      ],
      "name": "newBetCreated",
      "type": "event"
    },
    {
      "anonymous": false,
      "inputs": [
        {
          "indexed": false,
          "name": "playerAddress",
          "type": "address"
        },
        {
          "indexed": false,
          "name": "winAmount",
          "type": "uint256"
        },
        {
          "indexed": false,
          "name": "result",
          "type": "uint256"
        }
      ],
      "name": "betFinished",
      "type": "event"
    },
    {
      "anonymous": false,
      "inputs": [
        {
          "indexed": false,
          "name": "noticeString",
          "type": "string"
        },
        {
          "indexed": false,
          "name": "noticeValue",
          "type": "uint256"
        }
      ],
      "name": "notice",
      "type": "event"
    },
    {
      "anonymous": false,
      "inputs": [
        {
          "indexed": false,
          "name": "playerAddress",
          "type": "address"
        },
        {
          "indexed": false,
          "name": "Id",
          "type": "bytes32"
        },
        {
          "indexed": false,
          "name": "randomNumber",
          "type": "uint256"
        },
        {
          "indexed": false,
          "name": "proof",
          "type": "bytes"
        }
      ],
      "name": "generatedRandomNumber",
      "type": "event"
    },
    {
      "anonymous": false,
      "inputs": [
        {
          "indexed": false,
          "name": "notice",
          "type": "string"
        }
      ],
      "name": "LogNewProvableQuery",
      "type": "event"
    },
    {
      "anonymous": false,
      "inputs": [
        {
          "indexed": false,
          "name": "description",
          "type": "string"
        }
      ],
      "name": "proofFailed",
      "type": "event"
    },
    {
      "constant": true,
      "inputs": [],
      "name": "random",
      "outputs": [
        {
          "name": "",
          "type": "uint256"
        }
      ],
      "payable": false,
      "stateMutability": "pure",
      "type": "function"
    },
    {
      "constant": false,
      "inputs": [
        {
          "name": "_queryId",
          "type": "bytes32"
        },
        {
          "name": "_result",
          "type": "string"
        },
        {
          "name": "_proof",
          "type": "bytes"
        }
      ],
      "name": "__callback",
      "outputs": [],
      "payable": false,
      "stateMutability": "nonpayable",
      "type": "function"
    },
    {
      "constant": false,
      "inputs": [],
      "name": "getRandom100",
      "outputs": [],
      "payable": true,
      "stateMutability": "payable",
      "type": "function"
    },
    {
      "constant": false,
      "inputs": [
        {
          "name": "topUp_chip",
          "type": "uint256"
        }
      ],
      "name": "ownerFundUp_chip",
      "outputs": [],
      "payable": true,
      "stateMutability": "payable",
      "type": "function"
    },
    {
      "constant": false,
      "inputs": [
        {
          "name": "topUp_chip",
          "type": "uint256"
        }
      ],
      "name": "playerTopUp_chip",
      "outputs": [],
      "payable": true,
      "stateMutability": "payable",
      "type": "function"
    },
    {
      "constant": true,
      "inputs": [],
      "name": "getPlayerHistory",
      "outputs": [
        {
          "name": "",
          "type": "uint256"
        },
        {
          "name": "",
          "type": "uint256"
        },
        {
          "name": "",
          "type": "uint256"
        },
        {
          "name": "",
          "type": "uint256"
        },
        {
          "name": "",
          "type": "uint256"
        },
        {
          "name": "",
          "type": "uint256"
        },
        {
          "name": "",
          "type": "uint256"
        },
        {
          "name": "",
          "type": "uint256"
        }
      ],
      "payable": false,
      "stateMutability": "view",
      "type": "function"
    },
    {
      "constant": true,
      "inputs": [],
      "name": "getContractBalance",
      "outputs": [
        {
          "name": "",
          "type": "uint256"
        }
      ],
      "payable": false,
      "stateMutability": "view",
      "type": "function"
    },
    {
      "constant": true,
      "inputs": [],
      "name": "get_totalAllPlayerBalance_",
      "outputs": [
        {
          "name": "",
          "type": "uint256"
        }
      ],
      "payable": false,
      "stateMutability": "view",
      "type": "function"
    },
    {
      "constant": true,
      "inputs": [],
      "name": "contractPlayableFund",
      "outputs": [
        {
          "name": "",
          "type": "uint256"
        }
      ],
      "payable": false,
      "stateMutability": "view",
      "type": "function"
    },
    {
      "constant": true,
      "inputs": [],
      "name": "playerPlayableFund",
      "outputs": [
        {
          "name": "",
          "type": "uint256"
        }
      ],
      "payable": false,
      "stateMutability": "view",
      "type": "function"
    },
    {
      "constant": false,
      "inputs": [
        {
          "name": "betNumbers",
          "type": "uint256[]"
        },
        {
          "name": "betAmount_chip",
          "type": "uint256[]"
        }
      ],
      "name": "createMyBet",
      "outputs": [
        {
          "name": "",
          "type": "bool"
        }
      ],
      "payable": false,
      "stateMutability": "nonpayable",
      "type": "function"
    },
    {
      "constant": true,
      "inputs": [],
      "name": "getMyBet",
      "outputs": [
        {
          "name": "",
          "type": "uint256[]"
        },
        {
          "name": "",
          "type": "uint256[]"
        },
        {
          "name": "",
          "type": "bool"
        },
        {
          "name": "",
          "type": "bytes32"
        }
      ],
      "payable": false,
      "stateMutability": "view",
      "type": "function"
    },
    {
      "constant": true,
      "inputs": [
        {
          "name": "winWei",
          "type": "uint256"
        }
      ],
      "name": "getWinAmountWei",
      "outputs": [
        {
          "name": "",
          "type": "uint256"
        }
      ],
      "payable": false,
      "stateMutability": "view",
      "type": "function"
    },
    {
      "constant": false,
      "inputs": [],
      "name": "playerTossCoin",
      "outputs": [],
      "payable": false,
      "stateMutability": "nonpayable",
      "type": "function"
    },
    {
      "constant": false,
      "inputs": [],
      "name": "ownerWithdrawAll",
      "outputs": [
        {
          "name": "",
          "type": "uint256"
        }
      ],
      "payable": false,
      "stateMutability": "nonpayable",
      "type": "function"
    },
    {
      "constant": false,
      "inputs": [],
      "name": "playerWithdrawAll",
      "outputs": [
        {
          "name": "",
          "type": "uint256"
        }
      ],
      "payable": false,
      "stateMutability": "nonpayable",
      "type": "function"
    }
  ],
  "bytecode": "0x60806040526000600655606360075566038d7ea4c6800060085560085460095560be600a55336000806101000a81548173ffffffffffffffffffffffffffffffffffffffff021916908373ffffffffffffffffffffffffffffffffffffffff16021790555061535c806100736000396000f300608060405260043610610149576000357c0100000000000000000000000000000000000000000000000000000000900463ffffffff1680630a39a58e1461014e5780630da2779014610179578063180bfdf6146102015780631c7ff1ba1461022c5780631de944cf146102a857806320912e38146102b25780632890a9f8146102dd57806338bbfa501461039e5780633c50b9131461045b5780635ec01e4d146104865780636f9fb98a146104b157806376b0a4a0146104dc5780638085688c146104fc5780638a8b19e5146105135780638da5cb5b1461053e57806394ebe60814610595578063b24b05f8146105c0578063dc34b0aa1461068e578063dd85881f146106b9578063e0d5af94146106e4578063e1bc44e71461070f578063e3c128721461073a578063e57acb3514610796578063e862f79d146107c1578063f88c09f9146107e1575b600080fd5b34801561015a57600080fd5b50610163610822565b6040518082815260200191505060405180910390f35b34801561018557600080fd5b506101ba600480360381019080803573ffffffffffffffffffffffffffffffffffffffff169060200190929190505050610828565b604051808981526020018881526020018781526020018681526020018581526020018481526020018381526020018281526020019850505050505050505060405180910390f35b34801561020d57600080fd5b50610216610870565b6040518082815260200191505060405180910390f35b34801561023857600080fd5b5061026d600480360381019080803573ffffffffffffffffffffffffffffffffffffffff169060200190929190505050610876565b604051808515151515815260200184600019166000191681526020018315151515815260200182815260200194505050505060405180910390f35b6102b06108c0565b005b3480156102be57600080fd5b506102c7610bf1565b6040518082815260200191505060405180910390f35b3480156102e957600080fd5b506103846004803603810190808035906020019082018035906020019080806020026020016040519081016040528093929190818152602001838360200280828437820191505050505050919291929080359060200190820180359060200190808060200260200160405190810160405280939291908181526020018383602002808284378201915050505050509192919290505050610c13565b604051808215151515815260200191505060405180910390f35b3480156103aa57600080fd5b506104596004803603810190808035600019169060200190929190803590602001908201803590602001908080601f0160208091040260200160405190810160405280939291908181526020018383808284378201915050505050509192919290803590602001908201803590602001908080601f0160208091040260200160405190810160405280939291908181526020018383808284378201915050505050509192919290505050610f16565b005b34801561046757600080fd5b50610470611221565b6040518082815260200191505060405180910390f35b34801561049257600080fd5b5061049b6112ca565b6040518082815260200191505060405180910390f35b3480156104bd57600080fd5b506104c66112d2565b6040518082815260200191505060405180910390f35b6104fa600480360381019080803590602001909291905050506112dc565b005b34801561050857600080fd5b506105116113df565b005b34801561051f57600080fd5b506105286118a1565b6040518082815260200191505060405180910390f35b34801561054a57600080fd5b506105536118a7565b604051808273ffffffffffffffffffffffffffffffffffffffff1673ffffffffffffffffffffffffffffffffffffffff16815260200191505060405180910390f35b3480156105a157600080fd5b506105aa6118cc565b6040518082815260200191505060405180910390f35b3480156105cc57600080fd5b506105d5611cfa565b604051808060200180602001851515151581526020018460001916600019168152602001838103835287818151815260200191508051906020019060200280838360005b83811015610634578082015181840152602081019050610619565b50505050905001838103825286818151815260200191508051906020019060200280838360005b8381101561067657808201518184015260208101905061065b565b50505050905001965050505050505060405180910390f35b34801561069a57600080fd5b506106a3611ece565b6040518082815260200191505060405180910390f35b3480156106c557600080fd5b506106ce611ed4565b6040518082815260200191505060405180910390f35b3480156106f057600080fd5b506106f9611eda565b6040518082815260200191505060405180910390f35b34801561071b57600080fd5b50610724611fa0565b6040518082815260200191505060405180910390f35b34801561074657600080fd5b5061074f611fa6565b604051808981526020018881526020018781526020018681526020018581526020018481526020018381526020018281526020019850505050505050505060405180910390f35b3480156107a257600080fd5b506107ab612260565b6040518082815260200191505060405180910390f35b6107df6004803603810190808035906020019092919050505061226a565b005b3480156107ed57600080fd5b5061080c6004803603810190808035906020019092919050505061236a565b6040518082815260200191505060405180910390f35b600b5481565b600e6020528060005260406000206000915090508060000154908060010154908060020154908060030154908060040154908060050154908060060154908060070154905088565b600c5481565b600d6020528060005260406000206000915090508060020160009054906101000a900460ff16908060030154908060040160009054906101000a900460ff16908060050154905084565b60008060001515600d60003373ffffffffffffffffffffffffffffffffffffffff1673ffffffffffffffffffffffffffffffffffffffff16815260200190815260200160002060020160009054906101000a900460ff1615151415156109b4576040517f08c379a000000000000000000000000000000000000000000000000000000000815260040180806020018281038252602e8152602001807f506c617965722069732077616974696e6720666f722062657420726573756c7481526020017f2066726f6d204f7261636c652e2e00000000000000000000000000000000000081525060400191505060405180910390fd5b6000915062030d4090506109ca82600183612384565b600d60003373ffffffffffffffffffffffffffffffffffffffff1673ffffffffffffffffffffffffffffffffffffffff168152602001908152602001600020600301816000191690555033600f6000600d60003373ffffffffffffffffffffffffffffffffffffffff1673ffffffffffffffffffffffffffffffffffffffff168152602001908152602001600020600301546000191660001916815260200190815260200160002060006101000a81548173ffffffffffffffffffffffffffffffffffffffff021916908373ffffffffffffffffffffffffffffffffffffffff1602179055506000600102600d60003373ffffffffffffffffffffffffffffffffffffffff1673ffffffffffffffffffffffffffffffffffffffff1681526020019081526020016000206003015460001916141515610bed576001600d60003373ffffffffffffffffffffffffffffffffffffffff1673ffffffffffffffffffffffffffffffffffffffff16815260200190815260200160002060020160006101000a81548160ff0219169083151502179055507fc4dc360d0a9c0677a3379ae0a3d81e887f761e65fdf3d7e00859d1bcd3c473896040518080602001828103825260318152602001807f50726f7661626c65207175657279207761732073656e742c2077616974696e6781526020017f20666f722074686520616e737765722e2e00000000000000000000000000000081525060400191505060405180910390a15b5050565b600080600b541415610c065760009050610c10565b600c54600b540390505b90565b600060606000600102600d60003373ffffffffffffffffffffffffffffffffffffffff1673ffffffffffffffffffffffffffffffffffffffff1681526020019081526020016000206003015460001916141515610cfe576040517f08c379a00000000000000000000000000000000000000000000000000000000081526004018080602001828103825260278152602001807f2e2e20506c65617365205761697420666f7220726573756c74206f66206c617381526020017f74206265742e2e0000000000000000000000000000000000000000000000000081525060400191505060405180910390fd5b610d066129b6565b1515610d7a576040517f08c379a00000000000000000000000000000000000000000000000000000000081526004018080602001828103825260188152602001807f4e6f742076616c696420506c617965722042616c616e6365000000000000000081525060200191505060405180910390fd5b610d8383612b21565b9050610d8f8482612b84565b1515610e03576040517f08c379a000000000000000000000000000000000000000000000000000000000815260040180806020018281038252600d8152602001807f4e4f542056414c4944204245540000000000000000000000000000000000000081525060200191505060405180910390fd5b610e0c81612d7f565b610e168482612e0e565b7f2aeacb050561fc39cce82b85f933b4093153305890dd8ef86f07c861b720cb7e8482336040518080602001806020018473ffffffffffffffffffffffffffffffffffffffff1673ffffffffffffffffffffffffffffffffffffffff168152602001838103835286818151815260200191508051906020019060200280838360005b83811015610eb3578082015181840152602081019050610e98565b50505050905001838103825285818151815260200191508051906020019060200280838360005b83811015610ef5578082015181840152602081019050610eda565b505050509050019550505050505060405180910390a1600191505092915050565b600080610f21612f35565b73ffffffffffffffffffffffffffffffffffffffff163373ffffffffffffffffffffffffffffffffffffffff16141515610f5a57600080fd5b60639150600f6000866000191660001916815260200190815260200160002060009054906101000a900473ffffffffffffffffffffffffffffffffffffffff1690508460001916600d60008373ffffffffffffffffffffffffffffffffffffffff1673ffffffffffffffffffffffffffffffffffffffff1681526020019081526020016000206003015460001916141515611083576040517f08c379a00000000000000000000000000000000000000000000000000000000081526004018080602001828103825260238152602001807f20717565727920496420616e642041646472657373206e6f74206d617463686581526020017f642021000000000000000000000000000000000000000000000000000000000081525060400191505060405180910390fd5b81600d60008373ffffffffffffffffffffffffffffffffffffffff1673ffffffffffffffffffffffffffffffffffffffff168152602001908152602001600020600501819055506000600d60008373ffffffffffffffffffffffffffffffffffffffff1673ffffffffffffffffffffffffffffffffffffffff16815260200190815260200160002060020160006101000a81548160ff02191690831515021790555061112f8183613297565b5050507f7248efa9d539f0992a7de76d7cf012b3536b70447796e04e8d984ac9bf209e3681868486604051808573ffffffffffffffffffffffffffffffffffffffff1673ffffffffffffffffffffffffffffffffffffffff168152602001846000191660001916815260200183815260200180602001828103825283818151815260200191508051906020019080838360005b838110156111dd5780820151818401526020810190506111c2565b50505050905090810190601f16801561120a5780820380516001836020036101000a031916815260200191505b509550505050505060405180910390a15050505050565b60008061122c610bf1565b905080600e60003373ffffffffffffffffffffffffffffffffffffffff1673ffffffffffffffffffffffffffffffffffffffff1681526020019081526020016000206000015410156112c257600e60003373ffffffffffffffffffffffffffffffffffffffff1673ffffffffffffffffffffffffffffffffffffffff1681526020019081526020016000206000015491506112c6565b8091505b5090565b600080905090565b6000600b54905090565b6000809054906101000a900473ffffffffffffffffffffffffffffffffffffffff1673ffffffffffffffffffffffffffffffffffffffff163373ffffffffffffffffffffffffffffffffffffffff1614151561133757600080fd5b61134081613587565b341415156113b6576040517f08c379a000000000000000000000000000000000000000000000000000000000815260040180806020018281038252601e8152602001807f6d73672e76616c756520213d20746f7055705f63686970202a2031653136000081525060200191505060405180910390fd5b6113bf81613587565b341415156113cc57600080fd5b34600b6000828254019250508190555050565b60001515600d60003373ffffffffffffffffffffffffffffffffffffffff1673ffffffffffffffffffffffffffffffffffffffff16815260200190815260200160002060020160009054906101000a900460ff1615151415156114d0576040517f08c379a00000000000000000000000000000000000000000000000000000000081526004018080602001828103825260368152602001807f416c72656164792063616c6c65642072616e646f6d204e756d6265722c20706c81526020017f65617365207761697420666f7220726573756c742e2e0000000000000000000081525060400191505060405180910390fd5b6000600102600d60003373ffffffffffffffffffffffffffffffffffffffff1673ffffffffffffffffffffffffffffffffffffffff1681526020019081526020016000206003015460001916141515611591576040517f08c379a00000000000000000000000000000000000000000000000000000000081526004018080602001828103825260148152602001807f416c72656164792068617320726573756c742e2e00000000000000000000000081525060200191505060405180910390fd5b60011515600d60003373ffffffffffffffffffffffffffffffffffffffff1673ffffffffffffffffffffffffffffffffffffffff16815260200190815260200160002060040160009054906101000a900460ff16151514151561165c576040517f08c379a00000000000000000000000000000000000000000000000000000000081526004018080602001828103825260178152602001807f2e2e4c61737420626574206e6f7420736f6c7665642e2e00000000000000000081525060200191505060405180910390fd5b6116646129b6565b15156116fe576040517f08c379a00000000000000000000000000000000000000000000000000000000081526004018080602001828103825260288152602001807f706c61796572546f7373436f696e3a204e6f742076616c696420506c6179657281526020017f2042616c616e636500000000000000000000000000000000000000000000000081525060400191505060405180910390fd5b6000600d60003373ffffffffffffffffffffffffffffffffffffffff1673ffffffffffffffffffffffffffffffffffffffff168152602001908152602001600020600001805490501115156117e1576040517f08c379a00000000000000000000000000000000000000000000000000000000081526004018080602001828103825260338152602001807f706c61796572546f7373436f696e3a204e6f2062657420706c616365642c207081526020017f6c61736520706c6163652074686520626574210000000000000000000000000081525060400191505060405180910390fd5b6001600d60003373ffffffffffffffffffffffffffffffffffffffff1673ffffffffffffffffffffffffffffffffffffffff16815260200190815260200160002060020160006101000a81548160ff0219169083151502179055506000600d60003373ffffffffffffffffffffffffffffffffffffffff1673ffffffffffffffffffffffffffffffffffffffff16815260200190815260200160002060040160006101000a81548160ff02191690831515021790555061189f6108c0565b565b60065481565b6000809054906101000a900473ffffffffffffffffffffffffffffffffffffffff1681565b6000806118d7613595565b6000600e60003373ffffffffffffffffffffffffffffffffffffffff1673ffffffffffffffffffffffffffffffffffffffff16815260200190815260200160002060000154111515611991576040517f08c379a00000000000000000000000000000000000000000000000000000000081526004018080602001828103825260168152602001807f506c61796572206973206f7574206f66206d6f6e65790000000000000000000081525060200191505060405180910390fd5b6119996129b6565b1515611a0d576040517f08c379a00000000000000000000000000000000000000000000000000000000081526004018080602001828103825260158152602001807f496e76616c69642062616c616e636520636865636b000000000000000000000081525060200191505060405180910390fd5b6000600102600d60003373ffffffffffffffffffffffffffffffffffffffff1673ffffffffffffffffffffffffffffffffffffffff1681526020019081526020016000206003015460001916141515611ace576040517f08c379a00000000000000000000000000000000000000000000000000000000081526004018080602001828103825260188152602001807f57616974696e6720666f722062657420726573756c742e2e000000000000000081525060200191505060405180910390fd5b6000600d60003373ffffffffffffffffffffffffffffffffffffffff1673ffffffffffffffffffffffffffffffffffffffff16815260200190815260200160002060000180549050141515611bb1576040517f08c379a000000000000000000000000000000000000000000000000000000000815260040180806020018281038252602d8152602001807f4265742063616e206e6f742062652063616e63656c6c65642c20436c69636b2081526020017f466c697020427574746f6e2e2e0000000000000000000000000000000000000081525060400191505060405180910390fd5b600e60003373ffffffffffffffffffffffffffffffffffffffff1673ffffffffffffffffffffffffffffffffffffffff16815260200190815260200160002060000154905080600e60003373ffffffffffffffffffffffffffffffffffffffff1673ffffffffffffffffffffffffffffffffffffffff1681526020019081526020016000206002016000828254019250508190555080600b60008282540392505081905550611c5e613595565b6000600e60003373ffffffffffffffffffffffffffffffffffffffff1673ffffffffffffffffffffffffffffffffffffffff16815260200190815260200160002060000154141515611cac57fe5b3373ffffffffffffffffffffffffffffffffffffffff166108fc829081150290604051600060405180830381858888f19350505050158015611cf2573d6000803e3d6000fd5b508091505090565b606080600080600d60003373ffffffffffffffffffffffffffffffffffffffff1673ffffffffffffffffffffffffffffffffffffffff168152602001908152602001600020600001611ddb600d60003373ffffffffffffffffffffffffffffffffffffffff1673ffffffffffffffffffffffffffffffffffffffff168152602001908152602001600020600101805480602002602001604051908101604052809291908181526020018280548015611dd157602002820191906000526020600020905b815481526020019060010190808311611dbd575b5050505050613790565b600d60003373ffffffffffffffffffffffffffffffffffffffff1673ffffffffffffffffffffffffffffffffffffffff16815260200190815260200160002060020160009054906101000a900460ff16600d60003373ffffffffffffffffffffffffffffffffffffffff1673ffffffffffffffffffffffffffffffffffffffff1681526020019081526020016000206003015483805480602002602001604051908101604052809291908181526020018280548015611eb957602002820191906000526020600020905b815481526020019060010190808311611ea5575b50505050509350935093509350935090919293565b60105481565b60075481565b6000806000809054906101000a900473ffffffffffffffffffffffffffffffffffffffff1673ffffffffffffffffffffffffffffffffffffffff163373ffffffffffffffffffffffffffffffffffffffff16141515611f3857600080fd5b611f406112d2565b90506000600c819055506000600b819055503373ffffffffffffffffffffffffffffffffffffffff166108fc829081150290604051600060405180830381858888f19350505050158015611f98573d6000803e3d6000fd5b508091505090565b60095481565b600080600080600080600080611fba6129b6565b151561202e576040517f08c379a00000000000000000000000000000000000000000000000000000000081526004018080602001828103825260188152602001807f4e6f742076616c696420506c617965722042616c616e6365000000000000000081525060200191505060405180910390fd5b600e60003373ffffffffffffffffffffffffffffffffffffffff1673ffffffffffffffffffffffffffffffffffffffff16815260200190815260200160002060000154600e60003373ffffffffffffffffffffffffffffffffffffffff1673ffffffffffffffffffffffffffffffffffffffff16815260200190815260200160002060010154600e60003373ffffffffffffffffffffffffffffffffffffffff1673ffffffffffffffffffffffffffffffffffffffff16815260200190815260200160002060020154600e60003373ffffffffffffffffffffffffffffffffffffffff1673ffffffffffffffffffffffffffffffffffffffff16815260200190815260200160002060030154600e60003373ffffffffffffffffffffffffffffffffffffffff1673ffffffffffffffffffffffffffffffffffffffff16815260200190815260200160002060040154600e60003373ffffffffffffffffffffffffffffffffffffffff1673ffffffffffffffffffffffffffffffffffffffff16815260200190815260200160002060050154600e60003373ffffffffffffffffffffffffffffffffffffffff1673ffffffffffffffffffffffffffffffffffffffff16815260200190815260200160002060060154600e60003373ffffffffffffffffffffffffffffffffffffffff1673ffffffffffffffffffffffffffffffffffffffff16815260200190815260200160002060070154975097509750975097509750975097509091929394959697565b6000600c54905090565b61227381613587565b341415156122e9576040517f08c379a000000000000000000000000000000000000000000000000000000000815260040180806020018281038252601e8152602001807f6d73672e76616c756520213d20746f7055705f63686970202a2031653136000081525060200191505060405180910390fd5b6122f281613587565b341415156122ff57600080fd5b34600b6000828254019250508190555034600e60003373ffffffffffffffffffffffffffffffffffffffff1673ffffffffffffffffffffffffffffffffffffffff16815260200190815260200160002060010160008282540192505081905550612367613595565b50565b60006064600a54830281151561237c57fe5b049050919050565b6000606080606060006060806123986151be565b6000606060008c1180156123ad575060208c11155b15156123b857600080fd5b600a8d029c5060016040519080825280601f01601f1916602001820160405280156123f25781602001602082028038833980820191505090505b5098508b7f01000000000000000000000000000000000000000000000000000000000000000289600081518110151561242757fe5b9060200101907effffffffffffffffffffffffffffffffffffffffffffffffffffffffffffff1916908160001a90535060206040519080825280601f01601f19166020018201604052801561248b5781602001602082028038833980820191505090505b50975060206040519080825280601f01601f1916602001820160405280156124c25781602001602082028038833980820191505090505b5096506124cd6137f3565b95506020885242411860014303401860208901526020875285602088015260206040519080825280601f01601f19166020018201604052801561251f5781602001602082028038833980820191505090505b5094508c602086015260086040519080825280601f01601f19166020018201604052801561255c5781602001602082028038833980820191505090505b50935061256f8560186008876000613b55565b506080604051908101604052808981526020018a81526020018881526020018681525092506125d46040805190810160405280600681526020017f72616e646f6d0000000000000000000000000000000000000000000000000000815250848d613bb5565b915060086040519080825280601f01601f19166020018201604052801561260a5781602001602082028038833980820191505090505b50905060208401517f0100000000000000000000000000000000000000000000000000000000000000810460278301537e01000000000000000000000000000000000000000000000000000000000000810460268301537d010000000000000000000000000000000000000000000000000000000000810460258301537c0100000000000000000000000000000000000000000000000000000000810460248301537b01000000000000000000000000000000000000000000000000000000810460238301537a0100000000000000000000000000000000000000000000000000008104602283015379010000000000000000000000000000000000000000000000000081046021830153780100000000000000000000000000000000000000000000000081046020830153506129a3828285600160048110151561274b57fe5b6020020151600287600060048110151561276157fe5b60200201516040518082805190602001908083835b60208310151561279b5780518252602082019150602081019050602083039250612776565b6001836020036101000a0380198251168184511680821785525050505050509050019150506020604051808303816000865af11580156127df573d6000803e3d6000fd5b5050506040513d60208110156127f457600080fd5b810190808051906020019092919050505087600260048110151561281457fe5b60200201516040516020018085805190602001908083835b602083101515612851578051825260208201915060208101905060208303925061282c565b6001836020036101000a03801982511681845116808217855250505050505090500184805190602001908083835b6020831015156128a4578051825260208201915060208101905060208303925061287f565b6001836020036101000a038019825116818451168082178552505050505050905001836000191660001916815260200182805190602001908083835b60208310151561290557805182526020820191506020810190506020830392506128e0565b6001836020036101000a0380198251168184511680821785525050505050509050019450505050506040516020818303038152906040526040518082805190602001908083835b602083101515612971578051825260208201915060208101905060208303925061294c565b6001836020036101000a0380198251168184511680821785525050505050509050019150506040518091039020613f61565b8199505050505050505050509392505050565b6000600e60003373ffffffffffffffffffffffffffffffffffffffff1673ffffffffffffffffffffffffffffffffffffffff16815260200190815260200160002060040154600e60003373ffffffffffffffffffffffffffffffffffffffff1673ffffffffffffffffffffffffffffffffffffffff16815260200190815260200160002060030154600e60003373ffffffffffffffffffffffffffffffffffffffff1673ffffffffffffffffffffffffffffffffffffffff16815260200190815260200160002060020154600e60003373ffffffffffffffffffffffffffffffffffffffff1673ffffffffffffffffffffffffffffffffffffffff16815260200190815260200160002060010154030301600e60003373ffffffffffffffffffffffffffffffffffffffff1673ffffffffffffffffffffffffffffffffffffffff168152602001908152602001600020600001541415612b195760019050612b1e565b600090505b90565b606060008090505b8251811015612b7b57612b528382815181101515612b4357fe5b90602001906020020151613587565b8382815181101515612b6057fe5b90602001906020020181815250508080600101915050612b29565b82915050919050565b600080600083518551141515612c02576040517f08c379a000000000000000000000000000000000000000000000000000000000815260040180806020018281038252600f8152602001807f204552524f52206265742061726179000000000000000000000000000000000081525060200191505060405180910390fd5b60009150600090505b8451811015612cce576009548482815181101515612c2557fe5b9060200190602002015110151515612ca5576040517f08c379a000000000000000000000000000000000000000000000000000000000815260040180806020018281038252601f8152602001807f42657420616d6f756e74206c657373207468616e206d696e20616d6f756e740081525060200191505060405180910390fd5b8381815181101515612cb357fe5b90602001906020020151820191508080600101915050612c0b565b612cd6611221565b8211151515612d73576040517f08c379a00000000000000000000000000000000000000000000000000000000081526004018080602001828103825260228152602001807f544f4f20424947204245542c20504c454153452041444a555354204f5552204281526020017f455400000000000000000000000000000000000000000000000000000000000081525060400191505060405180910390fd5b60019250505092915050565b60008090505b8151811015612e02578181815181101515612d9c57fe5b90602001906020020151600e60003373ffffffffffffffffffffffffffffffffffffffff1673ffffffffffffffffffffffffffffffffffffffff168152602001908152602001600020600301600082825401925050819055508080600101915050612d85565b612e0a613595565b5050565b60008090505b8251811015612f3057600d60003373ffffffffffffffffffffffffffffffffffffffff1673ffffffffffffffffffffffffffffffffffffffff1681526020019081526020016000206000018382815181101515612e6d57fe5b906020019060200201519080600181540180825580915050906001820390600052602060002001600090919290919091505550600d60003373ffffffffffffffffffffffffffffffffffffffff1673ffffffffffffffffffffffffffffffffffffffff1681526020019081526020016000206001018282815181101515612ef057fe5b9060200190602002015190806001815401808255809150509060018203906000526020600020016000909192909190915055508080600101915050612e14565b505050565b600080600260009054906101000a900473ffffffffffffffffffffffffffffffffffffffff1673ffffffffffffffffffffffffffffffffffffffff161480612fa757506000612fa5600260009054906101000a900473ffffffffffffffffffffffffffffffffffffffff16613f89565b145b15612fb857612fb66000613f94565b505b600260009054906101000a900473ffffffffffffffffffffffffffffffffffffffff1673ffffffffffffffffffffffffffffffffffffffff166338cc48316040518163ffffffff167c0100000000000000000000000000000000000000000000000000000000028152600401602060405180830381600087803b15801561303e57600080fd5b505af1158015613052573d6000803e3d6000fd5b505050506040513d602081101561306857600080fd5b810190808051906020019092919050505073ffffffffffffffffffffffffffffffffffffffff16600160009054906101000a900473ffffffffffffffffffffffffffffffffffffffff1673ffffffffffffffffffffffffffffffffffffffff161415156131d157600260009054906101000a900473ffffffffffffffffffffffffffffffffffffffff1673ffffffffffffffffffffffffffffffffffffffff166338cc48316040518163ffffffff167c0100000000000000000000000000000000000000000000000000000000028152600401602060405180830381600087803b15801561315557600080fd5b505af1158015613169573d6000803e3d6000fd5b505050506040513d602081101561317f57600080fd5b8101908080519060200190929190505050600160006101000a81548173ffffffffffffffffffffffffffffffffffffffff021916908373ffffffffffffffffffffffffffffffffffffffff1602179055505b600160009054906101000a900473ffffffffffffffffffffffffffffffffffffffff1673ffffffffffffffffffffffffffffffffffffffff1663c281d19e6040518163ffffffff167c0100000000000000000000000000000000000000000000000000000000028152600401602060405180830381600087803b15801561325757600080fd5b505af115801561326b573d6000803e3d6000fd5b505050506040513d602081101561328157600080fd5b8101908080519060200190929190505050905090565b6000806000806000801515600d60003373ffffffffffffffffffffffffffffffffffffffff1673ffffffffffffffffffffffffffffffffffffffff16815260200190815260200160002060040160009054906101000a900460ff161515141515613369576040517f08c379a00000000000000000000000000000000000000000000000000000000081526004018080602001828103825260158152602001807f2e2e6475706c696361746520706179206f75742e2e000000000000000000000081525060200191505060405180910390fd5b600091506001600d60003373ffffffffffffffffffffffffffffffffffffffff1673ffffffffffffffffffffffffffffffffffffffff16815260200190815260200160002060040160006101000a81548160ff021916908315150217905550600090505b600d60008873ffffffffffffffffffffffffffffffffffffffff1673ffffffffffffffffffffffffffffffffffffffff168152602001908152602001600020600001805490508110156134ef5785600d60008973ffffffffffffffffffffffffffffffffffffffff1673ffffffffffffffffffffffffffffffffffffffff1681526020019081526020016000206000018281548110151561346a57fe5b906000526020600020015414156134e2576134dd600d60008973ffffffffffffffffffffffffffffffffffffffff1673ffffffffffffffffffffffffffffffffffffffff168152602001908152602001600020600101828154811015156134cd57fe5b906000526020600020015461236a565b820191505b80806001019150506133cd565b6134f887613fa5565b61350287836140e3565b7f16681e96ee123e6c808cf8e77d2261461a1da90aaf33e0d862230ba0cea571f4878388604051808473ffffffffffffffffffffffffffffffffffffffff1673ffffffffffffffffffffffffffffffffffffffff168152602001838152602001828152602001935050505060405180910390a186828794509450945050509250925092565b600060085482029050919050565b600e60003373ffffffffffffffffffffffffffffffffffffffff1673ffffffffffffffffffffffffffffffffffffffff16815260200190815260200160002060000154600c60008282540392505081905550600e60003373ffffffffffffffffffffffffffffffffffffffff1673ffffffffffffffffffffffffffffffffffffffff16815260200190815260200160002060040154600e60003373ffffffffffffffffffffffffffffffffffffffff1673ffffffffffffffffffffffffffffffffffffffff16815260200190815260200160002060030154600e60003373ffffffffffffffffffffffffffffffffffffffff1673ffffffffffffffffffffffffffffffffffffffff16815260200190815260200160002060020154600e60003373ffffffffffffffffffffffffffffffffffffffff1673ffffffffffffffffffffffffffffffffffffffff16815260200190815260200160002060010154030301600e60003373ffffffffffffffffffffffffffffffffffffffff1673ffffffffffffffffffffffffffffffffffffffff16815260200190815260200160002060000181905550600e60003373ffffffffffffffffffffffffffffffffffffffff1673ffffffffffffffffffffffffffffffffffffffff16815260200190815260200160002060000154600c60008282540192505081905550565b606060008090505b82518110156137ea576137c183828151811015156137b257fe5b90602001906020020151614243565b83828151811015156137cf57fe5b90602001906020020181815250508080600101915050613798565b82915050919050565b600080600260009054906101000a900473ffffffffffffffffffffffffffffffffffffffff1673ffffffffffffffffffffffffffffffffffffffff16148061386557506000613863600260009054906101000a900473ffffffffffffffffffffffffffffffffffffffff16613f89565b145b15613876576138746000613f94565b505b600260009054906101000a900473ffffffffffffffffffffffffffffffffffffffff1673ffffffffffffffffffffffffffffffffffffffff166338cc48316040518163ffffffff167c0100000000000000000000000000000000000000000000000000000000028152600401602060405180830381600087803b1580156138fc57600080fd5b505af1158015613910573d6000803e3d6000fd5b505050506040513d602081101561392657600080fd5b810190808051906020019092919050505073ffffffffffffffffffffffffffffffffffffffff16600160009054906101000a900473ffffffffffffffffffffffffffffffffffffffff1673ffffffffffffffffffffffffffffffffffffffff16141515613a8f57600260009054906101000a900473ffffffffffffffffffffffffffffffffffffffff1673ffffffffffffffffffffffffffffffffffffffff166338cc48316040518163ffffffff167c0100000000000000000000000000000000000000000000000000000000028152600401602060405180830381600087803b158015613a1357600080fd5b505af1158015613a27573d6000803e3d6000fd5b505050506040513d6020811015613a3d57600080fd5b8101908080519060200190929190505050600160006101000a81548173ffffffffffffffffffffffffffffffffffffffff021916908373ffffffffffffffffffffffffffffffffffffffff1602179055505b600160009054906101000a900473ffffffffffffffffffffffffffffffffffffffff1673ffffffffffffffffffffffffffffffffffffffff1663abaa5f3e6040518163ffffffff167c0100000000000000000000000000000000000000000000000000000000028152600401602060405180830381600087803b158015613b1557600080fd5b505af1158015613b29573d6000803e3d6000fd5b505050506040513d6020811015613b3f57600080fd5b8101908080519060200190929190505050905090565b60606000806000848701925082865110151515613b7157600080fd5b8760200191508460200190505b868860200101821015613ba65781890151808288015250602082019150602081019050613b7e565b85935050505095945050505050565b600060606000600260009054906101000a900473ffffffffffffffffffffffffffffffffffffffff1673ffffffffffffffffffffffffffffffffffffffff161480613c2a57506000613c28600260009054906101000a900473ffffffffffffffffffffffffffffffffffffffff16613f89565b145b15613c3b57613c396000613f94565b505b600260009054906101000a900473ffffffffffffffffffffffffffffffffffffffff1673ffffffffffffffffffffffffffffffffffffffff166338cc48316040518163ffffffff167c0100000000000000000000000000000000000000000000000000000000028152600401602060405180830381600087803b158015613cc157600080fd5b505af1158015613cd5573d6000803e3d6000fd5b505050506040513d6020811015613ceb57600080fd5b810190808051906020019092919050505073ffffffffffffffffffffffffffffffffffffffff16600160009054906101000a900473ffffffffffffffffffffffffffffffffffffffff1673ffffffffffffffffffffffffffffffffffffffff16141515613e5457600260009054906101000a900473ffffffffffffffffffffffffffffffffffffffff1673ffffffffffffffffffffffffffffffffffffffff166338cc48316040518163ffffffff167c0100000000000000000000000000000000000000000000000000000000028152600401602060405180830381600087803b158015613dd857600080fd5b505af1158015613dec573d6000803e3d6000fd5b505050506040513d6020811015613e0257600080fd5b8101908080519060200190929190505050600160006101000a81548173ffffffffffffffffffffffffffffffffffffffff021916908373ffffffffffffffffffffffffffffffffffffffff1602179055505b6004604051908082528060200260200182016040528015613e8957816020015b6060815260200190600190039081613e745790505b509050836000600481101515613e9b57fe5b6020020151816000815181101515613eaf57fe5b90602001906020020181905250836001600481101515613ecb57fe5b6020020151816001815181101515613edf57fe5b90602001906020020181905250836002600481101515613efb57fe5b6020020151816002815181101515613f0f57fe5b90602001906020020181905250836003600481101515613f2b57fe5b6020020151816003815181101515613f3f57fe5b90602001906020020181905250613f5785828561425a565b9150509392505050565b8060036000846000191660001916815260200190815260200160002081600019169055505050565b6000813b9050919050565b6000613f9e61481c565b9050919050565b613fad6151e6565b80600d60008473ffffffffffffffffffffffffffffffffffffffff1673ffffffffffffffffffffffffffffffffffffffff1681526020019081526020016000206000820151816000019080519060200190614009929190615224565b506020820151816001019080519060200190614026929190615224565b5060408201518160020160006101000a81548160ff0219169083151502179055506060820151816003019060001916905560808201518160040160006101000a81548160ff02191690831515021790555060a082015181600501559050506000600d60008473ffffffffffffffffffffffffffffffffffffffff1673ffffffffffffffffffffffffffffffffffffffff16815260200190815260200160002060020160006101000a81548160ff0219169083151502179055505050565b600e60008373ffffffffffffffffffffffffffffffffffffffff1673ffffffffffffffffffffffffffffffffffffffff1681526020019081526020016000206005016000815480929190600101919050555060008111156141f05780600b6000828254039250508190555080600e60008473ffffffffffffffffffffffffffffffffffffffff1673ffffffffffffffffffffffffffffffffffffffff168152602001908152602001600020600401600082825401925050819055506001600e60008473ffffffffffffffffffffffffffffffffffffffff1673ffffffffffffffffffffffffffffffffffffffff168152602001908152602001600020600601600082825401925050819055505b80600e60008473ffffffffffffffffffffffffffffffffffffffff1673ffffffffffffffffffffffffffffffffffffffff1681526020019081526020016000206007018190555061423f613595565b5050565b60006008548281151561425257fe5b049050919050565b60008060606000600260009054906101000a900473ffffffffffffffffffffffffffffffffffffffff1673ffffffffffffffffffffffffffffffffffffffff1614806142d0575060006142ce600260009054906101000a900473ffffffffffffffffffffffffffffffffffffffff16613f89565b145b156142e1576142df6000613f94565b505b600260009054906101000a900473ffffffffffffffffffffffffffffffffffffffff1673ffffffffffffffffffffffffffffffffffffffff166338cc48316040518163ffffffff167c0100000000000000000000000000000000000000000000000000000000028152600401602060405180830381600087803b15801561436757600080fd5b505af115801561437b573d6000803e3d6000fd5b505050506040513d602081101561439157600080fd5b810190808051906020019092919050505073ffffffffffffffffffffffffffffffffffffffff16600160009054906101000a900473ffffffffffffffffffffffffffffffffffffffff1673ffffffffffffffffffffffffffffffffffffffff161415156144fa57600260009054906101000a900473ffffffffffffffffffffffffffffffffffffffff1673ffffffffffffffffffffffffffffffffffffffff166338cc48316040518163ffffffff167c0100000000000000000000000000000000000000000000000000000000028152600401602060405180830381600087803b15801561447e57600080fd5b505af1158015614492573d6000803e3d6000fd5b505050506040513d60208110156144a857600080fd5b8101908080519060200190929190505050600160006101000a81548173ffffffffffffffffffffffffffffffffffffffff021916908373ffffffffffffffffffffffffffffffffffffffff1602179055505b600160009054906101000a900473ffffffffffffffffffffffffffffffffffffffff1673ffffffffffffffffffffffffffffffffffffffff16632ef3accc87866040518363ffffffff167c01000000000000000000000000000000000000000000000000000000000281526004018080602001838152602001828103825284818151815260200191508051906020019080838360005b838110156145ab578082015181840152602081019050614590565b50505050905090810190601f1680156145d85780820380516001836020036101000a031916815260200191505b509350505050602060405180830381600087803b1580156145f857600080fd5b505af115801561460c573d6000803e3d6000fd5b505050506040513d602081101561462257600080fd5b81019080805190602001909291905050509150833a02670de0b6b3a7640000018211156146555760006001029250614813565b61465e85614d73565b9050600160009054906101000a900473ffffffffffffffffffffffffffffffffffffffff1673ffffffffffffffffffffffffffffffffffffffff1663c55c1cb68360008985896040518663ffffffff167c0100000000000000000000000000000000000000000000000000000000028152600401808581526020018060200180602001848152602001838103835286818151815260200191508051906020019080838360005b8381101561471f578082015181840152602081019050614704565b50505050905090810190601f16801561474c5780820380516001836020036101000a031916815260200191505b50838103825285818151815260200191508051906020019080838360005b8381101561478557808201518184015260208101905061476a565b50505050905090810190601f1680156147b25780820380516001836020036101000a031916815260200191505b5096505050505050506020604051808303818588803b1580156147d457600080fd5b505af11580156147e8573d6000803e3d6000fd5b50505050506040513d60208110156147ff57600080fd5b810190808051906020019092919050505092505b50509392505050565b60008061483c731d3b2638a7cc9f2cb3d298a3da7a90b67e5506ed613f89565b11156148de57731d3b2638a7cc9f2cb3d298a3da7a90b67e5506ed600260006101000a81548173ffffffffffffffffffffffffffffffffffffffff021916908373ffffffffffffffffffffffffffffffffffffffff1602179055506148d56040805190810160405280600b81526020017f6574685f6d61696e6e6574000000000000000000000000000000000000000000815250614df8565b60019050614d70565b60006148fd73c03a2615d5efaf5f49f60b7bb6583eaec212fdf1613f89565b111561499f5773c03a2615d5efaf5f49f60b7bb6583eaec212fdf1600260006101000a81548173ffffffffffffffffffffffffffffffffffffffff021916908373ffffffffffffffffffffffffffffffffffffffff1602179055506149966040805190810160405280600c81526020017f6574685f726f707374656e330000000000000000000000000000000000000000815250614df8565b60019050614d70565b60006149be73b7a07bcf2ba2f2703b24c0691b5278999c59ac7e613f89565b1115614a605773b7a07bcf2ba2f2703b24c0691b5278999c59ac7e600260006101000a81548173ffffffffffffffffffffffffffffffffffffffff021916908373ffffffffffffffffffffffffffffffffffffffff160217905550614a576040805190810160405280600981526020017f6574685f6b6f76616e0000000000000000000000000000000000000000000000815250614df8565b60019050614d70565b6000614a7f73146500cfd35b22e4a392fe0adc06de1a1368ed48613f89565b1115614b215773146500cfd35b22e4a392fe0adc06de1a1368ed48600260006101000a81548173ffffffffffffffffffffffffffffffffffffffff021916908373ffffffffffffffffffffffffffffffffffffffff160217905550614b186040805190810160405280600b81526020017f6574685f72696e6b656279000000000000000000000000000000000000000000815250614df8565b60019050614d70565b6000614b4073a2998efd205fb9d4b4963afb70778d6354ad3a41613f89565b1115614be25773a2998efd205fb9d4b4963afb70778d6354ad3a41600260006101000a81548173ffffffffffffffffffffffffffffffffffffffff021916908373ffffffffffffffffffffffffffffffffffffffff160217905550614bd96040805190810160405280600a81526020017f6574685f676f65726c6900000000000000000000000000000000000000000000815250614df8565b60019050614d70565b6000614c01736f485c8bf6fc43ea212e93bbf8ce046c7f1cb475613f89565b1115614c6557736f485c8bf6fc43ea212e93bbf8ce046c7f1cb475600260006101000a81548173ffffffffffffffffffffffffffffffffffffffff021916908373ffffffffffffffffffffffffffffffffffffffff16021790555060019050614d70565b6000614c847320e12a1f859b3feae5fb2a0a32c18f5a65555bbf613f89565b1115614ce8577320e12a1f859b3feae5fb2a0a32c18f5a65555bbf600260006101000a81548173ffffffffffffffffffffffffffffffffffffffff021916908373ffffffffffffffffffffffffffffffffffffffff16021790555060019050614d70565b6000614d077351efaf4c8b3c9afbd5ab9f4bbc82784ab6ef8faa613f89565b1115614d6b577351efaf4c8b3c9afbd5ab9f4bbc82784ab6ef8faa600260006101000a81548173ffffffffffffffffffffffffffffffffffffffff021916908373ffffffffffffffffffffffffffffffffffffffff16021790555060019050614d70565b600090505b90565b6060614d7d615271565b6000614d87614e12565b614d9382610400614e1e565b614d9c82614e6e565b600090505b8351811015614de157614dd48482815181101515614dbb57fe5b9060200190602002015183614e7c90919063ffffffff16565b8080600101915050614da1565b614dea82614ea1565b816000015192505050919050565b8060059080519060200190614e0e92919061528b565b5050565b60405180590338823950565b60008190506000602082811515614e3157fe5b06141515614e4e57602081811515614e4557fe5b06602003810190505b808360200181815250506040518084526000815281810160405250505050565b614e79816004614eaf565b50565b614e898260028351614ed3565b614e9c818361502c90919063ffffffff16565b505050565b614eac816007614eaf565b50565b614ecf601f60058360ff169060020a0217836150d890919063ffffffff16565b5050565b601781111515614f0457614eff8160058460ff169060020a0260ff1617846150d890919063ffffffff16565b615027565b60ff81111515614f4a57614f2e601860058460ff169060020a0217846150d890919063ffffffff16565b614f44816001856151189092919063ffffffff16565b50615026565b61ffff81111515614f9157614f75601960058460ff169060020a0217846150d890919063ffffffff16565b614f8b816002856151189092919063ffffffff16565b50615025565b63ffffffff81111515614fda57614fbe601a60058460ff169060020a0217846150d890919063ffffffff16565b614fd4816004856151189092919063ffffffff16565b50615024565b67ffffffffffffffff811115156150235761500b601b60058460ff169060020a0217846150d890919063ffffffff16565b615021816008856151189092919063ffffffff16565b505b5b5b5b5b505050565b615034615271565b6000806000808660200151876000015151875101111561506a576150698760026150638a602001518a5161517f565b0261519b565b5b8551915086518051602081830101955087518101825260208801945050505b6020821015156150ae5782518452602084019350602083019250602082039150615089565b6001826020036101000a039050801983511681855116818117865250508694505050505092915050565b816020015160018360000151510111156150fe576150fd82600284602001510261519b565b5b815180516020818301018381536001820183525050505050565b615120615271565b60008460200151856000015151840111156151505761514f85600261514988602001518761517f565b0261519b565b5b6001836101000a0390508451805184818301018684198251161781528582018352505050849150509392505050565b60008183111561519157829050615195565b8190505b92915050565b6060826000015190506151ae8383614e1e565b6151b8838261502c565b50505050565b6080604051908101604052806004905b60608152602001906001900390816151ce5790505090565b60c060405190810160405280606081526020016060815260200160001515815260200160008019168152602001600015158152602001600081525090565b828054828255906000526020600020908101928215615260579160200282015b8281111561525f578251825591602001919060010190615244565b5b50905061526d919061530b565b5090565b604080519081016040528060608152602001600081525090565b828054600181600116156101000203166002900490600052602060002090601f016020900481019282601f106152cc57805160ff19168380011785556152fa565b828001600101855582156152fa579182015b828111156152f95782518255916020019190600101906152de565b5b509050615307919061530b565b5090565b61532d91905b80821115615329576000816000905550600101615311565b5090565b905600a165627a7a72305820a2f709bd23208f9870adfecf247308af26d2b14c9c5066e49ef9a8079e26e9450029",
  "source": "//SPDX-License-Identifier: UNLICENSED\r\n\r\nimport \"./Ownable.sol\";\r\nimport \"./provableAPI_0.4.25_simplified.sol\";\r\npragma solidity 0.4.26;\r\n\r\ncontract CoinFlip100 is Ownable, usingProvable{\r\n\r\n    uint public BET_RANGE_MIN = 0;\r\n    uint public BET_RANGE_MAX = 99;\r\n\r\n    uint CHIP_TO_WEI = 10**15; //1 chips = 1 eth - Can be parametric\r\n    uint public BET_MIN_AMOUNT_WEI = CHIP_TO_WEI ; //All Amount are in ETH\r\n    uint BET_WIN_RATE = 190; //Win rate = 1,9 with 2 decimals\r\n\r\n    uint public _contractBalance_;\r\n    uint public _totalAllPlayerBalance_;\r\n\r\n    // status of active bets; Each player can have multiple bets before each flip\r\n    //Update each time player submited new bet\r\n\r\n    struct Bets  {\r\n        uint[] betNumbers;\r\n        uint[] betAmount;  //wei amount bet for each number\r\n        bool waitingResult;\r\n        bytes32 waitingId; //uint == 0 when not waiting for Flipped result\r\n        bool paidOut;\r\n        uint lastResult;\r\n    }\r\n\r\n    //list of all activities of a player (update after finished solving each bet)\r\n    struct betHistory {\r\n        uint totalBalance;\r\n        uint totalTopUp;\r\n        uint totalWithdrawn;\r\n        uint totalSpentAmount;\r\n        uint totalWinAmount;\r\n        uint totalGames;\r\n        uint totalWins;\r\n        uint lastWinAmount;\r\n    }\r\n\r\n    //betList is a list of all active bets\r\n    // Should limit storage size somehow to avoid everflow in future?\r\n    mapping (address => Bets) public activeBet;\r\n\r\n    //playerList store information\r\n    // Should limit storage size somehow to avoid everflow in future?\r\n    mapping (address => betHistory) public playerHistory;\r\n\r\n    //each queryId map with one address\r\n    mapping (bytes32 => address) private playersQuery;\r\n\r\n    //newBetCreated emit when created and not finished\r\n    event newBetCreated(uint[] betNumbers, uint[] betAmounts_chip, address playerAddress);\r\n\r\n    //betFinished emit when\r\n    event betFinished(address playerAddress, uint winAmount, uint result);\r\n\r\n    //common notice\r\n    event notice(string noticeString, uint noticeValue);\r\n\r\n    //Pseudo Random\r\n    function random() public pure returns(uint) {\r\n        return 0;\r\n        //return now % (BET_RANGE_MAX+1);\r\n    }\r\n\r\n    //Oracle >>>>>>>>>>>>>>>>>>>>\r\n    uint256 constant NUM_RANDOM_BYTES_REQUESTED = 1;\r\n    uint256 public latestNumber;\r\n\r\n    event generatedRandomNumber(address playerAddress, bytes32 Id, uint256 randomNumber ,  bytes proof);\r\n    event LogNewProvableQuery(string notice);\r\n    event proofFailed(string description);\r\n\r\n    //constructor() public {\r\n        //provable_setProof(proofType_Ledger);\r\n        //_contractBalance_ += msg.value ;\r\n    //}\r\n\r\n\r\n    function __callback(bytes32 _queryId, string memory _result, bytes memory _proof) public {\r\n        require(msg.sender == provable_cbAddress());\r\n        //if (\r\n        //    provable_randomDS_proofVerify__returnCode(\r\n        //        _queryId,\r\n        //        _result,\r\n        //        _proof\r\n        //    ) != 0\r\n        //) {\r\n        //    emit proofFailed(\"The proof verification failed in the callback\");\r\n        //} else {\r\n            //uint256 randomNumber = uint256(keccak256(abi.encodePacked(_result)))%100;\r\n\r\n            uint256 randomNumber = 99;\r\n\r\n            address playerAddress = playersQuery[_queryId];\r\n            require( activeBet[playerAddress].waitingId == _queryId, \" query Id and Address not matched !\");\r\n            activeBet[playerAddress].lastResult = randomNumber;\r\n            activeBet[playerAddress].waitingResult = false;\r\n            payOut(playerAddress, randomNumber);\r\n            emit generatedRandomNumber(playerAddress, _queryId, randomNumber, _proof);\r\n        //}\r\n    }\r\n\r\n    function getRandom100()\r\n        payable\r\n        public\r\n    {\r\n        require(activeBet[msg.sender].waitingResult == false, \"Player is waiting for bet result from Oracle..\");\r\n\r\n        uint256 QUERY_EXECUTION_DELAY = 0;\r\n        uint256 GAS_FOR_CALLBACK = 200000;\r\n\r\n        activeBet[msg.sender].waitingId = provable_newRandomDSQuery(\r\n            QUERY_EXECUTION_DELAY,\r\n            NUM_RANDOM_BYTES_REQUESTED,\r\n            GAS_FOR_CALLBACK\r\n        );\r\n\r\n        playersQuery[activeBet[msg.sender].waitingId] = msg.sender;\r\n\r\n        if (activeBet[msg.sender].waitingId != 0) {\r\n            activeBet[msg.sender].waitingResult = true;\r\n            emit LogNewProvableQuery(\"Provable query was sent, waiting for the answer..\");\r\n        }\r\n    }\r\n\r\n    //Oracle <<<<<<<<<<<<<<<<<<<<<\r\n\r\n\r\n    //Check Account Balance validity\r\n    function validPlayerBalance() private view returns(bool) {\r\n        if (playerHistory[msg.sender].totalBalance ==\r\n            playerHistory[msg.sender].totalTopUp - playerHistory[msg.sender].totalWithdrawn -\r\n            playerHistory[msg.sender].totalSpentAmount + playerHistory[msg.sender].totalWinAmount) {\r\n                return true;\r\n            } else {\r\n                return false;\r\n            }\r\n    }\r\n\r\n    function wei2Chip(uint _wei) private view returns(uint) {\r\n        return _wei / CHIP_TO_WEI;\r\n    }\r\n\r\n    function chip2Wei(uint chip) private view returns(uint) {\r\n        return chip * CHIP_TO_WEI;\r\n    }\r\n\r\n    function chip2Wei_ar(uint[] memory chip_ar) private view returns(uint[] memory) {\r\n        for (uint x=0; x<chip_ar.length; x++) {\r\n            chip_ar[x] = chip2Wei(chip_ar[x]);\r\n        }\r\n        return chip_ar;\r\n    }\r\n\r\n    function wei2Chip_ar(uint[] memory wei_ar) private view returns(uint[] memory) {\r\n        for (uint x=0; x<wei_ar.length; x++) {\r\n           wei_ar[x] = wei2Chip(wei_ar[x]);\r\n        }\r\n        return wei_ar;\r\n    }\r\n\r\n\r\n    //Owner balance topUp\r\n    function ownerFundUp_chip(uint topUp_chip) public onlyOwner payable {\r\n\r\n        require(msg.value == chip2Wei(topUp_chip), \"msg.value != topUp_chip * 1e16\");\r\n        if (msg.value != chip2Wei(topUp_chip)) revert();\r\n        _contractBalance_ += msg.value ;\r\n    }\r\n\r\n\r\n    //Player account balance topUp\r\n    function playerTopUp_chip(uint topUp_chip) public payable {\r\n        //1eth = 1000000000000000000 wei\r\n        require(msg.value == chip2Wei(topUp_chip), \"msg.value != topUp_chip * 1e16\");\r\n        if (msg.value != chip2Wei(topUp_chip)) revert();\r\n\r\n        _contractBalance_ += msg.value ;\r\n        playerHistory[msg.sender].totalTopUp += msg.value;\r\n        updateMyBalance();\r\n    }\r\n\r\n    // Calculate values each time player status changed\r\n    // All values of playerHistory in wei\r\n    function updateMyBalance() private {\r\n        _totalAllPlayerBalance_ -= playerHistory[msg.sender].totalBalance;\r\n        playerHistory[msg.sender].totalBalance =\r\n        playerHistory[msg.sender].totalTopUp -\r\n        playerHistory[msg.sender].totalWithdrawn -\r\n        playerHistory[msg.sender].totalSpentAmount +\r\n        playerHistory[msg.sender].totalWinAmount;\r\n        _totalAllPlayerBalance_ += playerHistory[msg.sender].totalBalance;\r\n        }\r\n\r\n    function mySpentBalance(uint[] memory spentAmounts_wei) private {\r\n        for (uint x=0; x<spentAmounts_wei.length; x++) {\r\n            playerHistory[msg.sender].totalSpentAmount += spentAmounts_wei[x];\r\n        }\r\n        updateMyBalance();\r\n    }\r\n\r\n    function myWinBalance(address playerAddress, uint winAmount_wei) private  {\r\n\r\n        playerHistory[playerAddress].totalGames++;\r\n        if (winAmount_wei>0) {\r\n            _contractBalance_ -= winAmount_wei;\r\n            playerHistory[playerAddress].totalWinAmount += winAmount_wei;\r\n            playerHistory[playerAddress].totalWins += 1;\r\n        }\r\n        playerHistory[playerAddress].lastWinAmount = winAmount_wei;\r\n        updateMyBalance();\r\n    }\r\n\r\n    function getPlayerHistory() public view  returns(uint,uint,uint,uint,uint,uint,uint,uint) {\r\n        require(validPlayerBalance(), \"Not valid Player Balance\");\r\n        return  (   playerHistory[msg.sender].totalBalance,\r\n                    playerHistory[msg.sender].totalTopUp,\r\n                    playerHistory[msg.sender].totalWithdrawn,\r\n                    playerHistory[msg.sender].totalSpentAmount,\r\n                    playerHistory[msg.sender].totalWinAmount,\r\n                    playerHistory[msg.sender].totalGames,\r\n                    playerHistory[msg.sender].totalWins,\r\n                    playerHistory[msg.sender].lastWinAmount );\r\n    }\r\n\r\n    function getContractBalance() public view returns (uint) {\r\n      return _contractBalance_;\r\n    }\r\n\r\n\r\n    function get_totalAllPlayerBalance_() public view returns (uint) {\r\n      return _totalAllPlayerBalance_;\r\n    }\r\n\r\n    function contractPlayableFund() public view returns(uint) {\r\n      if (_contractBalance_ == 0) {\r\n        return 0;\r\n      }\r\n      else {\r\n        return _contractBalance_ - _totalAllPlayerBalance_;\r\n      }\r\n    }\r\n\r\n    function playerPlayableFund() public view returns(uint) {\r\n        uint contractPlayable = contractPlayableFund();\r\n        if (playerHistory[msg.sender].totalBalance < contractPlayable) {\r\n            return playerHistory[msg.sender].totalBalance;\r\n        }\r\n        else {\r\n            return contractPlayable;\r\n        }\r\n    }\r\n\r\n    function verifyBet(uint[] memory betNumbers, uint[] memory betAmount_wei) private view returns(bool) {\r\n        require (betNumbers.length == betAmount_wei.length,\" ERROR bet aray\") ;\r\n        uint sumBetAmount = 0;\r\n\r\n        for (uint x = 0; x<betNumbers.length; x++) {\r\n\r\n            require(betAmount_wei[x] >=  BET_MIN_AMOUNT_WEI, \"Bet amount less than min amount\");\r\n            sumBetAmount += betAmount_wei[x];\r\n        }\r\n        require(sumBetAmount <= playerPlayableFund(), \"TOO BIG BET, PLEASE ADJUST OUR BET\");\r\n        return true;\r\n    }\r\n\r\n    function updateActiveBet(uint[] memory newBetNumbers, uint[] memory newBetAmount_wei) private {\r\n        //append new bets with current Betlist\r\n        for (uint x=0; x<newBetNumbers.length; x++) {\r\n            activeBet[msg.sender].betNumbers.push(newBetNumbers[x]);\r\n            activeBet[msg.sender].betAmount.push(newBetAmount_wei[x]);\r\n        }\r\n    }\r\n\r\n\r\n    function createMyBet(uint[] memory betNumbers, uint[] memory betAmount_chip) public returns (bool){\r\n\r\n        //money amount received from frontEnd is in Chips;\r\n        //Should conver all chips to Wei\r\n\r\n        require(activeBet[msg.sender].waitingId == 0, \".. Please Wait for result of last bet..\");\r\n\r\n        require(validPlayerBalance(), \"Not valid Player Balance\");\r\n\r\n        uint[] memory betAmount = chip2Wei_ar(betAmount_chip);\r\n\r\n        require(verifyBet(betNumbers,betAmount), \"NOT VALID BET\");\r\n\r\n        mySpentBalance(betAmount); //Deduct spent amount from player balance\r\n\r\n        updateActiveBet(betNumbers, betAmount); //Update Active Betlist for a player\r\n\r\n        emit newBetCreated(betNumbers,betAmount, msg.sender);\r\n\r\n        return (true);\r\n    }\r\n\r\n\r\n    function getMyBet() public view returns(uint[] memory, uint[] memory,bool, bytes32)  {\r\n        //Data sent to front page from contract is in Chips\r\n        return (    activeBet[msg.sender].betNumbers,\r\n                    wei2Chip_ar(activeBet[msg.sender].betAmount), //wei\r\n                    activeBet[msg.sender].waitingResult,\r\n                    activeBet[msg.sender].waitingId);\r\n    }\r\n\r\n\r\n    function resetPlayerBetList(address playerAddress) private {\r\n        Bets memory nullBet;\r\n        activeBet[playerAddress] = nullBet;\r\n        activeBet[playerAddress].waitingResult = false;\r\n    }\r\n\r\n\r\n    function getWinAmountWei(uint winWei) public view returns(uint) {\r\n        return (winWei*BET_WIN_RATE)/100;\r\n    }\r\n\r\n    function playerTossCoin() public  {\r\n        require(activeBet[msg.sender].waitingResult == false, \"Already called random Number, please wait for result..\");\r\n        require(activeBet[msg.sender].waitingId == 0, \"Already has result..\");\r\n        require(activeBet[msg.sender].paidOut == true, \"..Last bet not solved..\");\r\n        require(validPlayerBalance(), \"playerTossCoin: Not valid Player Balance\");\r\n        require(activeBet[msg.sender].betNumbers.length > 0,\"playerTossCoin: No bet placed, plase place the bet!\");\r\n        activeBet[msg.sender].waitingResult = true;\r\n        activeBet[msg.sender].paidOut = false;\r\n        getRandom100();\r\n    }\r\n\r\n    function payOut(address playerAddress, uint result) private returns(address, uint, uint) {\r\n        require(activeBet[msg.sender].paidOut == false, \"..duplicate pay out..\");\r\n        //require(result >= BET_RANGE_MIN && result <= BET_RANGE_MAX, \"playerTossCoin: Random out of range\");\r\n        uint winAmount_wei = 0;\r\n        activeBet[msg.sender].paidOut = true;\r\n\r\n        for (uint x=0; x<activeBet[playerAddress].betNumbers.length; x++) {\r\n            if (activeBet[playerAddress].betNumbers[x] == result) {\r\n                winAmount_wei += getWinAmountWei(activeBet[playerAddress].betAmount[x]);\r\n            }\r\n        }\r\n\r\n        resetPlayerBetList(playerAddress);\r\n        myWinBalance(playerAddress,winAmount_wei);\r\n\r\n        emit betFinished(playerAddress, winAmount_wei, result);\r\n        return (playerAddress,winAmount_wei, result);\r\n    }\r\n\r\n    function ownerWithdrawAll() public onlyOwner returns(uint) {\r\n       uint toTransfer = getContractBalance();\r\n\r\n       //Should cancel all bets before withdrawn\r\n       //Should return all players ballances before withdrawn\r\n       _totalAllPlayerBalance_ = 0;\r\n       _contractBalance_ = 0;\r\n       msg.sender.transfer(toTransfer);\r\n       return toTransfer;\r\n    }\r\n\r\n    function playerWithdrawAll() public  returns(uint) {\r\n\r\n        updateMyBalance();\r\n\r\n        require(playerHistory[msg.sender].totalBalance > 0, \"Player is out of money\");\r\n\r\n        require(validPlayerBalance(), \"Invalid balance check\");\r\n\r\n        require(activeBet[msg.sender].waitingId == 0, \"Waiting for bet result..\");\r\n\r\n        require(activeBet[msg.sender].betNumbers.length == 0, \"Bet can not be cancelled, Click Flip Button..\");\r\n\r\n        uint toTransfer = playerHistory[msg.sender].totalBalance;\r\n\r\n        playerHistory[msg.sender].totalWithdrawn += toTransfer;\r\n\r\n        _contractBalance_ -= toTransfer;\r\n\r\n        updateMyBalance();\r\n\r\n        assert(playerHistory[msg.sender].totalBalance == 0);\r\n\r\n        msg.sender.transfer(toTransfer);\r\n\r\n        return toTransfer;\r\n    }\r\n\r\n}\r\n",
  "sourcePath": "D:\\@TUNG 2020\\IVANONTECH\\SOLIDITY 201\\coinFlip4\\contracts\\CoinFlip100.sol",
  "compiler": {
    "name": "solc",
    "version": "0.4.26+commit.4563c3fc.Emscripten.clang"
  },
  "schemaVersion": "2.0.3",
  "updatedAt": "2020-06-30T10:04:48.837Z"
}