{
  "contractName": "CoinFlip100",
  "abi": [
    {
      "constant": true,
      "inputs": [],
      "name": "_contractBalance_",
      "outputs": [
        {
          "name": "",
          "type": "uint256"
        }
      ],
      "payable": false,
      "stateMutability": "view",
      "type": "function"
    },
    {
      "constant": true,
      "inputs": [
        {
          "name": "",
          "type": "address"
        }
      ],
      "name": "playerHistory",
      "outputs": [
        {
          "name": "totalBalance",
          "type": "uint256"
        },
        {
          "name": "totalTopUp",
          "type": "uint256"
        },
        {
          "name": "totalWithdrawn",
          "type": "uint256"
        },
        {
          "name": "totalSpentAmount",
          "type": "uint256"
        },
        {
          "name": "totalWinAmount",
          "type": "uint256"
        },
        {
          "name": "totalGames",
          "type": "uint256"
        },
        {
          "name": "totalWins",
          "type": "uint256"
        },
        {
          "name": "lastWinAmount",
          "type": "uint256"
        }
      ],
      "payable": false,
      "stateMutability": "view",
      "type": "function"
    },
    {
      "constant": true,
      "inputs": [],
      "name": "_totalAllPlayerBalance_",
      "outputs": [
        {
          "name": "",
          "type": "uint256"
        }
      ],
      "payable": false,
      "stateMutability": "view",
      "type": "function"
    },
    {
      "constant": true,
      "inputs": [
        {
          "name": "",
          "type": "address"
        }
      ],
      "name": "activeBet",
      "outputs": [
        {
          "name": "waitingResult",
          "type": "bool"
        },
        {
          "name": "waitingId",
          "type": "uint256"
        }
      ],
      "payable": false,
      "stateMutability": "view",
      "type": "function"
    },
    {
      "constant": true,
      "inputs": [],
      "name": "BET_RANGE_MIN",
      "outputs": [
        {
          "name": "",
          "type": "uint256"
        }
      ],
      "payable": false,
      "stateMutability": "view",
      "type": "function"
    },
    {
      "constant": true,
      "inputs": [],
      "name": "owner",
      "outputs": [
        {
          "name": "",
          "type": "address"
        }
      ],
      "payable": false,
      "stateMutability": "view",
      "type": "function"
    },
    {
      "constant": true,
      "inputs": [],
      "name": "latestNumber",
      "outputs": [
        {
          "name": "",
          "type": "uint256"
        }
      ],
      "payable": false,
      "stateMutability": "view",
      "type": "function"
    },
    {
      "constant": true,
      "inputs": [],
      "name": "BET_RANGE_MAX",
      "outputs": [
        {
          "name": "",
          "type": "uint256"
        }
      ],
      "payable": false,
      "stateMutability": "view",
      "type": "function"
    },
    {
      "constant": true,
      "inputs": [],
      "name": "BET_MIN_AMOUNT_WEI",
      "outputs": [
        {
          "name": "",
          "type": "uint256"
        }
      ],
      "payable": false,
      "stateMutability": "view",
      "type": "function"
    },
    {
      "inputs": [],
      "payable": false,
      "stateMutability": "nonpayable",
      "type": "constructor"
    },
    {
      "anonymous": false,
      "inputs": [
        {
          "indexed": false,
          "name": "betNumbers",
          "type": "uint256[]"
        },
        {
          "indexed": false,
          "name": "betAmounts_chip",
          "type": "uint256[]"
        },
        {
          "indexed": false,
          "name": "playerAddress",
          "type": "address"
        }
      ],
      "name": "newBetCreated",
      "type": "event"
    },
    {
      "anonymous": false,
      "inputs": [
        {
          "indexed": false,
          "name": "winAmount",
          "type": "uint256"
        },
        {
          "indexed": false,
          "name": "result",
          "type": "uint256"
        }
      ],
      "name": "betFinished",
      "type": "event"
    },
    {
      "anonymous": false,
      "inputs": [
        {
          "indexed": false,
          "name": "noticeString",
          "type": "string"
        },
        {
          "indexed": false,
          "name": "noticeValue",
          "type": "uint256"
        }
      ],
      "name": "notice",
      "type": "event"
    },
    {
      "anonymous": false,
      "inputs": [
        {
          "indexed": false,
          "name": "randomNumber",
          "type": "uint256"
        },
        {
          "indexed": false,
          "name": "Id",
          "type": "bytes"
        },
        {
          "indexed": false,
          "name": "proof",
          "type": "bytes"
        }
      ],
      "name": "generatedRandomNumber",
      "type": "event"
    },
    {
      "anonymous": false,
      "inputs": [
        {
          "indexed": false,
          "name": "notice",
          "type": "string"
        }
      ],
      "name": "LogNewProvableQuery",
      "type": "event"
    },
    {
      "constant": true,
      "inputs": [],
      "name": "random",
      "outputs": [
        {
          "name": "",
          "type": "uint256"
        }
      ],
      "payable": false,
      "stateMutability": "pure",
      "type": "function"
    },
    {
      "constant": false,
      "inputs": [
        {
          "name": "myid",
          "type": "bytes32"
        },
        {
          "name": "result",
          "type": "string"
        },
        {
          "name": "proof",
          "type": "bytes"
        }
      ],
      "name": "__callback",
      "outputs": [],
      "payable": false,
      "stateMutability": "nonpayable",
      "type": "function"
    },
    {
      "constant": false,
      "inputs": [
        {
          "name": "_queryId",
          "type": "bytes"
        },
        {
          "name": "_result",
          "type": "string"
        },
        {
          "name": "_proof",
          "type": "bytes"
        }
      ],
      "name": "__callback",
      "outputs": [],
      "payable": false,
      "stateMutability": "nonpayable",
      "type": "function"
    },
    {
      "constant": false,
      "inputs": [
        {
          "name": "myid",
          "type": "bytes32"
        },
        {
          "name": "result",
          "type": "string"
        }
      ],
      "name": "__callback",
      "outputs": [],
      "payable": false,
      "stateMutability": "nonpayable",
      "type": "function"
    },
    {
      "constant": false,
      "inputs": [],
      "name": "update",
      "outputs": [],
      "payable": true,
      "stateMutability": "payable",
      "type": "function"
    },
    {
      "constant": false,
      "inputs": [
        {
          "name": "topUp_chip",
          "type": "uint256"
        }
      ],
      "name": "ownerFundUp_chip",
      "outputs": [],
      "payable": true,
      "stateMutability": "payable",
      "type": "function"
    },
    {
      "constant": false,
      "inputs": [
        {
          "name": "topUp_chip",
          "type": "uint256"
        }
      ],
      "name": "playerTopUp_chip",
      "outputs": [],
      "payable": true,
      "stateMutability": "payable",
      "type": "function"
    },
    {
      "constant": true,
      "inputs": [],
      "name": "getPlayerHistory",
      "outputs": [
        {
          "name": "",
          "type": "uint256"
        },
        {
          "name": "",
          "type": "uint256"
        },
        {
          "name": "",
          "type": "uint256"
        },
        {
          "name": "",
          "type": "uint256"
        },
        {
          "name": "",
          "type": "uint256"
        },
        {
          "name": "",
          "type": "uint256"
        },
        {
          "name": "",
          "type": "uint256"
        },
        {
          "name": "",
          "type": "uint256"
        }
      ],
      "payable": false,
      "stateMutability": "view",
      "type": "function"
    },
    {
      "constant": true,
      "inputs": [],
      "name": "getContractBalance",
      "outputs": [
        {
          "name": "",
          "type": "uint256"
        }
      ],
      "payable": false,
      "stateMutability": "view",
      "type": "function"
    },
    {
      "constant": true,
      "inputs": [],
      "name": "get_totalAllPlayerBalance_",
      "outputs": [
        {
          "name": "",
          "type": "uint256"
        }
      ],
      "payable": false,
      "stateMutability": "view",
      "type": "function"
    },
    {
      "constant": true,
      "inputs": [],
      "name": "contractPlayableFund",
      "outputs": [
        {
          "name": "",
          "type": "uint256"
        }
      ],
      "payable": false,
      "stateMutability": "view",
      "type": "function"
    },
    {
      "constant": true,
      "inputs": [],
      "name": "playerPlayableFund",
      "outputs": [
        {
          "name": "",
          "type": "uint256"
        }
      ],
      "payable": false,
      "stateMutability": "view",
      "type": "function"
    },
    {
      "constant": false,
      "inputs": [
        {
          "name": "betNumbers",
          "type": "uint256[]"
        },
        {
          "name": "betAmount_chip",
          "type": "uint256[]"
        }
      ],
      "name": "createMyBet",
      "outputs": [
        {
          "name": "",
          "type": "bool"
        }
      ],
      "payable": false,
      "stateMutability": "nonpayable",
      "type": "function"
    },
    {
      "constant": true,
      "inputs": [],
      "name": "getMyBet",
      "outputs": [
        {
          "name": "",
          "type": "uint256[]"
        },
        {
          "name": "",
          "type": "uint256[]"
        },
        {
          "name": "",
          "type": "bool"
        },
        {
          "name": "",
          "type": "uint256"
        }
      ],
      "payable": false,
      "stateMutability": "view",
      "type": "function"
    },
    {
      "constant": true,
      "inputs": [
        {
          "name": "winWei",
          "type": "uint256"
        }
      ],
      "name": "getWinAmountWei",
      "outputs": [
        {
          "name": "",
          "type": "uint256"
        }
      ],
      "payable": false,
      "stateMutability": "view",
      "type": "function"
    },
    {
      "constant": false,
      "inputs": [],
      "name": "playerTossCoin",
      "outputs": [
        {
          "name": "",
          "type": "uint256"
        },
        {
          "name": "",
          "type": "uint256"
        }
      ],
      "payable": false,
      "stateMutability": "nonpayable",
      "type": "function"
    },
    {
      "constant": false,
      "inputs": [],
      "name": "ownerWithdrawAll",
      "outputs": [
        {
          "name": "",
          "type": "uint256"
        }
      ],
      "payable": false,
      "stateMutability": "nonpayable",
      "type": "function"
    },
    {
      "constant": false,
      "inputs": [],
      "name": "playerWithdrawAll",
      "outputs": [
        {
          "name": "",
          "type": "uint256"
        }
      ],
      "payable": false,
      "stateMutability": "nonpayable",
      "type": "function"
    }
  ],
  "bytecode": "0x60806040526000600655606360075566038d7ea4c6800060085560085460095560be600a553480156200003157600080fd5b50336000806101000a81548173ffffffffffffffffffffffffffffffffffffffff021916908373ffffffffffffffffffffffffffffffffffffffff1602179055506200008b62000091640100000000026401000000009004565b62002383565b6000806000915062030d409050620000bb826001836200014e640100000000026401000000009004565b507fc4dc360d0a9c0677a3379ae0a3d81e887f761e65fdf3d7e00859d1bcd3c473896040518080602001828103825260318152602001807f50726f7661626c65207175657279207761732073656e742c2077616974696e6781526020017f20666f722074686520616e737765722e2e00000000000000000000000000000081525060400191505060405180910390a15050565b6000606080606060006060806200016462002291565b6000606060008c1180156200017a575060208c11155b15156200018657600080fd5b600a8d029c5060016040519080825280601f01601f191660200182016040528015620001c15781602001602082028038833980820191505090505b5098508b7f010000000000000000000000000000000000000000000000000000000000000002896000815181101515620001f757fe5b9060200101907effffffffffffffffffffffffffffffffffffffffffffffffffffffffffffff1916908160001a90535060206040519080825280601f01601f1916602001820160405280156200025c5781602001602082028038833980820191505090505b50975060206040519080825280601f01601f191660200182016040528015620002945781602001602082028038833980820191505090505b509650620002b0620007de640100000000026401000000009004565b95506020885242411860014303401860208901526020875285602088015260206040519080825280601f01601f191660200182016040528015620003035781602001602082028038833980820191505090505b5094508c602086015260086040519080825280601f01601f191660200182016040528015620003415781602001602082028038833980820191505090505b50935062000365856018600887600062000b6e640100000000026401000000009004565b506080604051908101604052808981526020018a8152602001888152602001868152509250620003db6040805190810160405280600681526020017f72616e646f6d0000000000000000000000000000000000000000000000000000815250848d62000bd1640100000000026401000000009004565b915060086040519080825280601f01601f191660200182016040528015620004125781602001602082028038833980820191505090505b50905060208401517f0100000000000000000000000000000000000000000000000000000000000000810460278301537e01000000000000000000000000000000000000000000000000000000000000810460268301537d010000000000000000000000000000000000000000000000000000000000810460258301537c0100000000000000000000000000000000000000000000000000000000810460248301537b01000000000000000000000000000000000000000000000000000000810460238301537a010000000000000000000000000000000000000000000000000000810460228301537901000000000000000000000000000000000000000000000000008104602183015378010000000000000000000000000000000000000000000000008104602083015350620007cb82828560016004811015156200055557fe5b602002015160028760006004811015156200056c57fe5b60200201516040518082805190602001908083835b602083101515620005a8578051825260208201915060208101905060208303925062000581565b6001836020036101000a0380198251168184511680821785525050505050509050019150506020604051808303816000865af1158015620005ed573d6000803e3d6000fd5b5050506040513d60208110156200060357600080fd5b81019080805190602001909291905050508760026004811015156200062457fe5b60200201516040516020018085805190602001908083835b6020831015156200066357805182526020820191506020810190506020830392506200063c565b6001836020036101000a03801982511681845116808217855250505050505090500184805190602001908083835b602083101515620006b8578051825260208201915060208101905060208303925062000691565b6001836020036101000a038019825116818451168082178552505050505050905001836000191660001916815260200182805190602001908083835b6020831015156200071b5780518252602082019150602081019050602083039250620006f4565b6001836020036101000a0380198251168184511680821785525050505050509050019450505050506040516020818303038152906040526040518082805190602001908083835b60208310151562000789578051825260208201915060208101905060208303925062000762565b6001836020036101000a038019825116818451168082178552505050505050905001915050604051809103902062000fc3640100000000026401000000009004565b8199505050505050505050509392505050565b600080600160009054906101000a900473ffffffffffffffffffffffffffffffffffffffff1673ffffffffffffffffffffffffffffffffffffffff161480620008625750600062000860600160009054906101000a900473ffffffffffffffffffffffffffffffffffffffff1662000feb640100000000026401000000009004565b145b15620008855762000883600062000ff6640100000000026401000000009004565b505b600160009054906101000a900473ffffffffffffffffffffffffffffffffffffffff1673ffffffffffffffffffffffffffffffffffffffff166338cc48316040518163ffffffff167c0100000000000000000000000000000000000000000000000000000000028152600401602060405180830381600087803b1580156200090c57600080fd5b505af115801562000921573d6000803e3d6000fd5b505050506040513d60208110156200093857600080fd5b810190808051906020019092919050505073ffffffffffffffffffffffffffffffffffffffff16600260009054906101000a900473ffffffffffffffffffffffffffffffffffffffff1673ffffffffffffffffffffffffffffffffffffffff1614151562000aa557600160009054906101000a900473ffffffffffffffffffffffffffffffffffffffff1673ffffffffffffffffffffffffffffffffffffffff166338cc48316040518163ffffffff167c0100000000000000000000000000000000000000000000000000000000028152600401602060405180830381600087803b15801562000a2757600080fd5b505af115801562000a3c573d6000803e3d6000fd5b505050506040513d602081101562000a5357600080fd5b8101908080519060200190929190505050600260006101000a81548173ffffffffffffffffffffffffffffffffffffffff021916908373ffffffffffffffffffffffffffffffffffffffff1602179055505b600260009054906101000a900473ffffffffffffffffffffffffffffffffffffffff1673ffffffffffffffffffffffffffffffffffffffff1663abaa5f3e6040518163ffffffff167c0100000000000000000000000000000000000000000000000000000000028152600401602060405180830381600087803b15801562000b2c57600080fd5b505af115801562000b41573d6000803e3d6000fd5b505050506040513d602081101562000b5857600080fd5b8101908080519060200190929190505050905090565b6060600080600084870192508286511015151562000b8b57600080fd5b8760200191508460200190505b86886020010182101562000bc2578189015180828801525060208201915060208101905062000b98565b85935050505095945050505050565b600060606000600160009054906101000a900473ffffffffffffffffffffffffffffffffffffffff1673ffffffffffffffffffffffffffffffffffffffff16148062000c585750600062000c56600160009054906101000a900473ffffffffffffffffffffffffffffffffffffffff1662000feb640100000000026401000000009004565b145b1562000c7b5762000c79600062000ff6640100000000026401000000009004565b505b600160009054906101000a900473ffffffffffffffffffffffffffffffffffffffff1673ffffffffffffffffffffffffffffffffffffffff166338cc48316040518163ffffffff167c0100000000000000000000000000000000000000000000000000000000028152600401602060405180830381600087803b15801562000d0257600080fd5b505af115801562000d17573d6000803e3d6000fd5b505050506040513d602081101562000d2e57600080fd5b810190808051906020019092919050505073ffffffffffffffffffffffffffffffffffffffff16600260009054906101000a900473ffffffffffffffffffffffffffffffffffffffff1673ffffffffffffffffffffffffffffffffffffffff1614151562000e9b57600160009054906101000a900473ffffffffffffffffffffffffffffffffffffffff1673ffffffffffffffffffffffffffffffffffffffff166338cc48316040518163ffffffff167c0100000000000000000000000000000000000000000000000000000000028152600401602060405180830381600087803b15801562000e1d57600080fd5b505af115801562000e32573d6000803e3d6000fd5b505050506040513d602081101562000e4957600080fd5b8101908080519060200190929190505050600260006101000a81548173ffffffffffffffffffffffffffffffffffffffff021916908373ffffffffffffffffffffffffffffffffffffffff1602179055505b600460405190808252806020026020018201604052801562000ed257816020015b606081526020019060019003908162000ebc5790505b50905083600060048110151562000ee557fe5b602002015181600081518110151562000efa57fe5b9060200190602002018190525083600160048110151562000f1757fe5b602002015181600181518110151562000f2c57fe5b9060200190602002018190525083600260048110151562000f4957fe5b602002015181600281518110151562000f5e57fe5b9060200190602002018190525083600360048110151562000f7b57fe5b602002015181600381518110151562000f9057fe5b9060200190602002018190525062000fb985828562001018640100000000026401000000009004565b9150509392505050565b8060046000846000191660001916815260200190815260200160002081600019169055505050565b6000813b9050919050565b60006200101162001627640100000000026401000000009004565b9050919050565b60008060606000600160009054906101000a900473ffffffffffffffffffffffffffffffffffffffff1673ffffffffffffffffffffffffffffffffffffffff161480620010a0575060006200109e600160009054906101000a900473ffffffffffffffffffffffffffffffffffffffff1662000feb640100000000026401000000009004565b145b15620010c357620010c1600062000ff6640100000000026401000000009004565b505b600160009054906101000a900473ffffffffffffffffffffffffffffffffffffffff1673ffffffffffffffffffffffffffffffffffffffff166338cc48316040518163ffffffff167c0100000000000000000000000000000000000000000000000000000000028152600401602060405180830381600087803b1580156200114a57600080fd5b505af11580156200115f573d6000803e3d6000fd5b505050506040513d60208110156200117657600080fd5b810190808051906020019092919050505073ffffffffffffffffffffffffffffffffffffffff16600260009054906101000a900473ffffffffffffffffffffffffffffffffffffffff1673ffffffffffffffffffffffffffffffffffffffff16141515620012e357600160009054906101000a900473ffffffffffffffffffffffffffffffffffffffff1673ffffffffffffffffffffffffffffffffffffffff166338cc48316040518163ffffffff167c0100000000000000000000000000000000000000000000000000000000028152600401602060405180830381600087803b1580156200126557600080fd5b505af11580156200127a573d6000803e3d6000fd5b505050506040513d60208110156200129157600080fd5b8101908080519060200190929190505050600260006101000a81548173ffffffffffffffffffffffffffffffffffffffff021916908373ffffffffffffffffffffffffffffffffffffffff1602179055505b600260009054906101000a900473ffffffffffffffffffffffffffffffffffffffff1673ffffffffffffffffffffffffffffffffffffffff16632ef3accc87866040518363ffffffff167c01000000000000000000000000000000000000000000000000000000000281526004018080602001838152602001828103825284818151815260200191508051906020019080838360005b838110156200139657808201518184015260208101905062001379565b50505050905090810190601f168015620013c45780820380516001836020036101000a031916815260200191505b509350505050602060405180830381600087803b158015620013e557600080fd5b505af1158015620013fa573d6000803e3d6000fd5b505050506040513d60208110156200141157600080fd5b81019080805190602001909291905050509150833a02670de0b6b3a7640000018211156200144657600060010292506200161e565b620014608562001c6b640100000000026401000000009004565b9050600260009054906101000a900473ffffffffffffffffffffffffffffffffffffffff1673ffffffffffffffffffffffffffffffffffffffff1663c55c1cb68360008985896040518663ffffffff167c0100000000000000000000000000000000000000000000000000000000028152600401808581526020018060200180602001848152602001838103835286818151815260200191508051906020019080838360005b838110156200152357808201518184015260208101905062001506565b50505050905090810190601f168015620015515780820380516001836020036101000a031916815260200191505b50838103825285818151815260200191508051906020019080838360005b838110156200158c5780820151818401526020810190506200156f565b50505050905090810190601f168015620015ba5780820380516001836020036101000a031916815260200191505b5096505050505050506020604051808303818588803b158015620015dd57600080fd5b505af1158015620015f2573d6000803e3d6000fd5b50505050506040513d60208110156200160a57600080fd5b810190808051906020019092919050505092505b50509392505050565b60008062001658731d3b2638a7cc9f2cb3d298a3da7a90b67e5506ed62000feb640100000000026401000000009004565b11156200170d57731d3b2638a7cc9f2cb3d298a3da7a90b67e5506ed600160006101000a81548173ffffffffffffffffffffffffffffffffffffffff021916908373ffffffffffffffffffffffffffffffffffffffff160217905550620017036040805190810160405280600b81526020017f6574685f6d61696e6e657400000000000000000000000000000000000000000081525062001d58640100000000026401000000009004565b6001905062001c68565b60006200173d73c03a2615d5efaf5f49f60b7bb6583eaec212fdf162000feb640100000000026401000000009004565b1115620017f25773c03a2615d5efaf5f49f60b7bb6583eaec212fdf1600160006101000a81548173ffffffffffffffffffffffffffffffffffffffff021916908373ffffffffffffffffffffffffffffffffffffffff160217905550620017e86040805190810160405280600c81526020017f6574685f726f707374656e33000000000000000000000000000000000000000081525062001d58640100000000026401000000009004565b6001905062001c68565b60006200182273b7a07bcf2ba2f2703b24c0691b5278999c59ac7e62000feb640100000000026401000000009004565b1115620018d75773b7a07bcf2ba2f2703b24c0691b5278999c59ac7e600160006101000a81548173ffffffffffffffffffffffffffffffffffffffff021916908373ffffffffffffffffffffffffffffffffffffffff160217905550620018cd6040805190810160405280600981526020017f6574685f6b6f76616e000000000000000000000000000000000000000000000081525062001d58640100000000026401000000009004565b6001905062001c68565b60006200190773146500cfd35b22e4a392fe0adc06de1a1368ed4862000feb640100000000026401000000009004565b1115620019bc5773146500cfd35b22e4a392fe0adc06de1a1368ed48600160006101000a81548173ffffffffffffffffffffffffffffffffffffffff021916908373ffffffffffffffffffffffffffffffffffffffff160217905550620019b26040805190810160405280600b81526020017f6574685f72696e6b65627900000000000000000000000000000000000000000081525062001d58640100000000026401000000009004565b6001905062001c68565b6000620019ec73a2998efd205fb9d4b4963afb70778d6354ad3a4162000feb640100000000026401000000009004565b111562001aa15773a2998efd205fb9d4b4963afb70778d6354ad3a41600160006101000a81548173ffffffffffffffffffffffffffffffffffffffff021916908373ffffffffffffffffffffffffffffffffffffffff16021790555062001a976040805190810160405280600a81526020017f6574685f676f65726c690000000000000000000000000000000000000000000081525062001d58640100000000026401000000009004565b6001905062001c68565b600062001ad1736f485c8bf6fc43ea212e93bbf8ce046c7f1cb47562000feb640100000000026401000000009004565b111562001b3757736f485c8bf6fc43ea212e93bbf8ce046c7f1cb475600160006101000a81548173ffffffffffffffffffffffffffffffffffffffff021916908373ffffffffffffffffffffffffffffffffffffffff1602179055506001905062001c68565b600062001b677320e12a1f859b3feae5fb2a0a32c18f5a65555bbf62000feb640100000000026401000000009004565b111562001bcd577320e12a1f859b3feae5fb2a0a32c18f5a65555bbf600160006101000a81548173ffffffffffffffffffffffffffffffffffffffff021916908373ffffffffffffffffffffffffffffffffffffffff1602179055506001905062001c68565b600062001bfd7351efaf4c8b3c9afbd5ab9f4bbc82784ab6ef8faa62000feb640100000000026401000000009004565b111562001c63577351efaf4c8b3c9afbd5ab9f4bbc82784ab6ef8faa600160006101000a81548173ffffffffffffffffffffffffffffffffffffffff021916908373ffffffffffffffffffffffffffffffffffffffff1602179055506001905062001c68565b600090505b90565b606062001c77620022ba565b600062001c9262001d74640100000000026401000000009004565b62001cb48261040062001d8064010000000002620048ea176401000000009004565b62001cd38262001dd3640100000000026200493a176401000000009004565b600090505b835181101562001d2b5762001d1d848281518110151562001cf557fe5b906020019060200201518362001df26401000000000262004948179091906401000000009004565b808060010191505062001cd8565b62001d4a8262001e38640100000000026200496d176401000000009004565b816000015192505050919050565b806003908051906020019062001d70929190620022d4565b5050565b60405180590338823950565b6000819050600060208281151562001d9457fe5b0614151562001db35760208181151562001daa57fe5b06602003810190505b808360200181815250506040518084526000815281810160405250505050565b62001def81600462001e57640100000000026401000000009004565b50565b62001e10826002835162001e8b640100000000026401000000009004565b62001e3381836200207d6401000000000262004af8179091906401000000009004565b505050565b62001e5481600762001e57640100000000026401000000009004565b50565b62001e87601f60058360ff169060020a021783620021506401000000000262004ba4179091906401000000009004565b5050565b60178111151562001ece5762001ec88160058460ff169060020a0260ff161784620021506401000000000262004ba4179091906401000000009004565b62002078565b60ff8111151562001f365762001f09601860058460ff169060020a021784620021506401000000000262004ba4179091906401000000009004565b62001f2f81600185620021a26401000000000262004be417909291906401000000009004565b5062002077565b61ffff8111151562001f9f5762001f72601960058460ff169060020a021784620021506401000000000262004ba4179091906401000000009004565b62001f9881600285620021a26401000000000262004be417909291906401000000009004565b5062002076565b63ffffffff811115156200200a5762001fdd601a60058460ff169060020a021784620021506401000000000262004ba4179091906401000000009004565b6200200381600485620021a26401000000000262004be417909291906401000000009004565b5062002075565b67ffffffffffffffff8111151562002074576200204c601b60058460ff169060020a021784620021506401000000000262004ba4179091906401000000009004565b6200207281600885620021a26401000000000262004be417909291906401000000009004565b505b5b5b5b5b505050565b62002087620022ba565b60008060008086602001518760000151518751011115620020e057620020df876002620020c98a602001518a516200222e640100000000026401000000009004565b026200224c640100000000026401000000009004565b5b8551915086518051602081830101955087518101825260208801945050505b602082101515620021265782518452602084019350602083019250602082039150620020ff565b6001826020036101000a039050801983511681855116818117865250508694505050505092915050565b816020015160018360000151510111156200218857620021878260028460200151026200224c640100000000026401000000009004565b5b815180516020818301018381536001820183525050505050565b620021ac620022ba565b6000846020015185600001515184011115620021ff57620021fe856002620021e88860200151876200222e640100000000026401000000009004565b026200224c640100000000026401000000009004565b5b6001836101000a0390508451805184818301018684198251161781528582018352505050849150509392505050565b600081831115620022425782905062002246565b8190505b92915050565b60608260000151905062002270838362001d80640100000000026401000000009004565b6200228b83826200207d640100000000026401000000009004565b50505050565b6080604051908101604052806004905b6060815260200190600190039081620022a15790505090565b604080519081016040528060608152602001600081525090565b828054600181600116156101000203166002900490600052602060002090601f016020900481019282601f106200231757805160ff191683800117855562002348565b8280016001018555821562002348579182015b82811115620023475782518255916020019190600101906200232a565b5b5090506200235791906200235b565b5090565b6200238091905b808211156200237c57600081600090555060010162002362565b5090565b90565b614e1580620023936000396000f30060806040526004361061015f576000357c0100000000000000000000000000000000000000000000000000000000900463ffffffff1680630a39a58e146101645780630da277901461018f578063180bfdf6146102175780631c7ff1ba1461024257806320912e38146102a457806327dc297e146102cf5780632890a9f81461034657806338bbfa50146104075780633c50b913146104c45780634894e37f146104ef5780635ec01e4d146105e45780636f9fb98a1461060f57806376b0a4a01461063a5780638085688c1461065a5780638a8b19e51461068c5780638da5cb5b146106b757806394ebe6081461070e578063a2e6204514610739578063b24b05f814610743578063dc34b0aa14610809578063dd85881f14610834578063e0d5af941461085f578063e1bc44e71461088a578063e3c12872146108b5578063e57acb3514610911578063e862f79d1461093c578063f88c09f91461095c575b600080fd5b34801561017057600080fd5b5061017961099d565b6040518082815260200191505060405180910390f35b34801561019b57600080fd5b506101d0600480360381019080803573ffffffffffffffffffffffffffffffffffffffff1690602001909291905050506109a3565b604051808981526020018881526020018781526020018681526020018581526020018481526020018381526020018281526020019850505050505050505060405180910390f35b34801561022357600080fd5b5061022c6109eb565b6040518082815260200191505060405180910390f35b34801561024e57600080fd5b50610283600480360381019080803573ffffffffffffffffffffffffffffffffffffffff1690602001909291905050506109f1565b60405180831515151581526020018281526020019250505060405180910390f35b3480156102b057600080fd5b506102b9610a22565b6040518082815260200191505060405180910390f35b3480156102db57600080fd5b506103446004803603810190808035600019169060200190929190803590602001908201803590602001908080601f0160208091040260200160405190810160405280939291908181526020018383808284378201915050505050509192919290505050610a44565b005b34801561035257600080fd5b506103ed6004803603810190808035906020019082018035906020019080806020026020016040519081016040528093929190818152602001838360200280828437820191505050505050919291929080359060200190820180359060200190808060200260200160405190810160405280939291908181526020018383602002808284378201915050505050509192919290505050610a87565b604051808215151515815260200191505060405180910390f35b34801561041357600080fd5b506104c26004803603810190808035600019169060200190929190803590602001908201803590602001908080601f0160208091040260200160405190810160405280939291908181526020018383808284378201915050505050509192919290803590602001908201803590602001908080601f0160208091040260200160405190810160405280939291908181526020018383808284378201915050505050509192919290505050610d83565b005b3480156104d057600080fd5b506104d9610d88565b6040518082815260200191505060405180910390f35b3480156104fb57600080fd5b506105e2600480360381019080803590602001908201803590602001908080601f0160208091040260200160405190810160405280939291908181526020018383808284378201915050505050509192919290803590602001908201803590602001908080601f0160208091040260200160405190810160405280939291908181526020018383808284378201915050505050509192919290803590602001908201803590602001908080601f0160208091040260200160405190810160405280939291908181526020018383808284378201915050505050509192919290505050610e31565b005b3480156105f057600080fd5b506105f9611073565b6040518082815260200191505060405180910390f35b34801561061b57600080fd5b5061062461107b565b6040518082815260200191505060405180910390f35b61065860048036038101908080359060200190929190505050611085565b005b34801561066657600080fd5b5061066f611188565b604051808381526020018281526020019250505060405180910390f35b34801561069857600080fd5b506106a16115fa565b6040518082815260200191505060405180910390f35b3480156106c357600080fd5b506106cc611600565b604051808273ffffffffffffffffffffffffffffffffffffffff1673ffffffffffffffffffffffffffffffffffffffff16815260200191505060405180910390f35b34801561071a57600080fd5b50610723611625565b6040518082815260200191505060405180910390f35b610741611a4c565b005b34801561074f57600080fd5b50610758611af8565b60405180806020018060200185151515158152602001848152602001838103835287818151815260200191508051906020019060200280838360005b838110156107af578082015181840152602081019050610794565b50505050905001838103825286818151815260200191508051906020019060200280838360005b838110156107f15780820151818401526020810190506107d6565b50505050905001965050505050505060405180910390f35b34801561081557600080fd5b5061081e611ccc565b6040518082815260200191505060405180910390f35b34801561084057600080fd5b50610849611cd2565b6040518082815260200191505060405180910390f35b34801561086b57600080fd5b50610874611cd8565b6040518082815260200191505060405180910390f35b34801561089657600080fd5b5061089f611d9e565b6040518082815260200191505060405180910390f35b3480156108c157600080fd5b506108ca611da4565b604051808981526020018881526020018781526020018681526020018581526020018481526020018381526020018281526020019850505050505050505060405180910390f35b34801561091d57600080fd5b5061092661205e565b6040518082815260200191505060405180910390f35b61095a60048036038101908080359060200190929190505050612068565b005b34801561096857600080fd5b5061098760048036038101908080359060200190929190505050612168565b6040518082815260200191505060405180910390f35b600b5481565b600e6020528060005260406000206000915090508060000154908060010154908060020154908060030154908060040154908060050154908060060154908060070154905088565b600c5481565b600d6020528060005260406000206000915090508060020160009054906101000a900460ff16908060030154905082565b600080600b541415610a375760009050610a41565b600c54600b540390505b90565b610a83828260006040519080825280601f01601f191660200182016040528015610a7d5781602001602082028038833980820191505090505b50610d83565b5050565b600060606000600d60003373ffffffffffffffffffffffffffffffffffffffff1673ffffffffffffffffffffffffffffffffffffffff16815260200190815260200160002060030154141515610b6b576040517f08c379a00000000000000000000000000000000000000000000000000000000081526004018080602001828103825260278152602001807f2e2e20506c65617365205761697420666f7220726573756c74206f66206c617381526020017f74206265742e2e0000000000000000000000000000000000000000000000000081525060400191505060405180910390fd5b610b73612182565b1515610be7576040517f08c379a00000000000000000000000000000000000000000000000000000000081526004018080602001828103825260188152602001807f4e6f742076616c696420506c617965722042616c616e6365000000000000000081525060200191505060405180910390fd5b610bf0836122ed565b9050610bfc8482612350565b1515610c70576040517f08c379a000000000000000000000000000000000000000000000000000000000815260040180806020018281038252600d8152602001807f4e4f542056414c4944204245540000000000000000000000000000000000000081525060200191505060405180910390fd5b610c798161254b565b610c8384826125da565b7f2aeacb050561fc39cce82b85f933b4093153305890dd8ef86f07c861b720cb7e8482336040518080602001806020018473ffffffffffffffffffffffffffffffffffffffff1673ffffffffffffffffffffffffffffffffffffffff168152602001838103835286818151815260200191508051906020019060200280838360005b83811015610d20578082015181840152602081019050610d05565b50505050905001838103825285818151815260200191508051906020019060200280838360005b83811015610d62578082015181840152602081019050610d47565b505050509050019550505050505060405180910390a1600191505092915050565b505050565b600080610d93610a22565b905080600e60003373ffffffffffffffffffffffffffffffffffffffff1673ffffffffffffffffffffffffffffffffffffffff168152602001908152602001600020600001541015610e2957600e60003373ffffffffffffffffffffffffffffffffffffffff1673ffffffffffffffffffffffffffffffffffffffff168152602001908152602001600020600001549150610e2d565b8091505b5090565b6000610e3b612701565b73ffffffffffffffffffffffffffffffffffffffff163373ffffffffffffffffffffffffffffffffffffffff16141515610e7457600080fd5b6064836040516020018082805190602001908083835b602083101515610eaf5780518252602082019150602081019050602083039250610e8a565b6001836020036101000a0380198251168184511680821785525050505050509050019150506040516020818303038152906040526040518082805190602001908083835b602083101515610f185780518252602082019150602081019050602083039250610ef3565b6001836020036101000a038019825116818451168082178552505050505050905001915050604051809103902060019004811515610f5257fe5b06905080600f819055507f1c9e71794f59ec18eaec69e2f5f014a68cbb6db9d25fd84f6dae166bda01fa59818584604051808481526020018060200180602001838103835285818151815260200191508051906020019080838360005b83811015610fca578082015181840152602081019050610faf565b50505050905090810190601f168015610ff75780820380516001836020036101000a031916815260200191505b50838103825284818151815260200191508051906020019080838360005b83811015611030578082015181840152602081019050611015565b50505050905090810190601f16801561105d5780820380516001836020036101000a031916815260200191505b509550505050505060405180910390a150505050565b600080905090565b6000600b54905090565b6000809054906101000a900473ffffffffffffffffffffffffffffffffffffffff1673ffffffffffffffffffffffffffffffffffffffff163373ffffffffffffffffffffffffffffffffffffffff161415156110e057600080fd5b6110e981612a63565b3414151561115f576040517f08c379a000000000000000000000000000000000000000000000000000000000815260040180806020018281038252601e8152602001807f6d73672e76616c756520213d20746f7055705f63686970202a2031653136000081525060200191505060405180910390fd5b61116881612a63565b3414151561117557600080fd5b34600b6000828254019250508190555050565b6000806000806000611198612182565b1515611232576040517f08c379a00000000000000000000000000000000000000000000000000000000081526004018080602001828103825260288152602001807f706c61796572546f7373436f696e3a204e6f742076616c696420506c6179657281526020017f2042616c616e636500000000000000000000000000000000000000000000000081525060400191505060405180910390fd5b6000600d60003373ffffffffffffffffffffffffffffffffffffffff1673ffffffffffffffffffffffffffffffffffffffff16815260200190815260200160002060000180549050111515611315576040517f08c379a00000000000000000000000000000000000000000000000000000000081526004018080602001828103825260338152602001807f706c61796572546f7373436f696e3a204e6f2062657420706c616365642c207081526020017f6c61736520706c6163652074686520626574210000000000000000000000000081525060400191505060405180910390fd5b6001600d60003373ffffffffffffffffffffffffffffffffffffffff1673ffffffffffffffffffffffffffffffffffffffff16815260200190815260200160002060020160006101000a81548160ff0219169083151502179055506212c9d9600d60003373ffffffffffffffffffffffffffffffffffffffff1673ffffffffffffffffffffffffffffffffffffffff168152602001908152602001600020600301819055506113c2611073565b925060065483101580156113d857506007548311155b1515611472576040517f08c379a00000000000000000000000000000000000000000000000000000000081526004018080602001828103825260238152602001807f706c61796572546f7373436f696e3a2052616e646f6d206f7574206f6620726181526020017f6e6765000000000000000000000000000000000000000000000000000000000081525060400191505060405180910390fd5b60009150600090505b600d60003373ffffffffffffffffffffffffffffffffffffffff1673ffffffffffffffffffffffffffffffffffffffff1681526020019081526020016000206000018054905081101561159d5782600d60003373ffffffffffffffffffffffffffffffffffffffff1673ffffffffffffffffffffffffffffffffffffffff1681526020019081526020016000206000018281548110151561151857fe5b906000526020600020015414156115905761158b600d60003373ffffffffffffffffffffffffffffffffffffffff1673ffffffffffffffffffffffffffffffffffffffff1681526020019081526020016000206001018281548110151561157b57fe5b9060005260206000200154612168565b820191505b808060010191505061147b565b6115a5612a71565b6115ae82612b7e565b7fe283fa50c44993d4965e7a178b27ecadf2f5154640d61a798dcf15df61f36c928284604051808381526020018281526020019250505060405180910390a18183945094505050509091565b60065481565b6000809054906101000a900473ffffffffffffffffffffffffffffffffffffffff1681565b600080611630612ccd565b6000600e60003373ffffffffffffffffffffffffffffffffffffffff1673ffffffffffffffffffffffffffffffffffffffff168152602001908152602001600020600001541115156116ea576040517f08c379a00000000000000000000000000000000000000000000000000000000081526004018080602001828103825260168152602001807f506c61796572206973206f7574206f66206d6f6e65790000000000000000000081525060200191505060405180910390fd5b6116f2612182565b1515611766576040517f08c379a00000000000000000000000000000000000000000000000000000000081526004018080602001828103825260158152602001807f496e76616c69642062616c616e636520636865636b000000000000000000000081525060200191505060405180910390fd5b6000600d60003373ffffffffffffffffffffffffffffffffffffffff1673ffffffffffffffffffffffffffffffffffffffff16815260200190815260200160002060030154141515611820576040517f08c379a00000000000000000000000000000000000000000000000000000000081526004018080602001828103825260188152602001807f57616974696e6720666f722062657420726573756c742e2e000000000000000081525060200191505060405180910390fd5b6000600d60003373ffffffffffffffffffffffffffffffffffffffff1673ffffffffffffffffffffffffffffffffffffffff16815260200190815260200160002060000180549050141515611903576040517f08c379a000000000000000000000000000000000000000000000000000000000815260040180806020018281038252602d8152602001807f4265742063616e206e6f742062652063616e63656c6c65642c20436c69636b2081526020017f466c697020427574746f6e2e2e0000000000000000000000000000000000000081525060400191505060405180910390fd5b600e60003373ffffffffffffffffffffffffffffffffffffffff1673ffffffffffffffffffffffffffffffffffffffff16815260200190815260200160002060000154905080600e60003373ffffffffffffffffffffffffffffffffffffffff1673ffffffffffffffffffffffffffffffffffffffff1681526020019081526020016000206002016000828254019250508190555080600b600082825403925050819055506119b0612ccd565b6000600e60003373ffffffffffffffffffffffffffffffffffffffff1673ffffffffffffffffffffffffffffffffffffffff168152602001908152602001600020600001541415156119fe57fe5b3373ffffffffffffffffffffffffffffffffffffffff166108fc829081150290604051600060405180830381858888f19350505050158015611a44573d6000803e3d6000fd5b508091505090565b6000806000915062030d409050611a6582600183612ec8565b507fc4dc360d0a9c0677a3379ae0a3d81e887f761e65fdf3d7e00859d1bcd3c473896040518080602001828103825260318152602001807f50726f7661626c65207175657279207761732073656e742c2077616974696e6781526020017f20666f722074686520616e737765722e2e00000000000000000000000000000081525060400191505060405180910390a15050565b606080600080600d60003373ffffffffffffffffffffffffffffffffffffffff1673ffffffffffffffffffffffffffffffffffffffff168152602001908152602001600020600001611bd9600d60003373ffffffffffffffffffffffffffffffffffffffff1673ffffffffffffffffffffffffffffffffffffffff168152602001908152602001600020600101805480602002602001604051908101604052809291908181526020018280548015611bcf57602002820191906000526020600020905b815481526020019060010190808311611bbb575b50505050506134fa565b600d60003373ffffffffffffffffffffffffffffffffffffffff1673ffffffffffffffffffffffffffffffffffffffff16815260200190815260200160002060020160009054906101000a900460ff16600d60003373ffffffffffffffffffffffffffffffffffffffff1673ffffffffffffffffffffffffffffffffffffffff1681526020019081526020016000206003015483805480602002602001604051908101604052809291908181526020018280548015611cb757602002820191906000526020600020905b815481526020019060010190808311611ca3575b50505050509350935093509350935090919293565b600f5481565b60075481565b6000806000809054906101000a900473ffffffffffffffffffffffffffffffffffffffff1673ffffffffffffffffffffffffffffffffffffffff163373ffffffffffffffffffffffffffffffffffffffff16141515611d3657600080fd5b611d3e61107b565b90506000600c819055506000600b819055503373ffffffffffffffffffffffffffffffffffffffff166108fc829081150290604051600060405180830381858888f19350505050158015611d96573d6000803e3d6000fd5b508091505090565b60095481565b600080600080600080600080611db8612182565b1515611e2c576040517f08c379a00000000000000000000000000000000000000000000000000000000081526004018080602001828103825260188152602001807f4e6f742076616c696420506c617965722042616c616e6365000000000000000081525060200191505060405180910390fd5b600e60003373ffffffffffffffffffffffffffffffffffffffff1673ffffffffffffffffffffffffffffffffffffffff16815260200190815260200160002060000154600e60003373ffffffffffffffffffffffffffffffffffffffff1673ffffffffffffffffffffffffffffffffffffffff16815260200190815260200160002060010154600e60003373ffffffffffffffffffffffffffffffffffffffff1673ffffffffffffffffffffffffffffffffffffffff16815260200190815260200160002060020154600e60003373ffffffffffffffffffffffffffffffffffffffff1673ffffffffffffffffffffffffffffffffffffffff16815260200190815260200160002060030154600e60003373ffffffffffffffffffffffffffffffffffffffff1673ffffffffffffffffffffffffffffffffffffffff16815260200190815260200160002060040154600e60003373ffffffffffffffffffffffffffffffffffffffff1673ffffffffffffffffffffffffffffffffffffffff16815260200190815260200160002060050154600e60003373ffffffffffffffffffffffffffffffffffffffff1673ffffffffffffffffffffffffffffffffffffffff16815260200190815260200160002060060154600e60003373ffffffffffffffffffffffffffffffffffffffff1673ffffffffffffffffffffffffffffffffffffffff16815260200190815260200160002060070154975097509750975097509750975097509091929394959697565b6000600c54905090565b61207181612a63565b341415156120e7576040517f08c379a000000000000000000000000000000000000000000000000000000000815260040180806020018281038252601e8152602001807f6d73672e76616c756520213d20746f7055705f63686970202a2031653136000081525060200191505060405180910390fd5b6120f081612a63565b341415156120fd57600080fd5b34600b6000828254019250508190555034600e60003373ffffffffffffffffffffffffffffffffffffffff1673ffffffffffffffffffffffffffffffffffffffff16815260200190815260200160002060010160008282540192505081905550612165612ccd565b50565b60006064600a54830281151561217a57fe5b049050919050565b6000600e60003373ffffffffffffffffffffffffffffffffffffffff1673ffffffffffffffffffffffffffffffffffffffff16815260200190815260200160002060040154600e60003373ffffffffffffffffffffffffffffffffffffffff1673ffffffffffffffffffffffffffffffffffffffff16815260200190815260200160002060030154600e60003373ffffffffffffffffffffffffffffffffffffffff1673ffffffffffffffffffffffffffffffffffffffff16815260200190815260200160002060020154600e60003373ffffffffffffffffffffffffffffffffffffffff1673ffffffffffffffffffffffffffffffffffffffff16815260200190815260200160002060010154030301600e60003373ffffffffffffffffffffffffffffffffffffffff1673ffffffffffffffffffffffffffffffffffffffff1681526020019081526020016000206000015414156122e557600190506122ea565b600090505b90565b606060008090505b82518110156123475761231e838281518110151561230f57fe5b90602001906020020151612a63565b838281518110151561232c57fe5b906020019060200201818152505080806001019150506122f5565b82915050919050565b6000806000835185511415156123ce576040517f08c379a000000000000000000000000000000000000000000000000000000000815260040180806020018281038252600f8152602001807f204552524f52206265742061726179000000000000000000000000000000000081525060200191505060405180910390fd5b60009150600090505b845181101561249a5760095484828151811015156123f157fe5b9060200190602002015110151515612471576040517f08c379a000000000000000000000000000000000000000000000000000000000815260040180806020018281038252601f8152602001807f42657420616d6f756e74206c657373207468616e206d696e20616d6f756e740081525060200191505060405180910390fd5b838181518110151561247f57fe5b906020019060200201518201915080806001019150506123d7565b6124a2610d88565b821115151561253f576040517f08c379a00000000000000000000000000000000000000000000000000000000081526004018080602001828103825260228152602001807f544f4f20424947204245542c20504c454153452041444a555354204f5552204281526020017f455400000000000000000000000000000000000000000000000000000000000081525060400191505060405180910390fd5b60019250505092915050565b60008090505b81518110156125ce57818181518110151561256857fe5b90602001906020020151600e60003373ffffffffffffffffffffffffffffffffffffffff1673ffffffffffffffffffffffffffffffffffffffff168152602001908152602001600020600301600082825401925050819055508080600101915050612551565b6125d6612ccd565b5050565b60008090505b82518110156126fc57600d60003373ffffffffffffffffffffffffffffffffffffffff1673ffffffffffffffffffffffffffffffffffffffff168152602001908152602001600020600001838281518110151561263957fe5b906020019060200201519080600181540180825580915050906001820390600052602060002001600090919290919091505550600d60003373ffffffffffffffffffffffffffffffffffffffff1673ffffffffffffffffffffffffffffffffffffffff16815260200190815260200160002060010182828151811015156126bc57fe5b90602001906020020151908060018154018082558091505090600182039060005260206000200160009091929091909150555080806001019150506125e0565b505050565b600080600160009054906101000a900473ffffffffffffffffffffffffffffffffffffffff1673ffffffffffffffffffffffffffffffffffffffff16148061277357506000612771600160009054906101000a900473ffffffffffffffffffffffffffffffffffffffff1661355d565b145b15612784576127826000613568565b505b600160009054906101000a900473ffffffffffffffffffffffffffffffffffffffff1673ffffffffffffffffffffffffffffffffffffffff166338cc48316040518163ffffffff167c0100000000000000000000000000000000000000000000000000000000028152600401602060405180830381600087803b15801561280a57600080fd5b505af115801561281e573d6000803e3d6000fd5b505050506040513d602081101561283457600080fd5b810190808051906020019092919050505073ffffffffffffffffffffffffffffffffffffffff16600260009054906101000a900473ffffffffffffffffffffffffffffffffffffffff1673ffffffffffffffffffffffffffffffffffffffff1614151561299d57600160009054906101000a900473ffffffffffffffffffffffffffffffffffffffff1673ffffffffffffffffffffffffffffffffffffffff166338cc48316040518163ffffffff167c0100000000000000000000000000000000000000000000000000000000028152600401602060405180830381600087803b15801561292157600080fd5b505af1158015612935573d6000803e3d6000fd5b505050506040513d602081101561294b57600080fd5b8101908080519060200190929190505050600260006101000a81548173ffffffffffffffffffffffffffffffffffffffff021916908373ffffffffffffffffffffffffffffffffffffffff1602179055505b600260009054906101000a900473ffffffffffffffffffffffffffffffffffffffff1673ffffffffffffffffffffffffffffffffffffffff1663c281d19e6040518163ffffffff167c0100000000000000000000000000000000000000000000000000000000028152600401602060405180830381600087803b158015612a2357600080fd5b505af1158015612a37573d6000803e3d6000fd5b505050506040513d6020811015612a4d57600080fd5b8101908080519060200190929190505050905090565b600060085482029050919050565b612a79614c8a565b80600d60003373ffffffffffffffffffffffffffffffffffffffff1673ffffffffffffffffffffffffffffffffffffffff1681526020019081526020016000206000820151816000019080519060200190612ad5929190614cb5565b506020820151816001019080519060200190612af2929190614cb5565b5060408201518160020160006101000a81548160ff021916908315150217905550606082015181600301559050506000600d60003373ffffffffffffffffffffffffffffffffffffffff1673ffffffffffffffffffffffffffffffffffffffff16815260200190815260200160002060020160006101000a81548160ff02191690831515021790555050565b600e60003373ffffffffffffffffffffffffffffffffffffffff1673ffffffffffffffffffffffffffffffffffffffff168152602001908152602001600020600501600081548092919060010191905055506000811115612c7b5780600e60003373ffffffffffffffffffffffffffffffffffffffff1673ffffffffffffffffffffffffffffffffffffffff168152602001908152602001600020600401600082825401925050819055506001600e60003373ffffffffffffffffffffffffffffffffffffffff1673ffffffffffffffffffffffffffffffffffffffff168152602001908152602001600020600601600082825401925050819055505b80600e60003373ffffffffffffffffffffffffffffffffffffffff1673ffffffffffffffffffffffffffffffffffffffff16815260200190815260200160002060070181905550612cca612ccd565b50565b600e60003373ffffffffffffffffffffffffffffffffffffffff1673ffffffffffffffffffffffffffffffffffffffff16815260200190815260200160002060000154600c60008282540392505081905550600e60003373ffffffffffffffffffffffffffffffffffffffff1673ffffffffffffffffffffffffffffffffffffffff16815260200190815260200160002060040154600e60003373ffffffffffffffffffffffffffffffffffffffff1673ffffffffffffffffffffffffffffffffffffffff16815260200190815260200160002060030154600e60003373ffffffffffffffffffffffffffffffffffffffff1673ffffffffffffffffffffffffffffffffffffffff16815260200190815260200160002060020154600e60003373ffffffffffffffffffffffffffffffffffffffff1673ffffffffffffffffffffffffffffffffffffffff16815260200190815260200160002060010154030301600e60003373ffffffffffffffffffffffffffffffffffffffff1673ffffffffffffffffffffffffffffffffffffffff16815260200190815260200160002060000181905550600e60003373ffffffffffffffffffffffffffffffffffffffff1673ffffffffffffffffffffffffffffffffffffffff16815260200190815260200160002060000154600c60008282540192505081905550565b600060608060606000606080612edc614d02565b6000606060008c118015612ef1575060208c11155b1515612efc57600080fd5b600a8d029c5060016040519080825280601f01601f191660200182016040528015612f365781602001602082028038833980820191505090505b5098508b7f010000000000000000000000000000000000000000000000000000000000000002896000815181101515612f6b57fe5b9060200101907effffffffffffffffffffffffffffffffffffffffffffffffffffffffffffff1916908160001a90535060206040519080825280601f01601f191660200182016040528015612fcf5781602001602082028038833980820191505090505b50975060206040519080825280601f01601f1916602001820160405280156130065781602001602082028038833980820191505090505b509650613011613579565b95506020885242411860014303401860208901526020875285602088015260206040519080825280601f01601f1916602001820160405280156130635781602001602082028038833980820191505090505b5094508c602086015260086040519080825280601f01601f1916602001820160405280156130a05781602001602082028038833980820191505090505b5093506130b385601860088760006138db565b506080604051908101604052808981526020018a81526020018881526020018681525092506131186040805190810160405280600681526020017f72616e646f6d0000000000000000000000000000000000000000000000000000815250848d61393b565b915060086040519080825280601f01601f19166020018201604052801561314e5781602001602082028038833980820191505090505b50905060208401517f0100000000000000000000000000000000000000000000000000000000000000810460278301537e01000000000000000000000000000000000000000000000000000000000000810460268301537d010000000000000000000000000000000000000000000000000000000000810460258301537c0100000000000000000000000000000000000000000000000000000000810460248301537b01000000000000000000000000000000000000000000000000000000810460238301537a0100000000000000000000000000000000000000000000000000008104602283015379010000000000000000000000000000000000000000000000000081046021830153780100000000000000000000000000000000000000000000000081046020830153506134e7828285600160048110151561328f57fe5b602002015160028760006004811015156132a557fe5b60200201516040518082805190602001908083835b6020831015156132df57805182526020820191506020810190506020830392506132ba565b6001836020036101000a0380198251168184511680821785525050505050509050019150506020604051808303816000865af1158015613323573d6000803e3d6000fd5b5050506040513d602081101561333857600080fd5b810190808051906020019092919050505087600260048110151561335857fe5b60200201516040516020018085805190602001908083835b6020831015156133955780518252602082019150602081019050602083039250613370565b6001836020036101000a03801982511681845116808217855250505050505090500184805190602001908083835b6020831015156133e857805182526020820191506020810190506020830392506133c3565b6001836020036101000a038019825116818451168082178552505050505050905001836000191660001916815260200182805190602001908083835b6020831015156134495780518252602082019150602081019050602083039250613424565b6001836020036101000a0380198251168184511680821785525050505050509050019450505050506040516020818303038152906040526040518082805190602001908083835b6020831015156134b55780518252602082019150602081019050602083039250613490565b6001836020036101000a0380198251168184511680821785525050505050509050019150506040518091039020613ce7565b8199505050505050505050509392505050565b606060008090505b82518110156135545761352b838281518110151561351c57fe5b90602001906020020151613d0f565b838281518110151561353957fe5b90602001906020020181815250508080600101915050613502565b82915050919050565b6000813b9050919050565b6000613572613d26565b9050919050565b600080600160009054906101000a900473ffffffffffffffffffffffffffffffffffffffff1673ffffffffffffffffffffffffffffffffffffffff1614806135eb575060006135e9600160009054906101000a900473ffffffffffffffffffffffffffffffffffffffff1661355d565b145b156135fc576135fa6000613568565b505b600160009054906101000a900473ffffffffffffffffffffffffffffffffffffffff1673ffffffffffffffffffffffffffffffffffffffff166338cc48316040518163ffffffff167c0100000000000000000000000000000000000000000000000000000000028152600401602060405180830381600087803b15801561368257600080fd5b505af1158015613696573d6000803e3d6000fd5b505050506040513d60208110156136ac57600080fd5b810190808051906020019092919050505073ffffffffffffffffffffffffffffffffffffffff16600260009054906101000a900473ffffffffffffffffffffffffffffffffffffffff1673ffffffffffffffffffffffffffffffffffffffff1614151561381557600160009054906101000a900473ffffffffffffffffffffffffffffffffffffffff1673ffffffffffffffffffffffffffffffffffffffff166338cc48316040518163ffffffff167c0100000000000000000000000000000000000000000000000000000000028152600401602060405180830381600087803b15801561379957600080fd5b505af11580156137ad573d6000803e3d6000fd5b505050506040513d60208110156137c357600080fd5b8101908080519060200190929190505050600260006101000a81548173ffffffffffffffffffffffffffffffffffffffff021916908373ffffffffffffffffffffffffffffffffffffffff1602179055505b600260009054906101000a900473ffffffffffffffffffffffffffffffffffffffff1673ffffffffffffffffffffffffffffffffffffffff1663abaa5f3e6040518163ffffffff167c0100000000000000000000000000000000000000000000000000000000028152600401602060405180830381600087803b15801561389b57600080fd5b505af11580156138af573d6000803e3d6000fd5b505050506040513d60208110156138c557600080fd5b8101908080519060200190929190505050905090565b606060008060008487019250828651101515156138f757600080fd5b8760200191508460200190505b86886020010182101561392c5781890151808288015250602082019150602081019050613904565b85935050505095945050505050565b600060606000600160009054906101000a900473ffffffffffffffffffffffffffffffffffffffff1673ffffffffffffffffffffffffffffffffffffffff1614806139b0575060006139ae600160009054906101000a900473ffffffffffffffffffffffffffffffffffffffff1661355d565b145b156139c1576139bf6000613568565b505b600160009054906101000a900473ffffffffffffffffffffffffffffffffffffffff1673ffffffffffffffffffffffffffffffffffffffff166338cc48316040518163ffffffff167c0100000000000000000000000000000000000000000000000000000000028152600401602060405180830381600087803b158015613a4757600080fd5b505af1158015613a5b573d6000803e3d6000fd5b505050506040513d6020811015613a7157600080fd5b810190808051906020019092919050505073ffffffffffffffffffffffffffffffffffffffff16600260009054906101000a900473ffffffffffffffffffffffffffffffffffffffff1673ffffffffffffffffffffffffffffffffffffffff16141515613bda57600160009054906101000a900473ffffffffffffffffffffffffffffffffffffffff1673ffffffffffffffffffffffffffffffffffffffff166338cc48316040518163ffffffff167c0100000000000000000000000000000000000000000000000000000000028152600401602060405180830381600087803b158015613b5e57600080fd5b505af1158015613b72573d6000803e3d6000fd5b505050506040513d6020811015613b8857600080fd5b8101908080519060200190929190505050600260006101000a81548173ffffffffffffffffffffffffffffffffffffffff021916908373ffffffffffffffffffffffffffffffffffffffff1602179055505b6004604051908082528060200260200182016040528015613c0f57816020015b6060815260200190600190039081613bfa5790505b509050836000600481101515613c2157fe5b6020020151816000815181101515613c3557fe5b90602001906020020181905250836001600481101515613c5157fe5b6020020151816001815181101515613c6557fe5b90602001906020020181905250836002600481101515613c8157fe5b6020020151816002815181101515613c9557fe5b90602001906020020181905250836003600481101515613cb157fe5b6020020151816003815181101515613cc557fe5b90602001906020020181905250613cdd85828561427d565b9150509392505050565b8060046000846000191660001916815260200190815260200160002081600019169055505050565b600060085482811515613d1e57fe5b049050919050565b600080613d46731d3b2638a7cc9f2cb3d298a3da7a90b67e5506ed61355d565b1115613de857731d3b2638a7cc9f2cb3d298a3da7a90b67e5506ed600160006101000a81548173ffffffffffffffffffffffffffffffffffffffff021916908373ffffffffffffffffffffffffffffffffffffffff160217905550613ddf6040805190810160405280600b81526020017f6574685f6d61696e6e657400000000000000000000000000000000000000000081525061483f565b6001905061427a565b6000613e0773c03a2615d5efaf5f49f60b7bb6583eaec212fdf161355d565b1115613ea95773c03a2615d5efaf5f49f60b7bb6583eaec212fdf1600160006101000a81548173ffffffffffffffffffffffffffffffffffffffff021916908373ffffffffffffffffffffffffffffffffffffffff160217905550613ea06040805190810160405280600c81526020017f6574685f726f707374656e33000000000000000000000000000000000000000081525061483f565b6001905061427a565b6000613ec873b7a07bcf2ba2f2703b24c0691b5278999c59ac7e61355d565b1115613f6a5773b7a07bcf2ba2f2703b24c0691b5278999c59ac7e600160006101000a81548173ffffffffffffffffffffffffffffffffffffffff021916908373ffffffffffffffffffffffffffffffffffffffff160217905550613f616040805190810160405280600981526020017f6574685f6b6f76616e000000000000000000000000000000000000000000000081525061483f565b6001905061427a565b6000613f8973146500cfd35b22e4a392fe0adc06de1a1368ed4861355d565b111561402b5773146500cfd35b22e4a392fe0adc06de1a1368ed48600160006101000a81548173ffffffffffffffffffffffffffffffffffffffff021916908373ffffffffffffffffffffffffffffffffffffffff1602179055506140226040805190810160405280600b81526020017f6574685f72696e6b65627900000000000000000000000000000000000000000081525061483f565b6001905061427a565b600061404a73a2998efd205fb9d4b4963afb70778d6354ad3a4161355d565b11156140ec5773a2998efd205fb9d4b4963afb70778d6354ad3a41600160006101000a81548173ffffffffffffffffffffffffffffffffffffffff021916908373ffffffffffffffffffffffffffffffffffffffff1602179055506140e36040805190810160405280600a81526020017f6574685f676f65726c690000000000000000000000000000000000000000000081525061483f565b6001905061427a565b600061410b736f485c8bf6fc43ea212e93bbf8ce046c7f1cb47561355d565b111561416f57736f485c8bf6fc43ea212e93bbf8ce046c7f1cb475600160006101000a81548173ffffffffffffffffffffffffffffffffffffffff021916908373ffffffffffffffffffffffffffffffffffffffff1602179055506001905061427a565b600061418e7320e12a1f859b3feae5fb2a0a32c18f5a65555bbf61355d565b11156141f2577320e12a1f859b3feae5fb2a0a32c18f5a65555bbf600160006101000a81548173ffffffffffffffffffffffffffffffffffffffff021916908373ffffffffffffffffffffffffffffffffffffffff1602179055506001905061427a565b60006142117351efaf4c8b3c9afbd5ab9f4bbc82784ab6ef8faa61355d565b1115614275577351efaf4c8b3c9afbd5ab9f4bbc82784ab6ef8faa600160006101000a81548173ffffffffffffffffffffffffffffffffffffffff021916908373ffffffffffffffffffffffffffffffffffffffff1602179055506001905061427a565b600090505b90565b60008060606000600160009054906101000a900473ffffffffffffffffffffffffffffffffffffffff1673ffffffffffffffffffffffffffffffffffffffff1614806142f3575060006142f1600160009054906101000a900473ffffffffffffffffffffffffffffffffffffffff1661355d565b145b15614304576143026000613568565b505b600160009054906101000a900473ffffffffffffffffffffffffffffffffffffffff1673ffffffffffffffffffffffffffffffffffffffff166338cc48316040518163ffffffff167c0100000000000000000000000000000000000000000000000000000000028152600401602060405180830381600087803b15801561438a57600080fd5b505af115801561439e573d6000803e3d6000fd5b505050506040513d60208110156143b457600080fd5b810190808051906020019092919050505073ffffffffffffffffffffffffffffffffffffffff16600260009054906101000a900473ffffffffffffffffffffffffffffffffffffffff1673ffffffffffffffffffffffffffffffffffffffff1614151561451d57600160009054906101000a900473ffffffffffffffffffffffffffffffffffffffff1673ffffffffffffffffffffffffffffffffffffffff166338cc48316040518163ffffffff167c0100000000000000000000000000000000000000000000000000000000028152600401602060405180830381600087803b1580156144a157600080fd5b505af11580156144b5573d6000803e3d6000fd5b505050506040513d60208110156144cb57600080fd5b8101908080519060200190929190505050600260006101000a81548173ffffffffffffffffffffffffffffffffffffffff021916908373ffffffffffffffffffffffffffffffffffffffff1602179055505b600260009054906101000a900473ffffffffffffffffffffffffffffffffffffffff1673ffffffffffffffffffffffffffffffffffffffff16632ef3accc87866040518363ffffffff167c01000000000000000000000000000000000000000000000000000000000281526004018080602001838152602001828103825284818151815260200191508051906020019080838360005b838110156145ce5780820151818401526020810190506145b3565b50505050905090810190601f1680156145fb5780820380516001836020036101000a031916815260200191505b509350505050602060405180830381600087803b15801561461b57600080fd5b505af115801561462f573d6000803e3d6000fd5b505050506040513d602081101561464557600080fd5b81019080805190602001909291905050509150833a02670de0b6b3a7640000018211156146785760006001029250614836565b61468185614859565b9050600260009054906101000a900473ffffffffffffffffffffffffffffffffffffffff1673ffffffffffffffffffffffffffffffffffffffff1663c55c1cb68360008985896040518663ffffffff167c0100000000000000000000000000000000000000000000000000000000028152600401808581526020018060200180602001848152602001838103835286818151815260200191508051906020019080838360005b83811015614742578082015181840152602081019050614727565b50505050905090810190601f16801561476f5780820380516001836020036101000a031916815260200191505b50838103825285818151815260200191508051906020019080838360005b838110156147a857808201518184015260208101905061478d565b50505050905090810190601f1680156147d55780820380516001836020036101000a031916815260200191505b5096505050505050506020604051808303818588803b1580156147f757600080fd5b505af115801561480b573d6000803e3d6000fd5b50505050506040513d602081101561482257600080fd5b810190808051906020019092919050505092505b50509392505050565b8060039080519060200190614855929190614d2a565b5050565b6060614863614daa565b600061486d6148de565b614879826104006148ea565b6148828261493a565b600090505b83518110156148c7576148ba84828151811015156148a157fe5b906020019060200201518361494890919063ffffffff16565b8080600101915050614887565b6148d08261496d565b816000015192505050919050565b60405180590338823950565b600081905060006020828115156148fd57fe5b0614151561491a5760208181151561491157fe5b06602003810190505b808360200181815250506040518084526000815281810160405250505050565b61494581600461497b565b50565b614955826002835161499f565b6149688183614af890919063ffffffff16565b505050565b61497881600761497b565b50565b61499b601f60058360ff169060020a021783614ba490919063ffffffff16565b5050565b6017811115156149d0576149cb8160058460ff169060020a0260ff161784614ba490919063ffffffff16565b614af3565b60ff81111515614a16576149fa601860058460ff169060020a021784614ba490919063ffffffff16565b614a1081600185614be49092919063ffffffff16565b50614af2565b61ffff81111515614a5d57614a41601960058460ff169060020a021784614ba490919063ffffffff16565b614a5781600285614be49092919063ffffffff16565b50614af1565b63ffffffff81111515614aa657614a8a601a60058460ff169060020a021784614ba490919063ffffffff16565b614aa081600485614be49092919063ffffffff16565b50614af0565b67ffffffffffffffff81111515614aef57614ad7601b60058460ff169060020a021784614ba490919063ffffffff16565b614aed81600885614be49092919063ffffffff16565b505b5b5b5b5b505050565b614b00614daa565b60008060008086602001518760000151518751011115614b3657614b35876002614b2f8a602001518a51614c4b565b02614c67565b5b8551915086518051602081830101955087518101825260208801945050505b602082101515614b7a5782518452602084019350602083019250602082039150614b55565b6001826020036101000a039050801983511681855116818117865250508694505050505092915050565b81602001516001836000015151011115614bca57614bc9826002846020015102614c67565b5b815180516020818301018381536001820183525050505050565b614bec614daa565b6000846020015185600001515184011115614c1c57614c1b856002614c15886020015187614c4b565b02614c67565b5b6001836101000a0390508451805184818301018684198251161781528582018352505050849150509392505050565b600081831115614c5d57829050614c61565b8190505b92915050565b606082600001519050614c7a83836148ea565b614c848382614af8565b50505050565b6080604051908101604052806060815260200160608152602001600015158152602001600081525090565b828054828255906000526020600020908101928215614cf1579160200282015b82811115614cf0578251825591602001919060010190614cd5565b5b509050614cfe9190614dc4565b5090565b6080604051908101604052806004905b6060815260200190600190039081614d125790505090565b828054600181600116156101000203166002900490600052602060002090601f016020900481019282601f10614d6b57805160ff1916838001178555614d99565b82800160010185558215614d99579182015b82811115614d98578251825591602001919060010190614d7d565b5b509050614da69190614dc4565b5090565b604080519081016040528060608152602001600081525090565b614de691905b80821115614de2576000816000905550600101614dca565b5090565b905600a165627a7a72305820ee5272d7c5a396f9e61bce11df3570a7c6a5dd0bd125237373231b0487d0b67c0029",
  "source": "//SPDX-License-Identifier: UNLICENSED\r\n\r\nimport \"./Ownable.sol\";\r\nimport \"./provableAPI_0.4.25.sol\";\r\npragma solidity 0.4.26;\r\n\r\ncontract CoinFlip100 is Ownable, usingProvable{\r\n\r\n    uint public BET_RANGE_MIN = 0;\r\n    uint public BET_RANGE_MAX = 99;\r\n\r\n    uint CHIP_TO_WEI = 1000000000000000; //1 chips = 1 eth - Can be parametric\r\n    uint public BET_MIN_AMOUNT_WEI = CHIP_TO_WEI ; //All Amount are in ETH\r\n    uint BET_WIN_RATE = 190; //Win rate = 1,9 with 2 decimals\r\n\r\n    uint public _contractBalance_;\r\n    uint public _totalAllPlayerBalance_;\r\n\r\n    // status of active bets; Each player can have multiple bets before each flip\r\n    //Update each time player submited new bet\r\n\r\n    struct Bets  {\r\n        uint[] betNumbers;\r\n        uint[] betAmount;  //wei amount bet for each number\r\n        bool waitingResult;\r\n        uint waitingId; //uint == 0 when not waiting for Flipped result\r\n    }\r\n\r\n    //list of all activities of a player (update after finished solving each bet)\r\n    struct betHistory {\r\n        uint totalBalance;\r\n        uint totalTopUp;\r\n        uint totalWithdrawn;\r\n        uint totalSpentAmount;\r\n        uint totalWinAmount;\r\n        uint totalGames;\r\n        uint totalWins;\r\n        uint lastWinAmount;\r\n    }\r\n\r\n    //betList is a list of all active bets\r\n    // Should limit storage size somehow to avoid everflow in future?\r\n    mapping (address => Bets) public activeBet;\r\n\r\n    //playerList store information\r\n    // Should limit storage size somehow to avoid everflow in future?\r\n    mapping (address => betHistory) public playerHistory;\r\n\r\n    //newBetCreated emit when created and not finished\r\n    event newBetCreated(uint[] betNumbers, uint[] betAmounts_chip, address playerAddress);\r\n\r\n    //betFinished emit when\r\n    event betFinished(uint winAmount, uint result);\r\n\r\n    //common notice\r\n    event notice(string noticeString, uint noticeValue);\r\n\r\n    //Pseudo Random\r\n    function random() public pure returns(uint) {\r\n        return 0;\r\n        //return now % (BET_RANGE_MAX+1);\r\n    }\r\n\r\n    //Oracle >>>>>>>>>>>>>>>>>>>>\r\n    uint256 constant NUM_RANDOM_BYTES_REQUESTED = 1;\r\n    uint256 public latestNumber;\r\n\r\n    event generatedRandomNumber(uint256 randomNumber , bytes Id, bytes proof);\r\n    event LogNewProvableQuery(string notice);\r\n\r\n    constructor()\r\n      public\r\n    {\r\n      update();\r\n    }\r\n\r\n    function __callback(bytes memory _queryId, string memory _result, bytes memory _proof) public {\r\n      require(msg.sender == provable_cbAddress());\r\n\r\n      uint256 randomNumber = uint256(keccak256(abi.encodePacked(_result)))%100;\r\n      latestNumber = randomNumber;\r\n      emit generatedRandomNumber(randomNumber, _queryId, _proof);\r\n    }\r\n\r\n    function update()\r\n        payable\r\n        public\r\n    {\r\n        uint256 QUERY_EXECUTION_DELAY = 0;\r\n        uint256 GAS_FOR_CALLBACK = 200000;\r\n        provable_newRandomDSQuery(\r\n            QUERY_EXECUTION_DELAY,\r\n            NUM_RANDOM_BYTES_REQUESTED,\r\n            GAS_FOR_CALLBACK\r\n        );\r\n        emit LogNewProvableQuery(\"Provable query was sent, waiting for the answer..\");\r\n    }\r\n\r\n    //Oracle <<<<<<<<<<<<<<<<<<<<<\r\n\r\n\r\n    //Check Account Balance validity\r\n    function validPlayerBalance() private view returns(bool) {\r\n        if (playerHistory[msg.sender].totalBalance ==\r\n            playerHistory[msg.sender].totalTopUp - playerHistory[msg.sender].totalWithdrawn -\r\n            playerHistory[msg.sender].totalSpentAmount + playerHistory[msg.sender].totalWinAmount) {\r\n                return true;\r\n            } else {\r\n                return false;\r\n            }\r\n    }\r\n\r\n    function wei2Chip(uint _wei) private view returns(uint) {\r\n        return _wei / CHIP_TO_WEI;\r\n    }\r\n\r\n    function chip2Wei(uint chip) private view returns(uint) {\r\n        return chip * CHIP_TO_WEI;\r\n    }\r\n\r\n    function chip2Wei_ar(uint[] memory chip_ar) private view returns(uint[] memory) {\r\n        for (uint x=0; x<chip_ar.length; x++) {\r\n            chip_ar[x] = chip2Wei(chip_ar[x]);\r\n        }\r\n        return chip_ar;\r\n    }\r\n\r\n    function wei2Chip_ar(uint[] memory wei_ar) private view returns(uint[] memory) {\r\n        for (uint x=0; x<wei_ar.length; x++) {\r\n           wei_ar[x] = wei2Chip(wei_ar[x]);\r\n        }\r\n        return wei_ar;\r\n    }\r\n\r\n\r\n    //Owner balance topUp\r\n    function ownerFundUp_chip(uint topUp_chip) public onlyOwner payable {\r\n\r\n        require(msg.value == chip2Wei(topUp_chip), \"msg.value != topUp_chip * 1e16\");\r\n        if (msg.value != chip2Wei(topUp_chip)) revert();\r\n        _contractBalance_ += msg.value ;\r\n    }\r\n\r\n\r\n    //Player account balance topUp\r\n    function playerTopUp_chip(uint topUp_chip) public payable {\r\n        //1eth = 1000000000000000000 wei\r\n        require(msg.value == chip2Wei(topUp_chip), \"msg.value != topUp_chip * 1e16\");\r\n        if (msg.value != chip2Wei(topUp_chip)) revert();\r\n\r\n        _contractBalance_ += msg.value ;\r\n        playerHistory[msg.sender].totalTopUp += msg.value;\r\n        updateMyBalance();\r\n    }\r\n\r\n    // Calculate values each time player status changed\r\n    // All values of playerHistory in wei\r\n    function updateMyBalance() private {\r\n        _totalAllPlayerBalance_ -= playerHistory[msg.sender].totalBalance;\r\n        playerHistory[msg.sender].totalBalance =\r\n        playerHistory[msg.sender].totalTopUp -\r\n        playerHistory[msg.sender].totalWithdrawn -\r\n        playerHistory[msg.sender].totalSpentAmount +\r\n        playerHistory[msg.sender].totalWinAmount;\r\n        _totalAllPlayerBalance_ += playerHistory[msg.sender].totalBalance;\r\n        }\r\n\r\n    function mySpentBalance(uint[] memory spentAmounts_wei) private {\r\n\r\n        for (uint x=0; x<spentAmounts_wei.length; x++) {\r\n            playerHistory[msg.sender].totalSpentAmount += spentAmounts_wei[x];\r\n        }\r\n        updateMyBalance();\r\n    }\r\n\r\n    function myWinBalance(uint winAmount_wei) private  {\r\n        playerHistory[msg.sender].totalGames++;\r\n        if (winAmount_wei>0) {\r\n            playerHistory[msg.sender].totalWinAmount += winAmount_wei;\r\n            playerHistory[msg.sender].totalWins += 1;\r\n        }\r\n        playerHistory[msg.sender].lastWinAmount = winAmount_wei;\r\n        updateMyBalance();\r\n    }\r\n\r\n    function getPlayerHistory() public view  returns(uint,uint,uint,uint,uint,uint,uint,uint) {\r\n        require(validPlayerBalance(), \"Not valid Player Balance\");\r\n        return  (   playerHistory[msg.sender].totalBalance,\r\n                    playerHistory[msg.sender].totalTopUp,\r\n                    playerHistory[msg.sender].totalWithdrawn,\r\n                    playerHistory[msg.sender].totalSpentAmount,\r\n                    playerHistory[msg.sender].totalWinAmount,\r\n                    playerHistory[msg.sender].totalGames,\r\n                    playerHistory[msg.sender].totalWins,\r\n                    playerHistory[msg.sender].lastWinAmount );\r\n    }\r\n\r\n    function getContractBalance() public view returns (uint) {\r\n      return _contractBalance_;\r\n    }\r\n\r\n\r\n    function get_totalAllPlayerBalance_() public view returns (uint) {\r\n      return _totalAllPlayerBalance_;\r\n    }\r\n\r\n    function contractPlayableFund() public view returns(uint) {\r\n      if (_contractBalance_ == 0) {\r\n        return 0;\r\n      }\r\n      else {\r\n        return _contractBalance_ - _totalAllPlayerBalance_;\r\n      }\r\n    }\r\n\r\n    function playerPlayableFund() public view returns(uint) {\r\n        uint contractPlayable = contractPlayableFund();\r\n        if (playerHistory[msg.sender].totalBalance < contractPlayable) {\r\n            return playerHistory[msg.sender].totalBalance;\r\n        }\r\n        else {\r\n            return contractPlayable;\r\n        }\r\n    }\r\n\r\n    function verifyBet(uint[] memory betNumbers, uint[] memory betAmount_wei) private view returns(bool) {\r\n\r\n        require (betNumbers.length == betAmount_wei.length,\" ERROR bet aray\") ;\r\n        uint sumBetAmount = 0;\r\n\r\n        for (uint x = 0; x<betNumbers.length; x++) {\r\n\r\n            require(betAmount_wei[x] >=  BET_MIN_AMOUNT_WEI, \"Bet amount less than min amount\");\r\n            sumBetAmount += betAmount_wei[x];\r\n        }\r\n\r\n        require(sumBetAmount <= playerPlayableFund(), \"TOO BIG BET, PLEASE ADJUST OUR BET\");\r\n\r\n        return true;\r\n    }\r\n\r\n    function updateActiveBet(uint[] memory newBetNumbers, uint[] memory newBetAmount_wei) private {\r\n        //append new bets with current Betlist\r\n        for (uint x=0; x<newBetNumbers.length; x++) {\r\n            activeBet[msg.sender].betNumbers.push(newBetNumbers[x]);\r\n            activeBet[msg.sender].betAmount.push(newBetAmount_wei[x]);\r\n        }\r\n    }\r\n\r\n\r\n    function createMyBet(uint[] memory betNumbers, uint[] memory betAmount_chip) public returns (bool){\r\n\r\n        //money amount received from frontEnd is in Chips;\r\n        //Should conver all chips to Wei\r\n\r\n        require(activeBet[msg.sender].waitingId == 0, \".. Please Wait for result of last bet..\");\r\n\r\n        require(validPlayerBalance(), \"Not valid Player Balance\");\r\n\r\n        uint[] memory betAmount = chip2Wei_ar(betAmount_chip);\r\n\r\n        require(verifyBet(betNumbers,betAmount), \"NOT VALID BET\");\r\n\r\n        mySpentBalance(betAmount); //Deduct spent amount from player balance\r\n\r\n        updateActiveBet(betNumbers, betAmount); //Update Active Betlist for a player\r\n\r\n        emit newBetCreated(betNumbers,betAmount, msg.sender);\r\n\r\n        return (true);\r\n    }\r\n\r\n\r\n    function getMyBet() public view returns(uint[] memory, uint[] memory,bool, uint)  {\r\n        //Data sent to front page from contract is in Chips\r\n        return (    activeBet[msg.sender].betNumbers,\r\n                    wei2Chip_ar(activeBet[msg.sender].betAmount), //wei\r\n                    activeBet[msg.sender].waitingResult,\r\n                    activeBet[msg.sender].waitingId);\r\n    }\r\n\r\n\r\n    function resetPlayerBetList() private {\r\n        Bets memory nullBet;\r\n        activeBet[msg.sender] = nullBet;\r\n        activeBet[msg.sender].waitingResult = false;\r\n    }\r\n\r\n\r\n    function getWinAmountWei(uint winWei) public view returns(uint) {\r\n        return (winWei*BET_WIN_RATE)/100;\r\n    }\r\n\r\n    function playerTossCoin() public returns(uint, uint) {\r\n\r\n        require(validPlayerBalance(), \"playerTossCoin: Not valid Player Balance\");\r\n        require(activeBet[msg.sender].betNumbers.length > 0,\"playerTossCoin: No bet placed, plase place the bet!\");\r\n\r\n        activeBet[msg.sender].waitingResult = true;\r\n        activeBet[msg.sender].waitingId = 1231321; //For use later\r\n        uint result = random();\r\n\r\n        require(result >= BET_RANGE_MIN && result <= BET_RANGE_MAX, \"playerTossCoin: Random out of range\");\r\n\r\n        uint winAmount_wei = 0;\r\n\r\n        for (uint x=0; x<activeBet[msg.sender].betNumbers.length; x++) {\r\n            if (activeBet[msg.sender].betNumbers[x] == result) {\r\n                winAmount_wei += getWinAmountWei(activeBet[msg.sender].betAmount[x]);\r\n            }\r\n        }\r\n\r\n        resetPlayerBetList();\r\n        myWinBalance(winAmount_wei);\r\n\r\n        emit betFinished(winAmount_wei, result);\r\n        return (winAmount_wei, result);\r\n    }\r\n\r\n    function ownerWithdrawAll() public onlyOwner returns(uint) {\r\n       uint toTransfer = getContractBalance();\r\n\r\n       //Should cancel all bets before withdrawn\r\n       //Should return all players ballances before withdrawn\r\n       _totalAllPlayerBalance_ = 0;\r\n       _contractBalance_ = 0;\r\n\r\n       msg.sender.transfer(toTransfer);\r\n       return toTransfer;\r\n    }\r\n\r\n    function playerWithdrawAll() public  returns(uint) {\r\n\r\n        updateMyBalance();\r\n\r\n        require(playerHistory[msg.sender].totalBalance > 0, \"Player is out of money\");\r\n\r\n        require(validPlayerBalance(), \"Invalid balance check\");\r\n\r\n        require(activeBet[msg.sender].waitingId == 0, \"Waiting for bet result..\");\r\n\r\n        require(activeBet[msg.sender].betNumbers.length == 0, \"Bet can not be cancelled, Click Flip Button..\");\r\n\r\n        uint toTransfer = playerHistory[msg.sender].totalBalance;\r\n\r\n        playerHistory[msg.sender].totalWithdrawn += toTransfer;\r\n\r\n        _contractBalance_ -= toTransfer;\r\n\r\n        updateMyBalance();\r\n\r\n        assert(playerHistory[msg.sender].totalBalance == 0);\r\n\r\n        msg.sender.transfer(toTransfer);\r\n\r\n        return toTransfer;\r\n    }\r\n\r\n}\r\n",
  "sourcePath": "D:\\@TUNG 2020\\IVANONTECH\\SOLIDITY 201\\coinFlip4\\contracts\\CoinFlip100.sol",
  "compiler": {
    "name": "solc",
    "version": "0.4.26+commit.4563c3fc.Emscripten.clang"
  },
  "schemaVersion": "2.0.3",
  "updatedAt": "2020-06-28T10:59:09.707Z"
}