{
  "contractName": "CoinFlip100",
  "abi": [
    {
      "anonymous": false,
      "inputs": [
        {
          "indexed": false,
          "internalType": "uint256",
          "name": "winAmount",
          "type": "uint256"
        },
        {
          "indexed": false,
          "internalType": "uint256",
          "name": "result",
          "type": "uint256"
        }
      ],
      "name": "betFinished",
      "type": "event"
    },
    {
      "anonymous": false,
      "inputs": [
        {
          "indexed": false,
          "internalType": "uint256[]",
          "name": "betNumbers",
          "type": "uint256[]"
        },
        {
          "indexed": false,
          "internalType": "uint256[]",
          "name": "betAmounts_chip",
          "type": "uint256[]"
        },
        {
          "indexed": false,
          "internalType": "address",
          "name": "playerAddress",
          "type": "address"
        }
      ],
      "name": "newBetCreated",
      "type": "event"
    },
    {
      "anonymous": false,
      "inputs": [
        {
          "indexed": false,
          "internalType": "string",
          "name": "noticeString",
          "type": "string"
        },
        {
          "indexed": false,
          "internalType": "uint256",
          "name": "noticeValue",
          "type": "uint256"
        }
      ],
      "name": "notice",
      "type": "event"
    },
    {
      "inputs": [],
      "name": "BET_MIN_AMOUNT_WEI",
      "outputs": [
        {
          "internalType": "uint256",
          "name": "",
          "type": "uint256"
        }
      ],
      "stateMutability": "view",
      "type": "function",
      "constant": true
    },
    {
      "inputs": [],
      "name": "BET_RANGE_MAX",
      "outputs": [
        {
          "internalType": "uint256",
          "name": "",
          "type": "uint256"
        }
      ],
      "stateMutability": "view",
      "type": "function",
      "constant": true
    },
    {
      "inputs": [],
      "name": "BET_RANGE_MIN",
      "outputs": [
        {
          "internalType": "uint256",
          "name": "",
          "type": "uint256"
        }
      ],
      "stateMutability": "view",
      "type": "function",
      "constant": true
    },
    {
      "inputs": [],
      "name": "_contractBalance_",
      "outputs": [
        {
          "internalType": "uint256",
          "name": "",
          "type": "uint256"
        }
      ],
      "stateMutability": "view",
      "type": "function",
      "constant": true
    },
    {
      "inputs": [],
      "name": "_totalAllPlayerBalance_",
      "outputs": [
        {
          "internalType": "uint256",
          "name": "",
          "type": "uint256"
        }
      ],
      "stateMutability": "view",
      "type": "function",
      "constant": true
    },
    {
      "inputs": [
        {
          "internalType": "address",
          "name": "",
          "type": "address"
        }
      ],
      "name": "activeBet",
      "outputs": [
        {
          "internalType": "bool",
          "name": "waitingResult",
          "type": "bool"
        },
        {
          "internalType": "uint256",
          "name": "waitingId",
          "type": "uint256"
        }
      ],
      "stateMutability": "view",
      "type": "function",
      "constant": true
    },
    {
      "inputs": [],
      "name": "owner",
      "outputs": [
        {
          "internalType": "address",
          "name": "",
          "type": "address"
        }
      ],
      "stateMutability": "view",
      "type": "function",
      "constant": true
    },
    {
      "inputs": [
        {
          "internalType": "address",
          "name": "",
          "type": "address"
        }
      ],
      "name": "playerHistory",
      "outputs": [
        {
          "internalType": "uint256",
          "name": "totalBalance",
          "type": "uint256"
        },
        {
          "internalType": "uint256",
          "name": "totalTopUp",
          "type": "uint256"
        },
        {
          "internalType": "uint256",
          "name": "totalWithdrawn",
          "type": "uint256"
        },
        {
          "internalType": "uint256",
          "name": "totalSpentAmount",
          "type": "uint256"
        },
        {
          "internalType": "uint256",
          "name": "totalWinAmount",
          "type": "uint256"
        },
        {
          "internalType": "uint256",
          "name": "totalGames",
          "type": "uint256"
        },
        {
          "internalType": "uint256",
          "name": "totalWins",
          "type": "uint256"
        },
        {
          "internalType": "uint256",
          "name": "lastWinAmount",
          "type": "uint256"
        }
      ],
      "stateMutability": "view",
      "type": "function",
      "constant": true
    },
    {
      "inputs": [],
      "name": "random",
      "outputs": [
        {
          "internalType": "uint256",
          "name": "",
          "type": "uint256"
        }
      ],
      "stateMutability": "pure",
      "type": "function",
      "constant": true
    },
    {
      "inputs": [
        {
          "internalType": "uint256",
          "name": "topUp_chip",
          "type": "uint256"
        }
      ],
      "name": "ownerFundUp_chip",
      "outputs": [],
      "stateMutability": "payable",
      "type": "function",
      "payable": true
    },
    {
      "inputs": [
        {
          "internalType": "uint256",
          "name": "topUp_chip",
          "type": "uint256"
        }
      ],
      "name": "playerTopUp_chip",
      "outputs": [],
      "stateMutability": "payable",
      "type": "function",
      "payable": true
    },
    {
      "inputs": [],
      "name": "getPlayerHistory",
      "outputs": [
        {
          "internalType": "uint256",
          "name": "",
          "type": "uint256"
        },
        {
          "internalType": "uint256",
          "name": "",
          "type": "uint256"
        },
        {
          "internalType": "uint256",
          "name": "",
          "type": "uint256"
        },
        {
          "internalType": "uint256",
          "name": "",
          "type": "uint256"
        },
        {
          "internalType": "uint256",
          "name": "",
          "type": "uint256"
        },
        {
          "internalType": "uint256",
          "name": "",
          "type": "uint256"
        },
        {
          "internalType": "uint256",
          "name": "",
          "type": "uint256"
        },
        {
          "internalType": "uint256",
          "name": "",
          "type": "uint256"
        }
      ],
      "stateMutability": "view",
      "type": "function",
      "constant": true
    },
    {
      "inputs": [],
      "name": "getContractBalance",
      "outputs": [
        {
          "internalType": "uint256",
          "name": "",
          "type": "uint256"
        }
      ],
      "stateMutability": "view",
      "type": "function",
      "constant": true
    },
    {
      "inputs": [],
      "name": "get_totalAllPlayerBalance_",
      "outputs": [
        {
          "internalType": "uint256",
          "name": "",
          "type": "uint256"
        }
      ],
      "stateMutability": "view",
      "type": "function",
      "constant": true
    },
    {
      "inputs": [],
      "name": "contractPlayableFund",
      "outputs": [
        {
          "internalType": "uint256",
          "name": "",
          "type": "uint256"
        }
      ],
      "stateMutability": "view",
      "type": "function",
      "constant": true
    },
    {
      "inputs": [],
      "name": "playerPlayableFund",
      "outputs": [
        {
          "internalType": "uint256",
          "name": "",
          "type": "uint256"
        }
      ],
      "stateMutability": "view",
      "type": "function",
      "constant": true
    },
    {
      "inputs": [
        {
          "internalType": "uint256[]",
          "name": "betNumbers",
          "type": "uint256[]"
        },
        {
          "internalType": "uint256[]",
          "name": "betAmount_chip",
          "type": "uint256[]"
        }
      ],
      "name": "createMyBet",
      "outputs": [
        {
          "internalType": "bool",
          "name": "",
          "type": "bool"
        }
      ],
      "stateMutability": "nonpayable",
      "type": "function"
    },
    {
      "inputs": [],
      "name": "getMyBet",
      "outputs": [
        {
          "internalType": "uint256[]",
          "name": "",
          "type": "uint256[]"
        },
        {
          "internalType": "uint256[]",
          "name": "",
          "type": "uint256[]"
        },
        {
          "internalType": "bool",
          "name": "",
          "type": "bool"
        },
        {
          "internalType": "uint256",
          "name": "",
          "type": "uint256"
        }
      ],
      "stateMutability": "view",
      "type": "function",
      "constant": true
    },
    {
      "inputs": [
        {
          "internalType": "uint256",
          "name": "winWei",
          "type": "uint256"
        }
      ],
      "name": "getWinAmountWei",
      "outputs": [
        {
          "internalType": "uint256",
          "name": "",
          "type": "uint256"
        }
      ],
      "stateMutability": "view",
      "type": "function",
      "constant": true
    },
    {
      "inputs": [],
      "name": "playerTossCoin",
      "outputs": [
        {
          "internalType": "uint256",
          "name": "",
          "type": "uint256"
        },
        {
          "internalType": "uint256",
          "name": "",
          "type": "uint256"
        }
      ],
      "stateMutability": "nonpayable",
      "type": "function"
    },
    {
      "inputs": [],
      "name": "ownerWithdrawAll",
      "outputs": [
        {
          "internalType": "uint256",
          "name": "",
          "type": "uint256"
        }
      ],
      "stateMutability": "nonpayable",
      "type": "function"
    },
    {
      "inputs": [],
      "name": "playerWithdrawAll",
      "outputs": [
        {
          "internalType": "uint256",
          "name": "",
          "type": "uint256"
        }
      ],
      "stateMutability": "nonpayable",
      "type": "function"
    }
  ],
  "bytecode": "0x60806040526000600155606360025566038d7ea4c6800060035560035460045560be60055534801561003057600080fd5b50336000806101000a81548173ffffffffffffffffffffffffffffffffffffffff021916908373ffffffffffffffffffffffffffffffffffffffff1602179055506126ea806100806000396000f3fe6080604052600436106101355760003560e01c80638a8b19e5116100ab578063e0d5af941161006f578063e0d5af94146106b1578063e1bc44e7146106dc578063e3c1287214610707578063e57acb3514610763578063e862f79d1461078e578063f88c09f9146107bc57610135565b80638a8b19e5146105135780638da5cb5b1461053e57806394ebe60814610595578063b24b05f8146105c0578063dd85881f1461068657610135565b80632890a9f8116100fd5780632890a9f8146102c15780633c50b913146104325780635ec01e4d1461045d5780636f9fb98a1461048857806376b0a4a0146104b35780638085688c146104e157610135565b80630a39a58e1461013a5780630da2779014610165578063180bfdf6146101fb5780631c7ff1ba1461022657806320912e3814610296575b600080fd5b34801561014657600080fd5b5061014f61080b565b6040518082815260200191505060405180910390f35b34801561017157600080fd5b506101b46004803603602081101561018857600080fd5b81019080803573ffffffffffffffffffffffffffffffffffffffff169060200190929190505050610811565b604051808981526020018881526020018781526020018681526020018581526020018481526020018381526020018281526020019850505050505050505060405180910390f35b34801561020757600080fd5b50610210610859565b6040518082815260200191505060405180910390f35b34801561023257600080fd5b506102756004803603602081101561024957600080fd5b81019080803573ffffffffffffffffffffffffffffffffffffffff16906020019092919050505061085f565b60405180831515151581526020018281526020019250505060405180910390f35b3480156102a257600080fd5b506102ab610890565b6040518082815260200191505060405180910390f35b3480156102cd57600080fd5b50610418600480360360408110156102e457600080fd5b810190808035906020019064010000000081111561030157600080fd5b82018360208201111561031357600080fd5b8035906020019184602083028401116401000000008311171561033557600080fd5b919080806020026020016040519081016040528093929190818152602001838360200280828437600081840152601f19601f8201169050808301925050505050505091929192908035906020019064010000000081111561039557600080fd5b8201836020820111156103a757600080fd5b803590602001918460208302840111640100000000831117156103c957600080fd5b919080806020026020016040519081016040528093929190818152602001838360200280828437600081840152601f19601f8201169050808301925050505050505091929192905050506108b2565b604051808215151515815260200191505060405180910390f35b34801561043e57600080fd5b50610447610b64565b6040518082815260200191505060405180910390f35b34801561046957600080fd5b50610472610c0e565b6040518082815260200191505060405180910390f35b34801561049457600080fd5b5061049d610c16565b6040518082815260200191505060405180910390f35b6104df600480360360208110156104c957600080fd5b8101908080359060200190929190505050610c20565b005b3480156104ed57600080fd5b506104f6610d1d565b604051808381526020018281526020019250505060405180910390f35b34801561051f57600080fd5b506105286110bb565b6040518082815260200191505060405180910390f35b34801561054a57600080fd5b506105536110c1565b604051808273ffffffffffffffffffffffffffffffffffffffff1673ffffffffffffffffffffffffffffffffffffffff16815260200191505060405180910390f35b3480156105a157600080fd5b506105aa6110e6565b6040518082815260200191505060405180910390f35b3480156105cc57600080fd5b506105d56114c1565b60405180806020018060200185151515158152602001848152602001838103835287818151815260200191508051906020019060200280838360005b8381101561062c578082015181840152602081019050610611565b50505050905001838103825286818151815260200191508051906020019060200280838360005b8381101561066e578082015181840152602081019050610653565b50505050905001965050505050505060405180910390f35b34801561069257600080fd5b5061069b611695565b6040518082815260200191505060405180910390f35b3480156106bd57600080fd5b506106c661169b565b6040518082815260200191505060405180910390f35b3480156106e857600080fd5b506106f1611760565b6040518082815260200191505060405180910390f35b34801561071357600080fd5b5061071c611766565b604051808981526020018881526020018781526020018681526020018581526020018481526020018381526020018281526020019850505050505050505060405180910390f35b34801561076f57600080fd5b50610778611a1e565b6040518082815260200191505060405180910390f35b6107ba600480360360208110156107a457600080fd5b8101908080359060200190929190505050611a28565b005b3480156107c857600080fd5b506107f5600480360360208110156107df57600080fd5b8101908080359060200190929190505050611b24565b6040518082815260200191505060405180910390f35b60065481565b60096020528060005260406000206000915090508060000154908060010154908060020154908060030154908060040154908060050154908060060154908060070154905088565b60075481565b60086020528060005260406000206000915090508060020160009054906101000a900460ff16908060030154905082565b60008060065414156108a557600090506108af565b6007546006540390505b90565b600080600860003373ffffffffffffffffffffffffffffffffffffffff1673ffffffffffffffffffffffffffffffffffffffff168152602001908152602001600020600301541461094e576040517f08c379a000000000000000000000000000000000000000000000000000000000815260040180806020018281038252602781526020018061260c6027913960400191505060405180910390fd5b610956611b3c565b6109c8576040517f08c379a00000000000000000000000000000000000000000000000000000000081526004018080602001828103825260188152602001807f4e6f742076616c696420506c617965722042616c616e6365000000000000000081525060200191505060405180910390fd5b60606109d383611ca7565b90506109df8482611d02565b610a51576040517f08c379a000000000000000000000000000000000000000000000000000000000815260040180806020018281038252600d8152602001807f4e4f542056414c4944204245540000000000000000000000000000000000000081525060200191505060405180910390fd5b610a5a81611eab565b610a648482611f36565b7f2aeacb050561fc39cce82b85f933b4093153305890dd8ef86f07c861b720cb7e8482336040518080602001806020018473ffffffffffffffffffffffffffffffffffffffff1673ffffffffffffffffffffffffffffffffffffffff168152602001838103835286818151815260200191508051906020019060200280838360005b83811015610b01578082015181840152602081019050610ae6565b50505050905001838103825285818151815260200191508051906020019060200280838360005b83811015610b43578082015181840152602081019050610b28565b505050509050019550505050505060405180910390a1600191505092915050565b600080610b6f610890565b905080600960003373ffffffffffffffffffffffffffffffffffffffff1673ffffffffffffffffffffffffffffffffffffffff168152602001908152602001600020600001541015610c0657600960003373ffffffffffffffffffffffffffffffffffffffff1673ffffffffffffffffffffffffffffffffffffffff16815260200190815260200160002060000154915050610c0b565b809150505b90565b600080905090565b6000600654905090565b6000809054906101000a900473ffffffffffffffffffffffffffffffffffffffff1673ffffffffffffffffffffffffffffffffffffffff163373ffffffffffffffffffffffffffffffffffffffff1614610c7957600080fd5b610c828161204f565b3414610cf6576040517f08c379a000000000000000000000000000000000000000000000000000000000815260040180806020018281038252601e8152602001807f6d73672e76616c756520213d20746f7055705f63686970202a2031653136000081525060200191505060405180910390fd5b610cff8161204f565b3414610d0a57600080fd5b3460066000828254019250508190555050565b600080610d28611b3c565b610d7d576040517f08c379a00000000000000000000000000000000000000000000000000000000081526004018080602001828103825260288152602001806125c16028913960400191505060405180910390fd5b6000600860003373ffffffffffffffffffffffffffffffffffffffff1673ffffffffffffffffffffffffffffffffffffffff1681526020019081526020016000206000018054905011610e1b576040517f08c379a00000000000000000000000000000000000000000000000000000000081526004018080602001828103825260338152602001806126826033913960400191505060405180910390fd5b6001600860003373ffffffffffffffffffffffffffffffffffffffff1673ffffffffffffffffffffffffffffffffffffffff16815260200190815260200160002060020160006101000a81548160ff0219169083151502179055506212c9d9600860003373ffffffffffffffffffffffffffffffffffffffff1673ffffffffffffffffffffffffffffffffffffffff168152602001908152602001600020600301819055506000610eca610c0e565b90506001548110158015610ee057506002548111155b610f35576040517f08c379a00000000000000000000000000000000000000000000000000000000081526004018080602001828103825260238152602001806125e96023913960400191505060405180910390fd5b600080905060008090505b600860003373ffffffffffffffffffffffffffffffffffffffff1673ffffffffffffffffffffffffffffffffffffffff1681526020019081526020016000206000018054905081101561105e5782600860003373ffffffffffffffffffffffffffffffffffffffff1673ffffffffffffffffffffffffffffffffffffffff1681526020019081526020016000206000018281548110610fdb57fe5b906000526020600020015414156110515761104c600860003373ffffffffffffffffffffffffffffffffffffffff1673ffffffffffffffffffffffffffffffffffffffff168152602001908152602001600020600101828154811061103c57fe5b9060005260206000200154611b24565b820191505b8080600101915050610f40565b5061106761205d565b6110708161216a565b7fe283fa50c44993d4965e7a178b27ecadf2f5154640d61a798dcf15df61f36c928183604051808381526020018281526020019250505060405180910390a180829350935050509091565b60015481565b6000809054906101000a900473ffffffffffffffffffffffffffffffffffffffff1681565b60006110f06122b9565b6000600960003373ffffffffffffffffffffffffffffffffffffffff1673ffffffffffffffffffffffffffffffffffffffff16815260200190815260200160002060000154116111a8576040517f08c379a00000000000000000000000000000000000000000000000000000000081526004018080602001828103825260168152602001807f506c61796572206973206f7574206f66206d6f6e65790000000000000000000081525060200191505060405180910390fd5b6111b0611b3c565b611222576040517f08c379a00000000000000000000000000000000000000000000000000000000081526004018080602001828103825260158152602001807f496e76616c69642062616c616e636520636865636b000000000000000000000081525060200191505060405180910390fd5b6000600860003373ffffffffffffffffffffffffffffffffffffffff1673ffffffffffffffffffffffffffffffffffffffff16815260200190815260200160002060030154146112da576040517f08c379a00000000000000000000000000000000000000000000000000000000081526004018080602001828103825260188152602001807f57616974696e6720666f722062657420726573756c742e2e000000000000000081525060200191505060405180910390fd5b6000600860003373ffffffffffffffffffffffffffffffffffffffff1673ffffffffffffffffffffffffffffffffffffffff1681526020019081526020016000206000018054905014611378576040517f08c379a000000000000000000000000000000000000000000000000000000000815260040180806020018281038252602d815260200180612655602d913960400191505060405180910390fd5b6000600960003373ffffffffffffffffffffffffffffffffffffffff1673ffffffffffffffffffffffffffffffffffffffff16815260200190815260200160002060000154905080600960003373ffffffffffffffffffffffffffffffffffffffff1673ffffffffffffffffffffffffffffffffffffffff16815260200190815260200160002060020160008282540192505081905550806006600082825403925050819055506114276122b9565b6000600960003373ffffffffffffffffffffffffffffffffffffffff1673ffffffffffffffffffffffffffffffffffffffff168152602001908152602001600020600001541461147357fe5b3373ffffffffffffffffffffffffffffffffffffffff166108fc829081150290604051600060405180830381858888f193505050501580156114b9573d6000803e3d6000fd5b508091505090565b606080600080600860003373ffffffffffffffffffffffffffffffffffffffff1673ffffffffffffffffffffffffffffffffffffffff1681526020019081526020016000206000016115a2600860003373ffffffffffffffffffffffffffffffffffffffff1673ffffffffffffffffffffffffffffffffffffffff16815260200190815260200160002060010180548060200260200160405190810160405280929190818152602001828054801561159857602002820191906000526020600020905b815481526020019060010190808311611584575b50505050506124b4565b600860003373ffffffffffffffffffffffffffffffffffffffff1673ffffffffffffffffffffffffffffffffffffffff16815260200190815260200160002060020160009054906101000a900460ff16600860003373ffffffffffffffffffffffffffffffffffffffff1673ffffffffffffffffffffffffffffffffffffffff168152602001908152602001600020600301548380548060200260200160405190810160405280929190818152602001828054801561168057602002820191906000526020600020905b81548152602001906001019080831161166c575b50505050509350935093509350935090919293565b60025481565b60008060009054906101000a900473ffffffffffffffffffffffffffffffffffffffff1673ffffffffffffffffffffffffffffffffffffffff163373ffffffffffffffffffffffffffffffffffffffff16146116f657600080fd5b6000611700610c16565b9050600060078190555060006006819055503373ffffffffffffffffffffffffffffffffffffffff166108fc829081150290604051600060405180830381858888f19350505050158015611758573d6000803e3d6000fd5b508091505090565b60045481565b60008060008060008060008061177a611b3c565b6117ec576040517f08c379a00000000000000000000000000000000000000000000000000000000081526004018080602001828103825260188152602001807f4e6f742076616c696420506c617965722042616c616e6365000000000000000081525060200191505060405180910390fd5b600960003373ffffffffffffffffffffffffffffffffffffffff1673ffffffffffffffffffffffffffffffffffffffff16815260200190815260200160002060000154600960003373ffffffffffffffffffffffffffffffffffffffff1673ffffffffffffffffffffffffffffffffffffffff16815260200190815260200160002060010154600960003373ffffffffffffffffffffffffffffffffffffffff1673ffffffffffffffffffffffffffffffffffffffff16815260200190815260200160002060020154600960003373ffffffffffffffffffffffffffffffffffffffff1673ffffffffffffffffffffffffffffffffffffffff16815260200190815260200160002060030154600960003373ffffffffffffffffffffffffffffffffffffffff1673ffffffffffffffffffffffffffffffffffffffff16815260200190815260200160002060040154600960003373ffffffffffffffffffffffffffffffffffffffff1673ffffffffffffffffffffffffffffffffffffffff16815260200190815260200160002060050154600960003373ffffffffffffffffffffffffffffffffffffffff1673ffffffffffffffffffffffffffffffffffffffff16815260200190815260200160002060060154600960003373ffffffffffffffffffffffffffffffffffffffff1673ffffffffffffffffffffffffffffffffffffffff16815260200190815260200160002060070154975097509750975097509750975097509091929394959697565b6000600754905090565b611a318161204f565b3414611aa5576040517f08c379a000000000000000000000000000000000000000000000000000000000815260040180806020018281038252601e8152602001807f6d73672e76616c756520213d20746f7055705f63686970202a2031653136000081525060200191505060405180910390fd5b611aae8161204f565b3414611ab957600080fd5b3460066000828254019250508190555034600960003373ffffffffffffffffffffffffffffffffffffffff1673ffffffffffffffffffffffffffffffffffffffff16815260200190815260200160002060010160008282540192505081905550611b216122b9565b50565b60006064600554830281611b3457fe5b049050919050565b6000600960003373ffffffffffffffffffffffffffffffffffffffff1673ffffffffffffffffffffffffffffffffffffffff16815260200190815260200160002060040154600960003373ffffffffffffffffffffffffffffffffffffffff1673ffffffffffffffffffffffffffffffffffffffff16815260200190815260200160002060030154600960003373ffffffffffffffffffffffffffffffffffffffff1673ffffffffffffffffffffffffffffffffffffffff16815260200190815260200160002060020154600960003373ffffffffffffffffffffffffffffffffffffffff1673ffffffffffffffffffffffffffffffffffffffff16815260200190815260200160002060010154030301600960003373ffffffffffffffffffffffffffffffffffffffff1673ffffffffffffffffffffffffffffffffffffffff168152602001908152602001600020600001541415611c9f5760019050611ca4565b600090505b90565b606060008090505b8251811015611cf957611cd4838281518110611cc757fe5b602002602001015161204f565b838281518110611ce057fe5b6020026020010181815250508080600101915050611caf565b50819050919050565b60008151835114611d7b576040517f08c379a000000000000000000000000000000000000000000000000000000000815260040180806020018281038252600f8152602001807f204552524f52206265742061726179000000000000000000000000000000000081525060200191505060405180910390fd5b600080905060008090505b8451811015611e3f57600454848281518110611d9e57fe5b60200260200101511015611e1a576040517f08c379a000000000000000000000000000000000000000000000000000000000815260040180806020018281038252601f8152602001807f42657420616d6f756e74206c657373207468616e206d696e20616d6f756e740081525060200191505060405180910390fd5b838181518110611e2657fe5b6020026020010151820191508080600101915050611d86565b50611e48610b64565b811115611ea0576040517f08c379a00000000000000000000000000000000000000000000000000000000081526004018080602001828103825260228152602001806126336022913960400191505060405180910390fd5b600191505092915050565b60008090505b8151811015611f2a57818181518110611ec657fe5b6020026020010151600960003373ffffffffffffffffffffffffffffffffffffffff1673ffffffffffffffffffffffffffffffffffffffff168152602001908152602001600020600301600082825401925050819055508080600101915050611eb1565b50611f336122b9565b50565b60008090505b825181101561204a57600860003373ffffffffffffffffffffffffffffffffffffffff1673ffffffffffffffffffffffffffffffffffffffff168152602001908152602001600020600001838281518110611f9357fe5b60200260200101519080600181540180825580915050600190039060005260206000200160009091909190915055600860003373ffffffffffffffffffffffffffffffffffffffff1673ffffffffffffffffffffffffffffffffffffffff16815260200190815260200160002060010182828151811061200f57fe5b602002602001015190806001815401808255809150506001900390600052602060002001600090919091909150558080600101915050611f3c565b505050565b600060035482029050919050565b612065612524565b80600860003373ffffffffffffffffffffffffffffffffffffffff1673ffffffffffffffffffffffffffffffffffffffff16815260200190815260200160002060008201518160000190805190602001906120c192919061254e565b5060208201518160010190805190602001906120de92919061254e565b5060408201518160020160006101000a81548160ff021916908315150217905550606082015181600301559050506000600860003373ffffffffffffffffffffffffffffffffffffffff1673ffffffffffffffffffffffffffffffffffffffff16815260200190815260200160002060020160006101000a81548160ff02191690831515021790555050565b600960003373ffffffffffffffffffffffffffffffffffffffff1673ffffffffffffffffffffffffffffffffffffffff1681526020019081526020016000206005016000815480929190600101919050555060008111156122675780600960003373ffffffffffffffffffffffffffffffffffffffff1673ffffffffffffffffffffffffffffffffffffffff168152602001908152602001600020600401600082825401925050819055506001600960003373ffffffffffffffffffffffffffffffffffffffff1673ffffffffffffffffffffffffffffffffffffffff168152602001908152602001600020600601600082825401925050819055505b80600960003373ffffffffffffffffffffffffffffffffffffffff1673ffffffffffffffffffffffffffffffffffffffff168152602001908152602001600020600701819055506122b66122b9565b50565b600960003373ffffffffffffffffffffffffffffffffffffffff1673ffffffffffffffffffffffffffffffffffffffff16815260200190815260200160002060000154600760008282540392505081905550600960003373ffffffffffffffffffffffffffffffffffffffff1673ffffffffffffffffffffffffffffffffffffffff16815260200190815260200160002060040154600960003373ffffffffffffffffffffffffffffffffffffffff1673ffffffffffffffffffffffffffffffffffffffff16815260200190815260200160002060030154600960003373ffffffffffffffffffffffffffffffffffffffff1673ffffffffffffffffffffffffffffffffffffffff16815260200190815260200160002060020154600960003373ffffffffffffffffffffffffffffffffffffffff1673ffffffffffffffffffffffffffffffffffffffff16815260200190815260200160002060010154030301600960003373ffffffffffffffffffffffffffffffffffffffff1673ffffffffffffffffffffffffffffffffffffffff16815260200190815260200160002060000181905550600960003373ffffffffffffffffffffffffffffffffffffffff1673ffffffffffffffffffffffffffffffffffffffff16815260200190815260200160002060000154600760008282540192505081905550565b606060008090505b8251811015612506576124e18382815181106124d457fe5b602002602001015161250f565b8382815181106124ed57fe5b60200260200101818152505080806001019150506124bc565b50819050919050565b6000600354828161251c57fe5b049050919050565b60405180608001604052806060815260200160608152602001600015158152602001600081525090565b82805482825590600052602060002090810192821561258a579160200282015b8281111561258957825182559160200191906001019061256e565b5b509050612597919061259b565b5090565b6125bd91905b808211156125b95760008160009055506001016125a1565b5090565b9056fe706c61796572546f7373436f696e3a204e6f742076616c696420506c617965722042616c616e6365706c61796572546f7373436f696e3a2052616e646f6d206f7574206f662072616e67652e2e20506c65617365205761697420666f7220726573756c74206f66206c617374206265742e2e544f4f20424947204245542c20504c454153452041444a555354204f5552204245544265742063616e206e6f742062652063616e63656c6c65642c20436c69636b20466c697020427574746f6e2e2e706c61796572546f7373436f696e3a204e6f2062657420706c616365642c20706c61736520706c616365207468652062657421a2646970667358221220593ab46302112d7fe82439b542219e923783d59ffb0186d0a4988885750adc1b64736f6c634300060a0033",
  "immutableReferences": {},
  "source": "//SPDX-License-Identifier: UNLICENSED\r\n\r\nimport \"./Ownable.sol\";\r\npragma solidity 0.6.10;\r\n\r\ncontract CoinFlip100 is Ownable{\r\n\r\n    uint public BET_RANGE_MIN = 0;\r\n    uint public BET_RANGE_MAX = 99;\r\n\r\n    uint CHIP_TO_WEI = 1000000000000000; //1 chips = 1 eth - Can be parametric\r\n    uint public BET_MIN_AMOUNT_WEI = CHIP_TO_WEI ; //All Amount are in ETH\r\n    uint BET_WIN_RATE = 190; //Win rate = 1,9 with 2 decimals\r\n\r\n    uint public _contractBalance_;\r\n    uint public _totalAllPlayerBalance_;\r\n\r\n    // status of active bets; Each player can have multiple bets before each flip\r\n    //Update each time player submited new bet\r\n\r\n    struct Bets  {\r\n        uint[] betNumbers;\r\n        uint[] betAmount;  //wei amount bet for each number\r\n        bool waitingResult;\r\n        uint waitingId; //uint == 0 when not waiting for Flipped result\r\n    }\r\n\r\n    //list of all activities of a player (update after finished solving each bet)\r\n    struct betHistory {\r\n        uint totalBalance;\r\n        uint totalTopUp;\r\n        uint totalWithdrawn;\r\n        uint totalSpentAmount;\r\n        uint totalWinAmount;\r\n        uint totalGames;\r\n        uint totalWins;\r\n        uint lastWinAmount;\r\n    }\r\n\r\n    //betList is a list of all active bets\r\n    // Should limit storage size somehow to avoid everflow in future?\r\n    mapping (address => Bets) public activeBet;\r\n\r\n    //playerList store information\r\n    // Should limit storage size somehow to avoid everflow in future?\r\n    mapping (address => betHistory) public playerHistory;\r\n\r\n    //newBetCreated emit when created and not finished\r\n    event newBetCreated(uint[] betNumbers, uint[] betAmounts_chip, address playerAddress);\r\n\r\n    //betFinished emit when\r\n    event betFinished(uint winAmount, uint result);\r\n\r\n    //common notice\r\n    event notice(string noticeString, uint noticeValue);\r\n\r\n    //Pseudo Random\r\n    function random() public pure returns(uint) {\r\n        return 0;\r\n        //return now % (BET_RANGE_MAX+1);\r\n    }\r\n\r\n\r\n    //Check Account Balance validity\r\n    function validPlayerBalance() private view returns(bool) {\r\n        if (playerHistory[msg.sender].totalBalance ==\r\n            playerHistory[msg.sender].totalTopUp - playerHistory[msg.sender].totalWithdrawn -\r\n            playerHistory[msg.sender].totalSpentAmount + playerHistory[msg.sender].totalWinAmount) {\r\n                return true;\r\n            } else {\r\n                return false;\r\n            }\r\n    }\r\n\r\n    function wei2Chip(uint _wei) private view returns(uint) {\r\n        return _wei / CHIP_TO_WEI;\r\n    }\r\n\r\n    function chip2Wei(uint chip) private view returns(uint) {\r\n        return chip * CHIP_TO_WEI;\r\n    }\r\n\r\n    function chip2Wei_ar(uint[] memory chip_ar) private view returns(uint[] memory) {\r\n        for (uint x=0; x<chip_ar.length; x++) {\r\n            chip_ar[x] = chip2Wei(chip_ar[x]);\r\n        }\r\n        return chip_ar;\r\n    }\r\n\r\n    function wei2Chip_ar(uint[] memory wei_ar) private view returns(uint[] memory) {\r\n        for (uint x=0; x<wei_ar.length; x++) {\r\n           wei_ar[x] = wei2Chip(wei_ar[x]);\r\n        }\r\n        return wei_ar;\r\n    }\r\n\r\n\r\n    //Owner balance topUp\r\n    function ownerFundUp_chip(uint topUp_chip) public onlyOwner payable {\r\n\r\n        require(msg.value == chip2Wei(topUp_chip), \"msg.value != topUp_chip * 1e16\");\r\n        if (msg.value != chip2Wei(topUp_chip)) revert();\r\n        _contractBalance_ += msg.value ;\r\n    }\r\n\r\n\r\n    //Player account balance topUp\r\n    function playerTopUp_chip(uint topUp_chip) public payable {\r\n        //1eth = 1000000000000000000 wei\r\n        require(msg.value == chip2Wei(topUp_chip), \"msg.value != topUp_chip * 1e16\");\r\n        if (msg.value != chip2Wei(topUp_chip)) revert();\r\n\r\n        _contractBalance_ += msg.value ;\r\n        playerHistory[msg.sender].totalTopUp += msg.value;\r\n        updateMyBalance();\r\n    }\r\n\r\n    // Calculate values each time player status changed\r\n    // All values of playerHistory in wei\r\n    function updateMyBalance() private {\r\n        _totalAllPlayerBalance_ -= playerHistory[msg.sender].totalBalance;\r\n        playerHistory[msg.sender].totalBalance =\r\n        playerHistory[msg.sender].totalTopUp -\r\n        playerHistory[msg.sender].totalWithdrawn -\r\n        playerHistory[msg.sender].totalSpentAmount +\r\n        playerHistory[msg.sender].totalWinAmount;\r\n        _totalAllPlayerBalance_ += playerHistory[msg.sender].totalBalance;\r\n        }\r\n\r\n    function mySpentBalance(uint[] memory spentAmounts_wei) private {\r\n\r\n        for (uint x=0; x<spentAmounts_wei.length; x++) {\r\n            playerHistory[msg.sender].totalSpentAmount += spentAmounts_wei[x];\r\n        }\r\n        updateMyBalance();\r\n    }\r\n\r\n    function myWinBalance(uint winAmount_wei) private  {\r\n        playerHistory[msg.sender].totalGames++;\r\n        if (winAmount_wei>0) {\r\n            playerHistory[msg.sender].totalWinAmount += winAmount_wei;\r\n            playerHistory[msg.sender].totalWins += 1;\r\n        }\r\n        playerHistory[msg.sender].lastWinAmount = winAmount_wei;\r\n        updateMyBalance();\r\n    }\r\n\r\n    function getPlayerHistory() public view  returns(uint,uint,uint,uint,uint,uint,uint,uint) {\r\n        require(validPlayerBalance(), \"Not valid Player Balance\");\r\n        return  (   playerHistory[msg.sender].totalBalance,\r\n                    playerHistory[msg.sender].totalTopUp,\r\n                    playerHistory[msg.sender].totalWithdrawn,\r\n                    playerHistory[msg.sender].totalSpentAmount,\r\n                    playerHistory[msg.sender].totalWinAmount,\r\n                    playerHistory[msg.sender].totalGames,\r\n                    playerHistory[msg.sender].totalWins,\r\n                    playerHistory[msg.sender].lastWinAmount );\r\n    }\r\n\r\n    function getContractBalance() public view returns (uint) {\r\n      return _contractBalance_;\r\n    }\r\n\r\n\r\n    function get_totalAllPlayerBalance_() public view returns (uint) {\r\n      return _totalAllPlayerBalance_;\r\n    }\r\n\r\n    function contractPlayableFund() public view returns(uint) {\r\n      if (_contractBalance_ == 0) {\r\n        return 0;\r\n      }\r\n      else {\r\n        return _contractBalance_ - _totalAllPlayerBalance_;\r\n      }\r\n    }\r\n\r\n    function playerPlayableFund() public view returns(uint) {\r\n        uint contractPlayable = contractPlayableFund();\r\n        if (playerHistory[msg.sender].totalBalance < contractPlayable) {\r\n            return playerHistory[msg.sender].totalBalance;\r\n        }\r\n        else {\r\n            return contractPlayable;\r\n        }\r\n    }\r\n\r\n    function verifyBet(uint[] memory betNumbers, uint[] memory betAmount_wei) private view returns(bool) {\r\n\r\n        require (betNumbers.length == betAmount_wei.length,\" ERROR bet aray\") ;\r\n        uint sumBetAmount = 0;\r\n\r\n        for (uint x = 0; x<betNumbers.length; x++) {\r\n\r\n            require(betAmount_wei[x] >=  BET_MIN_AMOUNT_WEI, \"Bet amount less than min amount\");\r\n            sumBetAmount += betAmount_wei[x];\r\n        }\r\n\r\n        require(sumBetAmount <= playerPlayableFund(), \"TOO BIG BET, PLEASE ADJUST OUR BET\");\r\n\r\n        return true;\r\n    }\r\n\r\n    function updateActiveBet(uint[] memory newBetNumbers, uint[] memory newBetAmount_wei) private {\r\n        //append new bets with current Betlist\r\n        for (uint x=0; x<newBetNumbers.length; x++) {\r\n            activeBet[msg.sender].betNumbers.push(newBetNumbers[x]);\r\n            activeBet[msg.sender].betAmount.push(newBetAmount_wei[x]);\r\n        }\r\n    }\r\n\r\n\r\n    function createMyBet(uint[] memory betNumbers, uint[] memory betAmount_chip) public returns (bool){\r\n\r\n        //money amount received from frontEnd is in Chips;\r\n        //Should conver all chips to Wei\r\n\r\n        require(activeBet[msg.sender].waitingId == 0, \".. Please Wait for result of last bet..\");\r\n\r\n        require(validPlayerBalance(), \"Not valid Player Balance\");\r\n\r\n        uint[] memory betAmount = chip2Wei_ar(betAmount_chip);\r\n\r\n        require(verifyBet(betNumbers,betAmount), \"NOT VALID BET\");\r\n\r\n        mySpentBalance(betAmount); //Deduct spent amount from player balance\r\n\r\n        updateActiveBet(betNumbers, betAmount); //Update Active Betlist for a player\r\n\r\n        emit newBetCreated(betNumbers,betAmount, msg.sender);\r\n\r\n        return (true);\r\n    }\r\n\r\n\r\n    function getMyBet() public view returns(uint[] memory, uint[] memory,bool, uint)  {\r\n        //Data sent to front page from contract is in Chips\r\n        return (    activeBet[msg.sender].betNumbers,\r\n                    wei2Chip_ar(activeBet[msg.sender].betAmount), //wei\r\n                    activeBet[msg.sender].waitingResult,\r\n                    activeBet[msg.sender].waitingId);\r\n    }\r\n\r\n\r\n    function resetPlayerBetList() private {\r\n        Bets memory nullBet;\r\n        activeBet[msg.sender] = nullBet;\r\n        activeBet[msg.sender].waitingResult = false;\r\n    }\r\n\r\n\r\n    function getWinAmountWei(uint winWei) public view returns(uint) {\r\n        return (winWei*BET_WIN_RATE)/100;\r\n    }\r\n\r\n    function playerTossCoin() public returns(uint, uint) {\r\n\r\n        require(validPlayerBalance(), \"playerTossCoin: Not valid Player Balance\");\r\n        require(activeBet[msg.sender].betNumbers.length > 0,\"playerTossCoin: No bet placed, plase place the bet!\");\r\n\r\n        activeBet[msg.sender].waitingResult = true;\r\n        activeBet[msg.sender].waitingId = 1231321; //For use later\r\n        uint result = random();\r\n\r\n        require(result >= BET_RANGE_MIN && result <= BET_RANGE_MAX, \"playerTossCoin: Random out of range\");\r\n\r\n        uint winAmount_wei = 0;\r\n\r\n        for (uint x=0; x<activeBet[msg.sender].betNumbers.length; x++) {\r\n            if (activeBet[msg.sender].betNumbers[x] == result) {\r\n                winAmount_wei += getWinAmountWei(activeBet[msg.sender].betAmount[x]);\r\n            }\r\n        }\r\n\r\n        resetPlayerBetList();\r\n        myWinBalance(winAmount_wei);\r\n\r\n        emit betFinished(winAmount_wei, result);\r\n        return (winAmount_wei, result);\r\n    }\r\n\r\n    function ownerWithdrawAll() public onlyOwner returns(uint) {\r\n       uint toTransfer = getContractBalance();\r\n\r\n       //Should cancel all bets before withdrawn\r\n       //Should return all players ballances before withdrawn\r\n       _totalAllPlayerBalance_ = 0;\r\n       _contractBalance_ = 0;\r\n\r\n       msg.sender.transfer(toTransfer);\r\n       return toTransfer;\r\n    }\r\n\r\n    function playerWithdrawAll() public  returns(uint) {\r\n\r\n        updateMyBalance();\r\n\r\n        require(playerHistory[msg.sender].totalBalance > 0, \"Player is out of money\");\r\n\r\n        require(validPlayerBalance(), \"Invalid balance check\");\r\n\r\n        require(activeBet[msg.sender].waitingId == 0, \"Waiting for bet result..\");\r\n\r\n        require(activeBet[msg.sender].betNumbers.length == 0, \"Bet can not be cancelled, Click Flip Button..\");\r\n\r\n        uint toTransfer = playerHistory[msg.sender].totalBalance;\r\n\r\n        playerHistory[msg.sender].totalWithdrawn += toTransfer;\r\n\r\n        _contractBalance_ -= toTransfer;\r\n\r\n        updateMyBalance();\r\n\r\n        assert(playerHistory[msg.sender].totalBalance == 0);\r\n\r\n        msg.sender.transfer(toTransfer);\r\n\r\n        return toTransfer;\r\n    }\r\n\r\n}\r\n",
  "sourcePath": "D:\\@TUNG 2020\\IVANONTECH\\SOLIDITY 201\\coinFlip4\\contracts\\CoinFlip100.sol",
  "compiler": {
    "name": "solc",
    "version": "0.6.10+commit.00c0fcaf.Emscripten.clang"
  },
  "schemaVersion": "3.2.0",
  "updatedAt": "2020-06-27T09:23:24.425Z",
  "networkType": "ethereum",
  "devdoc": {
    "methods": {}
  },
  "userdoc": {
    "methods": {}
  }
}