{
  "contractName": "CoinFlip",
  "abi": [
    {
      "anonymous": false,
      "inputs": [
        {
          "indexed": false,
          "internalType": "uint256",
          "name": "betAmount",
          "type": "uint256"
        },
        {
          "indexed": false,
          "internalType": "uint256",
          "name": "winAmount",
          "type": "uint256"
        },
        {
          "indexed": false,
          "internalType": "uint256",
          "name": "result",
          "type": "uint256"
        }
      ],
      "name": "betFinished",
      "type": "event"
    },
    {
      "anonymous": false,
      "inputs": [
        {
          "indexed": false,
          "internalType": "uint256",
          "name": "betChoice",
          "type": "uint256"
        },
        {
          "indexed": false,
          "internalType": "uint256",
          "name": "betAmount",
          "type": "uint256"
        },
        {
          "indexed": false,
          "internalType": "address",
          "name": "playerAddress",
          "type": "address"
        }
      ],
      "name": "newBetCreated",
      "type": "event"
    },
    {
      "anonymous": false,
      "inputs": [
        {
          "indexed": false,
          "internalType": "string",
          "name": "noticeString",
          "type": "string"
        },
        {
          "indexed": false,
          "internalType": "uint256",
          "name": "noticeValue",
          "type": "uint256"
        }
      ],
      "name": "notice",
      "type": "event"
    },
    {
      "inputs": [],
      "name": "_contractBalance_",
      "outputs": [
        {
          "internalType": "uint256",
          "name": "",
          "type": "uint256"
        }
      ],
      "stateMutability": "view",
      "type": "function",
      "constant": true
    },
    {
      "inputs": [],
      "name": "_totalAllPlayerBalance_",
      "outputs": [
        {
          "internalType": "uint256",
          "name": "",
          "type": "uint256"
        }
      ],
      "stateMutability": "view",
      "type": "function",
      "constant": true
    },
    {
      "inputs": [],
      "name": "owner",
      "outputs": [
        {
          "internalType": "address",
          "name": "",
          "type": "address"
        }
      ],
      "stateMutability": "view",
      "type": "function",
      "constant": true
    },
    {
      "inputs": [
        {
          "internalType": "address",
          "name": "",
          "type": "address"
        }
      ],
      "name": "playerHistory",
      "outputs": [
        {
          "internalType": "uint256",
          "name": "totalBalance",
          "type": "uint256"
        },
        {
          "internalType": "uint256",
          "name": "totalTopUp",
          "type": "uint256"
        },
        {
          "internalType": "uint256",
          "name": "totalWithdrawn",
          "type": "uint256"
        },
        {
          "internalType": "uint256",
          "name": "totalSpentAmount",
          "type": "uint256"
        },
        {
          "internalType": "uint256",
          "name": "totalWinAmount",
          "type": "uint256"
        },
        {
          "internalType": "uint256",
          "name": "totalGames",
          "type": "uint256"
        },
        {
          "internalType": "uint256",
          "name": "totalWins",
          "type": "uint256"
        },
        {
          "internalType": "uint256",
          "name": "lastWinAmount",
          "type": "uint256"
        }
      ],
      "stateMutability": "view",
      "type": "function",
      "constant": true
    },
    {
      "inputs": [
        {
          "internalType": "uint256",
          "name": "eth",
          "type": "uint256"
        }
      ],
      "name": "eth2Wei",
      "outputs": [
        {
          "internalType": "uint256",
          "name": "",
          "type": "uint256"
        }
      ],
      "stateMutability": "pure",
      "type": "function",
      "constant": true
    },
    {
      "inputs": [
        {
          "internalType": "uint256",
          "name": "topUp_eth",
          "type": "uint256"
        }
      ],
      "name": "ownerFundUp_eth",
      "outputs": [],
      "stateMutability": "payable",
      "type": "function",
      "payable": true
    },
    {
      "inputs": [
        {
          "internalType": "uint256",
          "name": "topUp_eth",
          "type": "uint256"
        }
      ],
      "name": "playerTopUp_eth",
      "outputs": [],
      "stateMutability": "payable",
      "type": "function",
      "payable": true
    },
    {
      "inputs": [],
      "name": "getPlayerHistory",
      "outputs": [
        {
          "internalType": "uint256",
          "name": "",
          "type": "uint256"
        },
        {
          "internalType": "uint256",
          "name": "",
          "type": "uint256"
        },
        {
          "internalType": "uint256",
          "name": "",
          "type": "uint256"
        },
        {
          "internalType": "uint256",
          "name": "",
          "type": "uint256"
        },
        {
          "internalType": "uint256",
          "name": "",
          "type": "uint256"
        },
        {
          "internalType": "uint256",
          "name": "",
          "type": "uint256"
        },
        {
          "internalType": "uint256",
          "name": "",
          "type": "uint256"
        },
        {
          "internalType": "uint256",
          "name": "",
          "type": "uint256"
        }
      ],
      "stateMutability": "view",
      "type": "function",
      "constant": true
    },
    {
      "inputs": [],
      "name": "getContractBalance",
      "outputs": [
        {
          "internalType": "uint256",
          "name": "",
          "type": "uint256"
        }
      ],
      "stateMutability": "view",
      "type": "function",
      "constant": true
    },
    {
      "inputs": [],
      "name": "get_totalAllPlayerBalance_",
      "outputs": [
        {
          "internalType": "uint256",
          "name": "",
          "type": "uint256"
        }
      ],
      "stateMutability": "view",
      "type": "function",
      "constant": true
    },
    {
      "inputs": [],
      "name": "contractPlayableFund",
      "outputs": [
        {
          "internalType": "uint256",
          "name": "",
          "type": "uint256"
        }
      ],
      "stateMutability": "view",
      "type": "function",
      "constant": true
    },
    {
      "inputs": [],
      "name": "playerPlayableFund",
      "outputs": [
        {
          "internalType": "uint256",
          "name": "",
          "type": "uint256"
        }
      ],
      "stateMutability": "view",
      "type": "function",
      "constant": true
    },
    {
      "inputs": [
        {
          "internalType": "uint256",
          "name": "betChoice",
          "type": "uint256"
        },
        {
          "internalType": "uint256",
          "name": "betAmount_eth",
          "type": "uint256"
        }
      ],
      "name": "createMyBet",
      "outputs": [],
      "stateMutability": "nonpayable",
      "type": "function"
    },
    {
      "inputs": [],
      "name": "getMyBet",
      "outputs": [
        {
          "internalType": "uint256[]",
          "name": "",
          "type": "uint256[]"
        },
        {
          "internalType": "uint256[]",
          "name": "",
          "type": "uint256[]"
        }
      ],
      "stateMutability": "view",
      "type": "function",
      "constant": true
    },
    {
      "inputs": [],
      "name": "playerTossCoin",
      "outputs": [
        {
          "internalType": "uint256",
          "name": "",
          "type": "uint256"
        },
        {
          "internalType": "uint256",
          "name": "",
          "type": "uint256"
        },
        {
          "internalType": "uint256",
          "name": "",
          "type": "uint256"
        }
      ],
      "stateMutability": "nonpayable",
      "type": "function"
    },
    {
      "inputs": [],
      "name": "ownerWithdrawAll",
      "outputs": [
        {
          "internalType": "uint256",
          "name": "",
          "type": "uint256"
        }
      ],
      "stateMutability": "nonpayable",
      "type": "function"
    },
    {
      "inputs": [],
      "name": "playerWithdrawAll",
      "outputs": [
        {
          "internalType": "uint256",
          "name": "",
          "type": "uint256"
        }
      ],
      "stateMutability": "nonpayable",
      "type": "function"
    }
  ],
  "bytecode": "0x60806040526103e8600555600360065534801561001b57600080fd5b50336000806101000a81548173ffffffffffffffffffffffffffffffffffffffff021916908373ffffffffffffffffffffffffffffffffffffffff1602179055506125ac8061006b6000396000f3fe6080604052600436106100fe5760003560e01c80638085688c11610095578063d4382ce411610064578063d4382ce414610452578063e0d5af94146104a1578063e3c12872146104cc578063e57acb3514610528578063fdc8e53c14610553576100fe565b80638085688c146102e35780638da5cb5b1461031c57806394ebe60814610373578063b24b05f81461039e576100fe565b80633c50b913116100d15780633c50b9131461021a5780636f9fb98a146102455780637417df701461027057806377d7d10b1461029e576100fe565b80630a39a58e146101035780630da277901461012e578063180bfdf6146101c457806320912e38146101ef575b600080fd5b34801561010f57600080fd5b50610118610581565b6040518082815260200191505060405180910390f35b34801561013a57600080fd5b5061017d6004803603602081101561015157600080fd5b81019080803573ffffffffffffffffffffffffffffffffffffffff169060200190929190505050610587565b604051808981526020018881526020018781526020018681526020018581526020018481526020018381526020018281526020019850505050505050505060405180910390f35b3480156101d057600080fd5b506101d96105cf565b6040518082815260200191505060405180910390f35b3480156101fb57600080fd5b506102046105d5565b6040518082815260200191505060405180910390f35b34801561022657600080fd5b5061022f6105f7565b6040518082815260200191505060405180910390f35b34801561025157600080fd5b5061025a6106a1565b6040518082815260200191505060405180910390f35b61029c6004803603602081101561028657600080fd5b81019080803590602001909291905050506106ab565b005b3480156102aa57600080fd5b506102e1600480360360408110156102c157600080fd5b8101908080359060200190929190803590602001909291905050506107a8565b005b3480156102ef57600080fd5b506102f8610f1f565b60405180848152602001838152602001828152602001935050505060405180910390f35b34801561032857600080fd5b5061033161151a565b604051808273ffffffffffffffffffffffffffffffffffffffff1673ffffffffffffffffffffffffffffffffffffffff16815260200191505060405180910390f35b34801561037f57600080fd5b5061038861153f565b6040518082815260200191505060405180910390f35b3480156103aa57600080fd5b506103b361184a565b604051808060200180602001838103835285818151815260200191508051906020019060200280838360005b838110156103fa5780820151818401526020810190506103df565b50505050905001838103825284818151815260200191508051906020019060200280838360005b8381101561043c578082015181840152602081019050610421565b5050505090500194505050505060405180910390f35b34801561045e57600080fd5b5061048b6004803603602081101561047557600080fd5b810190808035906020019092919050505061197d565b6040518082815260200191505060405180910390f35b3480156104ad57600080fd5b506104b6611991565b6040518082815260200191505060405180910390f35b3480156104d857600080fd5b506104e1611a56565b604051808981526020018881526020018781526020018681526020018581526020018481526020018381526020018281526020019850505050505050505060405180910390f35b34801561053457600080fd5b5061053d611e3c565b6040518082815260200191505060405180910390f35b61057f6004803603602081101561056957600080fd5b8101908080359060200190929190505050611e46565b005b60015481565b60046020528060005260406000206000915090508060000154908060010154908060020154908060030154908060040154908060050154908060060154908060070154905088565b60025481565b60008060015414156105ea57600090506105f4565b6002546001540390505b90565b6000806106026105d5565b905080600460003373ffffffffffffffffffffffffffffffffffffffff1673ffffffffffffffffffffffffffffffffffffffff16815260200190815260200160002060000154101561069957600460003373ffffffffffffffffffffffffffffffffffffffff1673ffffffffffffffffffffffffffffffffffffffff1681526020019081526020016000206000015491505061069e565b809150505b90565b6000600154905090565b6000809054906101000a900473ffffffffffffffffffffffffffffffffffffffff1673ffffffffffffffffffffffffffffffffffffffff163373ffffffffffffffffffffffffffffffffffffffff161461070457600080fd5b61070d8161197d565b3414610781576040517f08c379a000000000000000000000000000000000000000000000000000000000815260040180806020018281038252601d8152602001807f6d73672e76616c756520213d20746f7055705f657468202a203165313600000081525060200191505060405180910390fd5b61078a8161197d565b341461079557600080fd5b3460016000828254019250508190555050565b600460003373ffffffffffffffffffffffffffffffffffffffff1673ffffffffffffffffffffffffffffffffffffffff16815260200190815260200160002060040154600460003373ffffffffffffffffffffffffffffffffffffffff1673ffffffffffffffffffffffffffffffffffffffff16815260200190815260200160002060030154600460003373ffffffffffffffffffffffffffffffffffffffff1673ffffffffffffffffffffffffffffffffffffffff16815260200190815260200160002060020154600460003373ffffffffffffffffffffffffffffffffffffffff1673ffffffffffffffffffffffffffffffffffffffff16815260200190815260200160002060010154030301600460003373ffffffffffffffffffffffffffffffffffffffff1673ffffffffffffffffffffffffffffffffffffffff1681526020019081526020016000206000015414610950576040517f08c379a00000000000000000000000000000000000000000000000000000000081526004018080602001828103825260218152602001806124a76021913960400191505060405180910390fd5b610958611f42565b60006109638261197d565b90506005548110156109dd576040517f08c379a00000000000000000000000000000000000000000000000000000000081526004018080602001828103825260148152602001807f42657420616d6f756e7420746f6f20736d616c6c00000000000000000000000081525060200191505060405180910390fd5b806109e66105f7565b1015610a3d576040517f08c379a000000000000000000000000000000000000000000000000000000000815260040180806020018281038252602b8152602001806124f6602b913960400191505060405180910390fd5b6001831480610a4c5750600083145b610abe576040517f08c379a00000000000000000000000000000000000000000000000000000000081526004018080602001828103825260148152602001807f4265742073686f756c642062652031206f72203000000000000000000000000081525060200191505060405180910390fd5b6000600360003373ffffffffffffffffffffffffffffffffffffffff1673ffffffffffffffffffffffffffffffffffffffff1681526020019081526020016000206000018054905090506000600360003373ffffffffffffffffffffffffffffffffffffffff1673ffffffffffffffffffffffffffffffffffffffff168152602001908152602001600020600101805490509050808214610bc7576040517f08c379a00000000000000000000000000000000000000000000000000000000081526004018080602001828103825260108152602001807f496e76616c69642064617461626173650000000000000000000000000000000081525060200191505060405180910390fd5b6006548210610c21576040517f08c379a00000000000000000000000000000000000000000000000000000000081526004018080602001828103825260338152602001806125446033913960400191505060405180910390fd5b610c2a8361213d565b600360003373ffffffffffffffffffffffffffffffffffffffff1673ffffffffffffffffffffffffffffffffffffffff168152602001908152602001600020600001859080600181540180825580915050600190039060005260206000200160009091909190915055600360003373ffffffffffffffffffffffffffffffffffffffff1673ffffffffffffffffffffffffffffffffffffffff168152602001908152602001600020600101839080600181540180825580915050600190039060005260206000200160009091909190915055600360003373ffffffffffffffffffffffffffffffffffffffff1673ffffffffffffffffffffffffffffffffffffffff168152602001908152602001600020600001805490509150600360003373ffffffffffffffffffffffffffffffffffffffff1673ffffffffffffffffffffffffffffffffffffffff1681526020019081526020016000206001018054905090508483604051602001808381526020018281526020019250505060405160208183030381529060405280519060200120600360003373ffffffffffffffffffffffffffffffffffffffff1673ffffffffffffffffffffffffffffffffffffffff1681526020019081526020016000206000016001840381548110610e0b57fe5b9060005260206000200154600360003373ffffffffffffffffffffffffffffffffffffffff1673ffffffffffffffffffffffffffffffffffffffff1681526020019081526020016000206001016001840381548110610e6657fe5b906000526020600020015460405160200180838152602001828152602001925050506040516020818303038152906040528051906020012014610ea557fe5b7f708e20749d242a7a40f190aed9586d298609a0391699344a787a3fb0006f295a858433604051808481526020018381526020018273ffffffffffffffffffffffffffffffffffffffff1673ffffffffffffffffffffffffffffffffffffffff168152602001935050505060405180910390a15050505050565b6000806000600460003373ffffffffffffffffffffffffffffffffffffffff1673ffffffffffffffffffffffffffffffffffffffff16815260200190815260200160002060040154600460003373ffffffffffffffffffffffffffffffffffffffff1673ffffffffffffffffffffffffffffffffffffffff16815260200190815260200160002060030154600460003373ffffffffffffffffffffffffffffffffffffffff1673ffffffffffffffffffffffffffffffffffffffff16815260200190815260200160002060020154600460003373ffffffffffffffffffffffffffffffffffffffff1673ffffffffffffffffffffffffffffffffffffffff16815260200190815260200160002060010154030301600460003373ffffffffffffffffffffffffffffffffffffffff1673ffffffffffffffffffffffffffffffffffffffff16815260200190815260200160002060000154146110cc576040517f08c379a00000000000000000000000000000000000000000000000000000000081526004018080602001828103825260218152602001806124a76021913960400191505060405180910390fd5b60006110d6612198565b90506000809050600080905060018314806110f15750600083145b6110fa57600080fd5b6000600360003373ffffffffffffffffffffffffffffffffffffffff1673ffffffffffffffffffffffffffffffffffffffff1681526020019081526020016000206000018054905011611198576040517f08c379a00000000000000000000000000000000000000000000000000000000081526004018080602001828103825260238152602001806125216023913960400191505060405180910390fd5b6000600360003373ffffffffffffffffffffffffffffffffffffffff1673ffffffffffffffffffffffffffffffffffffffff1681526020019081526020016000206001018054905011611236576040517f08c379a00000000000000000000000000000000000000000000000000000000081526004018080602001828103825260238152602001806125216023913960400191505060405180910390fd5b600360003373ffffffffffffffffffffffffffffffffffffffff1673ffffffffffffffffffffffffffffffffffffffff16815260200190815260200160002060000180549050600360003373ffffffffffffffffffffffffffffffffffffffff1673ffffffffffffffffffffffffffffffffffffffff1681526020019081526020016000206001018054905014611335576040517f08c379a000000000000000000000000000000000000000000000000000000000815260040180806020018281038252600e8152602001807f4572726f7220626574206461746100000000000000000000000000000000000081525060200191505060405180910390fd5b60008090505b600360003373ffffffffffffffffffffffffffffffffffffffff1673ffffffffffffffffffffffffffffffffffffffff168152602001908152602001600020600001805490508110156114b057600360003373ffffffffffffffffffffffffffffffffffffffff1673ffffffffffffffffffffffffffffffffffffffff16815260200190815260200160002060010181815481106113d557fe5b90600052602060002001548301925083600360003373ffffffffffffffffffffffffffffffffffffffff1673ffffffffffffffffffffffffffffffffffffffff168152602001908152602001600020600001828154811061143257fe5b906000526020600020015414156114a3576002600360003373ffffffffffffffffffffffffffffffffffffffff1673ffffffffffffffffffffffffffffffffffffffff168152602001908152602001600020600101828154811061149257fe5b906000526020600020015402820191505b808060010191505061133b565b506114ba816121aa565b6114c26122f9565b7f0957d90febb3cf2ed06552f937058347e227571bae97c3f6281d23c67e31987f82828560405180848152602001838152602001828152602001935050505060405180910390a1818184955095509550505050909192565b6000809054906101000a900473ffffffffffffffffffffffffffffffffffffffff1681565b6000600460003373ffffffffffffffffffffffffffffffffffffffff1673ffffffffffffffffffffffffffffffffffffffff16815260200190815260200160002060040154600460003373ffffffffffffffffffffffffffffffffffffffff1673ffffffffffffffffffffffffffffffffffffffff16815260200190815260200160002060030154600460003373ffffffffffffffffffffffffffffffffffffffff1673ffffffffffffffffffffffffffffffffffffffff16815260200190815260200160002060020154600460003373ffffffffffffffffffffffffffffffffffffffff1673ffffffffffffffffffffffffffffffffffffffff16815260200190815260200160002060010154030301600460003373ffffffffffffffffffffffffffffffffffffffff1673ffffffffffffffffffffffffffffffffffffffff16815260200190815260200160002060000154146116e9576040517f08c379a00000000000000000000000000000000000000000000000000000000081526004018080602001828103825260218152602001806124a76021913960400191505060405180910390fd5b6116f1611f42565b6116f9612381565b61174e576040517f08c379a000000000000000000000000000000000000000000000000000000000815260040180806020018281038252602e8152602001806124c8602e913960400191505060405180910390fd5b6000600460003373ffffffffffffffffffffffffffffffffffffffff1673ffffffffffffffffffffffffffffffffffffffff16815260200190815260200160002060000154905080600460003373ffffffffffffffffffffffffffffffffffffffff1673ffffffffffffffffffffffffffffffffffffffff16815260200190815260200160002060020181905550806001600082825403925050819055506117f4611f42565b6117fc6123d0565b3373ffffffffffffffffffffffffffffffffffffffff166108fc829081150290604051600060405180830381858888f19350505050158015611842573d6000803e3d6000fd5b508091505090565b606080600360003373ffffffffffffffffffffffffffffffffffffffff1673ffffffffffffffffffffffffffffffffffffffff168152602001908152602001600020600001600360003373ffffffffffffffffffffffffffffffffffffffff1673ffffffffffffffffffffffffffffffffffffffff1681526020019081526020016000206001018180548060200260200160405190810160405280929190818152602001828054801561191c57602002820191906000526020600020905b815481526020019060010190808311611908575b505050505091508080548060200260200160405190810160405280929190818152602001828054801561196e57602002820191906000526020600020905b81548152602001906001019080831161195a575b50505050509050915091509091565b6000670de0b6b3a764000082029050919050565b60008060009054906101000a900473ffffffffffffffffffffffffffffffffffffffff1673ffffffffffffffffffffffffffffffffffffffff163373ffffffffffffffffffffffffffffffffffffffff16146119ec57600080fd5b60006119f66106a1565b9050600060028190555060006001819055503373ffffffffffffffffffffffffffffffffffffffff166108fc829081150290604051600060405180830381858888f19350505050158015611a4e573d6000803e3d6000fd5b508091505090565b600080600080600080600080600460003373ffffffffffffffffffffffffffffffffffffffff1673ffffffffffffffffffffffffffffffffffffffff16815260200190815260200160002060040154600460003373ffffffffffffffffffffffffffffffffffffffff1673ffffffffffffffffffffffffffffffffffffffff16815260200190815260200160002060030154600460003373ffffffffffffffffffffffffffffffffffffffff1673ffffffffffffffffffffffffffffffffffffffff16815260200190815260200160002060020154600460003373ffffffffffffffffffffffffffffffffffffffff1673ffffffffffffffffffffffffffffffffffffffff16815260200190815260200160002060010154030301600460003373ffffffffffffffffffffffffffffffffffffffff1673ffffffffffffffffffffffffffffffffffffffff1681526020019081526020016000206000015414611c0a576040517f08c379a00000000000000000000000000000000000000000000000000000000081526004018080602001828103825260218152602001806124a76021913960400191505060405180910390fd5b600460003373ffffffffffffffffffffffffffffffffffffffff1673ffffffffffffffffffffffffffffffffffffffff16815260200190815260200160002060000154600460003373ffffffffffffffffffffffffffffffffffffffff1673ffffffffffffffffffffffffffffffffffffffff16815260200190815260200160002060010154600460003373ffffffffffffffffffffffffffffffffffffffff1673ffffffffffffffffffffffffffffffffffffffff16815260200190815260200160002060020154600460003373ffffffffffffffffffffffffffffffffffffffff1673ffffffffffffffffffffffffffffffffffffffff16815260200190815260200160002060030154600460003373ffffffffffffffffffffffffffffffffffffffff1673ffffffffffffffffffffffffffffffffffffffff16815260200190815260200160002060040154600460003373ffffffffffffffffffffffffffffffffffffffff1673ffffffffffffffffffffffffffffffffffffffff16815260200190815260200160002060050154600460003373ffffffffffffffffffffffffffffffffffffffff1673ffffffffffffffffffffffffffffffffffffffff16815260200190815260200160002060060154600460003373ffffffffffffffffffffffffffffffffffffffff1673ffffffffffffffffffffffffffffffffffffffff16815260200190815260200160002060070154975097509750975097509750975097509091929394959697565b6000600254905090565b611e4f8161197d565b3414611ec3576040517f08c379a000000000000000000000000000000000000000000000000000000000815260040180806020018281038252601d8152602001807f6d73672e76616c756520213d20746f7055705f657468202a203165313600000081525060200191505060405180910390fd5b611ecc8161197d565b3414611ed757600080fd5b3460016000828254019250508190555034600460003373ffffffffffffffffffffffffffffffffffffffff1673ffffffffffffffffffffffffffffffffffffffff16815260200190815260200160002060010160008282540192505081905550611f3f611f42565b50565b600460003373ffffffffffffffffffffffffffffffffffffffff1673ffffffffffffffffffffffffffffffffffffffff16815260200190815260200160002060000154600260008282540392505081905550600460003373ffffffffffffffffffffffffffffffffffffffff1673ffffffffffffffffffffffffffffffffffffffff16815260200190815260200160002060040154600460003373ffffffffffffffffffffffffffffffffffffffff1673ffffffffffffffffffffffffffffffffffffffff16815260200190815260200160002060030154600460003373ffffffffffffffffffffffffffffffffffffffff1673ffffffffffffffffffffffffffffffffffffffff16815260200190815260200160002060020154600460003373ffffffffffffffffffffffffffffffffffffffff1673ffffffffffffffffffffffffffffffffffffffff16815260200190815260200160002060010154030301600460003373ffffffffffffffffffffffffffffffffffffffff1673ffffffffffffffffffffffffffffffffffffffff16815260200190815260200160002060000181905550600460003373ffffffffffffffffffffffffffffffffffffffff1673ffffffffffffffffffffffffffffffffffffffff16815260200190815260200160002060000154600260008282540192505081905550565b80600460003373ffffffffffffffffffffffffffffffffffffffff1673ffffffffffffffffffffffffffffffffffffffff16815260200190815260200160002060030160008282540192505081905550612195611f42565b50565b6000600242816121a457fe5b06905090565b600460003373ffffffffffffffffffffffffffffffffffffffff1673ffffffffffffffffffffffffffffffffffffffff1681526020019081526020016000206005016000815480929190600101919050555060008111156122a75780600460003373ffffffffffffffffffffffffffffffffffffffff1673ffffffffffffffffffffffffffffffffffffffff168152602001908152602001600020600401600082825401925050819055506001600460003373ffffffffffffffffffffffffffffffffffffffff1673ffffffffffffffffffffffffffffffffffffffff168152602001908152602001600020600601600082825401925050819055505b80600460003373ffffffffffffffffffffffffffffffffffffffff1673ffffffffffffffffffffffffffffffffffffffff168152602001908152602001600020600701819055506122f6611f42565b50565b61230161241a565b80600360003373ffffffffffffffffffffffffffffffffffffffff1673ffffffffffffffffffffffffffffffffffffffff168152602001908152602001600020600082015181600001908051906020019061235d929190612434565b50602082015181600101908051906020019061237a929190612434565b5090505050565b600080600360003373ffffffffffffffffffffffffffffffffffffffff1673ffffffffffffffffffffffffffffffffffffffff1681526020019081526020016000206001018054905014905090565b6000600460003373ffffffffffffffffffffffffffffffffffffffff1673ffffffffffffffffffffffffffffffffffffffff16815260200190815260200160002060000181905550565b604051806040016040528060608152602001606081525090565b828054828255906000526020600020908101928215612470579160200282015b8281111561246f578251825591602001919060010190612454565b5b50905061247d9190612481565b5090565b6124a391905b8082111561249f576000816000905550600101612487565b5090565b9056fe4552524f522043414c43554c4154494e4720504c415945522042414c4c414e4345506c656173652043616e63656c20796f75722062657473206f7220436c69636b20466c697020427574746f6e2e2e544f4f20424947204245542c204e4f5420454e4f5547482042414c414e4345204f4e20434f4e54524143544e6f2062657420706c616365642c20706c61736520706c616365207468652062657421546f6f206d616e79206265747320666f72206f6e6520647261773b20506c656173652068697420464c495020627574746f6e21a26469706673582212209a5ef25d5ff2d5329e0b8598f08243ab4a901f0c55ad829a3bd3023e0b94c96d64736f6c634300060a0033",
  "immutableReferences": {},
  "source": "//SPDX-License-Identifier: UNLICENSED\r\n\r\nimport \"./Ownable.sol\";\r\npragma solidity 0.6.10;\r\n\r\ncontract CoinFlip is Ownable{\r\n\r\n    uint public _contractBalance_;\r\n    uint public _totalAllPlayerBalance_;\r\n\r\n    // status of active bets; Each player can have multiple bets before each flip\r\n    //Update each time player submited new bet\r\n\r\n    struct activeBet  {\r\n        uint[] betListPrecdictions;  // 0 or 1\r\n        uint[] betListAmount; //wei\r\n        }\r\n\r\n    //list of all activities of a player (update after finished solving each bet)\r\n    struct betHistory {\r\n        uint totalBalance;\r\n        uint totalTopUp;\r\n        uint totalWithdrawn;\r\n        uint totalSpentAmount;\r\n        uint totalWinAmount;\r\n        uint totalGames;\r\n        uint totalWins;\r\n        uint lastWinAmount;\r\n    }\r\n\r\n    //betList is a list of all active bets\r\n    // Should limit storage size somehow to avoid everflow in future?\r\n    mapping (address => activeBet) private activeBetList;\r\n\r\n    //playerList store information\r\n    // Should limit storage size somehow to avoid everflow in future?\r\n    mapping (address => betHistory) public playerHistory;\r\n\r\n    //newBetCreated emit when created and not finished\r\n    event newBetCreated(uint betChoice, uint betAmount, address playerAddress);\r\n\r\n    //betFinished emit when\r\n    event betFinished(uint betAmount, uint winAmount, uint result);\r\n\r\n    //common notice\r\n    event notice(string noticeString, uint noticeValue);\r\n\r\n    uint _minBetAmount = 1000; //All Amount are in Wei unless has _eth ending\r\n    uint _maxBetWaiting = 3; // Maximun number of bets for a player before toss coin\r\n\r\n    //Check Account Balance validity\r\n    modifier validPlayerBalance() {\r\n        require(playerHistory[msg.sender].totalBalance ==\r\n            playerHistory[msg.sender].totalTopUp - playerHistory[msg.sender].totalWithdrawn -\r\n            playerHistory[msg.sender].totalSpentAmount + playerHistory[msg.sender].totalWinAmount,\r\n            \"ERROR CALCULATING PLAYER BALLANCE\");\r\n        _;\r\n    }\r\n\r\n    function eth2Wei(uint eth) public pure returns(uint) {\r\n        return eth*1000000000000000000;\r\n    }\r\n\r\n    //Owner balance topUp\r\n    function ownerFundUp_eth(uint topUp_eth) public onlyOwner payable {\r\n\r\n        require(msg.value == eth2Wei(topUp_eth), \"msg.value != topUp_eth * 1e16\");\r\n        if (msg.value != eth2Wei(topUp_eth)) revert();\r\n\r\n        _contractBalance_ += msg.value ;\r\n    }\r\n\r\n\r\n    //Player account balance topUp\r\n    function playerTopUp_eth(uint topUp_eth) public payable {\r\n        //1eth = 1000000000000000000 wei\r\n        require(msg.value == eth2Wei(topUp_eth), \"msg.value != topUp_eth * 1e16\");\r\n        if (msg.value != eth2Wei(topUp_eth)) revert();\r\n\r\n        _contractBalance_ += msg.value ;\r\n        playerHistory[msg.sender].totalTopUp += msg.value;\r\n        updateMyBalance();\r\n    }\r\n\r\n    //Calculate values each time player status changed\r\n    function updateMyBalance() private {\r\n        _totalAllPlayerBalance_ -= playerHistory[msg.sender].totalBalance;\r\n        playerHistory[msg.sender].totalBalance =\r\n        playerHistory[msg.sender].totalTopUp -\r\n        playerHistory[msg.sender].totalWithdrawn -\r\n        playerHistory[msg.sender].totalSpentAmount +\r\n        playerHistory[msg.sender].totalWinAmount;\r\n        _totalAllPlayerBalance_ += playerHistory[msg.sender].totalBalance;\r\n        }\r\n\r\n    function resetMyBalance() private  {\r\n        playerHistory[msg.sender].totalBalance = 0;\r\n    }\r\n\r\n    function mySpentBalance(uint spentAmount) private  {\r\n        playerHistory[msg.sender].totalSpentAmount += spentAmount;\r\n        updateMyBalance();\r\n    }\r\n\r\n    function myWinBalance(uint winAmount) private  {\r\n        playerHistory[msg.sender].totalGames++;\r\n        if (winAmount>0) {\r\n            playerHistory[msg.sender].totalWinAmount += winAmount;\r\n            playerHistory[msg.sender].totalWins += 1;\r\n        }\r\n        playerHistory[msg.sender].lastWinAmount = winAmount;\r\n        updateMyBalance();\r\n    }\r\n\r\n    function getPlayerHistory() public view validPlayerBalance returns(uint,uint,uint,uint,uint,uint,uint,uint) {\r\n        return  (   playerHistory[msg.sender].totalBalance,\r\n                    playerHistory[msg.sender].totalTopUp,\r\n                    playerHistory[msg.sender].totalWithdrawn,\r\n                    playerHistory[msg.sender].totalSpentAmount,\r\n                    playerHistory[msg.sender].totalWinAmount,\r\n                    playerHistory[msg.sender].totalGames,\r\n                    playerHistory[msg.sender].totalWins,\r\n                    playerHistory[msg.sender].lastWinAmount );\r\n    }\r\n\r\n    function getContractBalance() public view returns (uint) {\r\n      return _contractBalance_;\r\n    }\r\n\r\n\r\n    function get_totalAllPlayerBalance_() public view returns (uint) {\r\n      return _totalAllPlayerBalance_;\r\n    }\r\n\r\n    function contractPlayableFund() public view returns(uint) {\r\n      if (_contractBalance_ == 0) {\r\n        return 0;\r\n      }\r\n      else {\r\n        return _contractBalance_ - _totalAllPlayerBalance_;\r\n      }\r\n    }\r\n\r\n    function playerPlayableFund() public view returns(uint) {\r\n        uint contractPlayable = contractPlayableFund();\r\n        if (uint(playerHistory[msg.sender].totalBalance) < contractPlayable) {\r\n            return playerHistory[msg.sender].totalBalance;\r\n        }\r\n        else {\r\n            return contractPlayable;\r\n        }\r\n    }\r\n\r\n    function createMyBet(uint betChoice, uint betAmount_eth) public validPlayerBalance {\r\n        updateMyBalance();\r\n        uint betAmount = eth2Wei(betAmount_eth);\r\n\r\n        require(betAmount >= _minBetAmount, \"Bet amount too small\");\r\n        require(playerPlayableFund() >= betAmount , \"TOO BIG BET, NOT ENOUGH BALANCE ON CONTRACT\");\r\n        require(betChoice == 1 || betChoice == 0, \"Bet should be 1 or 0\");\r\n\r\n        uint totalActivePredicts = activeBetList[msg.sender].betListPrecdictions.length;\r\n        uint totalActiveBets = activeBetList[msg.sender].betListAmount.length;\r\n\r\n        require(totalActivePredicts == totalActiveBets, \"Invalid database\");\r\n        require(totalActivePredicts < _maxBetWaiting, \"Too many bets for one draw; Please hit FLIP button!\");\r\n\r\n        mySpentBalance(betAmount);\r\n\r\n        activeBetList[msg.sender].betListPrecdictions.push(betChoice);\r\n        activeBetList[msg.sender].betListAmount.push(betAmount);\r\n\r\n        totalActivePredicts = activeBetList[msg.sender].betListPrecdictions.length;\r\n        totalActiveBets = activeBetList[msg.sender].betListAmount.length;\r\n\r\n        assert(\r\n            keccak256(\r\n                abi.encodePacked(\r\n                    activeBetList[msg.sender].betListPrecdictions[totalActivePredicts - 1],\r\n                    activeBetList[msg.sender].betListAmount[totalActiveBets - 1]\r\n                )\r\n            )\r\n            ==\r\n            keccak256(\r\n                abi.encodePacked(\r\n                    betChoice,\r\n                    betAmount\r\n                )\r\n            )\r\n        );\r\n\r\n        emit newBetCreated(betChoice, betAmount, msg.sender);\r\n    }\r\n\r\n    function getMyBet() public view returns(uint[] memory, uint[] memory)\r\n    {\r\n        return (\r\n            activeBetList[msg.sender].betListPrecdictions,\r\n            activeBetList[msg.sender].betListAmount\r\n        );\r\n    }\r\n\r\n    function random() private view returns(uint) {\r\n        return now % 2;\r\n    }\r\n\r\n    function resetPlayerBetList() private {\r\n        activeBet memory noBets;\r\n        activeBetList[msg.sender] = noBets;\r\n    }\r\n\r\n    function playerBetListIsEmpty() private view returns(bool) {\r\n        return activeBetList[msg.sender].betListAmount.length == 0;\r\n    }\r\n\r\n    function playerTossCoin() public validPlayerBalance returns(uint , uint, uint) {\r\n        uint result = random();\r\n        uint spentAmount = 0;\r\n        uint winAmount = 0;\r\n\r\n        require(    result == 1 || result==0);\r\n        require(    activeBetList[msg.sender].betListPrecdictions.length > 0,\r\n                    \"No bet placed, plase place the bet!\");\r\n\r\n        require(    activeBetList[msg.sender].betListAmount.length > 0,\r\n                    \"No bet placed, plase place the bet!\");\r\n\r\n        require(    activeBetList[msg.sender].betListAmount.length == activeBetList[msg.sender].betListPrecdictions.length,\r\n                    \"Error bet data\");\r\n\r\n        for (uint x=0; x < activeBetList[msg.sender].betListPrecdictions.length; x++) {\r\n            spentAmount += activeBetList[msg.sender].betListAmount[x];\r\n            if (activeBetList[msg.sender].betListPrecdictions[x] == result) {\r\n                winAmount += activeBetList[msg.sender].betListAmount[x] * 2;\r\n            }\r\n        }\r\n\r\n        myWinBalance(winAmount);\r\n\r\n        resetPlayerBetList();\r\n\r\n        emit betFinished(spentAmount, winAmount, result);\r\n        return (spentAmount, winAmount, result);\r\n    }\r\n\r\n    function ownerWithdrawAll() public onlyOwner returns(uint) {\r\n       uint toTransfer = getContractBalance();\r\n\r\n       //Should cancel all bets before withdrawn\r\n       //Should return all players ballances before withdrawn\r\n       _totalAllPlayerBalance_ = 0;\r\n       _contractBalance_ = 0;\r\n\r\n       msg.sender.transfer(toTransfer);\r\n       return toTransfer;\r\n    }\r\n\r\n    function playerWithdrawAll() public validPlayerBalance returns(uint) {\r\n        updateMyBalance();\r\n\r\n        require(playerBetListIsEmpty(), \"Please Cancel your bets or Click Flip Button..\");\r\n\r\n        uint toTransfer = playerHistory[msg.sender].totalBalance;\r\n\r\n        playerHistory[msg.sender].totalWithdrawn = toTransfer;\r\n\r\n        _contractBalance_ -= toTransfer;\r\n\r\n        updateMyBalance();\r\n\r\n        resetMyBalance();\r\n\r\n        msg.sender.transfer(toTransfer);\r\n\r\n        return toTransfer;\r\n    }\r\n\r\n}\r\n",
  "sourcePath": "D:\\@TUNG 2020\\IVANONTECH\\SOLIDITY 201\\coinFlip4\\contracts\\CoinFlip.sol",
  "compiler": {
    "name": "solc",
    "version": "0.6.10+commit.00c0fcaf.Emscripten.clang"
  },
  "schemaVersion": "3.2.0",
  "updatedAt": "2020-06-22T08:37:07.950Z",
  "networkType": "ethereum",
  "devdoc": {
    "methods": {}
  },
  "userdoc": {
    "methods": {}
  }
}