{
  "contractName": "CoinFlip",
  "abi": [
    {
      "anonymous": false,
      "inputs": [
        {
          "indexed": false,
          "internalType": "uint256",
          "name": "winAmount",
          "type": "uint256"
        },
        {
          "indexed": false,
          "internalType": "uint256",
          "name": "result",
          "type": "uint256"
        }
      ],
      "name": "betFinished",
      "type": "event"
    },
    {
      "anonymous": false,
      "inputs": [
        {
          "indexed": false,
          "internalType": "uint256",
          "name": "betChoice",
          "type": "uint256"
        },
        {
          "indexed": false,
          "internalType": "uint256",
          "name": "betAmount",
          "type": "uint256"
        },
        {
          "indexed": false,
          "internalType": "address",
          "name": "playerAddress",
          "type": "address"
        }
      ],
      "name": "newBetCreated",
      "type": "event"
    },
    {
      "anonymous": false,
      "inputs": [
        {
          "indexed": false,
          "internalType": "string",
          "name": "noticeString",
          "type": "string"
        },
        {
          "indexed": false,
          "internalType": "uint256",
          "name": "noticeValue",
          "type": "uint256"
        }
      ],
      "name": "notice",
      "type": "event"
    },
    {
      "inputs": [],
      "name": "_contractBalance_",
      "outputs": [
        {
          "internalType": "uint256",
          "name": "",
          "type": "uint256"
        }
      ],
      "stateMutability": "view",
      "type": "function",
      "constant": true
    },
    {
      "inputs": [],
      "name": "_totalAllPlayerBalance_",
      "outputs": [
        {
          "internalType": "uint256",
          "name": "",
          "type": "uint256"
        }
      ],
      "stateMutability": "view",
      "type": "function",
      "constant": true
    },
    {
      "inputs": [
        {
          "internalType": "address",
          "name": "",
          "type": "address"
        }
      ],
      "name": "activeBet",
      "outputs": [
        {
          "internalType": "uint256",
          "name": "for0",
          "type": "uint256"
        },
        {
          "internalType": "uint256",
          "name": "for1",
          "type": "uint256"
        }
      ],
      "stateMutability": "view",
      "type": "function",
      "constant": true
    },
    {
      "inputs": [],
      "name": "owner",
      "outputs": [
        {
          "internalType": "address",
          "name": "",
          "type": "address"
        }
      ],
      "stateMutability": "view",
      "type": "function",
      "constant": true
    },
    {
      "inputs": [
        {
          "internalType": "address",
          "name": "",
          "type": "address"
        }
      ],
      "name": "playerHistory",
      "outputs": [
        {
          "internalType": "uint256",
          "name": "totalBalance",
          "type": "uint256"
        },
        {
          "internalType": "uint256",
          "name": "totalTopUp",
          "type": "uint256"
        },
        {
          "internalType": "uint256",
          "name": "totalWithdrawn",
          "type": "uint256"
        },
        {
          "internalType": "uint256",
          "name": "totalSpentAmount",
          "type": "uint256"
        },
        {
          "internalType": "uint256",
          "name": "totalWinAmount",
          "type": "uint256"
        },
        {
          "internalType": "uint256",
          "name": "totalGames",
          "type": "uint256"
        },
        {
          "internalType": "uint256",
          "name": "totalWins",
          "type": "uint256"
        },
        {
          "internalType": "uint256",
          "name": "lastWinAmount",
          "type": "uint256"
        }
      ],
      "stateMutability": "view",
      "type": "function",
      "constant": true
    },
    {
      "inputs": [
        {
          "internalType": "uint256",
          "name": "eth",
          "type": "uint256"
        }
      ],
      "name": "eth2Wei",
      "outputs": [
        {
          "internalType": "uint256",
          "name": "",
          "type": "uint256"
        }
      ],
      "stateMutability": "pure",
      "type": "function",
      "constant": true
    },
    {
      "inputs": [
        {
          "internalType": "uint256",
          "name": "topUp_eth",
          "type": "uint256"
        }
      ],
      "name": "ownerFundUp_eth",
      "outputs": [],
      "stateMutability": "payable",
      "type": "function",
      "payable": true
    },
    {
      "inputs": [
        {
          "internalType": "uint256",
          "name": "topUp_eth",
          "type": "uint256"
        }
      ],
      "name": "playerTopUp_eth",
      "outputs": [],
      "stateMutability": "payable",
      "type": "function",
      "payable": true
    },
    {
      "inputs": [],
      "name": "getPlayerHistory",
      "outputs": [
        {
          "internalType": "uint256",
          "name": "",
          "type": "uint256"
        },
        {
          "internalType": "uint256",
          "name": "",
          "type": "uint256"
        },
        {
          "internalType": "uint256",
          "name": "",
          "type": "uint256"
        },
        {
          "internalType": "uint256",
          "name": "",
          "type": "uint256"
        },
        {
          "internalType": "uint256",
          "name": "",
          "type": "uint256"
        },
        {
          "internalType": "uint256",
          "name": "",
          "type": "uint256"
        },
        {
          "internalType": "uint256",
          "name": "",
          "type": "uint256"
        },
        {
          "internalType": "uint256",
          "name": "",
          "type": "uint256"
        }
      ],
      "stateMutability": "view",
      "type": "function",
      "constant": true
    },
    {
      "inputs": [],
      "name": "getContractBalance",
      "outputs": [
        {
          "internalType": "uint256",
          "name": "",
          "type": "uint256"
        }
      ],
      "stateMutability": "view",
      "type": "function",
      "constant": true
    },
    {
      "inputs": [],
      "name": "get_totalAllPlayerBalance_",
      "outputs": [
        {
          "internalType": "uint256",
          "name": "",
          "type": "uint256"
        }
      ],
      "stateMutability": "view",
      "type": "function",
      "constant": true
    },
    {
      "inputs": [],
      "name": "contractPlayableFund",
      "outputs": [
        {
          "internalType": "uint256",
          "name": "",
          "type": "uint256"
        }
      ],
      "stateMutability": "view",
      "type": "function",
      "constant": true
    },
    {
      "inputs": [],
      "name": "playerPlayableFund",
      "outputs": [
        {
          "internalType": "uint256",
          "name": "",
          "type": "uint256"
        }
      ],
      "stateMutability": "view",
      "type": "function",
      "constant": true
    },
    {
      "inputs": [
        {
          "internalType": "uint256[]",
          "name": "betAmount_eth",
          "type": "uint256[]"
        }
      ],
      "name": "createMyBet",
      "outputs": [
        {
          "internalType": "uint256",
          "name": "",
          "type": "uint256"
        },
        {
          "internalType": "uint256",
          "name": "",
          "type": "uint256"
        }
      ],
      "stateMutability": "nonpayable",
      "type": "function"
    },
    {
      "inputs": [],
      "name": "getMyBet",
      "outputs": [
        {
          "internalType": "uint256",
          "name": "",
          "type": "uint256"
        },
        {
          "internalType": "uint256",
          "name": "",
          "type": "uint256"
        }
      ],
      "stateMutability": "view",
      "type": "function",
      "constant": true
    },
    {
      "inputs": [],
      "name": "playerTossCoin",
      "outputs": [
        {
          "internalType": "uint256",
          "name": "",
          "type": "uint256"
        }
      ],
      "stateMutability": "nonpayable",
      "type": "function"
    },
    {
      "inputs": [],
      "name": "ownerWithdrawAll",
      "outputs": [
        {
          "internalType": "uint256",
          "name": "",
          "type": "uint256"
        }
      ],
      "stateMutability": "nonpayable",
      "type": "function"
    },
    {
      "inputs": [],
      "name": "playerWithdrawAll",
      "outputs": [
        {
          "internalType": "uint256",
          "name": "",
          "type": "uint256"
        }
      ],
      "stateMutability": "nonpayable",
      "type": "function"
    }
  ],
  "bytecode": "0x60806040526103e8600555600360065534801561001b57600080fd5b50336000806101000a81548173ffffffffffffffffffffffffffffffffffffffff021916908373ffffffffffffffffffffffffffffffffffffffff160217905550611cc78061006b6000396000f3fe6080604052600436106101095760003560e01c80638da5cb5b11610095578063d4382ce411610064578063d4382ce4146104d4578063e0d5af9414610523578063e3c128721461054e578063e57acb35146105aa578063fdc8e53c146105d557610109565b80638da5cb5b1461034057806394ebe6081461039757806398b8b5da146103c2578063b24b05f8146104a257610109565b806320912e38116100dc57806320912e38146102665780633c50b913146102915780636f9fb98a146102bc5780637417df70146102e75780638085688c1461031557610109565b80630a39a58e1461010e5780630da2779014610139578063180bfdf6146101cf5780631c7ff1ba146101fa575b600080fd5b34801561011a57600080fd5b50610123610603565b6040518082815260200191505060405180910390f35b34801561014557600080fd5b506101886004803603602081101561015c57600080fd5b81019080803573ffffffffffffffffffffffffffffffffffffffff169060200190929190505050610609565b604051808981526020018881526020018781526020018681526020018581526020018481526020018381526020018281526020019850505050505050505060405180910390f35b3480156101db57600080fd5b506101e4610651565b6040518082815260200191505060405180910390f35b34801561020657600080fd5b506102496004803603602081101561021d57600080fd5b81019080803573ffffffffffffffffffffffffffffffffffffffff169060200190929190505050610657565b604051808381526020018281526020019250505060405180910390f35b34801561027257600080fd5b5061027b61067b565b6040518082815260200191505060405180910390f35b34801561029d57600080fd5b506102a661069d565b6040518082815260200191505060405180910390f35b3480156102c857600080fd5b506102d1610747565b6040518082815260200191505060405180910390f35b610313600480360360208110156102fd57600080fd5b8101908080359060200190929190505050610751565b005b34801561032157600080fd5b5061032a61084e565b6040518082815260200191505060405180910390f35b34801561034c57600080fd5b50610355610ad6565b604051808273ffffffffffffffffffffffffffffffffffffffff1673ffffffffffffffffffffffffffffffffffffffff16815260200191505060405180910390f35b3480156103a357600080fd5b506103ac610afb565b6040518082815260200191505060405180910390f35b3480156103ce57600080fd5b50610485600480360360208110156103e557600080fd5b810190808035906020019064010000000081111561040257600080fd5b82018360208201111561041457600080fd5b8035906020019184602083028401116401000000008311171561043657600080fd5b919080806020026020016040519081016040528093929190818152602001838360200280828437600081840152601f19601f820116905080830192505050505050509192919290505050610c6f565b604051808381526020018281526020019250505060405180910390f35b3480156104ae57600080fd5b506104b7611055565b604051808381526020018281526020019250505060405180910390f35b3480156104e057600080fd5b5061050d600480360360208110156104f757600080fd5b81019080803590602001909291905050506110e6565b6040518082815260200191505060405180910390f35b34801561052f57600080fd5b506105386110fa565b6040518082815260200191505060405180910390f35b34801561055a57600080fd5b506105636111bf565b604051808981526020018881526020018781526020018681526020018581526020018481526020018381526020018281526020019850505050505050505060405180910390f35b3480156105b657600080fd5b506105bf611477565b6040518082815260200191505060405180910390f35b610601600480360360208110156105eb57600080fd5b8101908080359060200190929190505050611481565b005b60015481565b60046020528060005260406000206000915090508060000154908060010154908060020154908060030154908060040154908060050154908060060154908060070154905088565b60025481565b60036020528060005260406000206000915090508060000154908060010154905082565b6000806001541415610690576000905061069a565b6002546001540390505b90565b6000806106a861067b565b905080600460003373ffffffffffffffffffffffffffffffffffffffff1673ffffffffffffffffffffffffffffffffffffffff16815260200190815260200160002060000154101561073f57600460003373ffffffffffffffffffffffffffffffffffffffff1673ffffffffffffffffffffffffffffffffffffffff16815260200190815260200160002060000154915050610744565b809150505b90565b6000600154905090565b6000809054906101000a900473ffffffffffffffffffffffffffffffffffffffff1673ffffffffffffffffffffffffffffffffffffffff163373ffffffffffffffffffffffffffffffffffffffff16146107aa57600080fd5b6107b3816110e6565b3414610827576040517f08c379a000000000000000000000000000000000000000000000000000000000815260040180806020018281038252601d8152602001807f6d73672e76616c756520213d20746f7055705f657468202a203165313600000081525060200191505060405180910390fd5b610830816110e6565b341461083b57600080fd5b3460016000828254019250508190555050565b600061085861157d565b6108ca576040517f08c379a00000000000000000000000000000000000000000000000000000000081526004018080602001828103825260188152602001807f4e6f742076616c696420506c617965722042616c616e6365000000000000000081525060200191505060405180910390fd5b60006108d46116e8565b905060018114806108e55750600081145b6108ee57600080fd5b6000600360003373ffffffffffffffffffffffffffffffffffffffff1673ffffffffffffffffffffffffffffffffffffffff16815260200190815260200160002060010154118061098157506000600360003373ffffffffffffffffffffffffffffffffffffffff1673ffffffffffffffffffffffffffffffffffffffff16815260200190815260200160002060000154115b6109d6576040517f08c379a0000000000000000000000000000000000000000000000000000000008152600401808060200182810382526023815260200180611c6f6023913960400191505060405180910390fd5b60008090508160011415610a33576002600360003373ffffffffffffffffffffffffffffffffffffffff1673ffffffffffffffffffffffffffffffffffffffff168152602001908152602001600020600101540281019050610a7e565b6002600360003373ffffffffffffffffffffffffffffffffffffffff1673ffffffffffffffffffffffffffffffffffffffff1681526020019081526020016000206000015402810190505b610a866116fa565b610a8f8161178c565b7fe283fa50c44993d4965e7a178b27ecadf2f5154640d61a798dcf15df61f36c928183604051808381526020018281526020019250505060405180910390a1809250505090565b6000809054906101000a900473ffffffffffffffffffffffffffffffffffffffff1681565b6000610b056118db565b610b0d61157d565b610b1657600080fd5b610b1e611ad6565b610b73576040517f08c379a000000000000000000000000000000000000000000000000000000000815260040180806020018281038252602e815260200180611c16602e913960400191505060405180910390fd5b6000600460003373ffffffffffffffffffffffffffffffffffffffff1673ffffffffffffffffffffffffffffffffffffffff16815260200190815260200160002060000154905080600460003373ffffffffffffffffffffffffffffffffffffffff1673ffffffffffffffffffffffffffffffffffffffff1681526020019081526020016000206002018190555080600160008282540392505081905550610c196118db565b610c21611b70565b3373ffffffffffffffffffffffffffffffffffffffff166108fc829081150290604051600060405180830381858888f19350505050158015610c67573d6000803e3d6000fd5b508091505090565b600080610c7a6118db565b610c8261157d565b610cf4576040517f08c379a00000000000000000000000000000000000000000000000000000000081526004018080602001828103825260188152602001807f4e6f742076616c696420506c617965722042616c616e6365000000000000000081525060200191505060405180910390fd5b6000610d1384600081518110610d0657fe5b60200260200101516110e6565b90506000610d3485600181518110610d2757fe5b60200260200101516110e6565b90506000610d4061069d565b90506005548284011015610dbc576040517f08c379a00000000000000000000000000000000000000000000000000000000081526004018080602001828103825260148152602001807f42657420616d6f756e7420746f6f20736d616c6c00000000000000000000000081525060200191505060405180910390fd5b828110158015610dcc5750818110155b610e21576040517f08c379a000000000000000000000000000000000000000000000000000000000815260040180806020018281038252602b815260200180611c44602b913960400191505060405180910390fd5b610e2c828401611bba565b81600360003373ffffffffffffffffffffffffffffffffffffffff1673ffffffffffffffffffffffffffffffffffffffff1681526020019081526020016000206001016000828254019250508190555082600360003373ffffffffffffffffffffffffffffffffffffffff1673ffffffffffffffffffffffffffffffffffffffff168152602001908152602001600020600001600082825401925050819055507f708e20749d242a7a40f190aed9586d298609a0391699344a787a3fb0006f295a600360003373ffffffffffffffffffffffffffffffffffffffff1673ffffffffffffffffffffffffffffffffffffffff16815260200190815260200160002060000154600360003373ffffffffffffffffffffffffffffffffffffffff1673ffffffffffffffffffffffffffffffffffffffff1681526020019081526020016000206001015433604051808481526020018381526020018273ffffffffffffffffffffffffffffffffffffffff1673ffffffffffffffffffffffffffffffffffffffff168152602001935050505060405180910390a1600360003373ffffffffffffffffffffffffffffffffffffffff1673ffffffffffffffffffffffffffffffffffffffff16815260200190815260200160002060000154600360003373ffffffffffffffffffffffffffffffffffffffff1673ffffffffffffffffffffffffffffffffffffffff1681526020019081526020016000206001015494509450505050915091565b600080600360003373ffffffffffffffffffffffffffffffffffffffff1673ffffffffffffffffffffffffffffffffffffffff16815260200190815260200160002060000154600360003373ffffffffffffffffffffffffffffffffffffffff1673ffffffffffffffffffffffffffffffffffffffff16815260200190815260200160002060010154915091509091565b6000670de0b6b3a764000082029050919050565b60008060009054906101000a900473ffffffffffffffffffffffffffffffffffffffff1673ffffffffffffffffffffffffffffffffffffffff163373ffffffffffffffffffffffffffffffffffffffff161461115557600080fd5b600061115f610747565b9050600060028190555060006001819055503373ffffffffffffffffffffffffffffffffffffffff166108fc829081150290604051600060405180830381858888f193505050501580156111b7573d6000803e3d6000fd5b508091505090565b6000806000806000806000806111d361157d565b611245576040517f08c379a00000000000000000000000000000000000000000000000000000000081526004018080602001828103825260188152602001807f4e6f742076616c696420506c617965722042616c616e6365000000000000000081525060200191505060405180910390fd5b600460003373ffffffffffffffffffffffffffffffffffffffff1673ffffffffffffffffffffffffffffffffffffffff16815260200190815260200160002060000154600460003373ffffffffffffffffffffffffffffffffffffffff1673ffffffffffffffffffffffffffffffffffffffff16815260200190815260200160002060010154600460003373ffffffffffffffffffffffffffffffffffffffff1673ffffffffffffffffffffffffffffffffffffffff16815260200190815260200160002060020154600460003373ffffffffffffffffffffffffffffffffffffffff1673ffffffffffffffffffffffffffffffffffffffff16815260200190815260200160002060030154600460003373ffffffffffffffffffffffffffffffffffffffff1673ffffffffffffffffffffffffffffffffffffffff16815260200190815260200160002060040154600460003373ffffffffffffffffffffffffffffffffffffffff1673ffffffffffffffffffffffffffffffffffffffff16815260200190815260200160002060050154600460003373ffffffffffffffffffffffffffffffffffffffff1673ffffffffffffffffffffffffffffffffffffffff16815260200190815260200160002060060154600460003373ffffffffffffffffffffffffffffffffffffffff1673ffffffffffffffffffffffffffffffffffffffff16815260200190815260200160002060070154975097509750975097509750975097509091929394959697565b6000600254905090565b61148a816110e6565b34146114fe576040517f08c379a000000000000000000000000000000000000000000000000000000000815260040180806020018281038252601d8152602001807f6d73672e76616c756520213d20746f7055705f657468202a203165313600000081525060200191505060405180910390fd5b611507816110e6565b341461151257600080fd5b3460016000828254019250508190555034600460003373ffffffffffffffffffffffffffffffffffffffff1673ffffffffffffffffffffffffffffffffffffffff1681526020019081526020016000206001016000828254019250508190555061157a6118db565b50565b6000600460003373ffffffffffffffffffffffffffffffffffffffff1673ffffffffffffffffffffffffffffffffffffffff16815260200190815260200160002060040154600460003373ffffffffffffffffffffffffffffffffffffffff1673ffffffffffffffffffffffffffffffffffffffff16815260200190815260200160002060030154600460003373ffffffffffffffffffffffffffffffffffffffff1673ffffffffffffffffffffffffffffffffffffffff16815260200190815260200160002060020154600460003373ffffffffffffffffffffffffffffffffffffffff1673ffffffffffffffffffffffffffffffffffffffff16815260200190815260200160002060010154030301600460003373ffffffffffffffffffffffffffffffffffffffff1673ffffffffffffffffffffffffffffffffffffffff1681526020019081526020016000206000015414156116e057600190506116e5565b600090505b90565b6000600242816116f457fe5b06905090565b6000600360003373ffffffffffffffffffffffffffffffffffffffff1673ffffffffffffffffffffffffffffffffffffffff168152602001908152602001600020600001819055506000600360003373ffffffffffffffffffffffffffffffffffffffff1673ffffffffffffffffffffffffffffffffffffffff16815260200190815260200160002060010181905550565b600460003373ffffffffffffffffffffffffffffffffffffffff1673ffffffffffffffffffffffffffffffffffffffff1681526020019081526020016000206005016000815480929190600101919050555060008111156118895780600460003373ffffffffffffffffffffffffffffffffffffffff1673ffffffffffffffffffffffffffffffffffffffff168152602001908152602001600020600401600082825401925050819055506001600460003373ffffffffffffffffffffffffffffffffffffffff1673ffffffffffffffffffffffffffffffffffffffff168152602001908152602001600020600601600082825401925050819055505b80600460003373ffffffffffffffffffffffffffffffffffffffff1673ffffffffffffffffffffffffffffffffffffffff168152602001908152602001600020600701819055506118d86118db565b50565b600460003373ffffffffffffffffffffffffffffffffffffffff1673ffffffffffffffffffffffffffffffffffffffff16815260200190815260200160002060000154600260008282540392505081905550600460003373ffffffffffffffffffffffffffffffffffffffff1673ffffffffffffffffffffffffffffffffffffffff16815260200190815260200160002060040154600460003373ffffffffffffffffffffffffffffffffffffffff1673ffffffffffffffffffffffffffffffffffffffff16815260200190815260200160002060030154600460003373ffffffffffffffffffffffffffffffffffffffff1673ffffffffffffffffffffffffffffffffffffffff16815260200190815260200160002060020154600460003373ffffffffffffffffffffffffffffffffffffffff1673ffffffffffffffffffffffffffffffffffffffff16815260200190815260200160002060010154030301600460003373ffffffffffffffffffffffffffffffffffffffff1673ffffffffffffffffffffffffffffffffffffffff16815260200190815260200160002060000181905550600460003373ffffffffffffffffffffffffffffffffffffffff1673ffffffffffffffffffffffffffffffffffffffff16815260200190815260200160002060000154600260008282540192505081905550565b600080600360003373ffffffffffffffffffffffffffffffffffffffff1673ffffffffffffffffffffffffffffffffffffffff16815260200190815260200160002060000154148015611b6b57506000600360003373ffffffffffffffffffffffffffffffffffffffff1673ffffffffffffffffffffffffffffffffffffffff16815260200190815260200160002060010154145b905090565b6000600460003373ffffffffffffffffffffffffffffffffffffffff1673ffffffffffffffffffffffffffffffffffffffff16815260200190815260200160002060000181905550565b80600460003373ffffffffffffffffffffffffffffffffffffffff1673ffffffffffffffffffffffffffffffffffffffff16815260200190815260200160002060030160008282540192505081905550611c126118db565b5056fe506c656173652043616e63656c20796f75722062657473206f7220436c69636b20466c697020427574746f6e2e2e544f4f20424947204245542c204e4f5420454e4f5547482042414c414e4345204f4e20434f4e54524143544e6f2062657420706c616365642c20706c61736520706c616365207468652062657421a264697066735822122080f5f887d3d2ae6edfa583768e51de3f3973a71b7d1d00da9e62b592fed9ffe164736f6c634300060a0033",
  "immutableReferences": {},
  "source": "//SPDX-License-Identifier: UNLICENSED\r\n\r\nimport \"./Ownable.sol\";\r\npragma solidity 0.6.10;\r\n\r\ncontract CoinFlip is Ownable{\r\n\r\n    uint public _contractBalance_;\r\n    uint public _totalAllPlayerBalance_;\r\n\r\n    // status of active bets; Each player can have multiple bets before each flip\r\n    //Update each time player submited new bet\r\n\r\n    struct Bets  {\r\n        uint for0;  //wei amount bet for 0\r\n        uint for1;  //wei amount bet for 1\r\n        }\r\n\r\n    //list of all activities of a player (update after finished solving each bet)\r\n    struct betHistory {\r\n        uint totalBalance;\r\n        uint totalTopUp;\r\n        uint totalWithdrawn;\r\n        uint totalSpentAmount;\r\n        uint totalWinAmount;\r\n        uint totalGames;\r\n        uint totalWins;\r\n        uint lastWinAmount;\r\n    }\r\n\r\n    //betList is a list of all active bets\r\n    // Should limit storage size somehow to avoid everflow in future?\r\n    mapping (address => Bets) public activeBet;\r\n\r\n    //playerList store information\r\n    // Should limit storage size somehow to avoid everflow in future?\r\n    mapping (address => betHistory) public playerHistory;\r\n\r\n    //newBetCreated emit when created and not finished\r\n    event newBetCreated(uint betChoice, uint betAmount, address playerAddress);\r\n\r\n    //betFinished emit when\r\n    event betFinished(uint winAmount, uint result);\r\n\r\n    //common notice\r\n    event notice(string noticeString, uint noticeValue);\r\n\r\n    uint _minBetAmount = 1000; //All Amount are in Wei unless has _eth ending\r\n    uint _maxBetWaiting = 3; // Maximun number of bets for a player before toss coin\r\n\r\n    //Check Account Balance validity\r\n    function validPlayerBalance() private view returns(bool) {\r\n        if (playerHistory[msg.sender].totalBalance ==\r\n            playerHistory[msg.sender].totalTopUp - playerHistory[msg.sender].totalWithdrawn -\r\n            playerHistory[msg.sender].totalSpentAmount + playerHistory[msg.sender].totalWinAmount) {\r\n                return true;\r\n            } else {\r\n                return false;\r\n            }\r\n    }\r\n\r\n    function eth2Wei(uint eth) public pure returns(uint) {\r\n        return eth*1000000000000000000;\r\n    }\r\n\r\n    //Owner balance topUp\r\n    function ownerFundUp_eth(uint topUp_eth) public onlyOwner payable {\r\n\r\n        require(msg.value == eth2Wei(topUp_eth), \"msg.value != topUp_eth * 1e16\");\r\n        if (msg.value != eth2Wei(topUp_eth)) revert();\r\n\r\n        _contractBalance_ += msg.value ;\r\n    }\r\n\r\n\r\n    //Player account balance topUp\r\n    function playerTopUp_eth(uint topUp_eth) public payable {\r\n        //1eth = 1000000000000000000 wei\r\n        require(msg.value == eth2Wei(topUp_eth), \"msg.value != topUp_eth * 1e16\");\r\n        if (msg.value != eth2Wei(topUp_eth)) revert();\r\n\r\n        _contractBalance_ += msg.value ;\r\n        playerHistory[msg.sender].totalTopUp += msg.value;\r\n        updateMyBalance();\r\n    }\r\n\r\n    //Calculate values each time player status changed\r\n    function updateMyBalance() private {\r\n        _totalAllPlayerBalance_ -= playerHistory[msg.sender].totalBalance;\r\n        playerHistory[msg.sender].totalBalance =\r\n        playerHistory[msg.sender].totalTopUp -\r\n        playerHistory[msg.sender].totalWithdrawn -\r\n        playerHistory[msg.sender].totalSpentAmount +\r\n        playerHistory[msg.sender].totalWinAmount;\r\n        _totalAllPlayerBalance_ += playerHistory[msg.sender].totalBalance;\r\n        }\r\n\r\n    function resetMyBalance() private  {\r\n        playerHistory[msg.sender].totalBalance = 0;\r\n    }\r\n\r\n    function mySpentBalance(uint spentAmount) private  {\r\n        playerHistory[msg.sender].totalSpentAmount += spentAmount;\r\n        updateMyBalance();\r\n    }\r\n\r\n    function myWinBalance(uint winAmount) private  {\r\n        playerHistory[msg.sender].totalGames++;\r\n        if (winAmount>0) {\r\n            playerHistory[msg.sender].totalWinAmount += winAmount;\r\n            playerHistory[msg.sender].totalWins += 1;\r\n        }\r\n        playerHistory[msg.sender].lastWinAmount = winAmount;\r\n        updateMyBalance();\r\n    }\r\n\r\n    function getPlayerHistory() public view  returns(uint,uint,uint,uint,uint,uint,uint,uint) {\r\n        require(validPlayerBalance(), \"Not valid Player Balance\");\r\n        return  (   playerHistory[msg.sender].totalBalance,\r\n                    playerHistory[msg.sender].totalTopUp,\r\n                    playerHistory[msg.sender].totalWithdrawn,\r\n                    playerHistory[msg.sender].totalSpentAmount,\r\n                    playerHistory[msg.sender].totalWinAmount,\r\n                    playerHistory[msg.sender].totalGames,\r\n                    playerHistory[msg.sender].totalWins,\r\n                    playerHistory[msg.sender].lastWinAmount );\r\n    }\r\n\r\n    function getContractBalance() public view returns (uint) {\r\n      return _contractBalance_;\r\n    }\r\n\r\n\r\n    function get_totalAllPlayerBalance_() public view returns (uint) {\r\n      return _totalAllPlayerBalance_;\r\n    }\r\n\r\n    function contractPlayableFund() public view returns(uint) {\r\n      if (_contractBalance_ == 0) {\r\n        return 0;\r\n      }\r\n      else {\r\n        return _contractBalance_ - _totalAllPlayerBalance_;\r\n      }\r\n    }\r\n\r\n    function playerPlayableFund() public view returns(uint) {\r\n        uint contractPlayable = contractPlayableFund();\r\n        if (uint(playerHistory[msg.sender].totalBalance) < contractPlayable) {\r\n            return playerHistory[msg.sender].totalBalance;\r\n        }\r\n        else {\r\n            return contractPlayable;\r\n        }\r\n    }\r\n\r\n\r\n    function createMyBet(uint[] memory betAmount_eth) public returns (uint, uint){\r\n\r\n        updateMyBalance();\r\n        require(validPlayerBalance(), \"Not valid Player Balance\");\r\n\r\n        uint betAmount_0= eth2Wei(betAmount_eth[0]);\r\n        uint betAmount_1= eth2Wei(betAmount_eth[1]);\r\n\r\n        uint playerPlayable = playerPlayableFund();\r\n        require(betAmount_0+betAmount_1 >= _minBetAmount, \"Bet amount too small\");\r\n        require((playerPlayable >= uint(betAmount_0) && (playerPlayable >= uint(betAmount_1))) ,\r\n                    \"TOO BIG BET, NOT ENOUGH BALANCE ON CONTRACT\");\r\n\r\n        mySpentBalance(betAmount_0+betAmount_1); //Deduct spent amount from player balance\r\n\r\n        activeBet[msg.sender].for1 += betAmount_1;\r\n        activeBet[msg.sender].for0 += betAmount_0;\r\n\r\n        emit newBetCreated(activeBet[msg.sender].for0, activeBet[msg.sender].for1, msg.sender);\r\n        return (activeBet[msg.sender].for0, activeBet[msg.sender].for1);\r\n    }\r\n\r\n\r\n    function getMyBet() public view returns(uint, uint)  {\r\n        return ( activeBet[msg.sender].for0, activeBet[msg.sender].for1 );\r\n    }\r\n\r\n    function random() private view returns(uint) {\r\n        return now % 2;\r\n    }\r\n\r\n    function resetPlayerBetList() private {\r\n        activeBet[msg.sender].for0 = 0;\r\n        activeBet[msg.sender].for1 = 0;\r\n    }\r\n\r\n    function playerBetListIsEmpty() private view returns(bool) {\r\n        return (activeBet[msg.sender].for0 == 0 && activeBet[msg.sender].for1 == 0);\r\n    }\r\n\r\n    function playerTossCoin() public returns(uint) {\r\n\r\n        require(validPlayerBalance(), \"Not valid Player Balance\");\r\n        uint result = random();\r\n        require(    result == 1 || result==0);\r\n        require(    activeBet[msg.sender].for1 > 0 || activeBet[msg.sender].for0 > 0,\r\n                    \"No bet placed, plase place the bet!\");\r\n\r\n        uint winAmount = 0;\r\n        if (1 == result) {\r\n            winAmount += activeBet[msg.sender].for1 * 2;\r\n            }\r\n        else {\r\n            winAmount += activeBet[msg.sender].for0 * 2;\r\n        }\r\n\r\n        resetPlayerBetList();\r\n        myWinBalance(winAmount);\r\n\r\n        emit betFinished(winAmount, result);\r\n        return (winAmount);\r\n    }\r\n\r\n    function ownerWithdrawAll() public onlyOwner returns(uint) {\r\n       uint toTransfer = getContractBalance();\r\n\r\n       //Should cancel all bets before withdrawn\r\n       //Should return all players ballances before withdrawn\r\n       _totalAllPlayerBalance_ = 0;\r\n       _contractBalance_ = 0;\r\n\r\n       msg.sender.transfer(toTransfer);\r\n       return toTransfer;\r\n    }\r\n\r\n    function playerWithdrawAll() public  returns(uint) {\r\n\r\n        updateMyBalance();\r\n\r\n        require(validPlayerBalance());\r\n\r\n        require(playerBetListIsEmpty(), \"Please Cancel your bets or Click Flip Button..\");\r\n\r\n        uint toTransfer = playerHistory[msg.sender].totalBalance;\r\n\r\n        playerHistory[msg.sender].totalWithdrawn = toTransfer;\r\n\r\n        _contractBalance_ -= toTransfer;\r\n\r\n        updateMyBalance();\r\n\r\n        resetMyBalance();\r\n\r\n        msg.sender.transfer(toTransfer);\r\n\r\n        return toTransfer;\r\n    }\r\n\r\n}\r\n",
  "sourcePath": "D:\\@TUNG 2020\\IVANONTECH\\SOLIDITY 201\\coinFlip4\\contracts\\CoinFlip.sol",
  "compiler": {
    "name": "solc",
    "version": "0.6.10+commit.00c0fcaf.Emscripten.clang"
  },
  "schemaVersion": "3.2.0",
  "updatedAt": "2020-06-23T09:56:21.055Z",
  "networkType": "ethereum",
  "devdoc": {
    "methods": {}
  },
  "userdoc": {
    "methods": {}
  }
}