{
  "contractName": "CoinFlip",
  "abi": [
    {
      "anonymous": false,
      "inputs": [
        {
          "indexed": false,
          "internalType": "uint256",
          "name": "betAmount",
          "type": "uint256"
        },
        {
          "indexed": false,
          "internalType": "uint256",
          "name": "winAmount",
          "type": "uint256"
        },
        {
          "indexed": false,
          "internalType": "uint256",
          "name": "result",
          "type": "uint256"
        }
      ],
      "name": "betFinished",
      "type": "event"
    },
    {
      "anonymous": false,
      "inputs": [
        {
          "indexed": false,
          "internalType": "uint256",
          "name": "betChoice",
          "type": "uint256"
        },
        {
          "indexed": false,
          "internalType": "uint256",
          "name": "betAmount",
          "type": "uint256"
        },
        {
          "indexed": false,
          "internalType": "address",
          "name": "playerAddress",
          "type": "address"
        }
      ],
      "name": "newBetCreated",
      "type": "event"
    },
    {
      "constant": true,
      "inputs": [],
      "name": "_contractBalance_",
      "outputs": [
        {
          "internalType": "uint256",
          "name": "",
          "type": "uint256"
        }
      ],
      "payable": false,
      "stateMutability": "view",
      "type": "function"
    },
    {
      "constant": true,
      "inputs": [],
      "name": "owner",
      "outputs": [
        {
          "internalType": "address",
          "name": "",
          "type": "address"
        }
      ],
      "payable": false,
      "stateMutability": "view",
      "type": "function"
    },
    {
      "constant": true,
      "inputs": [
        {
          "internalType": "address",
          "name": "",
          "type": "address"
        }
      ],
      "name": "playerHistory",
      "outputs": [
        {
          "internalType": "uint256",
          "name": "totalBalance",
          "type": "uint256"
        },
        {
          "internalType": "uint256",
          "name": "totalTopUp",
          "type": "uint256"
        },
        {
          "internalType": "uint256",
          "name": "totalSpentAmount",
          "type": "uint256"
        },
        {
          "internalType": "uint256",
          "name": "totalWinAmount",
          "type": "uint256"
        },
        {
          "internalType": "uint256",
          "name": "totalGames",
          "type": "uint256"
        },
        {
          "internalType": "uint256",
          "name": "totalWins",
          "type": "uint256"
        },
        {
          "internalType": "uint256",
          "name": "lastWinAmount",
          "type": "uint256"
        }
      ],
      "payable": false,
      "stateMutability": "view",
      "type": "function"
    },
    {
      "constant": false,
      "inputs": [],
      "name": "topUp",
      "outputs": [],
      "payable": true,
      "stateMutability": "payable",
      "type": "function"
    },
    {
      "constant": true,
      "inputs": [],
      "name": "balance",
      "outputs": [
        {
          "internalType": "uint256",
          "name": "",
          "type": "uint256"
        }
      ],
      "payable": false,
      "stateMutability": "view",
      "type": "function"
    },
    {
      "constant": true,
      "inputs": [
        {
          "internalType": "address",
          "name": "playerAddress",
          "type": "address"
        }
      ],
      "name": "playerReport",
      "outputs": [
        {
          "internalType": "uint256",
          "name": "",
          "type": "uint256"
        },
        {
          "internalType": "uint256",
          "name": "",
          "type": "uint256"
        },
        {
          "internalType": "uint256",
          "name": "",
          "type": "uint256"
        },
        {
          "internalType": "uint256",
          "name": "",
          "type": "uint256"
        },
        {
          "internalType": "uint256",
          "name": "",
          "type": "uint256"
        },
        {
          "internalType": "uint256",
          "name": "",
          "type": "uint256"
        },
        {
          "internalType": "uint256",
          "name": "",
          "type": "uint256"
        }
      ],
      "payable": false,
      "stateMutability": "view",
      "type": "function"
    },
    {
      "constant": false,
      "inputs": [
        {
          "internalType": "uint256",
          "name": "betChoice",
          "type": "uint256"
        }
      ],
      "name": "createBet",
      "outputs": [],
      "payable": true,
      "stateMutability": "payable",
      "type": "function"
    },
    {
      "constant": false,
      "inputs": [
        {
          "internalType": "uint256",
          "name": "betChoice",
          "type": "uint256"
        },
        {
          "internalType": "uint256",
          "name": "betAmount",
          "type": "uint256"
        },
        {
          "internalType": "address",
          "name": "playerAddress",
          "type": "address"
        }
      ],
      "name": "createBetForPlayer",
      "outputs": [],
      "payable": false,
      "stateMutability": "nonpayable",
      "type": "function"
    },
    {
      "constant": true,
      "inputs": [],
      "name": "getMyBet",
      "outputs": [
        {
          "internalType": "uint256[]",
          "name": "",
          "type": "uint256[]"
        },
        {
          "internalType": "uint256[]",
          "name": "",
          "type": "uint256[]"
        }
      ],
      "payable": false,
      "stateMutability": "view",
      "type": "function"
    },
    {
      "constant": true,
      "inputs": [
        {
          "internalType": "address",
          "name": "playerAddress",
          "type": "address"
        }
      ],
      "name": "getPlayerBet",
      "outputs": [
        {
          "internalType": "uint256[]",
          "name": "",
          "type": "uint256[]"
        },
        {
          "internalType": "uint256[]",
          "name": "",
          "type": "uint256[]"
        }
      ],
      "payable": false,
      "stateMutability": "view",
      "type": "function"
    },
    {
      "constant": true,
      "inputs": [],
      "name": "getMyHistory",
      "outputs": [
        {
          "internalType": "uint256",
          "name": "",
          "type": "uint256"
        },
        {
          "internalType": "uint256",
          "name": "",
          "type": "uint256"
        },
        {
          "internalType": "uint256",
          "name": "",
          "type": "uint256"
        },
        {
          "internalType": "uint256",
          "name": "",
          "type": "uint256"
        },
        {
          "internalType": "uint256",
          "name": "",
          "type": "uint256"
        }
      ],
      "payable": false,
      "stateMutability": "view",
      "type": "function"
    },
    {
      "constant": false,
      "inputs": [],
      "name": "tossCoin",
      "outputs": [],
      "payable": false,
      "stateMutability": "nonpayable",
      "type": "function"
    },
    {
      "constant": false,
      "inputs": [
        {
          "internalType": "address payable",
          "name": "playerAddress",
          "type": "address"
        }
      ],
      "name": "playerTossCoin",
      "outputs": [
        {
          "internalType": "uint256",
          "name": "",
          "type": "uint256"
        },
        {
          "internalType": "uint256",
          "name": "",
          "type": "uint256"
        },
        {
          "internalType": "uint256",
          "name": "",
          "type": "uint256"
        }
      ],
      "payable": false,
      "stateMutability": "nonpayable",
      "type": "function"
    }
  ],
  "bytecode": "0x60806040526103e8600455336000806101000a81548173ffffffffffffffffffffffffffffffffffffffff021916908373ffffffffffffffffffffffffffffffffffffffff160217905550611dd8806100596000396000f3fe6080604052600436106100c25760003560e01c8063ac793a601161007f578063b69ef8a811610059578063b69ef8a81461041a578063c137d64314610445578063d636816c14610533578063dc29f1de14610598576100c2565b8063ac793a6014610321578063b24b05f81461034f578063b41e8cad14610403576100c2565b8063054b58d1146100c75780630a39a58e1461013a5780630da27790146101655780634c6a1e15146101f45780635a148a86146102835780638da5cb5b146102ca575b600080fd5b3480156100d357600080fd5b50610116600480360360208110156100ea57600080fd5b81019080803573ffffffffffffffffffffffffffffffffffffffff1690602001909291905050506105a2565b60405180848152602001838152602001828152602001935050505060405180910390f35b34801561014657600080fd5b5061014f610a57565b6040518082815260200191505060405180910390f35b34801561017157600080fd5b506101b46004803603602081101561018857600080fd5b81019080803573ffffffffffffffffffffffffffffffffffffffff169060200190929190505050610a5d565b6040518088815260200187815260200186815260200185815260200184815260200183815260200182815260200197505050505050505060405180910390f35b34801561020057600080fd5b506102436004803603602081101561021757600080fd5b81019080803573ffffffffffffffffffffffffffffffffffffffff169060200190929190505050610a9f565b6040518088815260200187815260200186815260200185815260200184815260200183815260200182815260200197505050505050505060405180910390f35b34801561028f57600080fd5b50610298610dfc565b604051808681526020018581526020018481526020018381526020018281526020019550505050505060405180910390f35b3480156102d657600080fd5b506102df610f64565b604051808273ffffffffffffffffffffffffffffffffffffffff1673ffffffffffffffffffffffffffffffffffffffff16815260200191505060405180910390f35b61034d6004803603602081101561033757600080fd5b8101908080359060200190929190505050610f89565b005b34801561035b57600080fd5b50610364611001565b604051808060200180602001838103835285818151815260200191508051906020019060200280838360005b838110156103ab578082015181840152602081019050610390565b50505050905001838103825284818151815260200191508051906020019060200280838360005b838110156103ed5780820151818401526020810190506103d2565b5050505090500194505050505060405180910390f35b34801561040f57600080fd5b50610418611015565b005b34801561042657600080fd5b5061042f611023565b6040518082815260200191505060405180910390f35b34801561045157600080fd5b506104946004803603602081101561046857600080fd5b81019080803573ffffffffffffffffffffffffffffffffffffffff16906020019092919050505061102d565b604051808060200180602001838103835285818151815260200191508051906020019060200280838360005b838110156104db5780820151818401526020810190506104c0565b50505050905001838103825284818151815260200191508051906020019060200280838360005b8381101561051d578082015181840152602081019050610502565b5050505090500194505050505060405180910390f35b34801561053f57600080fd5b506105966004803603606081101561055657600080fd5b810190808035906020019092919080359060200190929190803573ffffffffffffffffffffffffffffffffffffffff169060200190929190505050611161565b005b6105a061142c565b005b6000806000806105b0611497565b90506000809050600080905060018314806105cb5750600083145b6105d457600080fd5b6000600260008973ffffffffffffffffffffffffffffffffffffffff1673ffffffffffffffffffffffffffffffffffffffff1681526020019081526020016000206000018054905011610672576040517f08c379a0000000000000000000000000000000000000000000000000000000008152600401808060200182810382526023815260200180611d4e6023913960400191505060405180910390fd5b6000600260008973ffffffffffffffffffffffffffffffffffffffff1673ffffffffffffffffffffffffffffffffffffffff1681526020019081526020016000206001018054905011610710576040517f08c379a0000000000000000000000000000000000000000000000000000000008152600401808060200182810382526023815260200180611d4e6023913960400191505060405180910390fd5b600260008873ffffffffffffffffffffffffffffffffffffffff1673ffffffffffffffffffffffffffffffffffffffff16815260200190815260200160002060000180549050600260008973ffffffffffffffffffffffffffffffffffffffff1673ffffffffffffffffffffffffffffffffffffffff168152602001908152602001600020600101805490501461080f576040517f08c379a000000000000000000000000000000000000000000000000000000000815260040180806020018281038252600e8152602001807f4572726f7220626574206461746100000000000000000000000000000000000081525060200191505060405180910390fd5b60008090505b600260008973ffffffffffffffffffffffffffffffffffffffff1673ffffffffffffffffffffffffffffffffffffffff1681526020019081526020016000206000018054905081101561098757600260008973ffffffffffffffffffffffffffffffffffffffff1673ffffffffffffffffffffffffffffffffffffffff16815260200190815260200160002060010181815481106108af57fe5b90600052602060002001548301925083600260008a73ffffffffffffffffffffffffffffffffffffffff1673ffffffffffffffffffffffffffffffffffffffff168152602001908152602001600020600001828154811061090c57fe5b9060005260206000200154141561097a57600260008973ffffffffffffffffffffffffffffffffffffffff1673ffffffffffffffffffffffffffffffffffffffff168152602001908152602001600020600101818154811061096a57fe5b9060005260206000200154820191505b8080600101915050610815565b5061099282826114a9565b61099a611641565b60008111156109fd5780600360008973ffffffffffffffffffffffffffffffffffffffff1673ffffffffffffffffffffffffffffffffffffffff168152602001908152602001600020600301600082825401925050819055506109fc876116c9565b5b7f0957d90febb3cf2ed06552f937058347e227571bae97c3f6281d23c67e31987f82828560405180848152602001838152602001828152602001935050505060405180910390a18181849550955095505050509193909250565b60015481565b60036020528060005260406000206000915090508060000154908060010154908060020154908060030154908060040154908060050154908060060154905087565b6000806000806000806000600360008973ffffffffffffffffffffffffffffffffffffffff1673ffffffffffffffffffffffffffffffffffffffff16815260200190815260200160002060030154600360008a73ffffffffffffffffffffffffffffffffffffffff1673ffffffffffffffffffffffffffffffffffffffff16815260200190815260200160002060020154600360008b73ffffffffffffffffffffffffffffffffffffffff1673ffffffffffffffffffffffffffffffffffffffff168152602001908152602001600020600101540301600360008a73ffffffffffffffffffffffffffffffffffffffff1673ffffffffffffffffffffffffffffffffffffffff1681526020019081526020016000206000015414610c0e576040517f08c379a0000000000000000000000000000000000000000000000000000000008152600401808060200182810382526021815260200180611cdb6021913960400191505060405180910390fd5b600360008973ffffffffffffffffffffffffffffffffffffffff1673ffffffffffffffffffffffffffffffffffffffff16815260200190815260200160002060000154600360008a73ffffffffffffffffffffffffffffffffffffffff1673ffffffffffffffffffffffffffffffffffffffff16815260200190815260200160002060010154600360008b73ffffffffffffffffffffffffffffffffffffffff1673ffffffffffffffffffffffffffffffffffffffff16815260200190815260200160002060020154600360008c73ffffffffffffffffffffffffffffffffffffffff1673ffffffffffffffffffffffffffffffffffffffff16815260200190815260200160002060030154600360008d73ffffffffffffffffffffffffffffffffffffffff1673ffffffffffffffffffffffffffffffffffffffff16815260200190815260200160002060040154600360008e73ffffffffffffffffffffffffffffffffffffffff1673ffffffffffffffffffffffffffffffffffffffff16815260200190815260200160002060050154600360008f73ffffffffffffffffffffffffffffffffffffffff1673ffffffffffffffffffffffffffffffffffffffff168152602001908152602001600020600601549650965096509650965096509650919395979092949650565b6000806000806000600360003373ffffffffffffffffffffffffffffffffffffffff1673ffffffffffffffffffffffffffffffffffffffff16815260200190815260200160002060020154600360003373ffffffffffffffffffffffffffffffffffffffff1673ffffffffffffffffffffffffffffffffffffffff16815260200190815260200160002060030154600360003373ffffffffffffffffffffffffffffffffffffffff1673ffffffffffffffffffffffffffffffffffffffff16815260200190815260200160002060050154600360003373ffffffffffffffffffffffffffffffffffffffff1673ffffffffffffffffffffffffffffffffffffffff16815260200190815260200160002060040154600360003373ffffffffffffffffffffffffffffffffffffffff1673ffffffffffffffffffffffffffffffffffffffff16815260200190815260200160002060060154945094509450945094509091929394565b6000809054906101000a900473ffffffffffffffffffffffffffffffffffffffff1681565b600454341015610f9857600080fd5b346001541015610ff3576040517f08c379a000000000000000000000000000000000000000000000000000000000815260040180806020018281038252602b815260200180611d23602b913960400191505060405180910390fd5b610ffe813433611161565b50565b60608061100d3361102d565b915091509091565b61101e336105a2565b505050565b6000600154905090565b606080600260008473ffffffffffffffffffffffffffffffffffffffff1673ffffffffffffffffffffffffffffffffffffffff168152602001908152602001600020600001600260008573ffffffffffffffffffffffffffffffffffffffff1673ffffffffffffffffffffffffffffffffffffffff168152602001908152602001600020600101818054806020026020016040519081016040528092919081815260200182805480156110ff57602002820191906000526020600020905b8154815260200190600101908083116110eb575b505050505091508080548060200260200160405190810160405280929190818152602001828054801561115157602002820191906000526020600020905b81548152602001906001019080831161113d575b5050505050905091509150915091565b60045482101561117057600080fd5b600183148061117f5750600083145b6111f1576040517f08c379a00000000000000000000000000000000000000000000000000000000081526004018080602001828103825260148152602001807f4265742073686f756c642062652031206f72203000000000000000000000000081525060200191505060405180910390fd5b6111fc8383836117dd565b6000600260008373ffffffffffffffffffffffffffffffffffffffff1673ffffffffffffffffffffffffffffffffffffffff1681526020019081526020016000206000018054905090506000600260008473ffffffffffffffffffffffffffffffffffffffff1673ffffffffffffffffffffffffffffffffffffffff16815260200190815260200160002060010180549050905080821461129957fe5b8484604051602001808381526020018281526020019250505060405160208183030381529060405280519060200120600260008573ffffffffffffffffffffffffffffffffffffffff1673ffffffffffffffffffffffffffffffffffffffff168152602001908152602001600020600001600184038154811061131857fe5b9060005260206000200154600260008673ffffffffffffffffffffffffffffffffffffffff1673ffffffffffffffffffffffffffffffffffffffff168152602001908152602001600020600101600184038154811061137357fe5b9060005260206000200154604051602001808381526020018281526020019250505060405160208183030381529060405280519060200120146113b257fe5b7f708e20749d242a7a40f190aed9586d298609a0391699344a787a3fb0006f295a858585604051808481526020018381526020018273ffffffffffffffffffffffffffffffffffffffff1673ffffffffffffffffffffffffffffffffffffffff168152602001935050505060405180910390a15050505050565b3460016000828254019250508190555034600360003373ffffffffffffffffffffffffffffffffffffffff1673ffffffffffffffffffffffffffffffffffffffff16815260200190815260200160002060010160008282540192505081905550611495336116c9565b565b6000600242816114a357fe5b06905090565b81600360003373ffffffffffffffffffffffffffffffffffffffff1673ffffffffffffffffffffffffffffffffffffffff1681526020019081526020016000206002016000828254019250508190555080600360003373ffffffffffffffffffffffffffffffffffffffff1673ffffffffffffffffffffffffffffffffffffffff16815260200190815260200160002060030160008282540192505081905550600360003373ffffffffffffffffffffffffffffffffffffffff1673ffffffffffffffffffffffffffffffffffffffff1681526020019081526020016000206004016000815480929190600101919050555060008111156115f6576001600360003373ffffffffffffffffffffffffffffffffffffffff1673ffffffffffffffffffffffffffffffffffffffff168152602001908152602001600020600501600082825401925050819055505b80600360003373ffffffffffffffffffffffffffffffffffffffff1673ffffffffffffffffffffffffffffffffffffffff168152602001908152602001600020600601819055505050565b611649611c4e565b80600260003373ffffffffffffffffffffffffffffffffffffffff1673ffffffffffffffffffffffffffffffffffffffff16815260200190815260200160002060008201518160000190805190602001906116a5929190611c68565b5060208201518160010190805190602001906116c2929190611c68565b5090505050565b600360008273ffffffffffffffffffffffffffffffffffffffff1673ffffffffffffffffffffffffffffffffffffffff16815260200190815260200160002060030154600360008373ffffffffffffffffffffffffffffffffffffffff1673ffffffffffffffffffffffffffffffffffffffff16815260200190815260200160002060020154600360008473ffffffffffffffffffffffffffffffffffffffff1673ffffffffffffffffffffffffffffffffffffffff168152602001908152602001600020600101540301600360008373ffffffffffffffffffffffffffffffffffffffff1673ffffffffffffffffffffffffffffffffffffffff1681526020019081526020016000206000018190555050565b600360008273ffffffffffffffffffffffffffffffffffffffff1673ffffffffffffffffffffffffffffffffffffffff16815260200190815260200160002060030154600360008373ffffffffffffffffffffffffffffffffffffffff1673ffffffffffffffffffffffffffffffffffffffff16815260200190815260200160002060020154600360008473ffffffffffffffffffffffffffffffffffffffff1673ffffffffffffffffffffffffffffffffffffffff168152602001908152602001600020600101540301600360008373ffffffffffffffffffffffffffffffffffffffff1673ffffffffffffffffffffffffffffffffffffffff1681526020019081526020016000206000015414611941576040517f08c379a0000000000000000000000000000000000000000000000000000000008152600401808060200182810382526021815260200180611cdb6021913960400191505060405180910390fd5b6003600260008373ffffffffffffffffffffffffffffffffffffffff1673ffffffffffffffffffffffffffffffffffffffff16815260200190815260200160002060000180549050106119df576040517f08c379a0000000000000000000000000000000000000000000000000000000008152600401808060200182810382526033815260200180611d716033913960400191505060405180910390fd5b6003600260008373ffffffffffffffffffffffffffffffffffffffff1673ffffffffffffffffffffffffffffffffffffffff1681526020019081526020016000206001018054905010611a7d576040517f08c379a0000000000000000000000000000000000000000000000000000000008152600401808060200182810382526033815260200180611d716033913960400191505060405180910390fd5b81600360008373ffffffffffffffffffffffffffffffffffffffff1673ffffffffffffffffffffffffffffffffffffffff168152602001908152602001600020600001541015611b18576040517f08c379a0000000000000000000000000000000000000000000000000000000008152600401808060200182810382526027815260200180611cfc6027913960400191505060405180910390fd5b81600360008373ffffffffffffffffffffffffffffffffffffffff1673ffffffffffffffffffffffffffffffffffffffff16815260200190815260200160002060020160008282540192505081905550611b71816116c9565b600260008273ffffffffffffffffffffffffffffffffffffffff1673ffffffffffffffffffffffffffffffffffffffff168152602001908152602001600020600001839080600181540180825580915050906001820390600052602060002001600090919290919091505550600260008273ffffffffffffffffffffffffffffffffffffffff1673ffffffffffffffffffffffffffffffffffffffff168152602001908152602001600020600101829080600181540180825580915050906001820390600052602060002001600090919290919091505550505050565b604051806040016040528060608152602001606081525090565b828054828255906000526020600020908101928215611ca4579160200282015b82811115611ca3578251825591602001919060010190611c88565b5b509050611cb19190611cb5565b5090565b611cd791905b80821115611cd3576000816000905550600101611cbb565b5090565b9056fe4552524f522043414c43554c4154494e4720504c415945522042414c4c414e4345546f6f20626967204265742c20706c6561736520746f70205570206d6f726520636f696e732e2e544f4f20424947204245542c204e4f5420454e4f5547482042414c414e4345204f4e20434f4e54524143544e6f2062657420706c616365642c20706c61736520706c616365207468652062657421546f6f206d616e79206265747320666f72206f6e6520647261773b20506c656173652068697420464c495020627574746f6e21a265627a7a72315820b2b481c66ae6a855b2d7d0b075963840e3d81ae77fa01345974e6060ffe40a5b64736f6c634300050c0032",
  "source": "import \"./Ownable.sol\";\r\npragma solidity 0.5.12;\r\n\r\ncontract CoinFlip is Ownable{\r\n\r\n    uint public _contractBalance_;\r\n\r\n    // status of active bets; Each player can have multiple bets before each flip\r\n    //Update each time player submited new bet\r\n\r\n    struct activeBet  {\r\n        uint[] betListPrecdictions;  // 0 or 1\r\n        uint[] betListAmount; //wei\r\n        }\r\n\r\n    //list of all activities of a player (update after finished solving each bet)\r\n    struct betHistory {\r\n        uint totalBalance;\r\n        uint totalTopUp;\r\n        uint totalSpentAmount;\r\n        uint totalWinAmount;\r\n        uint totalGames;\r\n        uint totalWins;\r\n        uint lastWinAmount;\r\n    }\r\n\r\n    //betList is a list of all active bets\r\n    // Should limit storage size somehow to avoid everflow in future?\r\n    mapping (address => activeBet) private playerActiveBetList;\r\n\r\n    //playerList store information\r\n    // Should limit storage size somehow to avoid everflow in future?\r\n    mapping (address => betHistory) public playerHistory;\r\n\r\n    //newBetCreated emit when created and not finished\r\n    event newBetCreated(uint betChoice, uint betAmount, address playerAddress);\r\n\r\n    //betFinished emit when\r\n    event betFinished(uint betAmount, uint winAmount, uint result);\r\n\r\n    uint _minBetAmount = 1000;\r\n\r\n    function topUp() public payable {\r\n        _contractBalance_ += msg.value;\r\n        playerHistory[msg.sender].totalTopUp += msg.value;\r\n        updatePlayerBalance(msg.sender);\r\n    }\r\n\r\n    function balance() public view returns (uint) {\r\n      return _contractBalance_;\r\n    }\r\n\r\n    function playerReport(address playerAddress) public view returns(uint,uint,uint,uint,uint,uint,uint) {\r\n        require(playerHistory[playerAddress].totalBalance ==\r\n            playerHistory[playerAddress].totalTopUp - playerHistory[playerAddress].totalSpentAmount + playerHistory[playerAddress].totalWinAmount,\r\n            \"ERROR CALCULATING PLAYER BALLANCE\");\r\n        return  (   playerHistory[playerAddress].totalBalance,\r\n                    playerHistory[playerAddress].totalTopUp,\r\n                    playerHistory[playerAddress].totalSpentAmount,\r\n                    playerHistory[playerAddress].totalWinAmount,\r\n                    playerHistory[playerAddress].totalGames,\r\n                    playerHistory[playerAddress].totalWins,\r\n                    playerHistory[playerAddress].lastWinAmount );\r\n    }\r\n\r\n    function createBet(uint betChoice) public payable {\r\n        require(msg.value >= _minBetAmount);\r\n        require(_contractBalance_ >= msg.value , \"TOO BIG BET, NOT ENOUGH BALANCE ON CONTRACT\");\r\n        createBetForPlayer(betChoice, msg.value, msg.sender);\r\n    }\r\n\r\n    function createBetForPlayer(uint betChoice, uint betAmount, address playerAddress) public {\r\n        require(betAmount >= _minBetAmount);\r\n        require(betChoice == 1 || betChoice == 0, \"Bet should be 1 or 0\");\r\n\r\n        insertNewBetForPlayer(betChoice, betAmount, playerAddress);\r\n\r\n        uint totalActivePredicts = playerActiveBetList[playerAddress].betListPrecdictions.length;\r\n        uint  totalActiveBets = playerActiveBetList[playerAddress].betListAmount.length;\r\n\r\n        assert(totalActivePredicts == totalActiveBets);\r\n        assert(\r\n            keccak256(\r\n                abi.encodePacked(\r\n                    playerActiveBetList[playerAddress].betListPrecdictions[totalActivePredicts - 1],\r\n                    playerActiveBetList[playerAddress].betListAmount[totalActiveBets - 1]\r\n                )\r\n            )\r\n            ==\r\n            keccak256(\r\n                abi.encodePacked(\r\n                    betChoice,\r\n                    betAmount\r\n                )\r\n            )\r\n        );\r\n\r\n        emit newBetCreated(betChoice, betAmount, playerAddress);\r\n    }\r\n\r\n    function updatePlayerBalance(address playerAddress) private {\r\n        playerHistory[playerAddress].totalBalance =\r\n        playerHistory[playerAddress].totalTopUp -  playerHistory[playerAddress].totalSpentAmount +  playerHistory[playerAddress].totalWinAmount;\r\n    }\r\n\r\n    function insertNewBetForPlayer(uint betChoice, uint betAmount, address playerAddress) private {\r\n        require(playerHistory[playerAddress].totalBalance ==\r\n            playerHistory[playerAddress].totalTopUp - playerHistory[playerAddress].totalSpentAmount + playerHistory[playerAddress].totalWinAmount,\r\n            \"ERROR CALCULATING PLAYER BALLANCE\");\r\n        require(playerActiveBetList[playerAddress].betListPrecdictions.length < 3, \"Too many bets for one draw; Please hit FLIP button!\");\r\n        require(playerActiveBetList[playerAddress].betListAmount.length < 3, \"Too many bets for one draw; Please hit FLIP button!\");\r\n        require(playerHistory[playerAddress].totalBalance >= betAmount, \"Too big Bet, please top Up more coins..\");\r\n\r\n        playerHistory[playerAddress].totalSpentAmount += betAmount;\r\n        updatePlayerBalance(playerAddress);\r\n\r\n        playerActiveBetList[playerAddress].betListPrecdictions.push(betChoice);\r\n        playerActiveBetList[playerAddress].betListAmount.push(betAmount);\r\n    }\r\n\r\n    function getMyBet() public view returns(uint[] memory, uint[] memory)\r\n    {\r\n        return getPlayerBet(msg.sender);\r\n    }\r\n\r\n    function getPlayerBet(address playerAddress) public view returns(uint[] memory, uint[] memory)\r\n    {\r\n        return (\r\n            playerActiveBetList[playerAddress].betListPrecdictions,\r\n            playerActiveBetList[playerAddress].betListAmount\r\n        );\r\n    }\r\n\r\n    function getMyHistory() public view returns(uint, uint, uint, uint, uint)\r\n    {\r\n        return (\r\n            playerHistory[msg.sender].totalSpentAmount,\r\n            playerHistory[msg.sender].totalWinAmount,\r\n            playerHistory[msg.sender].totalWins,\r\n            playerHistory[msg.sender].totalGames,\r\n            playerHistory[msg.sender].lastWinAmount\r\n        );\r\n    }\r\n\r\n    function random() internal view returns(uint) {\r\n        return now % 2;\r\n    }\r\n\r\n    function updatePlayerHistory(uint spentAmount, uint winAmount) internal {\r\n        playerHistory[msg.sender].totalSpentAmount +=  spentAmount;\r\n        playerHistory[msg.sender].totalWinAmount += winAmount;\r\n        playerHistory[msg.sender].totalGames++;\r\n        if (winAmount>0) {\r\n            playerHistory[msg.sender].totalWins += 1;\r\n        }\r\n        playerHistory[msg.sender].lastWinAmount = winAmount;\r\n    }\r\n\r\n    function resetPlayerBetList() internal {\r\n        activeBet memory noBets;\r\n        playerActiveBetList[msg.sender] = noBets;\r\n    }\r\n\r\n    function tossCoin() public {\r\n      playerTossCoin(msg.sender);\r\n    }\r\n\r\n    function playerTossCoin(address payable playerAddress) public returns(uint , uint, uint) {\r\n        uint result = random();\r\n        uint spentAmount = 0;\r\n        uint winAmount = 0;\r\n\r\n        require(    result == 1 || result==0);\r\n        require(    playerActiveBetList[playerAddress].betListPrecdictions.length > 0,\r\n                    \"No bet placed, plase place the bet!\");\r\n\r\n        require(    playerActiveBetList[playerAddress].betListAmount.length > 0,\r\n                    \"No bet placed, plase place the bet!\");\r\n\r\n        require(    playerActiveBetList[playerAddress].betListAmount.length == playerActiveBetList[playerAddress].betListPrecdictions.length,\r\n                    \"Error bet data\");\r\n\r\n        for (uint x=0; x < playerActiveBetList[playerAddress].betListPrecdictions.length; x++) {\r\n            spentAmount += playerActiveBetList[playerAddress].betListAmount[x];\r\n            if (playerActiveBetList[playerAddress].betListPrecdictions[x] == result) {\r\n                winAmount += playerActiveBetList[playerAddress].betListAmount[x];\r\n            }\r\n        }\r\n\r\n        updatePlayerHistory(spentAmount, winAmount);\r\n\r\n        resetPlayerBetList();\r\n\r\n        if (winAmount>0) {\r\n            playerHistory[playerAddress].totalWinAmount += winAmount;\r\n            updatePlayerBalance(playerAddress);\r\n            }\r\n\r\n        emit betFinished(spentAmount, winAmount, result);\r\n        return (spentAmount, winAmount, result);\r\n    }\r\n\r\n    /*\r\n    function deleteplayer(address creator) public onlyOwner {\r\n      string memory name = people[creator].name;\r\n      bool senior = people[creator].senior;\r\n\r\n       delete people[creator];\r\n       assert(people[creator].age == 0);\r\n       emit playerDeleted(name, senior, owner);\r\n   }\r\n   function getCreator(uint index) public view onlyOwner returns(address){\r\n       return creators[index];\r\n   }\r\n   function withdrawAll() public onlyOwner returns(uint) {\r\n       uint toTransfer = balance;\r\n       balance = 0;\r\n       msg.sender.transfer(toTransfer);\r\n       return toTransfer;\r\n   }\r\n   */\r\n\r\n}\r\n",
  "sourcePath": "D:\\@TUNG 2020\\IVANONTECH\\SOLIDITY 201\\coinFlip4\\contracts\\CoinFlip.sol",
  "compiler": {
    "name": "solc",
    "version": "0.5.12+commit.7709ece9.Emscripten.clang"
  },
  "schemaVersion": "3.2.0",
  "updatedAt": "2020-06-20T15:49:08.669Z",
  "networkType": "ethereum",
  "devdoc": {
    "methods": {}
  },
  "userdoc": {
    "methods": {}
  }
}