{
  "contractName": "CoinFlip100",
  "abi": [
    {
      "constant": true,
      "inputs": [],
      "name": "_contractBalance_",
      "outputs": [
        {
          "name": "",
          "type": "uint256"
        }
      ],
      "payable": false,
      "stateMutability": "view",
      "type": "function"
    },
    {
      "constant": true,
      "inputs": [
        {
          "name": "",
          "type": "address"
        }
      ],
      "name": "playerHistory",
      "outputs": [
        {
          "name": "totalBalance",
          "type": "uint256"
        },
        {
          "name": "totalTopUp",
          "type": "uint256"
        },
        {
          "name": "totalWithdrawn",
          "type": "uint256"
        },
        {
          "name": "totalSpentAmount",
          "type": "uint256"
        },
        {
          "name": "totalWinAmount",
          "type": "uint256"
        },
        {
          "name": "totalGames",
          "type": "uint256"
        },
        {
          "name": "totalWins",
          "type": "uint256"
        },
        {
          "name": "lastWinAmount",
          "type": "uint256"
        }
      ],
      "payable": false,
      "stateMutability": "view",
      "type": "function"
    },
    {
      "constant": true,
      "inputs": [],
      "name": "_totalAllPlayerBalance_",
      "outputs": [
        {
          "name": "",
          "type": "uint256"
        }
      ],
      "payable": false,
      "stateMutability": "view",
      "type": "function"
    },
    {
      "constant": true,
      "inputs": [
        {
          "name": "",
          "type": "address"
        }
      ],
      "name": "activeBet",
      "outputs": [
        {
          "name": "waitingResult",
          "type": "bool"
        },
        {
          "name": "waitingId",
          "type": "bytes32"
        },
        {
          "name": "paidOut",
          "type": "bool"
        },
        {
          "name": "lastResult",
          "type": "uint256"
        }
      ],
      "payable": false,
      "stateMutability": "view",
      "type": "function"
    },
    {
      "constant": true,
      "inputs": [],
      "name": "_latestNumber",
      "outputs": [
        {
          "name": "",
          "type": "uint256"
        }
      ],
      "payable": false,
      "stateMutability": "view",
      "type": "function"
    },
    {
      "constant": true,
      "inputs": [],
      "name": "BET_RANGE_MIN",
      "outputs": [
        {
          "name": "",
          "type": "uint256"
        }
      ],
      "payable": false,
      "stateMutability": "view",
      "type": "function"
    },
    {
      "constant": true,
      "inputs": [],
      "name": "owner",
      "outputs": [
        {
          "name": "",
          "type": "address"
        }
      ],
      "payable": false,
      "stateMutability": "view",
      "type": "function"
    },
    {
      "constant": true,
      "inputs": [],
      "name": "_lockedInBets_",
      "outputs": [
        {
          "name": "",
          "type": "uint256"
        }
      ],
      "payable": false,
      "stateMutability": "view",
      "type": "function"
    },
    {
      "constant": true,
      "inputs": [],
      "name": "BET_RANGE_MAX",
      "outputs": [
        {
          "name": "",
          "type": "uint256"
        }
      ],
      "payable": false,
      "stateMutability": "view",
      "type": "function"
    },
    {
      "constant": true,
      "inputs": [],
      "name": "BET_MIN_AMOUNT_WEI",
      "outputs": [
        {
          "name": "",
          "type": "uint256"
        }
      ],
      "payable": false,
      "stateMutability": "view",
      "type": "function"
    },
    {
      "inputs": [],
      "payable": true,
      "stateMutability": "payable",
      "type": "constructor"
    },
    {
      "anonymous": false,
      "inputs": [
        {
          "indexed": false,
          "name": "betNumbers",
          "type": "uint256[]"
        },
        {
          "indexed": false,
          "name": "betAmounts_chip",
          "type": "uint256[]"
        },
        {
          "indexed": false,
          "name": "playerAddress",
          "type": "address"
        }
      ],
      "name": "newBetCreated",
      "type": "event"
    },
    {
      "anonymous": false,
      "inputs": [
        {
          "indexed": false,
          "name": "playerAddress",
          "type": "address"
        },
        {
          "indexed": false,
          "name": "winAmount",
          "type": "uint256"
        },
        {
          "indexed": false,
          "name": "result",
          "type": "uint256"
        }
      ],
      "name": "betFinished",
      "type": "event"
    },
    {
      "anonymous": false,
      "inputs": [
        {
          "indexed": false,
          "name": "noticeString",
          "type": "string"
        },
        {
          "indexed": false,
          "name": "noticeValue",
          "type": "uint256"
        }
      ],
      "name": "notice",
      "type": "event"
    },
    {
      "anonymous": false,
      "inputs": [
        {
          "indexed": false,
          "name": "Id",
          "type": "bytes32"
        },
        {
          "indexed": false,
          "name": "randomNumber",
          "type": "uint256"
        },
        {
          "indexed": false,
          "name": "proof",
          "type": "bytes"
        }
      ],
      "name": "generatedRandomNumber",
      "type": "event"
    },
    {
      "anonymous": false,
      "inputs": [
        {
          "indexed": false,
          "name": "notice",
          "type": "string"
        }
      ],
      "name": "LogNewProvableQuery",
      "type": "event"
    },
    {
      "anonymous": false,
      "inputs": [
        {
          "indexed": false,
          "name": "description",
          "type": "string"
        }
      ],
      "name": "proofFailed",
      "type": "event"
    },
    {
      "constant": false,
      "inputs": [
        {
          "name": "_queryId",
          "type": "bytes32"
        },
        {
          "name": "_result",
          "type": "string"
        },
        {
          "name": "_proof",
          "type": "bytes"
        }
      ],
      "name": "__callback",
      "outputs": [],
      "payable": false,
      "stateMutability": "nonpayable",
      "type": "function"
    },
    {
      "constant": false,
      "inputs": [
        {
          "name": "topUp_chip",
          "type": "uint256"
        }
      ],
      "name": "ownerFundUp_chip",
      "outputs": [],
      "payable": true,
      "stateMutability": "payable",
      "type": "function"
    },
    {
      "constant": false,
      "inputs": [
        {
          "name": "topUp_chip",
          "type": "uint256"
        }
      ],
      "name": "playerTopUp_chip",
      "outputs": [],
      "payable": true,
      "stateMutability": "payable",
      "type": "function"
    },
    {
      "constant": true,
      "inputs": [],
      "name": "getPlayerHistory",
      "outputs": [
        {
          "name": "",
          "type": "uint256"
        },
        {
          "name": "",
          "type": "uint256"
        },
        {
          "name": "",
          "type": "uint256"
        },
        {
          "name": "",
          "type": "uint256"
        },
        {
          "name": "",
          "type": "uint256"
        },
        {
          "name": "",
          "type": "uint256"
        },
        {
          "name": "",
          "type": "uint256"
        },
        {
          "name": "",
          "type": "uint256"
        }
      ],
      "payable": false,
      "stateMutability": "view",
      "type": "function"
    },
    {
      "constant": true,
      "inputs": [],
      "name": "realContractBalance",
      "outputs": [
        {
          "name": "",
          "type": "uint256"
        }
      ],
      "payable": false,
      "stateMutability": "view",
      "type": "function"
    },
    {
      "constant": true,
      "inputs": [],
      "name": "getContractBalance",
      "outputs": [
        {
          "name": "",
          "type": "uint256"
        }
      ],
      "payable": false,
      "stateMutability": "view",
      "type": "function"
    },
    {
      "constant": true,
      "inputs": [],
      "name": "get_totalAllPlayerBalance_",
      "outputs": [
        {
          "name": "",
          "type": "uint256"
        }
      ],
      "payable": false,
      "stateMutability": "view",
      "type": "function"
    },
    {
      "constant": true,
      "inputs": [],
      "name": "get_ownerBalance",
      "outputs": [
        {
          "name": "",
          "type": "uint256"
        }
      ],
      "payable": false,
      "stateMutability": "view",
      "type": "function"
    },
    {
      "constant": true,
      "inputs": [],
      "name": "playerPlayableFund",
      "outputs": [
        {
          "name": "",
          "type": "uint256"
        }
      ],
      "payable": false,
      "stateMutability": "view",
      "type": "function"
    },
    {
      "constant": false,
      "inputs": [
        {
          "name": "betNumbers",
          "type": "uint256[]"
        },
        {
          "name": "betAmount_chip",
          "type": "uint256[]"
        }
      ],
      "name": "createMyBet",
      "outputs": [
        {
          "name": "",
          "type": "bool"
        }
      ],
      "payable": false,
      "stateMutability": "nonpayable",
      "type": "function"
    },
    {
      "constant": true,
      "inputs": [],
      "name": "getMyBet",
      "outputs": [
        {
          "name": "",
          "type": "uint256[]"
        },
        {
          "name": "",
          "type": "uint256[]"
        },
        {
          "name": "",
          "type": "bool"
        },
        {
          "name": "",
          "type": "bytes32"
        },
        {
          "name": "",
          "type": "bool"
        },
        {
          "name": "",
          "type": "uint256"
        }
      ],
      "payable": false,
      "stateMutability": "view",
      "type": "function"
    },
    {
      "constant": true,
      "inputs": [
        {
          "name": "podWei",
          "type": "uint256"
        }
      ],
      "name": "get_betAbleAmountWei",
      "outputs": [
        {
          "name": "",
          "type": "uint256"
        }
      ],
      "payable": false,
      "stateMutability": "view",
      "type": "function"
    },
    {
      "constant": true,
      "inputs": [
        {
          "name": "winWei",
          "type": "uint256"
        }
      ],
      "name": "getWinAmountWei",
      "outputs": [
        {
          "name": "",
          "type": "uint256"
        }
      ],
      "payable": false,
      "stateMutability": "view",
      "type": "function"
    },
    {
      "constant": false,
      "inputs": [],
      "name": "playerTossCoin",
      "outputs": [
        {
          "name": "waitingId",
          "type": "bytes32"
        }
      ],
      "payable": true,
      "stateMutability": "payable",
      "type": "function"
    },
    {
      "constant": false,
      "inputs": [
        {
          "name": "playerAddress",
          "type": "address"
        }
      ],
      "name": "payOutCheckRequest",
      "outputs": [],
      "payable": false,
      "stateMutability": "nonpayable",
      "type": "function"
    },
    {
      "constant": false,
      "inputs": [],
      "name": "ownerWithdrawAll",
      "outputs": [
        {
          "name": "",
          "type": "uint256"
        }
      ],
      "payable": false,
      "stateMutability": "nonpayable",
      "type": "function"
    },
    {
      "constant": false,
      "inputs": [],
      "name": "playerWithdrawAll",
      "outputs": [
        {
          "name": "",
          "type": "uint256"
        }
      ],
      "payable": false,
      "stateMutability": "nonpayable",
      "type": "function"
    }
  ],
  "bytecode": "0x60806040526000600655606360075566038d7ea4c68000600855600854600955611b58600a55336000806101000a81548173ffffffffffffffffffffffffffffffffffffffff021916908373ffffffffffffffffffffffffffffffffffffffff160217905550620000a260307f010000000000000000000000000000000000000000000000000000000000000002620000af640100000000026401000000009004565b34600b8190555062000ba3565b6000600260009054906101000a900473ffffffffffffffffffffffffffffffffffffffff1673ffffffffffffffffffffffffffffffffffffffff161480620001325750600062000130600260009054906101000a900473ffffffffffffffffffffffffffffffffffffffff1662000467640100000000026401000000009004565b145b15620001555762000153600062000472640100000000026401000000009004565b505b600260009054906101000a900473ffffffffffffffffffffffffffffffffffffffff1673ffffffffffffffffffffffffffffffffffffffff166338cc48316040518163ffffffff167c0100000000000000000000000000000000000000000000000000000000028152600401602060405180830381600087803b158015620001dc57600080fd5b505af1158015620001f1573d6000803e3d6000fd5b505050506040513d60208110156200020857600080fd5b810190808051906020019092919050505073ffffffffffffffffffffffffffffffffffffffff16600160009054906101000a900473ffffffffffffffffffffffffffffffffffffffff1673ffffffffffffffffffffffffffffffffffffffff161415156200037557600260009054906101000a900473ffffffffffffffffffffffffffffffffffffffff1673ffffffffffffffffffffffffffffffffffffffff166338cc48316040518163ffffffff167c0100000000000000000000000000000000000000000000000000000000028152600401602060405180830381600087803b158015620002f757600080fd5b505af11580156200030c573d6000803e3d6000fd5b505050506040513d60208110156200032357600080fd5b8101908080519060200190929190505050600160006101000a81548173ffffffffffffffffffffffffffffffffffffffff021916908373ffffffffffffffffffffffffffffffffffffffff1602179055505b600160009054906101000a900473ffffffffffffffffffffffffffffffffffffffff1673ffffffffffffffffffffffffffffffffffffffff1663688dcfd7826040518263ffffffff167c010000000000000000000000000000000000000000000000000000000002815260040180827effffffffffffffffffffffffffffffffffffffffffffffffffffffffffffff19167effffffffffffffffffffffffffffffffffffffffffffffffffffffffffffff19168152602001915050600060405180830381600087803b1580156200044b57600080fd5b505af115801562000460573d6000803e3d6000fd5b5050505050565b6000813b9050919050565b60006200048d62000494640100000000026401000000009004565b9050919050565b600080620004c5731d3b2638a7cc9f2cb3d298a3da7a90b67e5506ed62000467640100000000026401000000009004565b11156200057a57731d3b2638a7cc9f2cb3d298a3da7a90b67e5506ed600260006101000a81548173ffffffffffffffffffffffffffffffffffffffff021916908373ffffffffffffffffffffffffffffffffffffffff160217905550620005706040805190810160405280600b81526020017f6574685f6d61696e6e657400000000000000000000000000000000000000000081525062000ad8640100000000026401000000009004565b6001905062000ad5565b6000620005aa73c03a2615d5efaf5f49f60b7bb6583eaec212fdf162000467640100000000026401000000009004565b11156200065f5773c03a2615d5efaf5f49f60b7bb6583eaec212fdf1600260006101000a81548173ffffffffffffffffffffffffffffffffffffffff021916908373ffffffffffffffffffffffffffffffffffffffff160217905550620006556040805190810160405280600c81526020017f6574685f726f707374656e33000000000000000000000000000000000000000081525062000ad8640100000000026401000000009004565b6001905062000ad5565b60006200068f73b7a07bcf2ba2f2703b24c0691b5278999c59ac7e62000467640100000000026401000000009004565b1115620007445773b7a07bcf2ba2f2703b24c0691b5278999c59ac7e600260006101000a81548173ffffffffffffffffffffffffffffffffffffffff021916908373ffffffffffffffffffffffffffffffffffffffff1602179055506200073a6040805190810160405280600981526020017f6574685f6b6f76616e000000000000000000000000000000000000000000000081525062000ad8640100000000026401000000009004565b6001905062000ad5565b60006200077473146500cfd35b22e4a392fe0adc06de1a1368ed4862000467640100000000026401000000009004565b1115620008295773146500cfd35b22e4a392fe0adc06de1a1368ed48600260006101000a81548173ffffffffffffffffffffffffffffffffffffffff021916908373ffffffffffffffffffffffffffffffffffffffff1602179055506200081f6040805190810160405280600b81526020017f6574685f72696e6b65627900000000000000000000000000000000000000000081525062000ad8640100000000026401000000009004565b6001905062000ad5565b60006200085973a2998efd205fb9d4b4963afb70778d6354ad3a4162000467640100000000026401000000009004565b11156200090e5773a2998efd205fb9d4b4963afb70778d6354ad3a41600260006101000a81548173ffffffffffffffffffffffffffffffffffffffff021916908373ffffffffffffffffffffffffffffffffffffffff160217905550620009046040805190810160405280600a81526020017f6574685f676f65726c690000000000000000000000000000000000000000000081525062000ad8640100000000026401000000009004565b6001905062000ad5565b60006200093e736f485c8bf6fc43ea212e93bbf8ce046c7f1cb47562000467640100000000026401000000009004565b1115620009a457736f485c8bf6fc43ea212e93bbf8ce046c7f1cb475600260006101000a81548173ffffffffffffffffffffffffffffffffffffffff021916908373ffffffffffffffffffffffffffffffffffffffff1602179055506001905062000ad5565b6000620009d47320e12a1f859b3feae5fb2a0a32c18f5a65555bbf62000467640100000000026401000000009004565b111562000a3a577320e12a1f859b3feae5fb2a0a32c18f5a65555bbf600260006101000a81548173ffffffffffffffffffffffffffffffffffffffff021916908373ffffffffffffffffffffffffffffffffffffffff1602179055506001905062000ad5565b600062000a6a7351efaf4c8b3c9afbd5ab9f4bbc82784ab6ef8faa62000467640100000000026401000000009004565b111562000ad0577351efaf4c8b3c9afbd5ab9f4bbc82784ab6ef8faa600260006101000a81548173ffffffffffffffffffffffffffffffffffffffff021916908373ffffffffffffffffffffffffffffffffffffffff1602179055506001905062000ad5565b600090505b90565b806005908051906020019062000af092919062000af4565b5050565b828054600181600116156101000203166002900490600052602060002090601f016020900481019282601f1062000b3757805160ff191683800117855562000b68565b8280016001018555821562000b68579182015b8281111562000b6757825182559160200191906001019062000b4a565b5b50905062000b77919062000b7b565b5090565b62000ba091905b8082111562000b9c57600081600090555060010162000b82565b5090565b90565b6155e98062000bb36000396000f30060806040526004361061015f576000357c0100000000000000000000000000000000000000000000000000000000900463ffffffff1680630a39a58e146101645780630da277901461018f578063180bfdf6146102175780631c7ff1ba146102425780631ec3f803146102be5780632890a9f8146102e957806338bbfa50146103aa5780633c50b913146104675780634adc3dd5146104925780636f9fb98a146104bd57806376b0a4a0146104e85780637ac1dd1a146105085780638085688c146105335780638a8b19e5146105595780638da5cb5b1461058457806394ebe608146105db578063ac0547d714610606578063b24b05f814610649578063b4b0b27e14610729578063c6abde9f14610754578063dd85881f14610795578063e0d5af94146107c0578063e1bc44e7146107eb578063e3c1287214610816578063e57acb3514610872578063e862f79d1461089d578063f88c09f9146108bd575b600080fd5b34801561017057600080fd5b506101796108fe565b6040518082815260200191505060405180910390f35b34801561019b57600080fd5b506101d0600480360381019080803573ffffffffffffffffffffffffffffffffffffffff169060200190929190505050610904565b604051808981526020018881526020018781526020018681526020018581526020018481526020018381526020018281526020019850505050505050505060405180910390f35b34801561022357600080fd5b5061022c61094c565b6040518082815260200191505060405180910390f35b34801561024e57600080fd5b50610283600480360381019080803573ffffffffffffffffffffffffffffffffffffffff169060200190929190505050610952565b604051808515151515815260200184600019166000191681526020018315151515815260200182815260200194505050505060405180910390f35b3480156102ca57600080fd5b506102d361099c565b6040518082815260200191505060405180910390f35b3480156102f557600080fd5b5061039060048036038101908080359060200190820180359060200190808060200260200160405190810160405280939291908181526020018383602002808284378201915050505050509192919290803590602001908201803590602001908080602002602001604051908101604052809392919081815260200183836020028082843782019150505050505091929192905050506109a2565b604051808215151515815260200191505060405180910390f35b3480156103b657600080fd5b506104656004803603810190808035600019169060200190929190803590602001908201803590602001908080601f0160208091040260200160405190810160405280939291908181526020018383808284378201915050505050509192919290803590602001908201803590602001908080601f0160208091040260200160405190810160405280939291908181526020018383808284378201915050505050509192919290505050610c33565b005b34801561047357600080fd5b5061047c610dc2565b6040518082815260200191505060405180910390f35b34801561049e57600080fd5b506104a7610e7b565b6040518082815260200191505060405180910390f35b3480156104c957600080fd5b506104d2610e9a565b6040518082815260200191505060405180910390f35b61050660048036038101908080359060200190929190505050610ea4565b005b34801561051457600080fd5b5061051d610fa7565b6040518082815260200191505060405180910390f35b61053b610fcd565b60405180826000191660001916815260200191505060405180910390f35b34801561056557600080fd5b5061056e6113ae565b6040518082815260200191505060405180910390f35b34801561059057600080fd5b506105996113b4565b604051808273ffffffffffffffffffffffffffffffffffffffff1673ffffffffffffffffffffffffffffffffffffffff16815260200191505060405180910390f35b3480156105e757600080fd5b506105f06113d9565b6040518082815260200191505060405180910390f35b34801561061257600080fd5b50610647600480360381019080803573ffffffffffffffffffffffffffffffffffffffff169060200190929190505050611739565b005b34801561065557600080fd5b5061065e6119d3565b60405180806020018060200187151515158152602001866000191660001916815260200185151515158152602001848152602001838103835289818151815260200191508051906020019060200280838360005b838110156106cd5780820151818401526020810190506106b2565b50505050905001838103825288818151815260200191508051906020019060200280838360005b8381101561070f5780820151818401526020810190506106f4565b505050509050019850505050505050505060405180910390f35b34801561073557600080fd5b5061073e611c43565b6040518082815260200191505060405180910390f35b34801561076057600080fd5b5061077f60048036038101908080359060200190929190505050611c49565b6040518082815260200191505060405180910390f35b3480156107a157600080fd5b506107aa611c63565b6040518082815260200191505060405180910390f35b3480156107cc57600080fd5b506107d5611c69565b6040518082815260200191505060405180910390f35b3480156107f757600080fd5b50610800611d3b565b6040518082815260200191505060405180910390f35b34801561082257600080fd5b5061082b611d41565b604051808981526020018881526020018781526020018681526020018581526020018481526020018381526020018281526020019850505050505050505060405180910390f35b34801561087e57600080fd5b50610887611ffb565b6040518082815260200191505060405180910390f35b6108bb60048036038101908080359060200190929190505050612005565b005b3480156108c957600080fd5b506108e860048036038101908080359060200190929190505050612106565b6040518082815260200191505060405180910390f35b600b5481565b60106020528060005260406000206000915090508060000154908060010154908060020154908060030154908060040154908060050154908060060154908060070154905088565b600c5481565b600f6020528060005260406000206000915090508060020160009054906101000a900460ff16908060030154908060040160009054906101000a900460ff16908060050154905084565b600e5481565b6000606060001515600f60003373ffffffffffffffffffffffffffffffffffffffff1673ffffffffffffffffffffffffffffffffffffffff16815260200190815260200160002060020160009054906101000a900460ff161515141515610a97576040517f08c379a00000000000000000000000000000000000000000000000000000000081526004018080602001828103825260278152602001807f2e2e20506c65617365205761697420666f7220726573756c74206f66206c617381526020017f74206265742e2e0000000000000000000000000000000000000000000000000081525060400191505060405180910390fd5b610aa083612120565b9050610aac8482612183565b1515610b20576040517f08c379a000000000000000000000000000000000000000000000000000000000815260040180806020018281038252600d8152602001807f4e4f542056414c4944204245540000000000000000000000000000000000000081525060200191505060405180910390fd5b610b2981612434565b610b3384826124c4565b7f2aeacb050561fc39cce82b85f933b4093153305890dd8ef86f07c861b720cb7e8482336040518080602001806020018473ffffffffffffffffffffffffffffffffffffffff1673ffffffffffffffffffffffffffffffffffffffff168152602001838103835286818151815260200191508051906020019060200280838360005b83811015610bd0578082015181840152602081019050610bb5565b50505050905001838103825285818151815260200191508051906020019060200280838360005b83811015610c12578082015181840152602081019050610bf7565b505050509050019550505050505060405180910390a1600191505092915050565b600080610c3e612623565b73ffffffffffffffffffffffffffffffffffffffff163373ffffffffffffffffffffffffffffffffffffffff16141515610c7757600080fd5b6063915081600e8190555060116000866000191660001916815260200190815260200160002060009054906101000a900473ffffffffffffffffffffffffffffffffffffffff16905081600f60008373ffffffffffffffffffffffffffffffffffffffff1673ffffffffffffffffffffffffffffffffffffffff168152602001908152602001600020600501819055507f2f9e5be3656ce51f6ace314c85ed3c11b67df8be5a7da24fdbc8de8dc34b61cc85838560405180846000191660001916815260200183815260200180602001828103825283818151815260200191508051906020019080838360005b83811015610d7f578082015181840152602081019050610d64565b50505050905090810190601f168015610dac5780820380516001836020036101000a031916815260200191505b5094505050505060405180910390a15050505050565b600080610dcd610fa7565b905080610e1b601060003373ffffffffffffffffffffffffffffffffffffffff1673ffffffffffffffffffffffffffffffffffffffff16815260200190815260200160002060000154612106565b1015610e6b57601060003373ffffffffffffffffffffffffffffffffffffffff1673ffffffffffffffffffffffffffffffffffffffff168152602001908152602001600020600001549150610e77565b610e7481611c49565b91505b5090565b60003073ffffffffffffffffffffffffffffffffffffffff1631905090565b6000600b54905090565b6000809054906101000a900473ffffffffffffffffffffffffffffffffffffffff1673ffffffffffffffffffffffffffffffffffffffff163373ffffffffffffffffffffffffffffffffffffffff16141515610eff57600080fd5b610f0881612985565b34141515610f7e576040517f08c379a000000000000000000000000000000000000000000000000000000000815260040180806020018281038252601e8152602001807f6d73672e76616c756520213d20746f7055705f63686970202a2031653136000081525060200191505060405180910390fd5b610f8781612985565b34141515610f9457600080fd5b34600b6000828254019250508190555050565b600080600b541415610fbc5760009050610fca565b600d54600c54600b54030390505b90565b6000806000801515600f60003373ffffffffffffffffffffffffffffffffffffffff1673ffffffffffffffffffffffffffffffffffffffff16815260200190815260200160002060020160009054906101000a900460ff1615151415156110c2576040517f08c379a00000000000000000000000000000000000000000000000000000000081526004018080602001828103825260368152602001807f416c72656164792063616c6c65642072616e646f6d204e756d6265722c20706c81526020017f65617365207761697420666f7220726573756c742e2e0000000000000000000081525060400191505060405180910390fd5b6000600f60003373ffffffffffffffffffffffffffffffffffffffff1673ffffffffffffffffffffffffffffffffffffffff168152602001908152602001600020600001805490501115156111a5576040517f08c379a00000000000000000000000000000000000000000000000000000000081526004018080602001828103825260338152602001807f706c61796572546f7373436f696e3a204e6f2062657420706c616365642c207081526020017f6c61736520706c6163652074686520626574210000000000000000000000000081525060400191505060405180910390fd5b6001600f60003373ffffffffffffffffffffffffffffffffffffffff1673ffffffffffffffffffffffffffffffffffffffff16815260200190815260200160002060020160006101000a81548160ff0219169083151502179055506000600f60003373ffffffffffffffffffffffffffffffffffffffff1673ffffffffffffffffffffffffffffffffffffffff16815260200190815260200160002060040160006101000a81548160ff0219169083151502179055506000915062030d40905061127182600183612993565b92507fc4dc360d0a9c0677a3379ae0a3d81e887f761e65fdf3d7e00859d1bcd3c473896040518080602001828103825260318152602001807f50726f7661626c65207175657279207761732073656e742c2077616974696e6781526020017f20666f722074686520616e737765722e2e00000000000000000000000000000081525060400191505060405180910390a182600f60003373ffffffffffffffffffffffffffffffffffffffff1673ffffffffffffffffffffffffffffffffffffffff16815260200190815260200160002060030181600019169055503360116000856000191660001916815260200190815260200160002060006101000a81548173ffffffffffffffffffffffffffffffffffffffff021916908373ffffffffffffffffffffffffffffffffffffffff160217905550829250505090565b60065481565b6000809054906101000a900473ffffffffffffffffffffffffffffffffffffffff1681565b6000806113e533612fc5565b6000601060003373ffffffffffffffffffffffffffffffffffffffff1673ffffffffffffffffffffffffffffffffffffffff1681526020019081526020016000206000015411151561149f576040517f08c379a00000000000000000000000000000000000000000000000000000000081526004018080602001828103825260168152602001807f506c61796572206973206f7574206f66206d6f6e65790000000000000000000081525060200191505060405180910390fd5b6114a76131c1565b151561151b576040517f08c379a00000000000000000000000000000000000000000000000000000000081526004018080602001828103825260158152602001807f496e76616c69642062616c616e636520636865636b000000000000000000000081525060200191505060405180910390fd5b60001515600f60003373ffffffffffffffffffffffffffffffffffffffff1673ffffffffffffffffffffffffffffffffffffffff16815260200190815260200160002060020160009054906101000a900460ff1615151415156115e6576040517f08c379a00000000000000000000000000000000000000000000000000000000081526004018080602001828103825260188152602001807f57616974696e6720666f722062657420726573756c742e2e000000000000000081525060200191505060405180910390fd5b601060003373ffffffffffffffffffffffffffffffffffffffff1673ffffffffffffffffffffffffffffffffffffffff16815260200190815260200160002060000154905080601060003373ffffffffffffffffffffffffffffffffffffffff1673ffffffffffffffffffffffffffffffffffffffff1681526020019081526020016000206002016000828254019250508190555061168433613519565b80600b6000828254039250508190555061169d33612fc5565b6000601060003373ffffffffffffffffffffffffffffffffffffffff1673ffffffffffffffffffffffffffffffffffffffff168152602001908152602001600020600001541415156116eb57fe5b3373ffffffffffffffffffffffffffffffffffffffff166108fc829081150290604051600060405180830381858888f19350505050158015611731573d6000803e3d6000fd5b508091505090565b600f60008273ffffffffffffffffffffffffffffffffffffffff1673ffffffffffffffffffffffffffffffffffffffff16815260200190815260200160002060020160009054906101000a900460ff16156119385760001515600f60008373ffffffffffffffffffffffffffffffffffffffff1673ffffffffffffffffffffffffffffffffffffffff16815260200190815260200160002060040160009054906101000a900460ff161515141561188057611878600f60008373ffffffffffffffffffffffffffffffffffffffff1673ffffffffffffffffffffffffffffffffffffffff16815260200190815260200160002060030154600f60008473ffffffffffffffffffffffffffffffffffffffff1673ffffffffffffffffffffffffffffffffffffffff16815260200190815260200160002060050154613657565b505050611933565b7f72c6694e8258da9df05f72188f564478e8a53afd79cc3af03fad0dfb96a473dd601060008373ffffffffffffffffffffffffffffffffffffffff1673ffffffffffffffffffffffffffffffffffffffff1681526020019081526020016000206007015460405180806020018381526020018281038252600d8152602001807f416c6c72656164792070616964000000000000000000000000000000000000008152506020019250505060405180910390a15b6119d0565b7f72c6694e8258da9df05f72188f564478e8a53afd79cc3af03fad0dfb96a473dd60006040518080602001838152602001828103825260318152602001807f4e6f204e657720424554207965742c20504c45415345205355424d495445204281526020017f455420414e442048495420464c49502e2e0000000000000000000000000000008152506040019250505060405180910390a15b50565b606080600080600080600f60003373ffffffffffffffffffffffffffffffffffffffff1673ffffffffffffffffffffffffffffffffffffffff168152602001908152602001600020600001611ab7600f60003373ffffffffffffffffffffffffffffffffffffffff1673ffffffffffffffffffffffffffffffffffffffff168152602001908152602001600020600101805480602002602001604051908101604052809291908181526020018280548015611aad57602002820191906000526020600020905b815481526020019060010190808311611a99575b5050505050613a24565b600f60003373ffffffffffffffffffffffffffffffffffffffff1673ffffffffffffffffffffffffffffffffffffffff16815260200190815260200160002060020160009054906101000a900460ff16600f60003373ffffffffffffffffffffffffffffffffffffffff1673ffffffffffffffffffffffffffffffffffffffff16815260200190815260200160002060030154600f60003373ffffffffffffffffffffffffffffffffffffffff1673ffffffffffffffffffffffffffffffffffffffff16815260200190815260200160002060040160009054906101000a900460ff16600f60003373ffffffffffffffffffffffffffffffffffffffff1673ffffffffffffffffffffffffffffffffffffffff1681526020019081526020016000206005015485805480602002602001604051908101604052809291908181526020018280548015611c2857602002820191906000526020600020905b815481526020019060010190808311611c14575b50505050509550955095509550955095509550909192939495565b600d5481565b60006064600a5483811515611c5a57fe5b04029050919050565b60075481565b6000806000809054906101000a900473ffffffffffffffffffffffffffffffffffffffff1673ffffffffffffffffffffffffffffffffffffffff163373ffffffffffffffffffffffffffffffffffffffff16141515611cc757600080fd5b600c54611cd2610e7b565b0390506000600c8190555080600b600082825403925050819055503373ffffffffffffffffffffffffffffffffffffffff166108fc829081150290604051600060405180830381858888f19350505050158015611d33573d6000803e3d6000fd5b508091505090565b60095481565b600080600080600080600080611d556131c1565b1515611dc9576040517f08c379a00000000000000000000000000000000000000000000000000000000081526004018080602001828103825260188152602001807f4e6f742076616c696420506c617965722042616c616e6365000000000000000081525060200191505060405180910390fd5b601060003373ffffffffffffffffffffffffffffffffffffffff1673ffffffffffffffffffffffffffffffffffffffff16815260200190815260200160002060000154601060003373ffffffffffffffffffffffffffffffffffffffff1673ffffffffffffffffffffffffffffffffffffffff16815260200190815260200160002060010154601060003373ffffffffffffffffffffffffffffffffffffffff1673ffffffffffffffffffffffffffffffffffffffff16815260200190815260200160002060020154601060003373ffffffffffffffffffffffffffffffffffffffff1673ffffffffffffffffffffffffffffffffffffffff16815260200190815260200160002060030154601060003373ffffffffffffffffffffffffffffffffffffffff1673ffffffffffffffffffffffffffffffffffffffff16815260200190815260200160002060040154601060003373ffffffffffffffffffffffffffffffffffffffff1673ffffffffffffffffffffffffffffffffffffffff16815260200190815260200160002060050154601060003373ffffffffffffffffffffffffffffffffffffffff1673ffffffffffffffffffffffffffffffffffffffff16815260200190815260200160002060060154601060003373ffffffffffffffffffffffffffffffffffffffff1673ffffffffffffffffffffffffffffffffffffffff16815260200190815260200160002060070154975097509750975097509750975097509091929394959697565b6000600c54905090565b61200e81612985565b34141515612084576040517f08c379a000000000000000000000000000000000000000000000000000000000815260040180806020018281038252601e8152602001807f6d73672e76616c756520213d20746f7055705f63686970202a2031653136000081525060200191505060405180910390fd5b61208d81612985565b3414151561209a57600080fd5b34600b6000828254019250508190555034601060003373ffffffffffffffffffffffffffffffffffffffff1673ffffffffffffffffffffffffffffffffffffffff1681526020019081526020016000206001016000828254019250508190555061210333612fc5565b50565b60006064600a54830281151561211857fe5b049050919050565b606060008090505b825181101561217a57612151838281518110151561214257fe5b90602001906020020151612985565b838281518110151561215f57fe5b90602001906020020181815250508080600101915050612128565b82915050919050565b600080600083518551141515612201576040517f08c379a000000000000000000000000000000000000000000000000000000000815260040180806020018281038252600f8152602001807f204552524f52206265742061726179000000000000000000000000000000000081525060200191505060405180910390fd5b60009150600090505b845181101561238357600654858281518110151561222457fe5b90602001906020020151101580156122555750600754858281518110151561224857fe5b9060200190602002015111155b15156122c9576040517f08c379a00000000000000000000000000000000000000000000000000000000081526004018080602001828103825260178152602001807f426574206e756d626572206f7574206f662072616e676500000000000000000081525060200191505060405180910390fd5b60095484828151811015156122da57fe5b906020019060200201511015151561235a576040517f08c379a000000000000000000000000000000000000000000000000000000000815260040180806020018281038252601f8152602001807f42657420616d6f756e74206c657373207468616e206d696e20616d6f756e740081525060200191505060405180910390fd5b838181518110151561236857fe5b9060200190602002015182019150808060010191505061220a565b61238b610dc2565b8211151515612428576040517f08c379a00000000000000000000000000000000000000000000000000000000081526004018080602001828103825260228152602001807f544f4f20424947204245542c20504c454153452041444a555354204f5552204281526020017f455400000000000000000000000000000000000000000000000000000000000081525060400191505060405180910390fd5b60019250505092915050565b60008090505b81518110156124b757818181518110151561245157fe5b90602001906020020151601060003373ffffffffffffffffffffffffffffffffffffffff1673ffffffffffffffffffffffffffffffffffffffff16815260200190815260200160002060030160008282540192505081905550808060010191505061243a565b6124c033612fc5565b5050565b60008090505b825181101561261e57600f60003373ffffffffffffffffffffffffffffffffffffffff1673ffffffffffffffffffffffffffffffffffffffff168152602001908152602001600020600001838281518110151561252357fe5b906020019060200201519080600181540180825580915050906001820390600052602060002001600090919290919091505550600f60003373ffffffffffffffffffffffffffffffffffffffff1673ffffffffffffffffffffffffffffffffffffffff16815260200190815260200160002060010182828151811015156125a657fe5b90602001906020020151908060018154018082558091505090600182039060005260206000200160009091929091909150555061261183828151811015156125ea57fe5b90602001906020020151838381518110151561260257fe5b90602001906020020151613a87565b80806001019150506124ca565b505050565b600080600260009054906101000a900473ffffffffffffffffffffffffffffffffffffffff1673ffffffffffffffffffffffffffffffffffffffff16148061269557506000612693600260009054906101000a900473ffffffffffffffffffffffffffffffffffffffff16613b04565b145b156126a6576126a46000613b0f565b505b600260009054906101000a900473ffffffffffffffffffffffffffffffffffffffff1673ffffffffffffffffffffffffffffffffffffffff166338cc48316040518163ffffffff167c0100000000000000000000000000000000000000000000000000000000028152600401602060405180830381600087803b15801561272c57600080fd5b505af1158015612740573d6000803e3d6000fd5b505050506040513d602081101561275657600080fd5b810190808051906020019092919050505073ffffffffffffffffffffffffffffffffffffffff16600160009054906101000a900473ffffffffffffffffffffffffffffffffffffffff1673ffffffffffffffffffffffffffffffffffffffff161415156128bf57600260009054906101000a900473ffffffffffffffffffffffffffffffffffffffff1673ffffffffffffffffffffffffffffffffffffffff166338cc48316040518163ffffffff167c0100000000000000000000000000000000000000000000000000000000028152600401602060405180830381600087803b15801561284357600080fd5b505af1158015612857573d6000803e3d6000fd5b505050506040513d602081101561286d57600080fd5b8101908080519060200190929190505050600160006101000a81548173ffffffffffffffffffffffffffffffffffffffff021916908373ffffffffffffffffffffffffffffffffffffffff1602179055505b600160009054906101000a900473ffffffffffffffffffffffffffffffffffffffff1673ffffffffffffffffffffffffffffffffffffffff1663c281d19e6040518163ffffffff167c0100000000000000000000000000000000000000000000000000000000028152600401602060405180830381600087803b15801561294557600080fd5b505af1158015612959573d6000803e3d6000fd5b505050506040513d602081101561296f57600080fd5b8101908080519060200190929190505050905090565b600060085482029050919050565b6000606080606060006060806129a761544b565b6000606060008c1180156129bc575060208c11155b15156129c757600080fd5b600a8d029c5060016040519080825280601f01601f191660200182016040528015612a015781602001602082028038833980820191505090505b5098508b7f010000000000000000000000000000000000000000000000000000000000000002896000815181101515612a3657fe5b9060200101907effffffffffffffffffffffffffffffffffffffffffffffffffffffffffffff1916908160001a90535060206040519080825280601f01601f191660200182016040528015612a9a5781602001602082028038833980820191505090505b50975060206040519080825280601f01601f191660200182016040528015612ad15781602001602082028038833980820191505090505b509650612adc613b20565b95506020885242411860014303401860208901526020875285602088015260206040519080825280601f01601f191660200182016040528015612b2e5781602001602082028038833980820191505090505b5094508c602086015260086040519080825280601f01601f191660200182016040528015612b6b5781602001602082028038833980820191505090505b509350612b7e8560186008876000613e82565b506080604051908101604052808981526020018a8152602001888152602001868152509250612be36040805190810160405280600681526020017f72616e646f6d0000000000000000000000000000000000000000000000000000815250848d613ee2565b915060086040519080825280601f01601f191660200182016040528015612c195781602001602082028038833980820191505090505b50905060208401517f0100000000000000000000000000000000000000000000000000000000000000810460278301537e01000000000000000000000000000000000000000000000000000000000000810460268301537d010000000000000000000000000000000000000000000000000000000000810460258301537c0100000000000000000000000000000000000000000000000000000000810460248301537b01000000000000000000000000000000000000000000000000000000810460238301537a010000000000000000000000000000000000000000000000000000810460228301537901000000000000000000000000000000000000000000000000008104602183015378010000000000000000000000000000000000000000000000008104602083015350612fb28282856001600481101515612d5a57fe5b60200201516002876000600481101515612d7057fe5b60200201516040518082805190602001908083835b602083101515612daa5780518252602082019150602081019050602083039250612d85565b6001836020036101000a0380198251168184511680821785525050505050509050019150506020604051808303816000865af1158015612dee573d6000803e3d6000fd5b5050506040513d6020811015612e0357600080fd5b8101908080519060200190929190505050876002600481101515612e2357fe5b60200201516040516020018085805190602001908083835b602083101515612e605780518252602082019150602081019050602083039250612e3b565b6001836020036101000a03801982511681845116808217855250505050505090500184805190602001908083835b602083101515612eb35780518252602082019150602081019050602083039250612e8e565b6001836020036101000a038019825116818451168082178552505050505050905001836000191660001916815260200182805190602001908083835b602083101515612f145780518252602082019150602081019050602083039250612eef565b6001836020036101000a0380198251168184511680821785525050505050509050019450505050506040516020818303038152906040526040518082805190602001908083835b602083101515612f805780518252602082019150602081019050602083039250612f5b565b6001836020036101000a038019825116818451168082178552505050505050905001915050604051809103902061428e565b8199505050505050505050509392505050565b601060008273ffffffffffffffffffffffffffffffffffffffff1673ffffffffffffffffffffffffffffffffffffffff16815260200190815260200160002060000154600c60008282540392505081905550601060008273ffffffffffffffffffffffffffffffffffffffff1673ffffffffffffffffffffffffffffffffffffffff16815260200190815260200160002060040154601060008373ffffffffffffffffffffffffffffffffffffffff1673ffffffffffffffffffffffffffffffffffffffff16815260200190815260200160002060030154601060008473ffffffffffffffffffffffffffffffffffffffff1673ffffffffffffffffffffffffffffffffffffffff16815260200190815260200160002060020154601060008573ffffffffffffffffffffffffffffffffffffffff1673ffffffffffffffffffffffffffffffffffffffff16815260200190815260200160002060010154030301601060008373ffffffffffffffffffffffffffffffffffffffff1673ffffffffffffffffffffffffffffffffffffffff16815260200190815260200160002060000181905550601060008273ffffffffffffffffffffffffffffffffffffffff1673ffffffffffffffffffffffffffffffffffffffff16815260200190815260200160002060000154600c6000828254019250508190555050565b6000601060003373ffffffffffffffffffffffffffffffffffffffff1673ffffffffffffffffffffffffffffffffffffffff16815260200190815260200160002060040154601060003373ffffffffffffffffffffffffffffffffffffffff1673ffffffffffffffffffffffffffffffffffffffff16815260200190815260200160002060030154601060003373ffffffffffffffffffffffffffffffffffffffff1673ffffffffffffffffffffffffffffffffffffffff16815260200190815260200160002060020154601060003373ffffffffffffffffffffffffffffffffffffffff1673ffffffffffffffffffffffffffffffffffffffff16815260200190815260200160002060010154030301601060003373ffffffffffffffffffffffffffffffffffffffff1673ffffffffffffffffffffffffffffffffffffffff1681526020019081526020016000206000015414156133245760019050613516565b601060003373ffffffffffffffffffffffffffffffffffffffff1673ffffffffffffffffffffffffffffffffffffffff16815260200190815260200160002060040154601060003373ffffffffffffffffffffffffffffffffffffffff1673ffffffffffffffffffffffffffffffffffffffff16815260200190815260200160002060030154601060003373ffffffffffffffffffffffffffffffffffffffff1673ffffffffffffffffffffffffffffffffffffffff16815260200190815260200160002060020154601060003373ffffffffffffffffffffffffffffffffffffffff1673ffffffffffffffffffffffffffffffffffffffff16815260200190815260200160002060010154030301601060003373ffffffffffffffffffffffffffffffffffffffff1673ffffffffffffffffffffffffffffffffffffffff16815260200190815260200160002060000154141515613511576040517f08c379a00000000000000000000000000000000000000000000000000000000081526004018080602001828103825260338152602001807f76616c6964506c6179657242616c616e63653a20506c617965722062616c616e81526020017f636520636865636b206e6f74206d61746368210000000000000000000000000081525060400191505060405180910390fd5b600090505b90565b613521615473565b80600f60008473ffffffffffffffffffffffffffffffffffffffff1673ffffffffffffffffffffffffffffffffffffffff168152602001908152602001600020600082015181600001908051906020019061357d9291906154b1565b50602082015181600101908051906020019061359a9291906154b1565b5060408201518160020160006101000a81548160ff0219169083151502179055506060820151816003019060001916905560808201518160040160006101000a81548160ff02191690831515021790555060a082015181600501559050506000600f60008473ffffffffffffffffffffffffffffffffffffffff1673ffffffffffffffffffffffffffffffffffffffff16815260200190815260200160002060020160006101000a81548160ff0219169083151502179055505050565b60008060008060008060116000896000191660001916815260200190815260200160002060009054906101000a900473ffffffffffffffffffffffffffffffffffffffff16925086600f60008573ffffffffffffffffffffffffffffffffffffffff1673ffffffffffffffffffffffffffffffffffffffff168152602001908152602001600020600501819055506000600f60008573ffffffffffffffffffffffffffffffffffffffff1673ffffffffffffffffffffffffffffffffffffffff16815260200190815260200160002060020160006101000a81548160ff0219169083151502179055506001600f60008573ffffffffffffffffffffffffffffffffffffffff1673ffffffffffffffffffffffffffffffffffffffff16815260200190815260200160002060040160006101000a81548160ff02191690831515021790555060009150600090505b600f60008473ffffffffffffffffffffffffffffffffffffffff1673ffffffffffffffffffffffffffffffffffffffff16815260200190815260200160002060000180549050811015613982576138ad600f60008573ffffffffffffffffffffffffffffffffffffffff1673ffffffffffffffffffffffffffffffffffffffff1681526020019081526020016000206000018281548110151561384357fe5b9060005260206000200154600f60008673ffffffffffffffffffffffffffffffffffffffff1673ffffffffffffffffffffffffffffffffffffffff1681526020019081526020016000206001018381548110151561389d57fe5b90600052602060002001546142b6565b86600f60008573ffffffffffffffffffffffffffffffffffffffff1673ffffffffffffffffffffffffffffffffffffffff168152602001908152602001600020600001828154811015156138fd57fe5b9060005260206000200154141561397557613970600f60008573ffffffffffffffffffffffffffffffffffffffff1673ffffffffffffffffffffffffffffffffffffffff1681526020019081526020016000206001018281548110151561396057fe5b9060005260206000200154612106565b820191505b80806001019150506137a4565b61398b83613519565b613995838361437f565b61399e83612fc5565b7f16681e96ee123e6c808cf8e77d2261461a1da90aaf33e0d862230ba0cea571f4838389604051808473ffffffffffffffffffffffffffffffffffffffff1673ffffffffffffffffffffffffffffffffffffffff168152602001838152602001828152602001935050505060405180910390a18282889550955095505050509250925092565b606060008090505b8251811015613a7e57613a558382815181101515613a4657fe5b906020019060200201516144d0565b8382815181101515613a6357fe5b90602001906020020181815250508080600101915050613a2c565b82915050919050565b806012600084815260200190815260200160002060000160008282540192505081905550600d54613acd6012600085815260200190815260200160002060000154612106565b1115613b0057613af26012600084815260200190815260200160002060000154612106565b600d81905550816013819055505b5050565b6000813b9050919050565b6000613b196144e7565b9050919050565b600080600260009054906101000a900473ffffffffffffffffffffffffffffffffffffffff1673ffffffffffffffffffffffffffffffffffffffff161480613b9257506000613b90600260009054906101000a900473ffffffffffffffffffffffffffffffffffffffff16613b04565b145b15613ba357613ba16000613b0f565b505b600260009054906101000a900473ffffffffffffffffffffffffffffffffffffffff1673ffffffffffffffffffffffffffffffffffffffff166338cc48316040518163ffffffff167c0100000000000000000000000000000000000000000000000000000000028152600401602060405180830381600087803b158015613c2957600080fd5b505af1158015613c3d573d6000803e3d6000fd5b505050506040513d6020811015613c5357600080fd5b810190808051906020019092919050505073ffffffffffffffffffffffffffffffffffffffff16600160009054906101000a900473ffffffffffffffffffffffffffffffffffffffff1673ffffffffffffffffffffffffffffffffffffffff16141515613dbc57600260009054906101000a900473ffffffffffffffffffffffffffffffffffffffff1673ffffffffffffffffffffffffffffffffffffffff166338cc48316040518163ffffffff167c0100000000000000000000000000000000000000000000000000000000028152600401602060405180830381600087803b158015613d4057600080fd5b505af1158015613d54573d6000803e3d6000fd5b505050506040513d6020811015613d6a57600080fd5b8101908080519060200190929190505050600160006101000a81548173ffffffffffffffffffffffffffffffffffffffff021916908373ffffffffffffffffffffffffffffffffffffffff1602179055505b600160009054906101000a900473ffffffffffffffffffffffffffffffffffffffff1673ffffffffffffffffffffffffffffffffffffffff1663abaa5f3e6040518163ffffffff167c0100000000000000000000000000000000000000000000000000000000028152600401602060405180830381600087803b158015613e4257600080fd5b505af1158015613e56573d6000803e3d6000fd5b505050506040513d6020811015613e6c57600080fd5b8101908080519060200190929190505050905090565b60606000806000848701925082865110151515613e9e57600080fd5b8760200191508460200190505b868860200101821015613ed35781890151808288015250602082019150602081019050613eab565b85935050505095945050505050565b600060606000600260009054906101000a900473ffffffffffffffffffffffffffffffffffffffff1673ffffffffffffffffffffffffffffffffffffffff161480613f5757506000613f55600260009054906101000a900473ffffffffffffffffffffffffffffffffffffffff16613b04565b145b15613f6857613f666000613b0f565b505b600260009054906101000a900473ffffffffffffffffffffffffffffffffffffffff1673ffffffffffffffffffffffffffffffffffffffff166338cc48316040518163ffffffff167c0100000000000000000000000000000000000000000000000000000000028152600401602060405180830381600087803b158015613fee57600080fd5b505af1158015614002573d6000803e3d6000fd5b505050506040513d602081101561401857600080fd5b810190808051906020019092919050505073ffffffffffffffffffffffffffffffffffffffff16600160009054906101000a900473ffffffffffffffffffffffffffffffffffffffff1673ffffffffffffffffffffffffffffffffffffffff1614151561418157600260009054906101000a900473ffffffffffffffffffffffffffffffffffffffff1673ffffffffffffffffffffffffffffffffffffffff166338cc48316040518163ffffffff167c0100000000000000000000000000000000000000000000000000000000028152600401602060405180830381600087803b15801561410557600080fd5b505af1158015614119573d6000803e3d6000fd5b505050506040513d602081101561412f57600080fd5b8101908080519060200190929190505050600160006101000a81548173ffffffffffffffffffffffffffffffffffffffff021916908373ffffffffffffffffffffffffffffffffffffffff1602179055505b60046040519080825280602002602001820160405280156141b657816020015b60608152602001906001900390816141a15790505b5090508360006004811015156141c857fe5b60200201518160008151811015156141dc57fe5b906020019060200201819052508360016004811015156141f857fe5b602002015181600181518110151561420c57fe5b9060200190602002018190525083600260048110151561422857fe5b602002015181600281518110151561423c57fe5b9060200190602002018190525083600360048110151561425857fe5b602002015181600381518110151561426c57fe5b90602001906020020181905250614284858285614a3e565b9150509392505050565b8060036000846000191660001916815260200190815260200160002081600019169055505050565b6000808260126000868152602001908152602001600020600001600082825403925050819055508360135414156143795760009150600090505b60648160ff16101561435157601260008260ff1681526020019081526020016000206000015482101561434457601260008260ff1681526020019081526020016000206000015491508060ff166013819055505b80806001019150506142f0565b61437260126000601354815260200190815260200160002060000154612106565b600d819055505b50505050565b601060008373ffffffffffffffffffffffffffffffffffffffff1673ffffffffffffffffffffffffffffffffffffffff16815260200190815260200160002060050160008154809291906001019190505550600081111561447c5780601060008473ffffffffffffffffffffffffffffffffffffffff1673ffffffffffffffffffffffffffffffffffffffff168152602001908152602001600020600401600082825401925050819055506001601060008473ffffffffffffffffffffffffffffffffffffffff1673ffffffffffffffffffffffffffffffffffffffff168152602001908152602001600020600601600082825401925050819055505b80601060008473ffffffffffffffffffffffffffffffffffffffff1673ffffffffffffffffffffffffffffffffffffffff168152602001908152602001600020600701819055506144cc82612fc5565b5050565b6000600854828115156144df57fe5b049050919050565b600080614507731d3b2638a7cc9f2cb3d298a3da7a90b67e5506ed613b04565b11156145a957731d3b2638a7cc9f2cb3d298a3da7a90b67e5506ed600260006101000a81548173ffffffffffffffffffffffffffffffffffffffff021916908373ffffffffffffffffffffffffffffffffffffffff1602179055506145a06040805190810160405280600b81526020017f6574685f6d61696e6e6574000000000000000000000000000000000000000000815250615000565b60019050614a3b565b60006145c873c03a2615d5efaf5f49f60b7bb6583eaec212fdf1613b04565b111561466a5773c03a2615d5efaf5f49f60b7bb6583eaec212fdf1600260006101000a81548173ffffffffffffffffffffffffffffffffffffffff021916908373ffffffffffffffffffffffffffffffffffffffff1602179055506146616040805190810160405280600c81526020017f6574685f726f707374656e330000000000000000000000000000000000000000815250615000565b60019050614a3b565b600061468973b7a07bcf2ba2f2703b24c0691b5278999c59ac7e613b04565b111561472b5773b7a07bcf2ba2f2703b24c0691b5278999c59ac7e600260006101000a81548173ffffffffffffffffffffffffffffffffffffffff021916908373ffffffffffffffffffffffffffffffffffffffff1602179055506147226040805190810160405280600981526020017f6574685f6b6f76616e0000000000000000000000000000000000000000000000815250615000565b60019050614a3b565b600061474a73146500cfd35b22e4a392fe0adc06de1a1368ed48613b04565b11156147ec5773146500cfd35b22e4a392fe0adc06de1a1368ed48600260006101000a81548173ffffffffffffffffffffffffffffffffffffffff021916908373ffffffffffffffffffffffffffffffffffffffff1602179055506147e36040805190810160405280600b81526020017f6574685f72696e6b656279000000000000000000000000000000000000000000815250615000565b60019050614a3b565b600061480b73a2998efd205fb9d4b4963afb70778d6354ad3a41613b04565b11156148ad5773a2998efd205fb9d4b4963afb70778d6354ad3a41600260006101000a81548173ffffffffffffffffffffffffffffffffffffffff021916908373ffffffffffffffffffffffffffffffffffffffff1602179055506148a46040805190810160405280600a81526020017f6574685f676f65726c6900000000000000000000000000000000000000000000815250615000565b60019050614a3b565b60006148cc736f485c8bf6fc43ea212e93bbf8ce046c7f1cb475613b04565b111561493057736f485c8bf6fc43ea212e93bbf8ce046c7f1cb475600260006101000a81548173ffffffffffffffffffffffffffffffffffffffff021916908373ffffffffffffffffffffffffffffffffffffffff16021790555060019050614a3b565b600061494f7320e12a1f859b3feae5fb2a0a32c18f5a65555bbf613b04565b11156149b3577320e12a1f859b3feae5fb2a0a32c18f5a65555bbf600260006101000a81548173ffffffffffffffffffffffffffffffffffffffff021916908373ffffffffffffffffffffffffffffffffffffffff16021790555060019050614a3b565b60006149d27351efaf4c8b3c9afbd5ab9f4bbc82784ab6ef8faa613b04565b1115614a36577351efaf4c8b3c9afbd5ab9f4bbc82784ab6ef8faa600260006101000a81548173ffffffffffffffffffffffffffffffffffffffff021916908373ffffffffffffffffffffffffffffffffffffffff16021790555060019050614a3b565b600090505b90565b60008060606000600260009054906101000a900473ffffffffffffffffffffffffffffffffffffffff1673ffffffffffffffffffffffffffffffffffffffff161480614ab457506000614ab2600260009054906101000a900473ffffffffffffffffffffffffffffffffffffffff16613b04565b145b15614ac557614ac36000613b0f565b505b600260009054906101000a900473ffffffffffffffffffffffffffffffffffffffff1673ffffffffffffffffffffffffffffffffffffffff166338cc48316040518163ffffffff167c0100000000000000000000000000000000000000000000000000000000028152600401602060405180830381600087803b158015614b4b57600080fd5b505af1158015614b5f573d6000803e3d6000fd5b505050506040513d6020811015614b7557600080fd5b810190808051906020019092919050505073ffffffffffffffffffffffffffffffffffffffff16600160009054906101000a900473ffffffffffffffffffffffffffffffffffffffff1673ffffffffffffffffffffffffffffffffffffffff16141515614cde57600260009054906101000a900473ffffffffffffffffffffffffffffffffffffffff1673ffffffffffffffffffffffffffffffffffffffff166338cc48316040518163ffffffff167c0100000000000000000000000000000000000000000000000000000000028152600401602060405180830381600087803b158015614c6257600080fd5b505af1158015614c76573d6000803e3d6000fd5b505050506040513d6020811015614c8c57600080fd5b8101908080519060200190929190505050600160006101000a81548173ffffffffffffffffffffffffffffffffffffffff021916908373ffffffffffffffffffffffffffffffffffffffff1602179055505b600160009054906101000a900473ffffffffffffffffffffffffffffffffffffffff1673ffffffffffffffffffffffffffffffffffffffff16632ef3accc87866040518363ffffffff167c01000000000000000000000000000000000000000000000000000000000281526004018080602001838152602001828103825284818151815260200191508051906020019080838360005b83811015614d8f578082015181840152602081019050614d74565b50505050905090810190601f168015614dbc5780820380516001836020036101000a031916815260200191505b509350505050602060405180830381600087803b158015614ddc57600080fd5b505af1158015614df0573d6000803e3d6000fd5b505050506040513d6020811015614e0657600080fd5b81019080805190602001909291905050509150833a02670de0b6b3a764000001821115614e395760006001029250614ff7565b614e428561501a565b9050600160009054906101000a900473ffffffffffffffffffffffffffffffffffffffff1673ffffffffffffffffffffffffffffffffffffffff1663c55c1cb68360008985896040518663ffffffff167c0100000000000000000000000000000000000000000000000000000000028152600401808581526020018060200180602001848152602001838103835286818151815260200191508051906020019080838360005b83811015614f03578082015181840152602081019050614ee8565b50505050905090810190601f168015614f305780820380516001836020036101000a031916815260200191505b50838103825285818151815260200191508051906020019080838360005b83811015614f69578082015181840152602081019050614f4e565b50505050905090810190601f168015614f965780820380516001836020036101000a031916815260200191505b5096505050505050506020604051808303818588803b158015614fb857600080fd5b505af1158015614fcc573d6000803e3d6000fd5b50505050506040513d6020811015614fe357600080fd5b810190808051906020019092919050505092505b50509392505050565b80600590805190602001906150169291906154fe565b5050565b606061502461557e565b600061502e61509f565b61503a826104006150ab565b615043826150fb565b600090505b83518110156150885761507b848281518110151561506257fe5b906020019060200201518361510990919063ffffffff16565b8080600101915050615048565b6150918261512e565b816000015192505050919050565b60405180590338823950565b600081905060006020828115156150be57fe5b061415156150db576020818115156150d257fe5b06602003810190505b808360200181815250506040518084526000815281810160405250505050565b61510681600461513c565b50565b6151168260028351615160565b61512981836152b990919063ffffffff16565b505050565b61513981600761513c565b50565b61515c601f60058360ff169060020a02178361536590919063ffffffff16565b5050565b6017811115156151915761518c8160058460ff169060020a0260ff16178461536590919063ffffffff16565b6152b4565b60ff811115156151d7576151bb601860058460ff169060020a02178461536590919063ffffffff16565b6151d1816001856153a59092919063ffffffff16565b506152b3565b61ffff8111151561521e57615202601960058460ff169060020a02178461536590919063ffffffff16565b615218816002856153a59092919063ffffffff16565b506152b2565b63ffffffff811115156152675761524b601a60058460ff169060020a02178461536590919063ffffffff16565b615261816004856153a59092919063ffffffff16565b506152b1565b67ffffffffffffffff811115156152b057615298601b60058460ff169060020a02178461536590919063ffffffff16565b6152ae816008856153a59092919063ffffffff16565b505b5b5b5b5b505050565b6152c161557e565b600080600080866020015187600001515187510111156152f7576152f68760026152f08a602001518a5161540c565b02615428565b5b8551915086518051602081830101955087518101825260208801945050505b60208210151561533b5782518452602084019350602083019250602082039150615316565b6001826020036101000a039050801983511681855116818117865250508694505050505092915050565b8160200151600183600001515101111561538b5761538a826002846020015102615428565b5b815180516020818301018381536001820183525050505050565b6153ad61557e565b60008460200151856000015151840111156153dd576153dc8560026153d688602001518761540c565b02615428565b5b6001836101000a0390508451805184818301018684198251161781528582018352505050849150509392505050565b60008183111561541e57829050615422565b8190505b92915050565b60608260000151905061543b83836150ab565b61544583826152b9565b50505050565b6080604051908101604052806004905b606081526020019060019003908161545b5790505090565b60c060405190810160405280606081526020016060815260200160001515815260200160008019168152602001600015158152602001600081525090565b8280548282559060005260206000209081019282156154ed579160200282015b828111156154ec5782518255916020019190600101906154d1565b5b5090506154fa9190615598565b5090565b828054600181600116156101000203166002900490600052602060002090601f016020900481019282601f1061553f57805160ff191683800117855561556d565b8280016001018555821561556d579182015b8281111561556c578251825591602001919060010190615551565b5b50905061557a9190615598565b5090565b604080519081016040528060608152602001600081525090565b6155ba91905b808211156155b657600081600090555060010161559e565b5090565b905600a165627a7a72305820cd167d0c4e9361d639c890fda2425ab3ec322a61d2b10f93694a3234a50c5f710029",
  "source": "//SPDX-License-Identifier: UNLICENSED\r\n\r\nimport \"./Ownable.sol\";\r\nimport \"./provableAPI_0.4.25_simplified.sol\";\r\npragma solidity 0.4.26;\r\n\r\ncontract CoinFlip100 is Ownable, usingProvable{\r\n\r\n    uint public BET_RANGE_MIN = 0;\r\n    uint public BET_RANGE_MAX = 99;\r\n\r\n    uint CHIP_TO_WEI = 10**15; //1 chips = 1 eth - Can be parametric\r\n    uint public BET_MIN_AMOUNT_WEI = CHIP_TO_WEI ; //All Amount are in ETH\r\n    uint BET_WIN_RATE = 7000; //Win rate = 70x with 2 decimals\r\n\r\n    uint public _contractBalance_;\r\n    uint public _totalAllPlayerBalance_; // Total balance deposited and not used by players (not locked in bets) can be withdrawn by players any time\r\n    uint public _lockedInBets_;  // Total amount locked in bets (can not be widthdraw by any one)\r\n\r\n    uint public _latestNumber; // latest random number returned by Oracle engine\r\n\r\n    // status of active bets; Each player can have multiple bets before each flip\r\n    //Update each time player submited new bet\r\n\r\n    struct Bets  {\r\n        uint[] betNumbers;\r\n        uint[] betAmount;  //wei amount bet for each number\r\n        bool waitingResult;\r\n        bytes32 waitingId; //uint == 0 when not waiting for Flipped result\r\n        bool paidOut;\r\n        uint lastResult;\r\n    }\r\n\r\n    //list of all activities of a player (update after finished solving each bet)\r\n    struct betHistory {\r\n        uint totalBalance;\r\n        uint totalTopUp;\r\n        uint totalWithdrawn;\r\n        uint totalSpentAmount;\r\n        uint totalWinAmount;\r\n        uint totalGames;\r\n        uint totalWins;\r\n        uint lastWinAmount;\r\n    }\r\n\r\n    struct betMarket {\r\n        uint confirmed; // When owners fund is enough, number il be confirmed\r\n        uint waiting; // when fund is NOT enouugh, number will placed on waiting quee\r\n    }\r\n    //betList is a list of all active bets\r\n    // Should limit storage size somehow to avoid everflow in future?\r\n    mapping (address => Bets) public activeBet;\r\n\r\n    //playerList store information\r\n    // Should limit storage size somehow to avoid everflow in future?\r\n    mapping (address => betHistory) public playerHistory;\r\n\r\n    //each queryId map with one address\r\n    mapping (bytes32 => address) private playersQuery;\r\n\r\n    //each number has a total bet amount\r\n    mapping (uint => betMarket) betAmountForNumber; //in wei // for all players combined\r\n    uint _maxBetedNumber_; //Number for wich highest amount beted\r\n\r\n    //newBetCreated emit when created and not finished\r\n    event newBetCreated(uint[] betNumbers, uint[] betAmounts_chip, address playerAddress);\r\n\r\n    //betFinished emit when\r\n    event betFinished(address playerAddress, uint winAmount, uint result);\r\n\r\n    //common notice\r\n    event notice(string noticeString, uint noticeValue);\r\n\r\n\r\n\r\n    //Oracle >>>>>>>>>>>>>>>>>>>>\r\n    uint256 constant NUM_RANDOM_BYTES_REQUESTED = 1;\r\n\r\n    event generatedRandomNumber(bytes32 Id, uint256 randomNumber ,  bytes proof);\r\n    event LogNewProvableQuery(string notice);\r\n    event proofFailed(string description);\r\n\r\n    constructor() public payable {\r\n        provable_setProof(proofType_Ledger);\r\n        _contractBalance_ = msg.value ;\r\n\r\n    }\r\n\r\n\r\n    function __callback(bytes32 _queryId, string memory _result, bytes memory _proof) public {\r\n        require(msg.sender == provable_cbAddress());\r\n        //if (\r\n        //    provable_randomDS_proofVerify__returnCode(\r\n        //        _queryId,\r\n        //        _result,\r\n        //        _proof\r\n        //    ) != 0\r\n        //) {\r\n        //    emit proofFailed(\"The proof verification failed in the callback\");\r\n        //} else {\r\n            //uint256 randomNumber = uint256(keccak256(abi.encodePacked(_result)))%100;\r\n\r\n            uint256 randomNumber = 99;\r\n            _latestNumber = randomNumber;\r\n            address playerAddress = playersQuery[_queryId];\r\n            activeBet[playerAddress].lastResult = randomNumber;\r\n            //payOut(_queryId, randomNumber, _proof);\r\n            emit generatedRandomNumber(_queryId, randomNumber, _proof);\r\n        //}\r\n    }\r\n\r\n    /*\r\n    function getRandom100() payable public returns(bytes32 waitingId)\r\n    {\r\n        uint256 QUERY_EXECUTION_DELAY = 0;\r\n        uint256 GAS_FOR_CALLBACK = 200000;\r\n\r\n        waitingId = provable_newRandomDSQuery(\r\n            QUERY_EXECUTION_DELAY,\r\n            NUM_RANDOM_BYTES_REQUESTED,\r\n            GAS_FOR_CALLBACK\r\n        );\r\n        emit LogNewProvableQuery(\"Provable query was sent, waiting for the answer..\");\r\n        return (waitingId);\r\n    }\r\n    */\r\n    //Oracle <<<<<<<<<<<<<<<<<<<<<\r\n\r\n\r\n    //Check Account Balance validity\r\n    function validPlayerBalance() private view returns(bool) {\r\n          if (playerHistory[msg.sender].totalBalance ==\r\n            playerHistory[msg.sender].totalTopUp - playerHistory[msg.sender].totalWithdrawn -\r\n            playerHistory[msg.sender].totalSpentAmount + playerHistory[msg.sender].totalWinAmount) {\r\n                return true;\r\n            } else {\r\n                require(playerHistory[msg.sender].totalBalance ==\r\n                  playerHistory[msg.sender].totalTopUp - playerHistory[msg.sender].totalWithdrawn -\r\n                  playerHistory[msg.sender].totalSpentAmount + playerHistory[msg.sender].totalWinAmount,\r\n                  \"validPlayerBalance: Player balance check not match!\");\r\n                return false;\r\n            }\r\n    }\r\n\r\n    function wei2Chip(uint _wei) private view returns(uint) {\r\n        return _wei / CHIP_TO_WEI;\r\n    }\r\n\r\n    function chip2Wei(uint chip) private view returns(uint) {\r\n        return chip * CHIP_TO_WEI;\r\n    }\r\n\r\n    function chip2Wei_ar(uint[] memory chip_ar) private view returns(uint[] memory) {\r\n        for (uint x=0; x<chip_ar.length; x++) {\r\n            chip_ar[x] = chip2Wei(chip_ar[x]);\r\n        }\r\n        return chip_ar;\r\n    }\r\n\r\n    function wei2Chip_ar(uint[] memory wei_ar) private view returns(uint[] memory) {\r\n        for (uint x=0; x<wei_ar.length; x++) {\r\n           wei_ar[x] = wei2Chip(wei_ar[x]);\r\n        }\r\n        return wei_ar;\r\n    }\r\n\r\n\r\n    //Owner balance topUp\r\n    function ownerFundUp_chip(uint topUp_chip) public onlyOwner payable {\r\n\r\n        require(msg.value == chip2Wei(topUp_chip), \"msg.value != topUp_chip * 1e16\");\r\n        if (msg.value != chip2Wei(topUp_chip)) revert();\r\n        _contractBalance_ += msg.value ;\r\n    }\r\n\r\n\r\n    //Player account balance topUp\r\n    function playerTopUp_chip(uint topUp_chip) public payable {\r\n        //1eth = 1000000000000000000 wei\r\n        require(msg.value == chip2Wei(topUp_chip), \"msg.value != topUp_chip * 1e16\");\r\n        if (msg.value != chip2Wei(topUp_chip)) revert();\r\n\r\n        _contractBalance_ += msg.value ;\r\n        playerHistory[msg.sender].totalTopUp += msg.value;\r\n        updatePlayerBalance(msg.sender);\r\n    }\r\n\r\n    // Calculate values each time player status changed\r\n    // All values of playerHistory in wei\r\n    function updatePlayerBalance(address playerAddress) private {\r\n        _totalAllPlayerBalance_ -= playerHistory[playerAddress].totalBalance;\r\n        playerHistory[playerAddress].totalBalance =\r\n        playerHistory[playerAddress].totalTopUp -\r\n        playerHistory[playerAddress].totalWithdrawn -\r\n        playerHistory[playerAddress].totalSpentAmount +\r\n        playerHistory[playerAddress].totalWinAmount;\r\n        _totalAllPlayerBalance_ += playerHistory[playerAddress].totalBalance;\r\n        }\r\n\r\n\r\n    function mySpentBalance(uint[] memory spentAmounts_wei) private {\r\n        for (uint x=0; x<spentAmounts_wei.length; x++) {\r\n            playerHistory[msg.sender].totalSpentAmount += spentAmounts_wei[x];\r\n        }\r\n        updatePlayerBalance(msg.sender);\r\n    }\r\n\r\n    function myWinBalance(address playerAddress, uint winAmount_wei) private  {\r\n        playerHistory[playerAddress].totalGames++;\r\n        if (winAmount_wei>0) {\r\n            playerHistory[playerAddress].totalWinAmount += winAmount_wei;\r\n            playerHistory[playerAddress].totalWins += 1;\r\n        }\r\n        playerHistory[playerAddress].lastWinAmount = winAmount_wei;\r\n        updatePlayerBalance(playerAddress);\r\n    }\r\n\r\n    function getPlayerHistory() public view  returns(uint,uint,uint,uint,uint,uint,uint,uint) {\r\n        require(validPlayerBalance(), \"Not valid Player Balance\");\r\n        return  (   playerHistory[msg.sender].totalBalance,\r\n                    playerHistory[msg.sender].totalTopUp,\r\n                    playerHistory[msg.sender].totalWithdrawn,\r\n                    playerHistory[msg.sender].totalSpentAmount,\r\n                    playerHistory[msg.sender].totalWinAmount,\r\n                    playerHistory[msg.sender].totalGames,\r\n                    playerHistory[msg.sender].totalWins,\r\n                    playerHistory[msg.sender].lastWinAmount );\r\n    }\r\n\r\n    function realContractBalance() public view returns(uint) {\r\n        return address(this).balance;\r\n    }\r\n\r\n    function getContractBalance() public view returns (uint) {\r\n      return _contractBalance_;\r\n    }\r\n\r\n    function get_totalAllPlayerBalance_() public view returns (uint) {\r\n      return _totalAllPlayerBalance_;\r\n    }\r\n\r\n    function get_ownerBalance() public view returns(uint) {\r\n      if (_contractBalance_ == 0) {\r\n        return 0;\r\n      }\r\n      else {\r\n        return _contractBalance_ - _totalAllPlayerBalance_ - _lockedInBets_;\r\n      }\r\n    }\r\n\r\n    function playerPlayableFund() public view returns(uint) {\r\n        uint contractPlayable = get_ownerBalance();\r\n        if (getWinAmountWei(playerHistory[msg.sender].totalBalance) < contractPlayable) {\r\n            return playerHistory[msg.sender].totalBalance;\r\n        }\r\n        else {\r\n            return get_betAbleAmountWei(contractPlayable);\r\n        }\r\n    }\r\n\r\n    function verifyBet(uint[] memory betNumbers, uint[] memory betAmount_wei) private view returns(bool) {\r\n        // verify that new bet is valid\r\n        require (betNumbers.length == betAmount_wei.length,\" ERROR bet aray\") ;\r\n        uint sumBetAmount = 0;\r\n\r\n        for (uint x = 0; x<betNumbers.length; x++) {\r\n            require(((betNumbers[x] >=  BET_RANGE_MIN) && (betNumbers[x] <=  BET_RANGE_MAX)), \"Bet number out of range\");\r\n            require(betAmount_wei[x] >=  BET_MIN_AMOUNT_WEI, \"Bet amount less than min amount\");\r\n            sumBetAmount += betAmount_wei[x];\r\n        }\r\n        require(sumBetAmount <= playerPlayableFund(), \"TOO BIG BET, PLEASE ADJUST OUR BET\");\r\n        return true;\r\n    }\r\n\r\n    function lockOutAmount(uint BetNumber, uint BetAmount) private {\r\n        betAmountForNumber [ BetNumber ].confirmed -= BetAmount;\r\n        if (_maxBetedNumber_ == BetNumber) {\r\n            // Should find new highest bet\r\n            uint maxBet = 0;\r\n            for (uint8 x=0; x<100; x++) {\r\n                if (maxBet < betAmountForNumber[x].confirmed) {\r\n                    maxBet = betAmountForNumber[x].confirmed;\r\n                    _maxBetedNumber_ = x;\r\n\r\n                }\r\n            }\r\n            _lockedInBets_ = getWinAmountWei(betAmountForNumber [ _maxBetedNumber_ ].confirmed );\r\n        }\r\n    }\r\n\r\n    function lockInAmount(uint newBetNumber, uint newBetAmount) private {\r\n        betAmountForNumber [ newBetNumber ].confirmed += newBetAmount;\r\n        if (getWinAmountWei(betAmountForNumber [ newBetNumber ].confirmed )> _lockedInBets_) {\r\n            _lockedInBets_ = getWinAmountWei(betAmountForNumber [ newBetNumber ].confirmed );\r\n            _maxBetedNumber_ = newBetNumber;\r\n        }\r\n    }\r\n\r\n    function updateActiveBet(uint[] memory newBetNumbers, uint[] memory newBetAmount_wei) private {\r\n        //append new bets with current Betlist\r\n        for (uint x=0; x<newBetNumbers.length; x++) {\r\n            activeBet[msg.sender].betNumbers.push(newBetNumbers[x]);\r\n            activeBet[msg.sender].betAmount.push(newBetAmount_wei[x]);\r\n\r\n            lockInAmount(newBetNumbers[x], newBetAmount_wei[x]);\r\n        }\r\n    }\r\n\r\n\r\n\r\n    function createMyBet(uint[] memory betNumbers, uint[] memory betAmount_chip) public returns (bool) {\r\n\r\n        //money amount received from frontEnd is in Chips;\r\n        //Should conver all chips to Wei\r\n\r\n        require(activeBet[msg.sender].waitingResult ==  false, \".. Please Wait for result of last bet..\");\r\n\r\n        uint[] memory betAmount = chip2Wei_ar(betAmount_chip);\r\n\r\n        require(verifyBet(betNumbers,betAmount), \"NOT VALID BET\");\r\n\r\n        mySpentBalance(betAmount); //Deduct spent amount from player balance\r\n\r\n        updateActiveBet(betNumbers, betAmount); //Update Active Betlist for a player\r\n\r\n        //assert(validPlayerBalance());\r\n\r\n        emit newBetCreated(betNumbers,betAmount, msg.sender);\r\n\r\n        return (true);\r\n    }\r\n\r\n\r\n    function getMyBet() public view returns(uint[] memory, uint[] memory,bool, bytes32, bool, uint)  {\r\n        //Data sent to front page from contract is in Chips\r\n        return (    activeBet[msg.sender].betNumbers,\r\n                    wei2Chip_ar(activeBet[msg.sender].betAmount), //wei\r\n                    activeBet[msg.sender].waitingResult,\r\n                    activeBet[msg.sender].waitingId,\r\n                    activeBet[msg.sender].paidOut,\r\n                    activeBet[msg.sender].lastResult);\r\n    }\r\n\r\n\r\n    function resetPlayerBetList(address playerAddress) private {\r\n        Bets memory nullBet;\r\n        activeBet[playerAddress] = nullBet;\r\n        activeBet[playerAddress].waitingResult = false;\r\n    }\r\n\r\n\r\n    function get_betAbleAmountWei(uint podWei) public view returns(uint) {\r\n        return (podWei/BET_WIN_RATE)*100;\r\n    }\r\n\r\n    function getWinAmountWei(uint winWei) public view returns(uint) {\r\n        return (winWei*BET_WIN_RATE)/100;\r\n    }\r\n\r\n    function playerTossCoin() public payable returns(bytes32 waitingId){\r\n\r\n        require(activeBet[msg.sender].waitingResult == false, \"Already called random Number, please wait for result..\");\r\n        require(activeBet[msg.sender].betNumbers.length > 0,\"playerTossCoin: No bet placed, plase place the bet!\");\r\n        activeBet[msg.sender].waitingResult = true;\r\n        activeBet[msg.sender].paidOut = false;\r\n\r\n        uint256 QUERY_EXECUTION_DELAY = 0;\r\n        uint256 GAS_FOR_CALLBACK = 200000;\r\n\r\n        waitingId = provable_newRandomDSQuery(\r\n            QUERY_EXECUTION_DELAY,\r\n            NUM_RANDOM_BYTES_REQUESTED,\r\n            GAS_FOR_CALLBACK\r\n        );\r\n\r\n        emit LogNewProvableQuery(\"Provable query was sent, waiting for the answer..\");\r\n        activeBet[msg.sender].waitingId = waitingId;\r\n\r\n        playersQuery[waitingId] = msg.sender;\r\n        return waitingId;\r\n    }\r\n\r\n    function payOutCheckRequest(address playerAddress) public {\r\n        if (activeBet[playerAddress].waitingResult) {\r\n            if (activeBet[playerAddress].paidOut == false) {\r\n                    payOut(activeBet[playerAddress].waitingId ,activeBet[playerAddress].lastResult); //, activeBet[playerAddress].proof)\r\n                } else {\r\n                    emit notice(\"Allready paid\", playerHistory[playerAddress].lastWinAmount);\r\n                }\r\n        } else {\r\n            emit notice(\"No New BET yet, PLEASE SUBMITE BET AND HIT FLIP..\", 0);\r\n        }\r\n    }\r\n\r\n    function payOut(bytes32 _queryId, uint result) //, bytes memory _proof)\r\n        private returns(address, uint, uint) {\r\n        address playerAddress = playersQuery[_queryId];\r\n\r\n        activeBet[playerAddress].lastResult = result;\r\n        activeBet[playerAddress].waitingResult = false;\r\n        activeBet[playerAddress].paidOut = true;\r\n\r\n        uint winAmount_wei = 0;\r\n\r\n        for (uint x=0; x<activeBet[playerAddress].betNumbers.length; x++) {\r\n\r\n                //reduce bet amout from player for a number in big table\r\n                lockOutAmount(activeBet[playerAddress].betNumbers[x], activeBet[playerAddress].betAmount[x]);\r\n\r\n                if (activeBet[playerAddress].betNumbers[x] == result) {\r\n                    winAmount_wei += getWinAmountWei(activeBet[playerAddress].betAmount[x]);\r\n                }\r\n            }\r\n\r\n        resetPlayerBetList(playerAddress);\r\n        myWinBalance(playerAddress,winAmount_wei);\r\n        updatePlayerBalance(playerAddress);\r\n\r\n        emit betFinished(playerAddress, winAmount_wei, result);\r\n        return (playerAddress,winAmount_wei, result);\r\n    }\r\n\r\n\r\n    function ownerWithdrawAll() public onlyOwner returns(uint) {\r\n       //Should add emergency Withdrawall\r\n       //playerWithdrawAll(); //If owner plays, Withdraw as a player first\r\n\r\n       uint toTransfer = realContractBalance() - _totalAllPlayerBalance_ ; // - _lockedInBets_; Should add later..\r\n\r\n       //Should cancel all bets before withdrawn\r\n       //Should return all players ballances before withdrawn\r\n       _totalAllPlayerBalance_ = 0;\r\n       _contractBalance_ -= toTransfer;\r\n\r\n       msg.sender.transfer(toTransfer);\r\n       return toTransfer;\r\n    }\r\n\r\n    function playerWithdrawAll() public returns(uint) {\r\n\r\n        updatePlayerBalance(msg.sender);\r\n\r\n        require(playerHistory[msg.sender].totalBalance > 0, \"Player is out of money\");\r\n\r\n        require(validPlayerBalance(), \"Invalid balance check\");\r\n\r\n        require(activeBet[msg.sender].waitingResult == false, \"Waiting for bet result..\");\r\n\r\n        uint toTransfer = playerHistory[msg.sender].totalBalance;\r\n\r\n        playerHistory[msg.sender].totalWithdrawn += toTransfer;\r\n\r\n        resetPlayerBetList(msg.sender);\r\n\r\n        _contractBalance_ -= toTransfer;\r\n        \r\n        updatePlayerBalance(msg.sender);\r\n\r\n        assert(playerHistory[msg.sender].totalBalance == 0);\r\n\r\n        msg.sender.transfer(toTransfer);\r\n\r\n        return toTransfer;\r\n    }\r\n\r\n}\r\n",
  "sourcePath": "D:\\@TUNG 2020\\IVANONTECH\\SOLIDITY 201\\coinFlip4\\contracts\\CoinFlip100.sol",
  "compiler": {
    "name": "solc",
    "version": "0.4.26+commit.4563c3fc.Emscripten.clang"
  },
  "schemaVersion": "2.0.3",
  "updatedAt": "2020-07-01T11:23:36.090Z"
}