{
  "contractName": "CoinFlip100",
  "abi": [
    {
      "constant": true,
      "inputs": [],
      "name": "_contractBalance_",
      "outputs": [
        {
          "name": "",
          "type": "uint256"
        }
      ],
      "payable": false,
      "stateMutability": "view",
      "type": "function"
    },
    {
      "constant": true,
      "inputs": [
        {
          "name": "",
          "type": "address"
        }
      ],
      "name": "playerHistory",
      "outputs": [
        {
          "name": "totalBalance",
          "type": "uint256"
        },
        {
          "name": "totalTopUp",
          "type": "uint256"
        },
        {
          "name": "totalWithdrawn",
          "type": "uint256"
        },
        {
          "name": "totalSpentAmount",
          "type": "uint256"
        },
        {
          "name": "totalWinAmount",
          "type": "uint256"
        },
        {
          "name": "totalGames",
          "type": "uint256"
        },
        {
          "name": "totalWins",
          "type": "uint256"
        },
        {
          "name": "lastWinAmount",
          "type": "uint256"
        }
      ],
      "payable": false,
      "stateMutability": "view",
      "type": "function"
    },
    {
      "constant": true,
      "inputs": [],
      "name": "_totalAllPlayerBalance_",
      "outputs": [
        {
          "name": "",
          "type": "uint256"
        }
      ],
      "payable": false,
      "stateMutability": "view",
      "type": "function"
    },
    {
      "constant": true,
      "inputs": [
        {
          "name": "",
          "type": "address"
        }
      ],
      "name": "activeBet",
      "outputs": [
        {
          "name": "waitingResult",
          "type": "bool"
        },
        {
          "name": "waitingId",
          "type": "bytes32"
        }
      ],
      "payable": false,
      "stateMutability": "view",
      "type": "function"
    },
    {
      "constant": true,
      "inputs": [],
      "name": "BET_RANGE_MIN",
      "outputs": [
        {
          "name": "",
          "type": "uint256"
        }
      ],
      "payable": false,
      "stateMutability": "view",
      "type": "function"
    },
    {
      "constant": true,
      "inputs": [],
      "name": "owner",
      "outputs": [
        {
          "name": "",
          "type": "address"
        }
      ],
      "payable": false,
      "stateMutability": "view",
      "type": "function"
    },
    {
      "constant": true,
      "inputs": [],
      "name": "latestNumber",
      "outputs": [
        {
          "name": "",
          "type": "uint256"
        }
      ],
      "payable": false,
      "stateMutability": "view",
      "type": "function"
    },
    {
      "constant": true,
      "inputs": [],
      "name": "BET_RANGE_MAX",
      "outputs": [
        {
          "name": "",
          "type": "uint256"
        }
      ],
      "payable": false,
      "stateMutability": "view",
      "type": "function"
    },
    {
      "constant": true,
      "inputs": [],
      "name": "BET_MIN_AMOUNT_WEI",
      "outputs": [
        {
          "name": "",
          "type": "uint256"
        }
      ],
      "payable": false,
      "stateMutability": "view",
      "type": "function"
    },
    {
      "inputs": [],
      "payable": true,
      "stateMutability": "payable",
      "type": "constructor"
    },
    {
      "anonymous": false,
      "inputs": [
        {
          "indexed": false,
          "name": "betNumbers",
          "type": "uint256[]"
        },
        {
          "indexed": false,
          "name": "betAmounts_chip",
          "type": "uint256[]"
        },
        {
          "indexed": false,
          "name": "playerAddress",
          "type": "address"
        }
      ],
      "name": "newBetCreated",
      "type": "event"
    },
    {
      "anonymous": false,
      "inputs": [
        {
          "indexed": false,
          "name": "winAmount",
          "type": "uint256"
        },
        {
          "indexed": false,
          "name": "result",
          "type": "uint256"
        }
      ],
      "name": "betFinished",
      "type": "event"
    },
    {
      "anonymous": false,
      "inputs": [
        {
          "indexed": false,
          "name": "noticeString",
          "type": "string"
        },
        {
          "indexed": false,
          "name": "noticeValue",
          "type": "uint256"
        }
      ],
      "name": "notice",
      "type": "event"
    },
    {
      "anonymous": false,
      "inputs": [
        {
          "indexed": false,
          "name": "randomNumber",
          "type": "uint256"
        },
        {
          "indexed": false,
          "name": "Id",
          "type": "bytes32"
        },
        {
          "indexed": false,
          "name": "proof",
          "type": "bytes"
        }
      ],
      "name": "generatedRandomNumber",
      "type": "event"
    },
    {
      "anonymous": false,
      "inputs": [
        {
          "indexed": false,
          "name": "notice",
          "type": "string"
        }
      ],
      "name": "LogNewProvableQuery",
      "type": "event"
    },
    {
      "anonymous": false,
      "inputs": [
        {
          "indexed": false,
          "name": "description",
          "type": "string"
        }
      ],
      "name": "proofFailed",
      "type": "event"
    },
    {
      "constant": true,
      "inputs": [],
      "name": "random",
      "outputs": [
        {
          "name": "",
          "type": "uint256"
        }
      ],
      "payable": false,
      "stateMutability": "pure",
      "type": "function"
    },
    {
      "constant": false,
      "inputs": [
        {
          "name": "_queryId",
          "type": "bytes32"
        },
        {
          "name": "_result",
          "type": "string"
        },
        {
          "name": "_proof",
          "type": "bytes"
        }
      ],
      "name": "__callback",
      "outputs": [],
      "payable": false,
      "stateMutability": "nonpayable",
      "type": "function"
    },
    {
      "constant": false,
      "inputs": [
        {
          "name": "myid",
          "type": "bytes32"
        },
        {
          "name": "result",
          "type": "string"
        }
      ],
      "name": "__callback",
      "outputs": [],
      "payable": false,
      "stateMutability": "nonpayable",
      "type": "function"
    },
    {
      "constant": false,
      "inputs": [],
      "name": "update",
      "outputs": [],
      "payable": true,
      "stateMutability": "payable",
      "type": "function"
    },
    {
      "constant": false,
      "inputs": [
        {
          "name": "topUp_chip",
          "type": "uint256"
        }
      ],
      "name": "ownerFundUp_chip",
      "outputs": [],
      "payable": true,
      "stateMutability": "payable",
      "type": "function"
    },
    {
      "constant": false,
      "inputs": [
        {
          "name": "topUp_chip",
          "type": "uint256"
        }
      ],
      "name": "playerTopUp_chip",
      "outputs": [],
      "payable": true,
      "stateMutability": "payable",
      "type": "function"
    },
    {
      "constant": true,
      "inputs": [],
      "name": "getPlayerHistory",
      "outputs": [
        {
          "name": "",
          "type": "uint256"
        },
        {
          "name": "",
          "type": "uint256"
        },
        {
          "name": "",
          "type": "uint256"
        },
        {
          "name": "",
          "type": "uint256"
        },
        {
          "name": "",
          "type": "uint256"
        },
        {
          "name": "",
          "type": "uint256"
        },
        {
          "name": "",
          "type": "uint256"
        },
        {
          "name": "",
          "type": "uint256"
        }
      ],
      "payable": false,
      "stateMutability": "view",
      "type": "function"
    },
    {
      "constant": true,
      "inputs": [],
      "name": "getContractBalance",
      "outputs": [
        {
          "name": "",
          "type": "uint256"
        }
      ],
      "payable": false,
      "stateMutability": "view",
      "type": "function"
    },
    {
      "constant": true,
      "inputs": [],
      "name": "get_totalAllPlayerBalance_",
      "outputs": [
        {
          "name": "",
          "type": "uint256"
        }
      ],
      "payable": false,
      "stateMutability": "view",
      "type": "function"
    },
    {
      "constant": true,
      "inputs": [],
      "name": "contractPlayableFund",
      "outputs": [
        {
          "name": "",
          "type": "uint256"
        }
      ],
      "payable": false,
      "stateMutability": "view",
      "type": "function"
    },
    {
      "constant": true,
      "inputs": [],
      "name": "playerPlayableFund",
      "outputs": [
        {
          "name": "",
          "type": "uint256"
        }
      ],
      "payable": false,
      "stateMutability": "view",
      "type": "function"
    },
    {
      "constant": false,
      "inputs": [
        {
          "name": "betNumbers",
          "type": "uint256[]"
        },
        {
          "name": "betAmount_chip",
          "type": "uint256[]"
        }
      ],
      "name": "createMyBet",
      "outputs": [
        {
          "name": "",
          "type": "bool"
        }
      ],
      "payable": false,
      "stateMutability": "nonpayable",
      "type": "function"
    },
    {
      "constant": true,
      "inputs": [],
      "name": "getMyBet",
      "outputs": [
        {
          "name": "",
          "type": "uint256[]"
        },
        {
          "name": "",
          "type": "uint256[]"
        },
        {
          "name": "",
          "type": "bool"
        },
        {
          "name": "",
          "type": "bytes32"
        }
      ],
      "payable": false,
      "stateMutability": "view",
      "type": "function"
    },
    {
      "constant": true,
      "inputs": [
        {
          "name": "winWei",
          "type": "uint256"
        }
      ],
      "name": "getWinAmountWei",
      "outputs": [
        {
          "name": "",
          "type": "uint256"
        }
      ],
      "payable": false,
      "stateMutability": "view",
      "type": "function"
    },
    {
      "constant": false,
      "inputs": [],
      "name": "playerTossCoin",
      "outputs": [
        {
          "name": "",
          "type": "uint256"
        },
        {
          "name": "",
          "type": "uint256"
        }
      ],
      "payable": false,
      "stateMutability": "nonpayable",
      "type": "function"
    },
    {
      "constant": false,
      "inputs": [],
      "name": "ownerWithdrawAll",
      "outputs": [
        {
          "name": "",
          "type": "uint256"
        }
      ],
      "payable": false,
      "stateMutability": "nonpayable",
      "type": "function"
    },
    {
      "constant": false,
      "inputs": [],
      "name": "playerWithdrawAll",
      "outputs": [
        {
          "name": "",
          "type": "uint256"
        }
      ],
      "payable": false,
      "stateMutability": "nonpayable",
      "type": "function"
    }
  ],
  "bytecode": "0x60806040526000600655606360075566038d7ea4c6800060085560085460095560be600a55336000806101000a81548173ffffffffffffffffffffffffffffffffffffffff021916908373ffffffffffffffffffffffffffffffffffffffff160217905550620000a160307f010000000000000000000000000000000000000000000000000000000000000002620000b7640100000000026401000000009004565b34600b6000828254019250508190555062000bab565b6000600160009054906101000a900473ffffffffffffffffffffffffffffffffffffffff1673ffffffffffffffffffffffffffffffffffffffff1614806200013a5750600062000138600160009054906101000a900473ffffffffffffffffffffffffffffffffffffffff166200046f640100000000026401000000009004565b145b156200015d576200015b60006200047a640100000000026401000000009004565b505b600160009054906101000a900473ffffffffffffffffffffffffffffffffffffffff1673ffffffffffffffffffffffffffffffffffffffff166338cc48316040518163ffffffff167c0100000000000000000000000000000000000000000000000000000000028152600401602060405180830381600087803b158015620001e457600080fd5b505af1158015620001f9573d6000803e3d6000fd5b505050506040513d60208110156200021057600080fd5b810190808051906020019092919050505073ffffffffffffffffffffffffffffffffffffffff16600260009054906101000a900473ffffffffffffffffffffffffffffffffffffffff1673ffffffffffffffffffffffffffffffffffffffff161415156200037d57600160009054906101000a900473ffffffffffffffffffffffffffffffffffffffff1673ffffffffffffffffffffffffffffffffffffffff166338cc48316040518163ffffffff167c0100000000000000000000000000000000000000000000000000000000028152600401602060405180830381600087803b158015620002ff57600080fd5b505af115801562000314573d6000803e3d6000fd5b505050506040513d60208110156200032b57600080fd5b8101908080519060200190929190505050600260006101000a81548173ffffffffffffffffffffffffffffffffffffffff021916908373ffffffffffffffffffffffffffffffffffffffff1602179055505b600260009054906101000a900473ffffffffffffffffffffffffffffffffffffffff1673ffffffffffffffffffffffffffffffffffffffff1663688dcfd7826040518263ffffffff167c010000000000000000000000000000000000000000000000000000000002815260040180827effffffffffffffffffffffffffffffffffffffffffffffffffffffffffffff19167effffffffffffffffffffffffffffffffffffffffffffffffffffffffffffff19168152602001915050600060405180830381600087803b1580156200045357600080fd5b505af115801562000468573d6000803e3d6000fd5b5050505050565b6000813b9050919050565b6000620004956200049c640100000000026401000000009004565b9050919050565b600080620004cd731d3b2638a7cc9f2cb3d298a3da7a90b67e5506ed6200046f640100000000026401000000009004565b11156200058257731d3b2638a7cc9f2cb3d298a3da7a90b67e5506ed600160006101000a81548173ffffffffffffffffffffffffffffffffffffffff021916908373ffffffffffffffffffffffffffffffffffffffff160217905550620005786040805190810160405280600b81526020017f6574685f6d61696e6e657400000000000000000000000000000000000000000081525062000ae0640100000000026401000000009004565b6001905062000add565b6000620005b273c03a2615d5efaf5f49f60b7bb6583eaec212fdf16200046f640100000000026401000000009004565b1115620006675773c03a2615d5efaf5f49f60b7bb6583eaec212fdf1600160006101000a81548173ffffffffffffffffffffffffffffffffffffffff021916908373ffffffffffffffffffffffffffffffffffffffff1602179055506200065d6040805190810160405280600c81526020017f6574685f726f707374656e33000000000000000000000000000000000000000081525062000ae0640100000000026401000000009004565b6001905062000add565b60006200069773b7a07bcf2ba2f2703b24c0691b5278999c59ac7e6200046f640100000000026401000000009004565b11156200074c5773b7a07bcf2ba2f2703b24c0691b5278999c59ac7e600160006101000a81548173ffffffffffffffffffffffffffffffffffffffff021916908373ffffffffffffffffffffffffffffffffffffffff160217905550620007426040805190810160405280600981526020017f6574685f6b6f76616e000000000000000000000000000000000000000000000081525062000ae0640100000000026401000000009004565b6001905062000add565b60006200077c73146500cfd35b22e4a392fe0adc06de1a1368ed486200046f640100000000026401000000009004565b1115620008315773146500cfd35b22e4a392fe0adc06de1a1368ed48600160006101000a81548173ffffffffffffffffffffffffffffffffffffffff021916908373ffffffffffffffffffffffffffffffffffffffff160217905550620008276040805190810160405280600b81526020017f6574685f72696e6b65627900000000000000000000000000000000000000000081525062000ae0640100000000026401000000009004565b6001905062000add565b60006200086173a2998efd205fb9d4b4963afb70778d6354ad3a416200046f640100000000026401000000009004565b1115620009165773a2998efd205fb9d4b4963afb70778d6354ad3a41600160006101000a81548173ffffffffffffffffffffffffffffffffffffffff021916908373ffffffffffffffffffffffffffffffffffffffff1602179055506200090c6040805190810160405280600a81526020017f6574685f676f65726c690000000000000000000000000000000000000000000081525062000ae0640100000000026401000000009004565b6001905062000add565b600062000946736f485c8bf6fc43ea212e93bbf8ce046c7f1cb4756200046f640100000000026401000000009004565b1115620009ac57736f485c8bf6fc43ea212e93bbf8ce046c7f1cb475600160006101000a81548173ffffffffffffffffffffffffffffffffffffffff021916908373ffffffffffffffffffffffffffffffffffffffff1602179055506001905062000add565b6000620009dc7320e12a1f859b3feae5fb2a0a32c18f5a65555bbf6200046f640100000000026401000000009004565b111562000a42577320e12a1f859b3feae5fb2a0a32c18f5a65555bbf600160006101000a81548173ffffffffffffffffffffffffffffffffffffffff021916908373ffffffffffffffffffffffffffffffffffffffff1602179055506001905062000add565b600062000a727351efaf4c8b3c9afbd5ab9f4bbc82784ab6ef8faa6200046f640100000000026401000000009004565b111562000ad8577351efaf4c8b3c9afbd5ab9f4bbc82784ab6ef8faa600160006101000a81548173ffffffffffffffffffffffffffffffffffffffff021916908373ffffffffffffffffffffffffffffffffffffffff1602179055506001905062000add565b600090505b90565b806003908051906020019062000af892919062000afc565b5050565b828054600181600116156101000203166002900490600052602060002090601f016020900481019282601f1062000b3f57805160ff191683800117855562000b70565b8280016001018555821562000b70579182015b8281111562000b6f57825182559160200191906001019062000b52565b5b50905062000b7f919062000b83565b5090565b62000ba891905b8082111562000ba457600081600090555060010162000b8a565b5090565b90565b614cd98062000bbb6000396000f300608060405260043610610154576000357c0100000000000000000000000000000000000000000000000000000000900463ffffffff1680630a39a58e146101595780630da2779014610184578063180bfdf61461020c5780631c7ff1ba1461023757806320912e38146102a157806327dc297e146102cc5780632890a9f81461034357806338bbfa50146104045780633c50b913146104c15780635ec01e4d146104ec5780636f9fb98a1461051757806376b0a4a0146105425780638085688c146105625780638a8b19e5146105945780638da5cb5b146105bf57806394ebe60814610616578063a2e6204514610641578063b24b05f81461064b578063dc34b0aa14610719578063dd85881f14610744578063e0d5af941461076f578063e1bc44e71461079a578063e3c12872146107c5578063e57acb3514610821578063e862f79d1461084c578063f88c09f91461086c575b600080fd5b34801561016557600080fd5b5061016e6108ad565b6040518082815260200191505060405180910390f35b34801561019057600080fd5b506101c5600480360381019080803573ffffffffffffffffffffffffffffffffffffffff1690602001909291905050506108b3565b604051808981526020018881526020018781526020018681526020018581526020018481526020018381526020018281526020019850505050505050505060405180910390f35b34801561021857600080fd5b506102216108fb565b6040518082815260200191505060405180910390f35b34801561024357600080fd5b50610278600480360381019080803573ffffffffffffffffffffffffffffffffffffffff169060200190929190505050610901565b604051808315151515815260200182600019166000191681526020019250505060405180910390f35b3480156102ad57600080fd5b506102b6610932565b6040518082815260200191505060405180910390f35b3480156102d857600080fd5b506103416004803603810190808035600019169060200190929190803590602001908201803590602001908080601f0160208091040260200160405190810160405280939291908181526020018383808284378201915050505050509192919290505050610954565b005b34801561034f57600080fd5b506103ea6004803603810190808035906020019082018035906020019080806020026020016040519081016040528093929190818152602001838360200280828437820191505050505050919291929080359060200190820180359060200190808060200260200160405190810160405280939291908181526020018383602002808284378201915050505050509192919290505050610997565b604051808215151515815260200191505060405180910390f35b34801561041057600080fd5b506104bf6004803603810190808035600019169060200190929190803590602001908201803590602001908080601f0160208091040260200160405190810160405280939291908181526020018383808284378201915050505050509192919290803590602001908201803590602001908080601f0160208091040260200160405190810160405280939291908181526020018383808284378201915050505050509192919290505050610c9a565b005b3480156104cd57600080fd5b506104d6610e7f565b6040518082815260200191505060405180910390f35b3480156104f857600080fd5b50610501610f28565b6040518082815260200191505060405180910390f35b34801561052357600080fd5b5061052c610f30565b6040518082815260200191505060405180910390f35b61056060048036038101908080359060200190929190505050610f3a565b005b34801561056e57600080fd5b5061057761103d565b604051808381526020018281526020019250505060405180910390f35b3480156105a057600080fd5b506105a9611465565b6040518082815260200191505060405180910390f35b3480156105cb57600080fd5b506105d461146b565b604051808273ffffffffffffffffffffffffffffffffffffffff1673ffffffffffffffffffffffffffffffffffffffff16815260200191505060405180910390f35b34801561062257600080fd5b5061062b611490565b6040518082815260200191505060405180910390f35b6106496118be565b005b34801561065757600080fd5b506106606119b3565b604051808060200180602001851515151581526020018460001916600019168152602001838103835287818151815260200191508051906020019060200280838360005b838110156106bf5780820151818401526020810190506106a4565b50505050905001838103825286818151815260200191508051906020019060200280838360005b838110156107015780820151818401526020810190506106e6565b50505050905001965050505050505060405180910390f35b34801561072557600080fd5b5061072e611b87565b6040518082815260200191505060405180910390f35b34801561075057600080fd5b50610759611b8d565b6040518082815260200191505060405180910390f35b34801561077b57600080fd5b50610784611b93565b6040518082815260200191505060405180910390f35b3480156107a657600080fd5b506107af611c59565b6040518082815260200191505060405180910390f35b3480156107d157600080fd5b506107da611c5f565b604051808981526020018881526020018781526020018681526020018581526020018481526020018381526020018281526020019850505050505050505060405180910390f35b34801561082d57600080fd5b50610836611f19565b6040518082815260200191505060405180910390f35b61086a60048036038101908080359060200190929190505050611f23565b005b34801561087857600080fd5b5061089760048036038101908080359060200190929190505050612023565b6040518082815260200191505060405180910390f35b600b5481565b600e6020528060005260406000206000915090508060000154908060010154908060020154908060030154908060040154908060050154908060060154908060070154905088565b600c5481565b600d6020528060005260406000206000915090508060020160009054906101000a900460ff16908060030154905082565b600080600b5414156109475760009050610951565b600c54600b540390505b90565b610993828260006040519080825280601f01601f19166020018201604052801561098d5781602001602082028038833980820191505090505b50610c9a565b5050565b600060606000600102600d60003373ffffffffffffffffffffffffffffffffffffffff1673ffffffffffffffffffffffffffffffffffffffff1681526020019081526020016000206003015460001916141515610a82576040517f08c379a00000000000000000000000000000000000000000000000000000000081526004018080602001828103825260278152602001807f2e2e20506c65617365205761697420666f7220726573756c74206f66206c617381526020017f74206265742e2e0000000000000000000000000000000000000000000000000081525060400191505060405180910390fd5b610a8a61203d565b1515610afe576040517f08c379a00000000000000000000000000000000000000000000000000000000081526004018080602001828103825260188152602001807f4e6f742076616c696420506c617965722042616c616e6365000000000000000081525060200191505060405180910390fd5b610b07836121a8565b9050610b13848261220b565b1515610b87576040517f08c379a000000000000000000000000000000000000000000000000000000000815260040180806020018281038252600d8152602001807f4e4f542056414c4944204245540000000000000000000000000000000000000081525060200191505060405180910390fd5b610b9081612406565b610b9a8482612495565b7f2aeacb050561fc39cce82b85f933b4093153305890dd8ef86f07c861b720cb7e8482336040518080602001806020018473ffffffffffffffffffffffffffffffffffffffff1673ffffffffffffffffffffffffffffffffffffffff168152602001838103835286818151815260200191508051906020019060200280838360005b83811015610c37578082015181840152602081019050610c1c565b50505050905001838103825285818151815260200191508051906020019060200280838360005b83811015610c79578082015181840152602081019050610c5e565b505050509050019550505050505060405180910390a1600191505092915050565b6000610ca46125bc565b73ffffffffffffffffffffffffffffffffffffffff163373ffffffffffffffffffffffffffffffffffffffff16141515610cdd57600080fd5b6064836040516020018082805190602001908083835b602083101515610d185780518252602082019150602081019050602083039250610cf3565b6001836020036101000a0380198251168184511680821785525050505050509050019150506040516020818303038152906040526040518082805190602001908083835b602083101515610d815780518252602082019150602081019050602083039250610d5c565b6001836020036101000a038019825116818451168082178552505050505050905001915050604051809103902060019004811515610dbb57fe5b06905080600f819055507faaf69c6732172f58aad9372a9ac5d51f6d418e8dcced3f6190c1dbca02c9afcb81858460405180848152602001836000191660001916815260200180602001828103825283818151815260200191508051906020019080838360005b83811015610e3d578082015181840152602081019050610e22565b50505050905090810190601f168015610e6a5780820380516001836020036101000a031916815260200191505b5094505050505060405180910390a150505050565b600080610e8a610932565b905080600e60003373ffffffffffffffffffffffffffffffffffffffff1673ffffffffffffffffffffffffffffffffffffffff168152602001908152602001600020600001541015610f2057600e60003373ffffffffffffffffffffffffffffffffffffffff1673ffffffffffffffffffffffffffffffffffffffff168152602001908152602001600020600001549150610f24565b8091505b5090565b600080905090565b6000600b54905090565b6000809054906101000a900473ffffffffffffffffffffffffffffffffffffffff1673ffffffffffffffffffffffffffffffffffffffff163373ffffffffffffffffffffffffffffffffffffffff16141515610f9557600080fd5b610f9e8161291e565b34141515611014576040517f08c379a000000000000000000000000000000000000000000000000000000000815260040180806020018281038252601e8152602001807f6d73672e76616c756520213d20746f7055705f63686970202a2031653136000081525060200191505060405180910390fd5b61101d8161291e565b3414151561102a57600080fd5b34600b6000828254019250508190555050565b600080600080600061104d61203d565b15156110e7576040517f08c379a00000000000000000000000000000000000000000000000000000000081526004018080602001828103825260288152602001807f706c61796572546f7373436f696e3a204e6f742076616c696420506c6179657281526020017f2042616c616e636500000000000000000000000000000000000000000000000081525060400191505060405180910390fd5b6000600d60003373ffffffffffffffffffffffffffffffffffffffff1673ffffffffffffffffffffffffffffffffffffffff168152602001908152602001600020600001805490501115156111ca576040517f08c379a00000000000000000000000000000000000000000000000000000000081526004018080602001828103825260338152602001807f706c61796572546f7373436f696e3a204e6f2062657420706c616365642c207081526020017f6c61736520706c6163652074686520626574210000000000000000000000000081525060400191505060405180910390fd5b6001600d60003373ffffffffffffffffffffffffffffffffffffffff1673ffffffffffffffffffffffffffffffffffffffff16815260200190815260200160002060020160006101000a81548160ff02191690831515021790555061122d610f28565b9250600654831015801561124357506007548311155b15156112dd576040517f08c379a00000000000000000000000000000000000000000000000000000000081526004018080602001828103825260238152602001807f706c61796572546f7373436f696e3a2052616e646f6d206f7574206f6620726181526020017f6e6765000000000000000000000000000000000000000000000000000000000081525060400191505060405180910390fd5b60009150600090505b600d60003373ffffffffffffffffffffffffffffffffffffffff1673ffffffffffffffffffffffffffffffffffffffff168152602001908152602001600020600001805490508110156114085782600d60003373ffffffffffffffffffffffffffffffffffffffff1673ffffffffffffffffffffffffffffffffffffffff1681526020019081526020016000206000018281548110151561138357fe5b906000526020600020015414156113fb576113f6600d60003373ffffffffffffffffffffffffffffffffffffffff1673ffffffffffffffffffffffffffffffffffffffff168152602001908152602001600020600101828154811015156113e657fe5b9060005260206000200154612023565b820191505b80806001019150506112e6565b61141061292c565b61141982612a3f565b7fe283fa50c44993d4965e7a178b27ecadf2f5154640d61a798dcf15df61f36c928284604051808381526020018281526020019250505060405180910390a18183945094505050509091565b60065481565b6000809054906101000a900473ffffffffffffffffffffffffffffffffffffffff1681565b60008061149b612b8e565b6000600e60003373ffffffffffffffffffffffffffffffffffffffff1673ffffffffffffffffffffffffffffffffffffffff16815260200190815260200160002060000154111515611555576040517f08c379a00000000000000000000000000000000000000000000000000000000081526004018080602001828103825260168152602001807f506c61796572206973206f7574206f66206d6f6e65790000000000000000000081525060200191505060405180910390fd5b61155d61203d565b15156115d1576040517f08c379a00000000000000000000000000000000000000000000000000000000081526004018080602001828103825260158152602001807f496e76616c69642062616c616e636520636865636b000000000000000000000081525060200191505060405180910390fd5b6000600102600d60003373ffffffffffffffffffffffffffffffffffffffff1673ffffffffffffffffffffffffffffffffffffffff1681526020019081526020016000206003015460001916141515611692576040517f08c379a00000000000000000000000000000000000000000000000000000000081526004018080602001828103825260188152602001807f57616974696e6720666f722062657420726573756c742e2e000000000000000081525060200191505060405180910390fd5b6000600d60003373ffffffffffffffffffffffffffffffffffffffff1673ffffffffffffffffffffffffffffffffffffffff16815260200190815260200160002060000180549050141515611775576040517f08c379a000000000000000000000000000000000000000000000000000000000815260040180806020018281038252602d8152602001807f4265742063616e206e6f742062652063616e63656c6c65642c20436c69636b2081526020017f466c697020427574746f6e2e2e0000000000000000000000000000000000000081525060400191505060405180910390fd5b600e60003373ffffffffffffffffffffffffffffffffffffffff1673ffffffffffffffffffffffffffffffffffffffff16815260200190815260200160002060000154905080600e60003373ffffffffffffffffffffffffffffffffffffffff1673ffffffffffffffffffffffffffffffffffffffff1681526020019081526020016000206002016000828254019250508190555080600b60008282540392505081905550611822612b8e565b6000600e60003373ffffffffffffffffffffffffffffffffffffffff1673ffffffffffffffffffffffffffffffffffffffff1681526020019081526020016000206000015414151561187057fe5b3373ffffffffffffffffffffffffffffffffffffffff166108fc829081150290604051600060405180830381858888f193505050501580156118b6573d6000803e3d6000fd5b508091505090565b6000806000915062030d4090506118d782600183612d89565b600d60003373ffffffffffffffffffffffffffffffffffffffff1673ffffffffffffffffffffffffffffffffffffffff16815260200190815260200160002060030181600019169055507fc4dc360d0a9c0677a3379ae0a3d81e887f761e65fdf3d7e00859d1bcd3c473896040518080602001828103825260318152602001807f50726f7661626c65207175657279207761732073656e742c2077616974696e6781526020017f20666f722074686520616e737765722e2e00000000000000000000000000000081525060400191505060405180910390a15050565b606080600080600d60003373ffffffffffffffffffffffffffffffffffffffff1673ffffffffffffffffffffffffffffffffffffffff168152602001908152602001600020600001611a94600d60003373ffffffffffffffffffffffffffffffffffffffff1673ffffffffffffffffffffffffffffffffffffffff168152602001908152602001600020600101805480602002602001604051908101604052809291908181526020018280548015611a8a57602002820191906000526020600020905b815481526020019060010190808311611a76575b50505050506133bb565b600d60003373ffffffffffffffffffffffffffffffffffffffff1673ffffffffffffffffffffffffffffffffffffffff16815260200190815260200160002060020160009054906101000a900460ff16600d60003373ffffffffffffffffffffffffffffffffffffffff1673ffffffffffffffffffffffffffffffffffffffff1681526020019081526020016000206003015483805480602002602001604051908101604052809291908181526020018280548015611b7257602002820191906000526020600020905b815481526020019060010190808311611b5e575b50505050509350935093509350935090919293565b600f5481565b60075481565b6000806000809054906101000a900473ffffffffffffffffffffffffffffffffffffffff1673ffffffffffffffffffffffffffffffffffffffff163373ffffffffffffffffffffffffffffffffffffffff16141515611bf157600080fd5b611bf9610f30565b90506000600c819055506000600b819055503373ffffffffffffffffffffffffffffffffffffffff166108fc829081150290604051600060405180830381858888f19350505050158015611c51573d6000803e3d6000fd5b508091505090565b60095481565b600080600080600080600080611c7361203d565b1515611ce7576040517f08c379a00000000000000000000000000000000000000000000000000000000081526004018080602001828103825260188152602001807f4e6f742076616c696420506c617965722042616c616e6365000000000000000081525060200191505060405180910390fd5b600e60003373ffffffffffffffffffffffffffffffffffffffff1673ffffffffffffffffffffffffffffffffffffffff16815260200190815260200160002060000154600e60003373ffffffffffffffffffffffffffffffffffffffff1673ffffffffffffffffffffffffffffffffffffffff16815260200190815260200160002060010154600e60003373ffffffffffffffffffffffffffffffffffffffff1673ffffffffffffffffffffffffffffffffffffffff16815260200190815260200160002060020154600e60003373ffffffffffffffffffffffffffffffffffffffff1673ffffffffffffffffffffffffffffffffffffffff16815260200190815260200160002060030154600e60003373ffffffffffffffffffffffffffffffffffffffff1673ffffffffffffffffffffffffffffffffffffffff16815260200190815260200160002060040154600e60003373ffffffffffffffffffffffffffffffffffffffff1673ffffffffffffffffffffffffffffffffffffffff16815260200190815260200160002060050154600e60003373ffffffffffffffffffffffffffffffffffffffff1673ffffffffffffffffffffffffffffffffffffffff16815260200190815260200160002060060154600e60003373ffffffffffffffffffffffffffffffffffffffff1673ffffffffffffffffffffffffffffffffffffffff16815260200190815260200160002060070154975097509750975097509750975097509091929394959697565b6000600c54905090565b611f2c8161291e565b34141515611fa2576040517f08c379a000000000000000000000000000000000000000000000000000000000815260040180806020018281038252601e8152602001807f6d73672e76616c756520213d20746f7055705f63686970202a2031653136000081525060200191505060405180910390fd5b611fab8161291e565b34141515611fb857600080fd5b34600b6000828254019250508190555034600e60003373ffffffffffffffffffffffffffffffffffffffff1673ffffffffffffffffffffffffffffffffffffffff16815260200190815260200160002060010160008282540192505081905550612020612b8e565b50565b60006064600a54830281151561203557fe5b049050919050565b6000600e60003373ffffffffffffffffffffffffffffffffffffffff1673ffffffffffffffffffffffffffffffffffffffff16815260200190815260200160002060040154600e60003373ffffffffffffffffffffffffffffffffffffffff1673ffffffffffffffffffffffffffffffffffffffff16815260200190815260200160002060030154600e60003373ffffffffffffffffffffffffffffffffffffffff1673ffffffffffffffffffffffffffffffffffffffff16815260200190815260200160002060020154600e60003373ffffffffffffffffffffffffffffffffffffffff1673ffffffffffffffffffffffffffffffffffffffff16815260200190815260200160002060010154030301600e60003373ffffffffffffffffffffffffffffffffffffffff1673ffffffffffffffffffffffffffffffffffffffff1681526020019081526020016000206000015414156121a057600190506121a5565b600090505b90565b606060008090505b8251811015612202576121d983828151811015156121ca57fe5b9060200190602002015161291e565b83828151811015156121e757fe5b906020019060200201818152505080806001019150506121b0565b82915050919050565b600080600083518551141515612289576040517f08c379a000000000000000000000000000000000000000000000000000000000815260040180806020018281038252600f8152602001807f204552524f52206265742061726179000000000000000000000000000000000081525060200191505060405180910390fd5b60009150600090505b84518110156123555760095484828151811015156122ac57fe5b906020019060200201511015151561232c576040517f08c379a000000000000000000000000000000000000000000000000000000000815260040180806020018281038252601f8152602001807f42657420616d6f756e74206c657373207468616e206d696e20616d6f756e740081525060200191505060405180910390fd5b838181518110151561233a57fe5b90602001906020020151820191508080600101915050612292565b61235d610e7f565b82111515156123fa576040517f08c379a00000000000000000000000000000000000000000000000000000000081526004018080602001828103825260228152602001807f544f4f20424947204245542c20504c454153452041444a555354204f5552204281526020017f455400000000000000000000000000000000000000000000000000000000000081525060400191505060405180910390fd5b60019250505092915050565b60008090505b815181101561248957818181518110151561242357fe5b90602001906020020151600e60003373ffffffffffffffffffffffffffffffffffffffff1673ffffffffffffffffffffffffffffffffffffffff16815260200190815260200160002060030160008282540192505081905550808060010191505061240c565b612491612b8e565b5050565b60008090505b82518110156125b757600d60003373ffffffffffffffffffffffffffffffffffffffff1673ffffffffffffffffffffffffffffffffffffffff16815260200190815260200160002060000183828151811015156124f457fe5b906020019060200201519080600181540180825580915050906001820390600052602060002001600090919290919091505550600d60003373ffffffffffffffffffffffffffffffffffffffff1673ffffffffffffffffffffffffffffffffffffffff168152602001908152602001600020600101828281518110151561257757fe5b906020019060200201519080600181540180825580915050906001820390600052602060002001600090919290919091505550808060010191505061249b565b505050565b600080600160009054906101000a900473ffffffffffffffffffffffffffffffffffffffff1673ffffffffffffffffffffffffffffffffffffffff16148061262e5750600061262c600160009054906101000a900473ffffffffffffffffffffffffffffffffffffffff1661341e565b145b1561263f5761263d6000613429565b505b600160009054906101000a900473ffffffffffffffffffffffffffffffffffffffff1673ffffffffffffffffffffffffffffffffffffffff166338cc48316040518163ffffffff167c0100000000000000000000000000000000000000000000000000000000028152600401602060405180830381600087803b1580156126c557600080fd5b505af11580156126d9573d6000803e3d6000fd5b505050506040513d60208110156126ef57600080fd5b810190808051906020019092919050505073ffffffffffffffffffffffffffffffffffffffff16600260009054906101000a900473ffffffffffffffffffffffffffffffffffffffff1673ffffffffffffffffffffffffffffffffffffffff1614151561285857600160009054906101000a900473ffffffffffffffffffffffffffffffffffffffff1673ffffffffffffffffffffffffffffffffffffffff166338cc48316040518163ffffffff167c0100000000000000000000000000000000000000000000000000000000028152600401602060405180830381600087803b1580156127dc57600080fd5b505af11580156127f0573d6000803e3d6000fd5b505050506040513d602081101561280657600080fd5b8101908080519060200190929190505050600260006101000a81548173ffffffffffffffffffffffffffffffffffffffff021916908373ffffffffffffffffffffffffffffffffffffffff1602179055505b600260009054906101000a900473ffffffffffffffffffffffffffffffffffffffff1673ffffffffffffffffffffffffffffffffffffffff1663c281d19e6040518163ffffffff167c0100000000000000000000000000000000000000000000000000000000028152600401602060405180830381600087803b1580156128de57600080fd5b505af11580156128f2573d6000803e3d6000fd5b505050506040513d602081101561290857600080fd5b8101908080519060200190929190505050905090565b600060085482029050919050565b612934614b4b565b80600d60003373ffffffffffffffffffffffffffffffffffffffff1673ffffffffffffffffffffffffffffffffffffffff1681526020019081526020016000206000820151816000019080519060200190612990929190614b79565b5060208201518160010190805190602001906129ad929190614b79565b5060408201518160020160006101000a81548160ff021916908315150217905550606082015181600301906000191690559050506000600d60003373ffffffffffffffffffffffffffffffffffffffff1673ffffffffffffffffffffffffffffffffffffffff16815260200190815260200160002060020160006101000a81548160ff02191690831515021790555050565b600e60003373ffffffffffffffffffffffffffffffffffffffff1673ffffffffffffffffffffffffffffffffffffffff168152602001908152602001600020600501600081548092919060010191905055506000811115612b3c5780600e60003373ffffffffffffffffffffffffffffffffffffffff1673ffffffffffffffffffffffffffffffffffffffff168152602001908152602001600020600401600082825401925050819055506001600e60003373ffffffffffffffffffffffffffffffffffffffff1673ffffffffffffffffffffffffffffffffffffffff168152602001908152602001600020600601600082825401925050819055505b80600e60003373ffffffffffffffffffffffffffffffffffffffff1673ffffffffffffffffffffffffffffffffffffffff16815260200190815260200160002060070181905550612b8b612b8e565b50565b600e60003373ffffffffffffffffffffffffffffffffffffffff1673ffffffffffffffffffffffffffffffffffffffff16815260200190815260200160002060000154600c60008282540392505081905550600e60003373ffffffffffffffffffffffffffffffffffffffff1673ffffffffffffffffffffffffffffffffffffffff16815260200190815260200160002060040154600e60003373ffffffffffffffffffffffffffffffffffffffff1673ffffffffffffffffffffffffffffffffffffffff16815260200190815260200160002060030154600e60003373ffffffffffffffffffffffffffffffffffffffff1673ffffffffffffffffffffffffffffffffffffffff16815260200190815260200160002060020154600e60003373ffffffffffffffffffffffffffffffffffffffff1673ffffffffffffffffffffffffffffffffffffffff16815260200190815260200160002060010154030301600e60003373ffffffffffffffffffffffffffffffffffffffff1673ffffffffffffffffffffffffffffffffffffffff16815260200190815260200160002060000181905550600e60003373ffffffffffffffffffffffffffffffffffffffff1673ffffffffffffffffffffffffffffffffffffffff16815260200190815260200160002060000154600c60008282540192505081905550565b600060608060606000606080612d9d614bc6565b6000606060008c118015612db2575060208c11155b1515612dbd57600080fd5b600a8d029c5060016040519080825280601f01601f191660200182016040528015612df75781602001602082028038833980820191505090505b5098508b7f010000000000000000000000000000000000000000000000000000000000000002896000815181101515612e2c57fe5b9060200101907effffffffffffffffffffffffffffffffffffffffffffffffffffffffffffff1916908160001a90535060206040519080825280601f01601f191660200182016040528015612e905781602001602082028038833980820191505090505b50975060206040519080825280601f01601f191660200182016040528015612ec75781602001602082028038833980820191505090505b509650612ed261343a565b95506020885242411860014303401860208901526020875285602088015260206040519080825280601f01601f191660200182016040528015612f245781602001602082028038833980820191505090505b5094508c602086015260086040519080825280601f01601f191660200182016040528015612f615781602001602082028038833980820191505090505b509350612f74856018600887600061379c565b506080604051908101604052808981526020018a8152602001888152602001868152509250612fd96040805190810160405280600681526020017f72616e646f6d0000000000000000000000000000000000000000000000000000815250848d6137fc565b915060086040519080825280601f01601f19166020018201604052801561300f5781602001602082028038833980820191505090505b50905060208401517f0100000000000000000000000000000000000000000000000000000000000000810460278301537e01000000000000000000000000000000000000000000000000000000000000810460268301537d010000000000000000000000000000000000000000000000000000000000810460258301537c0100000000000000000000000000000000000000000000000000000000810460248301537b01000000000000000000000000000000000000000000000000000000810460238301537a0100000000000000000000000000000000000000000000000000008104602283015379010000000000000000000000000000000000000000000000000081046021830153780100000000000000000000000000000000000000000000000081046020830153506133a8828285600160048110151561315057fe5b6020020151600287600060048110151561316657fe5b60200201516040518082805190602001908083835b6020831015156131a0578051825260208201915060208101905060208303925061317b565b6001836020036101000a0380198251168184511680821785525050505050509050019150506020604051808303816000865af11580156131e4573d6000803e3d6000fd5b5050506040513d60208110156131f957600080fd5b810190808051906020019092919050505087600260048110151561321957fe5b60200201516040516020018085805190602001908083835b6020831015156132565780518252602082019150602081019050602083039250613231565b6001836020036101000a03801982511681845116808217855250505050505090500184805190602001908083835b6020831015156132a95780518252602082019150602081019050602083039250613284565b6001836020036101000a038019825116818451168082178552505050505050905001836000191660001916815260200182805190602001908083835b60208310151561330a57805182526020820191506020810190506020830392506132e5565b6001836020036101000a0380198251168184511680821785525050505050509050019450505050506040516020818303038152906040526040518082805190602001908083835b6020831015156133765780518252602082019150602081019050602083039250613351565b6001836020036101000a0380198251168184511680821785525050505050509050019150506040518091039020613ba8565b8199505050505050505050509392505050565b606060008090505b8251811015613415576133ec83828151811015156133dd57fe5b90602001906020020151613bd0565b83828151811015156133fa57fe5b906020019060200201818152505080806001019150506133c3565b82915050919050565b6000813b9050919050565b6000613433613be7565b9050919050565b600080600160009054906101000a900473ffffffffffffffffffffffffffffffffffffffff1673ffffffffffffffffffffffffffffffffffffffff1614806134ac575060006134aa600160009054906101000a900473ffffffffffffffffffffffffffffffffffffffff1661341e565b145b156134bd576134bb6000613429565b505b600160009054906101000a900473ffffffffffffffffffffffffffffffffffffffff1673ffffffffffffffffffffffffffffffffffffffff166338cc48316040518163ffffffff167c0100000000000000000000000000000000000000000000000000000000028152600401602060405180830381600087803b15801561354357600080fd5b505af1158015613557573d6000803e3d6000fd5b505050506040513d602081101561356d57600080fd5b810190808051906020019092919050505073ffffffffffffffffffffffffffffffffffffffff16600260009054906101000a900473ffffffffffffffffffffffffffffffffffffffff1673ffffffffffffffffffffffffffffffffffffffff161415156136d657600160009054906101000a900473ffffffffffffffffffffffffffffffffffffffff1673ffffffffffffffffffffffffffffffffffffffff166338cc48316040518163ffffffff167c0100000000000000000000000000000000000000000000000000000000028152600401602060405180830381600087803b15801561365a57600080fd5b505af115801561366e573d6000803e3d6000fd5b505050506040513d602081101561368457600080fd5b8101908080519060200190929190505050600260006101000a81548173ffffffffffffffffffffffffffffffffffffffff021916908373ffffffffffffffffffffffffffffffffffffffff1602179055505b600260009054906101000a900473ffffffffffffffffffffffffffffffffffffffff1673ffffffffffffffffffffffffffffffffffffffff1663abaa5f3e6040518163ffffffff167c0100000000000000000000000000000000000000000000000000000000028152600401602060405180830381600087803b15801561375c57600080fd5b505af1158015613770573d6000803e3d6000fd5b505050506040513d602081101561378657600080fd5b8101908080519060200190929190505050905090565b606060008060008487019250828651101515156137b857600080fd5b8760200191508460200190505b8688602001018210156137ed57818901518082880152506020820191506020810190506137c5565b85935050505095945050505050565b600060606000600160009054906101000a900473ffffffffffffffffffffffffffffffffffffffff1673ffffffffffffffffffffffffffffffffffffffff1614806138715750600061386f600160009054906101000a900473ffffffffffffffffffffffffffffffffffffffff1661341e565b145b15613882576138806000613429565b505b600160009054906101000a900473ffffffffffffffffffffffffffffffffffffffff1673ffffffffffffffffffffffffffffffffffffffff166338cc48316040518163ffffffff167c0100000000000000000000000000000000000000000000000000000000028152600401602060405180830381600087803b15801561390857600080fd5b505af115801561391c573d6000803e3d6000fd5b505050506040513d602081101561393257600080fd5b810190808051906020019092919050505073ffffffffffffffffffffffffffffffffffffffff16600260009054906101000a900473ffffffffffffffffffffffffffffffffffffffff1673ffffffffffffffffffffffffffffffffffffffff16141515613a9b57600160009054906101000a900473ffffffffffffffffffffffffffffffffffffffff1673ffffffffffffffffffffffffffffffffffffffff166338cc48316040518163ffffffff167c0100000000000000000000000000000000000000000000000000000000028152600401602060405180830381600087803b158015613a1f57600080fd5b505af1158015613a33573d6000803e3d6000fd5b505050506040513d6020811015613a4957600080fd5b8101908080519060200190929190505050600260006101000a81548173ffffffffffffffffffffffffffffffffffffffff021916908373ffffffffffffffffffffffffffffffffffffffff1602179055505b6004604051908082528060200260200182016040528015613ad057816020015b6060815260200190600190039081613abb5790505b509050836000600481101515613ae257fe5b6020020151816000815181101515613af657fe5b90602001906020020181905250836001600481101515613b1257fe5b6020020151816001815181101515613b2657fe5b90602001906020020181905250836002600481101515613b4257fe5b6020020151816002815181101515613b5657fe5b90602001906020020181905250836003600481101515613b7257fe5b6020020151816003815181101515613b8657fe5b90602001906020020181905250613b9e85828561413e565b9150509392505050565b8060046000846000191660001916815260200190815260200160002081600019169055505050565b600060085482811515613bdf57fe5b049050919050565b600080613c07731d3b2638a7cc9f2cb3d298a3da7a90b67e5506ed61341e565b1115613ca957731d3b2638a7cc9f2cb3d298a3da7a90b67e5506ed600160006101000a81548173ffffffffffffffffffffffffffffffffffffffff021916908373ffffffffffffffffffffffffffffffffffffffff160217905550613ca06040805190810160405280600b81526020017f6574685f6d61696e6e6574000000000000000000000000000000000000000000815250614700565b6001905061413b565b6000613cc873c03a2615d5efaf5f49f60b7bb6583eaec212fdf161341e565b1115613d6a5773c03a2615d5efaf5f49f60b7bb6583eaec212fdf1600160006101000a81548173ffffffffffffffffffffffffffffffffffffffff021916908373ffffffffffffffffffffffffffffffffffffffff160217905550613d616040805190810160405280600c81526020017f6574685f726f707374656e330000000000000000000000000000000000000000815250614700565b6001905061413b565b6000613d8973b7a07bcf2ba2f2703b24c0691b5278999c59ac7e61341e565b1115613e2b5773b7a07bcf2ba2f2703b24c0691b5278999c59ac7e600160006101000a81548173ffffffffffffffffffffffffffffffffffffffff021916908373ffffffffffffffffffffffffffffffffffffffff160217905550613e226040805190810160405280600981526020017f6574685f6b6f76616e0000000000000000000000000000000000000000000000815250614700565b6001905061413b565b6000613e4a73146500cfd35b22e4a392fe0adc06de1a1368ed4861341e565b1115613eec5773146500cfd35b22e4a392fe0adc06de1a1368ed48600160006101000a81548173ffffffffffffffffffffffffffffffffffffffff021916908373ffffffffffffffffffffffffffffffffffffffff160217905550613ee36040805190810160405280600b81526020017f6574685f72696e6b656279000000000000000000000000000000000000000000815250614700565b6001905061413b565b6000613f0b73a2998efd205fb9d4b4963afb70778d6354ad3a4161341e565b1115613fad5773a2998efd205fb9d4b4963afb70778d6354ad3a41600160006101000a81548173ffffffffffffffffffffffffffffffffffffffff021916908373ffffffffffffffffffffffffffffffffffffffff160217905550613fa46040805190810160405280600a81526020017f6574685f676f65726c6900000000000000000000000000000000000000000000815250614700565b6001905061413b565b6000613fcc736f485c8bf6fc43ea212e93bbf8ce046c7f1cb47561341e565b111561403057736f485c8bf6fc43ea212e93bbf8ce046c7f1cb475600160006101000a81548173ffffffffffffffffffffffffffffffffffffffff021916908373ffffffffffffffffffffffffffffffffffffffff1602179055506001905061413b565b600061404f7320e12a1f859b3feae5fb2a0a32c18f5a65555bbf61341e565b11156140b3577320e12a1f859b3feae5fb2a0a32c18f5a65555bbf600160006101000a81548173ffffffffffffffffffffffffffffffffffffffff021916908373ffffffffffffffffffffffffffffffffffffffff1602179055506001905061413b565b60006140d27351efaf4c8b3c9afbd5ab9f4bbc82784ab6ef8faa61341e565b1115614136577351efaf4c8b3c9afbd5ab9f4bbc82784ab6ef8faa600160006101000a81548173ffffffffffffffffffffffffffffffffffffffff021916908373ffffffffffffffffffffffffffffffffffffffff1602179055506001905061413b565b600090505b90565b60008060606000600160009054906101000a900473ffffffffffffffffffffffffffffffffffffffff1673ffffffffffffffffffffffffffffffffffffffff1614806141b4575060006141b2600160009054906101000a900473ffffffffffffffffffffffffffffffffffffffff1661341e565b145b156141c5576141c36000613429565b505b600160009054906101000a900473ffffffffffffffffffffffffffffffffffffffff1673ffffffffffffffffffffffffffffffffffffffff166338cc48316040518163ffffffff167c0100000000000000000000000000000000000000000000000000000000028152600401602060405180830381600087803b15801561424b57600080fd5b505af115801561425f573d6000803e3d6000fd5b505050506040513d602081101561427557600080fd5b810190808051906020019092919050505073ffffffffffffffffffffffffffffffffffffffff16600260009054906101000a900473ffffffffffffffffffffffffffffffffffffffff1673ffffffffffffffffffffffffffffffffffffffff161415156143de57600160009054906101000a900473ffffffffffffffffffffffffffffffffffffffff1673ffffffffffffffffffffffffffffffffffffffff166338cc48316040518163ffffffff167c0100000000000000000000000000000000000000000000000000000000028152600401602060405180830381600087803b15801561436257600080fd5b505af1158015614376573d6000803e3d6000fd5b505050506040513d602081101561438c57600080fd5b8101908080519060200190929190505050600260006101000a81548173ffffffffffffffffffffffffffffffffffffffff021916908373ffffffffffffffffffffffffffffffffffffffff1602179055505b600260009054906101000a900473ffffffffffffffffffffffffffffffffffffffff1673ffffffffffffffffffffffffffffffffffffffff16632ef3accc87866040518363ffffffff167c01000000000000000000000000000000000000000000000000000000000281526004018080602001838152602001828103825284818151815260200191508051906020019080838360005b8381101561448f578082015181840152602081019050614474565b50505050905090810190601f1680156144bc5780820380516001836020036101000a031916815260200191505b509350505050602060405180830381600087803b1580156144dc57600080fd5b505af11580156144f0573d6000803e3d6000fd5b505050506040513d602081101561450657600080fd5b81019080805190602001909291905050509150833a02670de0b6b3a76400000182111561453957600060010292506146f7565b6145428561471a565b9050600260009054906101000a900473ffffffffffffffffffffffffffffffffffffffff1673ffffffffffffffffffffffffffffffffffffffff1663c55c1cb68360008985896040518663ffffffff167c0100000000000000000000000000000000000000000000000000000000028152600401808581526020018060200180602001848152602001838103835286818151815260200191508051906020019080838360005b838110156146035780820151818401526020810190506145e8565b50505050905090810190601f1680156146305780820380516001836020036101000a031916815260200191505b50838103825285818151815260200191508051906020019080838360005b8381101561466957808201518184015260208101905061464e565b50505050905090810190601f1680156146965780820380516001836020036101000a031916815260200191505b5096505050505050506020604051808303818588803b1580156146b857600080fd5b505af11580156146cc573d6000803e3d6000fd5b50505050506040513d60208110156146e357600080fd5b810190808051906020019092919050505092505b50509392505050565b8060039080519060200190614716929190614bee565b5050565b6060614724614c6e565b600061472e61479f565b61473a826104006147ab565b614743826147fb565b600090505b83518110156147885761477b848281518110151561476257fe5b906020019060200201518361480990919063ffffffff16565b8080600101915050614748565b6147918261482e565b816000015192505050919050565b60405180590338823950565b600081905060006020828115156147be57fe5b061415156147db576020818115156147d257fe5b06602003810190505b808360200181815250506040518084526000815281810160405250505050565b61480681600461483c565b50565b6148168260028351614860565b61482981836149b990919063ffffffff16565b505050565b61483981600761483c565b50565b61485c601f60058360ff169060020a021783614a6590919063ffffffff16565b5050565b6017811115156148915761488c8160058460ff169060020a0260ff161784614a6590919063ffffffff16565b6149b4565b60ff811115156148d7576148bb601860058460ff169060020a021784614a6590919063ffffffff16565b6148d181600185614aa59092919063ffffffff16565b506149b3565b61ffff8111151561491e57614902601960058460ff169060020a021784614a6590919063ffffffff16565b61491881600285614aa59092919063ffffffff16565b506149b2565b63ffffffff811115156149675761494b601a60058460ff169060020a021784614a6590919063ffffffff16565b61496181600485614aa59092919063ffffffff16565b506149b1565b67ffffffffffffffff811115156149b057614998601b60058460ff169060020a021784614a6590919063ffffffff16565b6149ae81600885614aa59092919063ffffffff16565b505b5b5b5b5b505050565b6149c1614c6e565b600080600080866020015187600001515187510111156149f7576149f68760026149f08a602001518a51614b0c565b02614b28565b5b8551915086518051602081830101955087518101825260208801945050505b602082101515614a3b5782518452602084019350602083019250602082039150614a16565b6001826020036101000a039050801983511681855116818117865250508694505050505092915050565b81602001516001836000015151011115614a8b57614a8a826002846020015102614b28565b5b815180516020818301018381536001820183525050505050565b614aad614c6e565b6000846020015185600001515184011115614add57614adc856002614ad6886020015187614b0c565b02614b28565b5b6001836101000a0390508451805184818301018684198251161781528582018352505050849150509392505050565b600081831115614b1e57829050614b22565b8190505b92915050565b606082600001519050614b3b83836147ab565b614b4583826149b9565b50505050565b6080604051908101604052806060815260200160608152602001600015158152602001600080191681525090565b828054828255906000526020600020908101928215614bb5579160200282015b82811115614bb4578251825591602001919060010190614b99565b5b509050614bc29190614c88565b5090565b6080604051908101604052806004905b6060815260200190600190039081614bd65790505090565b828054600181600116156101000203166002900490600052602060002090601f016020900481019282601f10614c2f57805160ff1916838001178555614c5d565b82800160010185558215614c5d579182015b82811115614c5c578251825591602001919060010190614c41565b5b509050614c6a9190614c88565b5090565b604080519081016040528060608152602001600081525090565b614caa91905b80821115614ca6576000816000905550600101614c8e565b5090565b905600a165627a7a723058208f77fd191fcba28a863d149a9d83efa58b1ea3e72c7754031868dd0139790f460029",
  "source": "//SPDX-License-Identifier: UNLICENSED\r\n\r\nimport \"./Ownable.sol\";\r\n//import \"./provableAPI_0.4.25_simplified.sol\";\r\nimport \"./provableAPI_0.4.25.sol\";\r\npragma solidity 0.4.26;\r\n\r\ncontract CoinFlip100 is Ownable, usingProvable{\r\n\r\n    uint public BET_RANGE_MIN = 0;\r\n    uint public BET_RANGE_MAX = 99;\r\n\r\n    uint CHIP_TO_WEI = 10**15; //1 chips = 1 eth - Can be parametric\r\n    uint public BET_MIN_AMOUNT_WEI = CHIP_TO_WEI ; //All Amount are in ETH\r\n    uint BET_WIN_RATE = 190; //Win rate = 1,9 with 2 decimals\r\n\r\n    uint public _contractBalance_;\r\n    uint public _totalAllPlayerBalance_;\r\n\r\n    // status of active bets; Each player can have multiple bets before each flip\r\n    //Update each time player submited new bet\r\n\r\n    struct Bets  {\r\n        uint[] betNumbers;\r\n        uint[] betAmount;  //wei amount bet for each number\r\n        bool waitingResult;\r\n        bytes32 waitingId; //uint == 0 when not waiting for Flipped result\r\n    }\r\n\r\n    //list of all activities of a player (update after finished solving each bet)\r\n    struct betHistory {\r\n        uint totalBalance;\r\n        uint totalTopUp;\r\n        uint totalWithdrawn;\r\n        uint totalSpentAmount;\r\n        uint totalWinAmount;\r\n        uint totalGames;\r\n        uint totalWins;\r\n        uint lastWinAmount;\r\n    }\r\n\r\n    //betList is a list of all active bets\r\n    // Should limit storage size somehow to avoid everflow in future?\r\n    mapping (address => Bets) public activeBet;\r\n\r\n    //playerList store information\r\n    // Should limit storage size somehow to avoid everflow in future?\r\n    mapping (address => betHistory) public playerHistory;\r\n\r\n    //newBetCreated emit when created and not finished\r\n    event newBetCreated(uint[] betNumbers, uint[] betAmounts_chip, address playerAddress);\r\n\r\n    //betFinished emit when\r\n    event betFinished(uint winAmount, uint result);\r\n\r\n    //common notice\r\n    event notice(string noticeString, uint noticeValue);\r\n\r\n    //Pseudo Random\r\n    function random() public pure returns(uint) {\r\n        return 0;\r\n        //return now % (BET_RANGE_MAX+1);\r\n    }\r\n\r\n    //Oracle >>>>>>>>>>>>>>>>>>>>\r\n    uint256 constant NUM_RANDOM_BYTES_REQUESTED = 1;\r\n    uint256 public latestNumber;\r\n\r\n    event generatedRandomNumber(uint256 randomNumber , bytes32 Id, bytes proof);\r\n    event LogNewProvableQuery(string notice);\r\n    event proofFailed(string description);\r\n\r\n    constructor() public payable{\r\n        provable_setProof(proofType_Ledger);\r\n        _contractBalance_ += msg.value ;\r\n    }\r\n\r\n\r\n    function __callback(bytes32 _queryId, string memory _result, bytes memory _proof) public {\r\n        require(msg.sender == provable_cbAddress());\r\n        //if (\r\n        //    provable_randomDS_proofVerify__returnCode(\r\n        //        _queryId,\r\n        //        _result,\r\n        //        _proof\r\n        //    ) != 0\r\n        //) {\r\n        //    emit proofFailed(\"The proof verification failed in the callback\");\r\n        //} else {\r\n            uint256 randomNumber = uint256(keccak256(abi.encodePacked(_result)))%100;\r\n            latestNumber = randomNumber;\r\n            emit generatedRandomNumber(randomNumber, _queryId, _proof);\r\n        //}\r\n    }\r\n\r\n\r\n    function update()\r\n        payable\r\n        public\r\n    {\r\n        uint256 QUERY_EXECUTION_DELAY = 0;\r\n        uint256 GAS_FOR_CALLBACK = 200000;\r\n\r\n        activeBet[msg.sender].waitingId = provable_newRandomDSQuery(\r\n            QUERY_EXECUTION_DELAY,\r\n            NUM_RANDOM_BYTES_REQUESTED,\r\n            GAS_FOR_CALLBACK\r\n        );\r\n        emit LogNewProvableQuery(\"Provable query was sent, waiting for the answer..\");\r\n    }\r\n\r\n    //Oracle <<<<<<<<<<<<<<<<<<<<<\r\n\r\n\r\n    //Check Account Balance validity\r\n    function validPlayerBalance() private view returns(bool) {\r\n        if (playerHistory[msg.sender].totalBalance ==\r\n            playerHistory[msg.sender].totalTopUp - playerHistory[msg.sender].totalWithdrawn -\r\n            playerHistory[msg.sender].totalSpentAmount + playerHistory[msg.sender].totalWinAmount) {\r\n                return true;\r\n            } else {\r\n                return false;\r\n            }\r\n    }\r\n\r\n    function wei2Chip(uint _wei) private view returns(uint) {\r\n        return _wei / CHIP_TO_WEI;\r\n    }\r\n\r\n    function chip2Wei(uint chip) private view returns(uint) {\r\n        return chip * CHIP_TO_WEI;\r\n    }\r\n\r\n    function chip2Wei_ar(uint[] memory chip_ar) private view returns(uint[] memory) {\r\n        for (uint x=0; x<chip_ar.length; x++) {\r\n            chip_ar[x] = chip2Wei(chip_ar[x]);\r\n        }\r\n        return chip_ar;\r\n    }\r\n\r\n    function wei2Chip_ar(uint[] memory wei_ar) private view returns(uint[] memory) {\r\n        for (uint x=0; x<wei_ar.length; x++) {\r\n           wei_ar[x] = wei2Chip(wei_ar[x]);\r\n        }\r\n        return wei_ar;\r\n    }\r\n\r\n\r\n    //Owner balance topUp\r\n    function ownerFundUp_chip(uint topUp_chip) public onlyOwner payable {\r\n\r\n        require(msg.value == chip2Wei(topUp_chip), \"msg.value != topUp_chip * 1e16\");\r\n        if (msg.value != chip2Wei(topUp_chip)) revert();\r\n        _contractBalance_ += msg.value ;\r\n    }\r\n\r\n\r\n    //Player account balance topUp\r\n    function playerTopUp_chip(uint topUp_chip) public payable {\r\n        //1eth = 1000000000000000000 wei\r\n        require(msg.value == chip2Wei(topUp_chip), \"msg.value != topUp_chip * 1e16\");\r\n        if (msg.value != chip2Wei(topUp_chip)) revert();\r\n\r\n        _contractBalance_ += msg.value ;\r\n        playerHistory[msg.sender].totalTopUp += msg.value;\r\n        updateMyBalance();\r\n    }\r\n\r\n    // Calculate values each time player status changed\r\n    // All values of playerHistory in wei\r\n    function updateMyBalance() private {\r\n        _totalAllPlayerBalance_ -= playerHistory[msg.sender].totalBalance;\r\n        playerHistory[msg.sender].totalBalance =\r\n        playerHistory[msg.sender].totalTopUp -\r\n        playerHistory[msg.sender].totalWithdrawn -\r\n        playerHistory[msg.sender].totalSpentAmount +\r\n        playerHistory[msg.sender].totalWinAmount;\r\n        _totalAllPlayerBalance_ += playerHistory[msg.sender].totalBalance;\r\n        }\r\n\r\n    function mySpentBalance(uint[] memory spentAmounts_wei) private {\r\n\r\n        for (uint x=0; x<spentAmounts_wei.length; x++) {\r\n            playerHistory[msg.sender].totalSpentAmount += spentAmounts_wei[x];\r\n        }\r\n        updateMyBalance();\r\n    }\r\n\r\n    function myWinBalance(uint winAmount_wei) private  {\r\n        playerHistory[msg.sender].totalGames++;\r\n        if (winAmount_wei>0) {\r\n            playerHistory[msg.sender].totalWinAmount += winAmount_wei;\r\n            playerHistory[msg.sender].totalWins += 1;\r\n        }\r\n        playerHistory[msg.sender].lastWinAmount = winAmount_wei;\r\n        updateMyBalance();\r\n    }\r\n\r\n    function getPlayerHistory() public view  returns(uint,uint,uint,uint,uint,uint,uint,uint) {\r\n        require(validPlayerBalance(), \"Not valid Player Balance\");\r\n        return  (   playerHistory[msg.sender].totalBalance,\r\n                    playerHistory[msg.sender].totalTopUp,\r\n                    playerHistory[msg.sender].totalWithdrawn,\r\n                    playerHistory[msg.sender].totalSpentAmount,\r\n                    playerHistory[msg.sender].totalWinAmount,\r\n                    playerHistory[msg.sender].totalGames,\r\n                    playerHistory[msg.sender].totalWins,\r\n                    playerHistory[msg.sender].lastWinAmount );\r\n    }\r\n\r\n    function getContractBalance() public view returns (uint) {\r\n      return _contractBalance_;\r\n    }\r\n\r\n\r\n    function get_totalAllPlayerBalance_() public view returns (uint) {\r\n      return _totalAllPlayerBalance_;\r\n    }\r\n\r\n    function contractPlayableFund() public view returns(uint) {\r\n      if (_contractBalance_ == 0) {\r\n        return 0;\r\n      }\r\n      else {\r\n        return _contractBalance_ - _totalAllPlayerBalance_;\r\n      }\r\n    }\r\n\r\n    function playerPlayableFund() public view returns(uint) {\r\n        uint contractPlayable = contractPlayableFund();\r\n        if (playerHistory[msg.sender].totalBalance < contractPlayable) {\r\n            return playerHistory[msg.sender].totalBalance;\r\n        }\r\n        else {\r\n            return contractPlayable;\r\n        }\r\n    }\r\n\r\n    function verifyBet(uint[] memory betNumbers, uint[] memory betAmount_wei) private view returns(bool) {\r\n        require (betNumbers.length == betAmount_wei.length,\" ERROR bet aray\") ;\r\n        uint sumBetAmount = 0;\r\n\r\n        for (uint x = 0; x<betNumbers.length; x++) {\r\n\r\n            require(betAmount_wei[x] >=  BET_MIN_AMOUNT_WEI, \"Bet amount less than min amount\");\r\n            sumBetAmount += betAmount_wei[x];\r\n        }\r\n        require(sumBetAmount <= playerPlayableFund(), \"TOO BIG BET, PLEASE ADJUST OUR BET\");\r\n        return true;\r\n    }\r\n\r\n    function updateActiveBet(uint[] memory newBetNumbers, uint[] memory newBetAmount_wei) private {\r\n        //append new bets with current Betlist\r\n        for (uint x=0; x<newBetNumbers.length; x++) {\r\n            activeBet[msg.sender].betNumbers.push(newBetNumbers[x]);\r\n            activeBet[msg.sender].betAmount.push(newBetAmount_wei[x]);\r\n        }\r\n    }\r\n\r\n\r\n    function createMyBet(uint[] memory betNumbers, uint[] memory betAmount_chip) public returns (bool){\r\n\r\n        //money amount received from frontEnd is in Chips;\r\n        //Should conver all chips to Wei\r\n\r\n        require(activeBet[msg.sender].waitingId == 0, \".. Please Wait for result of last bet..\");\r\n\r\n        require(validPlayerBalance(), \"Not valid Player Balance\");\r\n\r\n        uint[] memory betAmount = chip2Wei_ar(betAmount_chip);\r\n\r\n        require(verifyBet(betNumbers,betAmount), \"NOT VALID BET\");\r\n\r\n        mySpentBalance(betAmount); //Deduct spent amount from player balance\r\n\r\n        updateActiveBet(betNumbers, betAmount); //Update Active Betlist for a player\r\n\r\n        emit newBetCreated(betNumbers,betAmount, msg.sender);\r\n\r\n        return (true);\r\n    }\r\n\r\n\r\n    function getMyBet() public view returns(uint[] memory, uint[] memory,bool, bytes32)  {\r\n        //Data sent to front page from contract is in Chips\r\n        return (    activeBet[msg.sender].betNumbers,\r\n                    wei2Chip_ar(activeBet[msg.sender].betAmount), //wei\r\n                    activeBet[msg.sender].waitingResult,\r\n                    activeBet[msg.sender].waitingId);\r\n    }\r\n\r\n\r\n    function resetPlayerBetList() private {\r\n        Bets memory nullBet;\r\n        activeBet[msg.sender] = nullBet;\r\n        activeBet[msg.sender].waitingResult = false;\r\n    }\r\n\r\n\r\n    function getWinAmountWei(uint winWei) public view returns(uint) {\r\n        return (winWei*BET_WIN_RATE)/100;\r\n    }\r\n\r\n    function playerTossCoin() public returns(uint, uint) {\r\n\r\n        require(validPlayerBalance(), \"playerTossCoin: Not valid Player Balance\");\r\n        require(activeBet[msg.sender].betNumbers.length > 0,\"playerTossCoin: No bet placed, plase place the bet!\");\r\n\r\n\r\n        //Not using oracle yet.. to be added later...\r\n        activeBet[msg.sender].waitingResult = true;\r\n        uint result = random();\r\n\r\n        require(result >= BET_RANGE_MIN && result <= BET_RANGE_MAX, \"playerTossCoin: Random out of range\");\r\n\r\n        uint winAmount_wei = 0;\r\n\r\n        for (uint x=0; x<activeBet[msg.sender].betNumbers.length; x++) {\r\n            if (activeBet[msg.sender].betNumbers[x] == result) {\r\n                winAmount_wei += getWinAmountWei(activeBet[msg.sender].betAmount[x]);\r\n            }\r\n        }\r\n\r\n        resetPlayerBetList();\r\n        myWinBalance(winAmount_wei);\r\n\r\n        emit betFinished(winAmount_wei, result);\r\n        return (winAmount_wei, result);\r\n    }\r\n\r\n    function ownerWithdrawAll() public onlyOwner returns(uint) {\r\n       uint toTransfer = getContractBalance();\r\n\r\n       //Should cancel all bets before withdrawn\r\n       //Should return all players ballances before withdrawn\r\n       _totalAllPlayerBalance_ = 0;\r\n       _contractBalance_ = 0;\r\n       msg.sender.transfer(toTransfer);\r\n       return toTransfer;\r\n    }\r\n\r\n    function playerWithdrawAll() public  returns(uint) {\r\n\r\n        updateMyBalance();\r\n\r\n        require(playerHistory[msg.sender].totalBalance > 0, \"Player is out of money\");\r\n\r\n        require(validPlayerBalance(), \"Invalid balance check\");\r\n\r\n        require(activeBet[msg.sender].waitingId == 0, \"Waiting for bet result..\");\r\n\r\n        require(activeBet[msg.sender].betNumbers.length == 0, \"Bet can not be cancelled, Click Flip Button..\");\r\n\r\n        uint toTransfer = playerHistory[msg.sender].totalBalance;\r\n\r\n        playerHistory[msg.sender].totalWithdrawn += toTransfer;\r\n\r\n        _contractBalance_ -= toTransfer;\r\n\r\n        updateMyBalance();\r\n\r\n        assert(playerHistory[msg.sender].totalBalance == 0);\r\n\r\n        msg.sender.transfer(toTransfer);\r\n\r\n        return toTransfer;\r\n    }\r\n\r\n}\r\n",
  "sourcePath": "D:\\@TUNG 2020\\IVANONTECH\\SOLIDITY 201\\coinFlip4\\contracts\\CoinFlip100.sol",
  "compiler": {
    "name": "solc",
    "version": "0.4.26+commit.4563c3fc.Emscripten.clang"
  },
  "schemaVersion": "2.0.3",
  "updatedAt": "2020-06-29T15:30:28.124Z"
}