{
  "contractName": "CoinFlip100",
  "abi": [
    {
      "constant": true,
      "inputs": [],
      "name": "_contractBalance_",
      "outputs": [
        {
          "name": "",
          "type": "uint256"
        }
      ],
      "payable": false,
      "stateMutability": "view",
      "type": "function"
    },
    {
      "constant": true,
      "inputs": [
        {
          "name": "",
          "type": "address"
        }
      ],
      "name": "playerHistory",
      "outputs": [
        {
          "name": "totalBalance",
          "type": "uint256"
        },
        {
          "name": "totalTopUp",
          "type": "uint256"
        },
        {
          "name": "totalWithdrawn",
          "type": "uint256"
        },
        {
          "name": "totalSpentAmount",
          "type": "uint256"
        },
        {
          "name": "totalWinAmount",
          "type": "uint256"
        },
        {
          "name": "totalGames",
          "type": "uint256"
        },
        {
          "name": "totalWins",
          "type": "uint256"
        },
        {
          "name": "lastWinAmount",
          "type": "uint256"
        }
      ],
      "payable": false,
      "stateMutability": "view",
      "type": "function"
    },
    {
      "constant": true,
      "inputs": [],
      "name": "_totalAllPlayerBalance_",
      "outputs": [
        {
          "name": "",
          "type": "uint256"
        }
      ],
      "payable": false,
      "stateMutability": "view",
      "type": "function"
    },
    {
      "constant": true,
      "inputs": [
        {
          "name": "",
          "type": "address"
        }
      ],
      "name": "activeBet",
      "outputs": [
        {
          "name": "waitingResult",
          "type": "bool"
        },
        {
          "name": "waitingId",
          "type": "bytes32"
        }
      ],
      "payable": false,
      "stateMutability": "view",
      "type": "function"
    },
    {
      "constant": true,
      "inputs": [],
      "name": "BET_RANGE_MIN",
      "outputs": [
        {
          "name": "",
          "type": "uint256"
        }
      ],
      "payable": false,
      "stateMutability": "view",
      "type": "function"
    },
    {
      "constant": true,
      "inputs": [],
      "name": "owner",
      "outputs": [
        {
          "name": "",
          "type": "address"
        }
      ],
      "payable": false,
      "stateMutability": "view",
      "type": "function"
    },
    {
      "constant": true,
      "inputs": [],
      "name": "latestNumber",
      "outputs": [
        {
          "name": "",
          "type": "uint256"
        }
      ],
      "payable": false,
      "stateMutability": "view",
      "type": "function"
    },
    {
      "constant": true,
      "inputs": [],
      "name": "BET_RANGE_MAX",
      "outputs": [
        {
          "name": "",
          "type": "uint256"
        }
      ],
      "payable": false,
      "stateMutability": "view",
      "type": "function"
    },
    {
      "constant": true,
      "inputs": [],
      "name": "BET_MIN_AMOUNT_WEI",
      "outputs": [
        {
          "name": "",
          "type": "uint256"
        }
      ],
      "payable": false,
      "stateMutability": "view",
      "type": "function"
    },
    {
      "anonymous": false,
      "inputs": [
        {
          "indexed": false,
          "name": "betNumbers",
          "type": "uint256[]"
        },
        {
          "indexed": false,
          "name": "betAmounts_chip",
          "type": "uint256[]"
        },
        {
          "indexed": false,
          "name": "playerAddress",
          "type": "address"
        }
      ],
      "name": "newBetCreated",
      "type": "event"
    },
    {
      "anonymous": false,
      "inputs": [
        {
          "indexed": false,
          "name": "playerAddress",
          "type": "address"
        },
        {
          "indexed": false,
          "name": "winAmount",
          "type": "uint256"
        },
        {
          "indexed": false,
          "name": "result",
          "type": "uint256"
        }
      ],
      "name": "betFinished",
      "type": "event"
    },
    {
      "anonymous": false,
      "inputs": [
        {
          "indexed": false,
          "name": "noticeString",
          "type": "string"
        },
        {
          "indexed": false,
          "name": "noticeValue",
          "type": "uint256"
        }
      ],
      "name": "notice",
      "type": "event"
    },
    {
      "anonymous": false,
      "inputs": [
        {
          "indexed": false,
          "name": "randomNumber",
          "type": "uint256"
        },
        {
          "indexed": false,
          "name": "Id",
          "type": "bytes32"
        },
        {
          "indexed": false,
          "name": "proof",
          "type": "bytes"
        }
      ],
      "name": "generatedRandomNumber",
      "type": "event"
    },
    {
      "anonymous": false,
      "inputs": [
        {
          "indexed": false,
          "name": "notice",
          "type": "string"
        }
      ],
      "name": "LogNewProvableQuery",
      "type": "event"
    },
    {
      "anonymous": false,
      "inputs": [
        {
          "indexed": false,
          "name": "description",
          "type": "string"
        }
      ],
      "name": "proofFailed",
      "type": "event"
    },
    {
      "constant": true,
      "inputs": [],
      "name": "random",
      "outputs": [
        {
          "name": "",
          "type": "uint256"
        }
      ],
      "payable": false,
      "stateMutability": "pure",
      "type": "function"
    },
    {
      "constant": false,
      "inputs": [
        {
          "name": "myid",
          "type": "bytes32"
        },
        {
          "name": "result",
          "type": "string"
        }
      ],
      "name": "__callback",
      "outputs": [],
      "payable": false,
      "stateMutability": "nonpayable",
      "type": "function"
    },
    {
      "constant": false,
      "inputs": [
        {
          "name": "_queryId",
          "type": "bytes32"
        },
        {
          "name": "_result",
          "type": "string"
        },
        {
          "name": "_proof",
          "type": "bytes"
        }
      ],
      "name": "__callback",
      "outputs": [],
      "payable": false,
      "stateMutability": "nonpayable",
      "type": "function"
    },
    {
      "constant": false,
      "inputs": [],
      "name": "getRandom100",
      "outputs": [],
      "payable": true,
      "stateMutability": "payable",
      "type": "function"
    },
    {
      "constant": false,
      "inputs": [
        {
          "name": "topUp_chip",
          "type": "uint256"
        }
      ],
      "name": "ownerFundUp_chip",
      "outputs": [],
      "payable": true,
      "stateMutability": "payable",
      "type": "function"
    },
    {
      "constant": false,
      "inputs": [
        {
          "name": "topUp_chip",
          "type": "uint256"
        }
      ],
      "name": "playerTopUp_chip",
      "outputs": [],
      "payable": true,
      "stateMutability": "payable",
      "type": "function"
    },
    {
      "constant": true,
      "inputs": [],
      "name": "getPlayerHistory",
      "outputs": [
        {
          "name": "",
          "type": "uint256"
        },
        {
          "name": "",
          "type": "uint256"
        },
        {
          "name": "",
          "type": "uint256"
        },
        {
          "name": "",
          "type": "uint256"
        },
        {
          "name": "",
          "type": "uint256"
        },
        {
          "name": "",
          "type": "uint256"
        },
        {
          "name": "",
          "type": "uint256"
        },
        {
          "name": "",
          "type": "uint256"
        }
      ],
      "payable": false,
      "stateMutability": "view",
      "type": "function"
    },
    {
      "constant": true,
      "inputs": [],
      "name": "getContractBalance",
      "outputs": [
        {
          "name": "",
          "type": "uint256"
        }
      ],
      "payable": false,
      "stateMutability": "view",
      "type": "function"
    },
    {
      "constant": true,
      "inputs": [],
      "name": "get_totalAllPlayerBalance_",
      "outputs": [
        {
          "name": "",
          "type": "uint256"
        }
      ],
      "payable": false,
      "stateMutability": "view",
      "type": "function"
    },
    {
      "constant": true,
      "inputs": [],
      "name": "contractPlayableFund",
      "outputs": [
        {
          "name": "",
          "type": "uint256"
        }
      ],
      "payable": false,
      "stateMutability": "view",
      "type": "function"
    },
    {
      "constant": true,
      "inputs": [],
      "name": "playerPlayableFund",
      "outputs": [
        {
          "name": "",
          "type": "uint256"
        }
      ],
      "payable": false,
      "stateMutability": "view",
      "type": "function"
    },
    {
      "constant": false,
      "inputs": [
        {
          "name": "betNumbers",
          "type": "uint256[]"
        },
        {
          "name": "betAmount_chip",
          "type": "uint256[]"
        }
      ],
      "name": "createMyBet",
      "outputs": [
        {
          "name": "",
          "type": "bool"
        }
      ],
      "payable": false,
      "stateMutability": "nonpayable",
      "type": "function"
    },
    {
      "constant": true,
      "inputs": [],
      "name": "getMyBet",
      "outputs": [
        {
          "name": "",
          "type": "uint256[]"
        },
        {
          "name": "",
          "type": "uint256[]"
        },
        {
          "name": "",
          "type": "bool"
        },
        {
          "name": "",
          "type": "bytes32"
        }
      ],
      "payable": false,
      "stateMutability": "view",
      "type": "function"
    },
    {
      "constant": true,
      "inputs": [
        {
          "name": "winWei",
          "type": "uint256"
        }
      ],
      "name": "getWinAmountWei",
      "outputs": [
        {
          "name": "",
          "type": "uint256"
        }
      ],
      "payable": false,
      "stateMutability": "view",
      "type": "function"
    },
    {
      "constant": false,
      "inputs": [],
      "name": "playerTossCoin",
      "outputs": [],
      "payable": false,
      "stateMutability": "nonpayable",
      "type": "function"
    },
    {
      "constant": false,
      "inputs": [],
      "name": "ownerWithdrawAll",
      "outputs": [
        {
          "name": "",
          "type": "uint256"
        }
      ],
      "payable": false,
      "stateMutability": "nonpayable",
      "type": "function"
    },
    {
      "constant": false,
      "inputs": [],
      "name": "playerWithdrawAll",
      "outputs": [
        {
          "name": "",
          "type": "uint256"
        }
      ],
      "payable": false,
      "stateMutability": "nonpayable",
      "type": "function"
    }
  ],
  "bytecode": "0x60806040526000600655606360075566038d7ea4c6800060085560085460095560be600a55336000806101000a81548173ffffffffffffffffffffffffffffffffffffffff021916908373ffffffffffffffffffffffffffffffffffffffff1602179055506148e8806100736000396000f300608060405260043610610154576000357c0100000000000000000000000000000000000000000000000000000000900463ffffffff1680630a39a58e146101595780630da2779014610184578063180bfdf61461020c5780631c7ff1ba146102375780631de944cf146102a157806320912e38146102ab57806327dc297e146102d65780632890a9f81461034d57806338bbfa501461040e5780633c50b913146104cb5780635ec01e4d146104f65780636f9fb98a1461052157806376b0a4a01461054c5780638085688c1461056c5780638a8b19e5146105835780638da5cb5b146105ae57806394ebe60814610605578063b24b05f814610630578063dc34b0aa146106fe578063dd85881f14610729578063e0d5af9414610754578063e1bc44e71461077f578063e3c12872146107aa578063e57acb3514610806578063e862f79d14610831578063f88c09f914610851575b600080fd5b34801561016557600080fd5b5061016e610892565b6040518082815260200191505060405180910390f35b34801561019057600080fd5b506101c5600480360381019080803573ffffffffffffffffffffffffffffffffffffffff169060200190929190505050610898565b604051808981526020018881526020018781526020018681526020018581526020018481526020018381526020018281526020019850505050505050505060405180910390f35b34801561021857600080fd5b506102216108e0565b6040518082815260200191505060405180910390f35b34801561024357600080fd5b50610278600480360381019080803573ffffffffffffffffffffffffffffffffffffffff1690602001909291905050506108e6565b604051808315151515815260200182600019166000191681526020019250505060405180910390f35b6102a9610917565b005b3480156102b757600080fd5b506102c0610bac565b6040518082815260200191505060405180910390f35b3480156102e257600080fd5b5061034b6004803603810190808035600019169060200190929190803590602001908201803590602001908080601f0160208091040260200160405190810160405280939291908181526020018383808284378201915050505050509192919290505050610bce565b005b34801561035957600080fd5b506103f46004803603810190808035906020019082018035906020019080806020026020016040519081016040528093929190818152602001838360200280828437820191505050505050919291929080359060200190820180359060200190808060200260200160405190810160405280939291908181526020018383602002808284378201915050505050509192919290505050610c11565b604051808215151515815260200191505060405180910390f35b34801561041a57600080fd5b506104c96004803603810190808035600019169060200190929190803590602001908201803590602001908080601f0160208091040260200160405190810160405280939291908181526020018383808284378201915050505050509192919290803590602001908201803590602001908080601f0160208091040260200160405190810160405280939291908181526020018383808284378201915050505050509192919290505050610f14565b005b3480156104d757600080fd5b506104e06110f9565b6040518082815260200191505060405180910390f35b34801561050257600080fd5b5061050b6111a2565b6040518082815260200191505060405180910390f35b34801561052d57600080fd5b506105366111aa565b6040518082815260200191505060405180910390f35b61056a600480360381019080803590602001909291905050506111b4565b005b34801561057857600080fd5b506105816112b7565b005b34801561058f57600080fd5b50610598611446565b6040518082815260200191505060405180910390f35b3480156105ba57600080fd5b506105c361144c565b604051808273ffffffffffffffffffffffffffffffffffffffff1673ffffffffffffffffffffffffffffffffffffffff16815260200191505060405180910390f35b34801561061157600080fd5b5061061a611471565b6040518082815260200191505060405180910390f35b34801561063c57600080fd5b5061064561189f565b604051808060200180602001851515151581526020018460001916600019168152602001838103835287818151815260200191508051906020019060200280838360005b838110156106a4578082015181840152602081019050610689565b50505050905001838103825286818151815260200191508051906020019060200280838360005b838110156106e65780820151818401526020810190506106cb565b50505050905001965050505050505060405180910390f35b34801561070a57600080fd5b50610713611a73565b6040518082815260200191505060405180910390f35b34801561073557600080fd5b5061073e611a79565b6040518082815260200191505060405180910390f35b34801561076057600080fd5b50610769611a7f565b6040518082815260200191505060405180910390f35b34801561078b57600080fd5b50610794611b45565b6040518082815260200191505060405180910390f35b3480156107b657600080fd5b506107bf611b4b565b604051808981526020018881526020018781526020018681526020018581526020018481526020018381526020018281526020019850505050505050505060405180910390f35b34801561081257600080fd5b5061081b611e05565b6040518082815260200191505060405180910390f35b61084f60048036038101908080359060200190929190505050611e0f565b005b34801561085d57600080fd5b5061087c60048036038101908080359060200190929190505050611f0f565b6040518082815260200191505060405180910390f35b600b5481565b600e6020528060005260406000206000915090508060000154908060010154908060020154908060030154908060040154908060050154908060060154908060070154905088565b600c5481565b600d6020528060005260406000206000915090508060020160009054906101000a900460ff16908060030154905082565b60008060001515600d60003373ffffffffffffffffffffffffffffffffffffffff1673ffffffffffffffffffffffffffffffffffffffff16815260200190815260200160002060020160009054906101000a900460ff161515141515610a0b576040517f08c379a000000000000000000000000000000000000000000000000000000000815260040180806020018281038252602e8152602001807f506c617965722069732077616974696e6720666f722062657420726573756c7481526020017f2066726f6d204f7261636c652e2e00000000000000000000000000000000000081525060400191505060405180910390fd5b6000915062030d409050610a2182600183611f29565b600d60003373ffffffffffffffffffffffffffffffffffffffff1673ffffffffffffffffffffffffffffffffffffffff16815260200190815260200160002060030181600019169055506000600102600d60003373ffffffffffffffffffffffffffffffffffffffff1673ffffffffffffffffffffffffffffffffffffffff1681526020019081526020016000206003015460001916141515610ba8576001600d60003373ffffffffffffffffffffffffffffffffffffffff1673ffffffffffffffffffffffffffffffffffffffff16815260200190815260200160002060020160006101000a81548160ff0219169083151502179055507fc4dc360d0a9c0677a3379ae0a3d81e887f761e65fdf3d7e00859d1bcd3c473896040518080602001828103825260318152602001807f50726f7661626c65207175657279207761732073656e742c2077616974696e6781526020017f20666f722074686520616e737765722e2e00000000000000000000000000000081525060400191505060405180910390a15b5050565b600080600b541415610bc15760009050610bcb565b600c54600b540390505b90565b610c0d828260006040519080825280601f01601f191660200182016040528015610c075781602001602082028038833980820191505090505b50610f14565b5050565b600060606000600102600d60003373ffffffffffffffffffffffffffffffffffffffff1673ffffffffffffffffffffffffffffffffffffffff1681526020019081526020016000206003015460001916141515610cfc576040517f08c379a00000000000000000000000000000000000000000000000000000000081526004018080602001828103825260278152602001807f2e2e20506c65617365205761697420666f7220726573756c74206f66206c617381526020017f74206265742e2e0000000000000000000000000000000000000000000000000081525060400191505060405180910390fd5b610d0461255b565b1515610d78576040517f08c379a00000000000000000000000000000000000000000000000000000000081526004018080602001828103825260188152602001807f4e6f742076616c696420506c617965722042616c616e6365000000000000000081525060200191505060405180910390fd5b610d81836126c6565b9050610d8d8482612729565b1515610e01576040517f08c379a000000000000000000000000000000000000000000000000000000000815260040180806020018281038252600d8152602001807f4e4f542056414c4944204245540000000000000000000000000000000000000081525060200191505060405180910390fd5b610e0a81612924565b610e1484826129b3565b7f2aeacb050561fc39cce82b85f933b4093153305890dd8ef86f07c861b720cb7e8482336040518080602001806020018473ffffffffffffffffffffffffffffffffffffffff1673ffffffffffffffffffffffffffffffffffffffff168152602001838103835286818151815260200191508051906020019060200280838360005b83811015610eb1578082015181840152602081019050610e96565b50505050905001838103825285818151815260200191508051906020019060200280838360005b83811015610ef3578082015181840152602081019050610ed8565b505050509050019550505050505060405180910390a1600191505092915050565b6000610f1e612ada565b73ffffffffffffffffffffffffffffffffffffffff163373ffffffffffffffffffffffffffffffffffffffff16141515610f5757600080fd5b6064836040516020018082805190602001908083835b602083101515610f925780518252602082019150602081019050602083039250610f6d565b6001836020036101000a0380198251168184511680821785525050505050509050019150506040516020818303038152906040526040518082805190602001908083835b602083101515610ffb5780518252602082019150602081019050602083039250610fd6565b6001836020036101000a03801982511681845116808217855250505050505090500191505060405180910390206001900481151561103557fe5b06905080600f819055507faaf69c6732172f58aad9372a9ac5d51f6d418e8dcced3f6190c1dbca02c9afcb81858460405180848152602001836000191660001916815260200180602001828103825283818151815260200191508051906020019080838360005b838110156110b757808201518184015260208101905061109c565b50505050905090810190601f1680156110e45780820380516001836020036101000a031916815260200191505b5094505050505060405180910390a150505050565b600080611104610bac565b905080600e60003373ffffffffffffffffffffffffffffffffffffffff1673ffffffffffffffffffffffffffffffffffffffff16815260200190815260200160002060000154101561119a57600e60003373ffffffffffffffffffffffffffffffffffffffff1673ffffffffffffffffffffffffffffffffffffffff16815260200190815260200160002060000154915061119e565b8091505b5090565b600080905090565b6000600b54905090565b6000809054906101000a900473ffffffffffffffffffffffffffffffffffffffff1673ffffffffffffffffffffffffffffffffffffffff163373ffffffffffffffffffffffffffffffffffffffff1614151561120f57600080fd5b61121881612e3c565b3414151561128e576040517f08c379a000000000000000000000000000000000000000000000000000000000815260040180806020018281038252601e8152602001807f6d73672e76616c756520213d20746f7055705f63686970202a2031653136000081525060200191505060405180910390fd5b61129781612e3c565b341415156112a457600080fd5b34600b6000828254019250508190555050565b6112bf61255b565b1515611359576040517f08c379a00000000000000000000000000000000000000000000000000000000081526004018080602001828103825260288152602001807f706c61796572546f7373436f696e3a204e6f742076616c696420506c6179657281526020017f2042616c616e636500000000000000000000000000000000000000000000000081525060400191505060405180910390fd5b6000600d60003373ffffffffffffffffffffffffffffffffffffffff1673ffffffffffffffffffffffffffffffffffffffff1681526020019081526020016000206000018054905011151561143c576040517f08c379a00000000000000000000000000000000000000000000000000000000081526004018080602001828103825260338152602001807f706c61796572546f7373436f696e3a204e6f2062657420706c616365642c207081526020017f6c61736520706c6163652074686520626574210000000000000000000000000081525060400191505060405180910390fd5b611444610917565b565b60065481565b6000809054906101000a900473ffffffffffffffffffffffffffffffffffffffff1681565b60008061147c612e4a565b6000600e60003373ffffffffffffffffffffffffffffffffffffffff1673ffffffffffffffffffffffffffffffffffffffff16815260200190815260200160002060000154111515611536576040517f08c379a00000000000000000000000000000000000000000000000000000000081526004018080602001828103825260168152602001807f506c61796572206973206f7574206f66206d6f6e65790000000000000000000081525060200191505060405180910390fd5b61153e61255b565b15156115b2576040517f08c379a00000000000000000000000000000000000000000000000000000000081526004018080602001828103825260158152602001807f496e76616c69642062616c616e636520636865636b000000000000000000000081525060200191505060405180910390fd5b6000600102600d60003373ffffffffffffffffffffffffffffffffffffffff1673ffffffffffffffffffffffffffffffffffffffff1681526020019081526020016000206003015460001916141515611673576040517f08c379a00000000000000000000000000000000000000000000000000000000081526004018080602001828103825260188152602001807f57616974696e6720666f722062657420726573756c742e2e000000000000000081525060200191505060405180910390fd5b6000600d60003373ffffffffffffffffffffffffffffffffffffffff1673ffffffffffffffffffffffffffffffffffffffff16815260200190815260200160002060000180549050141515611756576040517f08c379a000000000000000000000000000000000000000000000000000000000815260040180806020018281038252602d8152602001807f4265742063616e206e6f742062652063616e63656c6c65642c20436c69636b2081526020017f466c697020427574746f6e2e2e0000000000000000000000000000000000000081525060400191505060405180910390fd5b600e60003373ffffffffffffffffffffffffffffffffffffffff1673ffffffffffffffffffffffffffffffffffffffff16815260200190815260200160002060000154905080600e60003373ffffffffffffffffffffffffffffffffffffffff1673ffffffffffffffffffffffffffffffffffffffff1681526020019081526020016000206002016000828254019250508190555080600b60008282540392505081905550611803612e4a565b6000600e60003373ffffffffffffffffffffffffffffffffffffffff1673ffffffffffffffffffffffffffffffffffffffff1681526020019081526020016000206000015414151561185157fe5b3373ffffffffffffffffffffffffffffffffffffffff166108fc829081150290604051600060405180830381858888f19350505050158015611897573d6000803e3d6000fd5b508091505090565b606080600080600d60003373ffffffffffffffffffffffffffffffffffffffff1673ffffffffffffffffffffffffffffffffffffffff168152602001908152602001600020600001611980600d60003373ffffffffffffffffffffffffffffffffffffffff1673ffffffffffffffffffffffffffffffffffffffff16815260200190815260200160002060010180548060200260200160405190810160405280929190818152602001828054801561197657602002820191906000526020600020905b815481526020019060010190808311611962575b5050505050613045565b600d60003373ffffffffffffffffffffffffffffffffffffffff1673ffffffffffffffffffffffffffffffffffffffff16815260200190815260200160002060020160009054906101000a900460ff16600d60003373ffffffffffffffffffffffffffffffffffffffff1673ffffffffffffffffffffffffffffffffffffffff1681526020019081526020016000206003015483805480602002602001604051908101604052809291908181526020018280548015611a5e57602002820191906000526020600020905b815481526020019060010190808311611a4a575b50505050509350935093509350935090919293565b600f5481565b60075481565b6000806000809054906101000a900473ffffffffffffffffffffffffffffffffffffffff1673ffffffffffffffffffffffffffffffffffffffff163373ffffffffffffffffffffffffffffffffffffffff16141515611add57600080fd5b611ae56111aa565b90506000600c819055506000600b819055503373ffffffffffffffffffffffffffffffffffffffff166108fc829081150290604051600060405180830381858888f19350505050158015611b3d573d6000803e3d6000fd5b508091505090565b60095481565b600080600080600080600080611b5f61255b565b1515611bd3576040517f08c379a00000000000000000000000000000000000000000000000000000000081526004018080602001828103825260188152602001807f4e6f742076616c696420506c617965722042616c616e6365000000000000000081525060200191505060405180910390fd5b600e60003373ffffffffffffffffffffffffffffffffffffffff1673ffffffffffffffffffffffffffffffffffffffff16815260200190815260200160002060000154600e60003373ffffffffffffffffffffffffffffffffffffffff1673ffffffffffffffffffffffffffffffffffffffff16815260200190815260200160002060010154600e60003373ffffffffffffffffffffffffffffffffffffffff1673ffffffffffffffffffffffffffffffffffffffff16815260200190815260200160002060020154600e60003373ffffffffffffffffffffffffffffffffffffffff1673ffffffffffffffffffffffffffffffffffffffff16815260200190815260200160002060030154600e60003373ffffffffffffffffffffffffffffffffffffffff1673ffffffffffffffffffffffffffffffffffffffff16815260200190815260200160002060040154600e60003373ffffffffffffffffffffffffffffffffffffffff1673ffffffffffffffffffffffffffffffffffffffff16815260200190815260200160002060050154600e60003373ffffffffffffffffffffffffffffffffffffffff1673ffffffffffffffffffffffffffffffffffffffff16815260200190815260200160002060060154600e60003373ffffffffffffffffffffffffffffffffffffffff1673ffffffffffffffffffffffffffffffffffffffff16815260200190815260200160002060070154975097509750975097509750975097509091929394959697565b6000600c54905090565b611e1881612e3c565b34141515611e8e576040517f08c379a000000000000000000000000000000000000000000000000000000000815260040180806020018281038252601e8152602001807f6d73672e76616c756520213d20746f7055705f63686970202a2031653136000081525060200191505060405180910390fd5b611e9781612e3c565b34141515611ea457600080fd5b34600b6000828254019250508190555034600e60003373ffffffffffffffffffffffffffffffffffffffff1673ffffffffffffffffffffffffffffffffffffffff16815260200190815260200160002060010160008282540192505081905550611f0c612e4a565b50565b60006064600a548302811515611f2157fe5b049050919050565b600060608060606000606080611f3d6147d5565b6000606060008c118015611f52575060208c11155b1515611f5d57600080fd5b600a8d029c5060016040519080825280601f01601f191660200182016040528015611f975781602001602082028038833980820191505090505b5098508b7f010000000000000000000000000000000000000000000000000000000000000002896000815181101515611fcc57fe5b9060200101907effffffffffffffffffffffffffffffffffffffffffffffffffffffffffffff1916908160001a90535060206040519080825280601f01601f1916602001820160405280156120305781602001602082028038833980820191505090505b50975060206040519080825280601f01601f1916602001820160405280156120675781602001602082028038833980820191505090505b5096506120726130a8565b95506020885242411860014303401860208901526020875285602088015260206040519080825280601f01601f1916602001820160405280156120c45781602001602082028038833980820191505090505b5094508c602086015260086040519080825280601f01601f1916602001820160405280156121015781602001602082028038833980820191505090505b509350612114856018600887600061340a565b506080604051908101604052808981526020018a81526020018881526020018681525092506121796040805190810160405280600681526020017f72616e646f6d0000000000000000000000000000000000000000000000000000815250848d61346a565b915060086040519080825280601f01601f1916602001820160405280156121af5781602001602082028038833980820191505090505b50905060208401517f0100000000000000000000000000000000000000000000000000000000000000810460278301537e01000000000000000000000000000000000000000000000000000000000000810460268301537d010000000000000000000000000000000000000000000000000000000000810460258301537c0100000000000000000000000000000000000000000000000000000000810460248301537b01000000000000000000000000000000000000000000000000000000810460238301537a01000000000000000000000000000000000000000000000000000081046022830153790100000000000000000000000000000000000000000000000000810460218301537801000000000000000000000000000000000000000000000000810460208301535061254882828560016004811015156122f057fe5b6020020151600287600060048110151561230657fe5b60200201516040518082805190602001908083835b602083101515612340578051825260208201915060208101905060208303925061231b565b6001836020036101000a0380198251168184511680821785525050505050509050019150506020604051808303816000865af1158015612384573d6000803e3d6000fd5b5050506040513d602081101561239957600080fd5b81019080805190602001909291905050508760026004811015156123b957fe5b60200201516040516020018085805190602001908083835b6020831015156123f657805182526020820191506020810190506020830392506123d1565b6001836020036101000a03801982511681845116808217855250505050505090500184805190602001908083835b6020831015156124495780518252602082019150602081019050602083039250612424565b6001836020036101000a038019825116818451168082178552505050505050905001836000191660001916815260200182805190602001908083835b6020831015156124aa5780518252602082019150602081019050602083039250612485565b6001836020036101000a0380198251168184511680821785525050505050509050019450505050506040516020818303038152906040526040518082805190602001908083835b60208310151561251657805182526020820191506020810190506020830392506124f1565b6001836020036101000a0380198251168184511680821785525050505050509050019150506040518091039020613816565b8199505050505050505050509392505050565b6000600e60003373ffffffffffffffffffffffffffffffffffffffff1673ffffffffffffffffffffffffffffffffffffffff16815260200190815260200160002060040154600e60003373ffffffffffffffffffffffffffffffffffffffff1673ffffffffffffffffffffffffffffffffffffffff16815260200190815260200160002060030154600e60003373ffffffffffffffffffffffffffffffffffffffff1673ffffffffffffffffffffffffffffffffffffffff16815260200190815260200160002060020154600e60003373ffffffffffffffffffffffffffffffffffffffff1673ffffffffffffffffffffffffffffffffffffffff16815260200190815260200160002060010154030301600e60003373ffffffffffffffffffffffffffffffffffffffff1673ffffffffffffffffffffffffffffffffffffffff1681526020019081526020016000206000015414156126be57600190506126c3565b600090505b90565b606060008090505b8251811015612720576126f783828151811015156126e857fe5b90602001906020020151612e3c565b838281518110151561270557fe5b906020019060200201818152505080806001019150506126ce565b82915050919050565b6000806000835185511415156127a7576040517f08c379a000000000000000000000000000000000000000000000000000000000815260040180806020018281038252600f8152602001807f204552524f52206265742061726179000000000000000000000000000000000081525060200191505060405180910390fd5b60009150600090505b84518110156128735760095484828151811015156127ca57fe5b906020019060200201511015151561284a576040517f08c379a000000000000000000000000000000000000000000000000000000000815260040180806020018281038252601f8152602001807f42657420616d6f756e74206c657373207468616e206d696e20616d6f756e740081525060200191505060405180910390fd5b838181518110151561285857fe5b906020019060200201518201915080806001019150506127b0565b61287b6110f9565b8211151515612918576040517f08c379a00000000000000000000000000000000000000000000000000000000081526004018080602001828103825260228152602001807f544f4f20424947204245542c20504c454153452041444a555354204f5552204281526020017f455400000000000000000000000000000000000000000000000000000000000081525060400191505060405180910390fd5b60019250505092915050565b60008090505b81518110156129a757818181518110151561294157fe5b90602001906020020151600e60003373ffffffffffffffffffffffffffffffffffffffff1673ffffffffffffffffffffffffffffffffffffffff16815260200190815260200160002060030160008282540192505081905550808060010191505061292a565b6129af612e4a565b5050565b60008090505b8251811015612ad557600d60003373ffffffffffffffffffffffffffffffffffffffff1673ffffffffffffffffffffffffffffffffffffffff1681526020019081526020016000206000018382815181101515612a1257fe5b906020019060200201519080600181540180825580915050906001820390600052602060002001600090919290919091505550600d60003373ffffffffffffffffffffffffffffffffffffffff1673ffffffffffffffffffffffffffffffffffffffff1681526020019081526020016000206001018282815181101515612a9557fe5b90602001906020020151908060018154018082558091505090600182039060005260206000200160009091929091909150555080806001019150506129b9565b505050565b600080600160009054906101000a900473ffffffffffffffffffffffffffffffffffffffff1673ffffffffffffffffffffffffffffffffffffffff161480612b4c57506000612b4a600160009054906101000a900473ffffffffffffffffffffffffffffffffffffffff1661383e565b145b15612b5d57612b5b6000613849565b505b600160009054906101000a900473ffffffffffffffffffffffffffffffffffffffff1673ffffffffffffffffffffffffffffffffffffffff166338cc48316040518163ffffffff167c0100000000000000000000000000000000000000000000000000000000028152600401602060405180830381600087803b158015612be357600080fd5b505af1158015612bf7573d6000803e3d6000fd5b505050506040513d6020811015612c0d57600080fd5b810190808051906020019092919050505073ffffffffffffffffffffffffffffffffffffffff16600260009054906101000a900473ffffffffffffffffffffffffffffffffffffffff1673ffffffffffffffffffffffffffffffffffffffff16141515612d7657600160009054906101000a900473ffffffffffffffffffffffffffffffffffffffff1673ffffffffffffffffffffffffffffffffffffffff166338cc48316040518163ffffffff167c0100000000000000000000000000000000000000000000000000000000028152600401602060405180830381600087803b158015612cfa57600080fd5b505af1158015612d0e573d6000803e3d6000fd5b505050506040513d6020811015612d2457600080fd5b8101908080519060200190929190505050600260006101000a81548173ffffffffffffffffffffffffffffffffffffffff021916908373ffffffffffffffffffffffffffffffffffffffff1602179055505b600260009054906101000a900473ffffffffffffffffffffffffffffffffffffffff1673ffffffffffffffffffffffffffffffffffffffff1663c281d19e6040518163ffffffff167c0100000000000000000000000000000000000000000000000000000000028152600401602060405180830381600087803b158015612dfc57600080fd5b505af1158015612e10573d6000803e3d6000fd5b505050506040513d6020811015612e2657600080fd5b8101908080519060200190929190505050905090565b600060085482029050919050565b600e60003373ffffffffffffffffffffffffffffffffffffffff1673ffffffffffffffffffffffffffffffffffffffff16815260200190815260200160002060000154600c60008282540392505081905550600e60003373ffffffffffffffffffffffffffffffffffffffff1673ffffffffffffffffffffffffffffffffffffffff16815260200190815260200160002060040154600e60003373ffffffffffffffffffffffffffffffffffffffff1673ffffffffffffffffffffffffffffffffffffffff16815260200190815260200160002060030154600e60003373ffffffffffffffffffffffffffffffffffffffff1673ffffffffffffffffffffffffffffffffffffffff16815260200190815260200160002060020154600e60003373ffffffffffffffffffffffffffffffffffffffff1673ffffffffffffffffffffffffffffffffffffffff16815260200190815260200160002060010154030301600e60003373ffffffffffffffffffffffffffffffffffffffff1673ffffffffffffffffffffffffffffffffffffffff16815260200190815260200160002060000181905550600e60003373ffffffffffffffffffffffffffffffffffffffff1673ffffffffffffffffffffffffffffffffffffffff16815260200190815260200160002060000154600c60008282540192505081905550565b606060008090505b825181101561309f57613076838281518110151561306757fe5b9060200190602002015161385a565b838281518110151561308457fe5b9060200190602002018181525050808060010191505061304d565b82915050919050565b600080600160009054906101000a900473ffffffffffffffffffffffffffffffffffffffff1673ffffffffffffffffffffffffffffffffffffffff16148061311a57506000613118600160009054906101000a900473ffffffffffffffffffffffffffffffffffffffff1661383e565b145b1561312b576131296000613849565b505b600160009054906101000a900473ffffffffffffffffffffffffffffffffffffffff1673ffffffffffffffffffffffffffffffffffffffff166338cc48316040518163ffffffff167c0100000000000000000000000000000000000000000000000000000000028152600401602060405180830381600087803b1580156131b157600080fd5b505af11580156131c5573d6000803e3d6000fd5b505050506040513d60208110156131db57600080fd5b810190808051906020019092919050505073ffffffffffffffffffffffffffffffffffffffff16600260009054906101000a900473ffffffffffffffffffffffffffffffffffffffff1673ffffffffffffffffffffffffffffffffffffffff1614151561334457600160009054906101000a900473ffffffffffffffffffffffffffffffffffffffff1673ffffffffffffffffffffffffffffffffffffffff166338cc48316040518163ffffffff167c0100000000000000000000000000000000000000000000000000000000028152600401602060405180830381600087803b1580156132c857600080fd5b505af11580156132dc573d6000803e3d6000fd5b505050506040513d60208110156132f257600080fd5b8101908080519060200190929190505050600260006101000a81548173ffffffffffffffffffffffffffffffffffffffff021916908373ffffffffffffffffffffffffffffffffffffffff1602179055505b600260009054906101000a900473ffffffffffffffffffffffffffffffffffffffff1673ffffffffffffffffffffffffffffffffffffffff1663abaa5f3e6040518163ffffffff167c0100000000000000000000000000000000000000000000000000000000028152600401602060405180830381600087803b1580156133ca57600080fd5b505af11580156133de573d6000803e3d6000fd5b505050506040513d60208110156133f457600080fd5b8101908080519060200190929190505050905090565b6060600080600084870192508286511015151561342657600080fd5b8760200191508460200190505b86886020010182101561345b5781890151808288015250602082019150602081019050613433565b85935050505095945050505050565b600060606000600160009054906101000a900473ffffffffffffffffffffffffffffffffffffffff1673ffffffffffffffffffffffffffffffffffffffff1614806134df575060006134dd600160009054906101000a900473ffffffffffffffffffffffffffffffffffffffff1661383e565b145b156134f0576134ee6000613849565b505b600160009054906101000a900473ffffffffffffffffffffffffffffffffffffffff1673ffffffffffffffffffffffffffffffffffffffff166338cc48316040518163ffffffff167c0100000000000000000000000000000000000000000000000000000000028152600401602060405180830381600087803b15801561357657600080fd5b505af115801561358a573d6000803e3d6000fd5b505050506040513d60208110156135a057600080fd5b810190808051906020019092919050505073ffffffffffffffffffffffffffffffffffffffff16600260009054906101000a900473ffffffffffffffffffffffffffffffffffffffff1673ffffffffffffffffffffffffffffffffffffffff1614151561370957600160009054906101000a900473ffffffffffffffffffffffffffffffffffffffff1673ffffffffffffffffffffffffffffffffffffffff166338cc48316040518163ffffffff167c0100000000000000000000000000000000000000000000000000000000028152600401602060405180830381600087803b15801561368d57600080fd5b505af11580156136a1573d6000803e3d6000fd5b505050506040513d60208110156136b757600080fd5b8101908080519060200190929190505050600260006101000a81548173ffffffffffffffffffffffffffffffffffffffff021916908373ffffffffffffffffffffffffffffffffffffffff1602179055505b600460405190808252806020026020018201604052801561373e57816020015b60608152602001906001900390816137295790505b50905083600060048110151561375057fe5b602002015181600081518110151561376457fe5b9060200190602002018190525083600160048110151561378057fe5b602002015181600181518110151561379457fe5b906020019060200201819052508360026004811015156137b057fe5b60200201518160028151811015156137c457fe5b906020019060200201819052508360036004811015156137e057fe5b60200201518160038151811015156137f457fe5b9060200190602002018190525061380c858285613871565b9150509392505050565b8060046000846000191660001916815260200190815260200160002081600019169055505050565b6000813b9050919050565b6000613853613e33565b9050919050565b60006008548281151561386957fe5b049050919050565b60008060606000600160009054906101000a900473ffffffffffffffffffffffffffffffffffffffff1673ffffffffffffffffffffffffffffffffffffffff1614806138e7575060006138e5600160009054906101000a900473ffffffffffffffffffffffffffffffffffffffff1661383e565b145b156138f8576138f66000613849565b505b600160009054906101000a900473ffffffffffffffffffffffffffffffffffffffff1673ffffffffffffffffffffffffffffffffffffffff166338cc48316040518163ffffffff167c0100000000000000000000000000000000000000000000000000000000028152600401602060405180830381600087803b15801561397e57600080fd5b505af1158015613992573d6000803e3d6000fd5b505050506040513d60208110156139a857600080fd5b810190808051906020019092919050505073ffffffffffffffffffffffffffffffffffffffff16600260009054906101000a900473ffffffffffffffffffffffffffffffffffffffff1673ffffffffffffffffffffffffffffffffffffffff16141515613b1157600160009054906101000a900473ffffffffffffffffffffffffffffffffffffffff1673ffffffffffffffffffffffffffffffffffffffff166338cc48316040518163ffffffff167c0100000000000000000000000000000000000000000000000000000000028152600401602060405180830381600087803b158015613a9557600080fd5b505af1158015613aa9573d6000803e3d6000fd5b505050506040513d6020811015613abf57600080fd5b8101908080519060200190929190505050600260006101000a81548173ffffffffffffffffffffffffffffffffffffffff021916908373ffffffffffffffffffffffffffffffffffffffff1602179055505b600260009054906101000a900473ffffffffffffffffffffffffffffffffffffffff1673ffffffffffffffffffffffffffffffffffffffff16632ef3accc87866040518363ffffffff167c01000000000000000000000000000000000000000000000000000000000281526004018080602001838152602001828103825284818151815260200191508051906020019080838360005b83811015613bc2578082015181840152602081019050613ba7565b50505050905090810190601f168015613bef5780820380516001836020036101000a031916815260200191505b509350505050602060405180830381600087803b158015613c0f57600080fd5b505af1158015613c23573d6000803e3d6000fd5b505050506040513d6020811015613c3957600080fd5b81019080805190602001909291905050509150833a02670de0b6b3a764000001821115613c6c5760006001029250613e2a565b613c758561438a565b9050600260009054906101000a900473ffffffffffffffffffffffffffffffffffffffff1673ffffffffffffffffffffffffffffffffffffffff1663c55c1cb68360008985896040518663ffffffff167c0100000000000000000000000000000000000000000000000000000000028152600401808581526020018060200180602001848152602001838103835286818151815260200191508051906020019080838360005b83811015613d36578082015181840152602081019050613d1b565b50505050905090810190601f168015613d635780820380516001836020036101000a031916815260200191505b50838103825285818151815260200191508051906020019080838360005b83811015613d9c578082015181840152602081019050613d81565b50505050905090810190601f168015613dc95780820380516001836020036101000a031916815260200191505b5096505050505050506020604051808303818588803b158015613deb57600080fd5b505af1158015613dff573d6000803e3d6000fd5b50505050506040513d6020811015613e1657600080fd5b810190808051906020019092919050505092505b50509392505050565b600080613e53731d3b2638a7cc9f2cb3d298a3da7a90b67e5506ed61383e565b1115613ef557731d3b2638a7cc9f2cb3d298a3da7a90b67e5506ed600160006101000a81548173ffffffffffffffffffffffffffffffffffffffff021916908373ffffffffffffffffffffffffffffffffffffffff160217905550613eec6040805190810160405280600b81526020017f6574685f6d61696e6e657400000000000000000000000000000000000000000081525061440f565b60019050614387565b6000613f1473c03a2615d5efaf5f49f60b7bb6583eaec212fdf161383e565b1115613fb65773c03a2615d5efaf5f49f60b7bb6583eaec212fdf1600160006101000a81548173ffffffffffffffffffffffffffffffffffffffff021916908373ffffffffffffffffffffffffffffffffffffffff160217905550613fad6040805190810160405280600c81526020017f6574685f726f707374656e33000000000000000000000000000000000000000081525061440f565b60019050614387565b6000613fd573b7a07bcf2ba2f2703b24c0691b5278999c59ac7e61383e565b11156140775773b7a07bcf2ba2f2703b24c0691b5278999c59ac7e600160006101000a81548173ffffffffffffffffffffffffffffffffffffffff021916908373ffffffffffffffffffffffffffffffffffffffff16021790555061406e6040805190810160405280600981526020017f6574685f6b6f76616e000000000000000000000000000000000000000000000081525061440f565b60019050614387565b600061409673146500cfd35b22e4a392fe0adc06de1a1368ed4861383e565b11156141385773146500cfd35b22e4a392fe0adc06de1a1368ed48600160006101000a81548173ffffffffffffffffffffffffffffffffffffffff021916908373ffffffffffffffffffffffffffffffffffffffff16021790555061412f6040805190810160405280600b81526020017f6574685f72696e6b65627900000000000000000000000000000000000000000081525061440f565b60019050614387565b600061415773a2998efd205fb9d4b4963afb70778d6354ad3a4161383e565b11156141f95773a2998efd205fb9d4b4963afb70778d6354ad3a41600160006101000a81548173ffffffffffffffffffffffffffffffffffffffff021916908373ffffffffffffffffffffffffffffffffffffffff1602179055506141f06040805190810160405280600a81526020017f6574685f676f65726c690000000000000000000000000000000000000000000081525061440f565b60019050614387565b6000614218736f485c8bf6fc43ea212e93bbf8ce046c7f1cb47561383e565b111561427c57736f485c8bf6fc43ea212e93bbf8ce046c7f1cb475600160006101000a81548173ffffffffffffffffffffffffffffffffffffffff021916908373ffffffffffffffffffffffffffffffffffffffff16021790555060019050614387565b600061429b7320e12a1f859b3feae5fb2a0a32c18f5a65555bbf61383e565b11156142ff577320e12a1f859b3feae5fb2a0a32c18f5a65555bbf600160006101000a81548173ffffffffffffffffffffffffffffffffffffffff021916908373ffffffffffffffffffffffffffffffffffffffff16021790555060019050614387565b600061431e7351efaf4c8b3c9afbd5ab9f4bbc82784ab6ef8faa61383e565b1115614382577351efaf4c8b3c9afbd5ab9f4bbc82784ab6ef8faa600160006101000a81548173ffffffffffffffffffffffffffffffffffffffff021916908373ffffffffffffffffffffffffffffffffffffffff16021790555060019050614387565b600090505b90565b60606143946147fd565b600061439e614429565b6143aa82610400614435565b6143b382614485565b600090505b83518110156143f8576143eb84828151811015156143d257fe5b906020019060200201518361449390919063ffffffff16565b80806001019150506143b8565b614401826144b8565b816000015192505050919050565b8060039080519060200190614425929190614817565b5050565b60405180590338823950565b6000819050600060208281151561444857fe5b061415156144655760208181151561445c57fe5b06602003810190505b808360200181815250506040518084526000815281810160405250505050565b6144908160046144c6565b50565b6144a082600283516144ea565b6144b3818361464390919063ffffffff16565b505050565b6144c38160076144c6565b50565b6144e6601f60058360ff169060020a0217836146ef90919063ffffffff16565b5050565b60178111151561451b576145168160058460ff169060020a0260ff1617846146ef90919063ffffffff16565b61463e565b60ff8111151561456157614545601860058460ff169060020a0217846146ef90919063ffffffff16565b61455b8160018561472f9092919063ffffffff16565b5061463d565b61ffff811115156145a85761458c601960058460ff169060020a0217846146ef90919063ffffffff16565b6145a28160028561472f9092919063ffffffff16565b5061463c565b63ffffffff811115156145f1576145d5601a60058460ff169060020a0217846146ef90919063ffffffff16565b6145eb8160048561472f9092919063ffffffff16565b5061463b565b67ffffffffffffffff8111151561463a57614622601b60058460ff169060020a0217846146ef90919063ffffffff16565b6146388160088561472f9092919063ffffffff16565b505b5b5b5b5b505050565b61464b6147fd565b600080600080866020015187600001515187510111156146815761468087600261467a8a602001518a51614796565b026147b2565b5b8551915086518051602081830101955087518101825260208801945050505b6020821015156146c557825184526020840193506020830192506020820391506146a0565b6001826020036101000a039050801983511681855116818117865250508694505050505092915050565b81602001516001836000015151011115614715576147148260028460200151026147b2565b5b815180516020818301018381536001820183525050505050565b6147376147fd565b600084602001518560000151518401111561476757614766856002614760886020015187614796565b026147b2565b5b6001836101000a0390508451805184818301018684198251161781528582018352505050849150509392505050565b6000818311156147a8578290506147ac565b8190505b92915050565b6060826000015190506147c58383614435565b6147cf8382614643565b50505050565b6080604051908101604052806004905b60608152602001906001900390816147e55790505090565b604080519081016040528060608152602001600081525090565b828054600181600116156101000203166002900490600052602060002090601f016020900481019282601f1061485857805160ff1916838001178555614886565b82800160010185558215614886579182015b8281111561488557825182559160200191906001019061486a565b5b5090506148939190614897565b5090565b6148b991905b808211156148b557600081600090555060010161489d565b5090565b905600a165627a7a7230582000a4de9fd91e47e092e9e94fb4a4a483bcfc5172d9d5d6d1b04b854e95d27c490029",
  "source": "//SPDX-License-Identifier: UNLICENSED\r\n\r\nimport \"./Ownable.sol\";\r\nimport \"./provableAPI_0.4.25.sol\";\r\npragma solidity 0.4.26;\r\n\r\ncontract CoinFlip100 is Ownable, usingProvable{\r\n\r\n    uint public BET_RANGE_MIN = 0;\r\n    uint public BET_RANGE_MAX = 99;\r\n\r\n    uint CHIP_TO_WEI = 10**15; //1 chips = 1 eth - Can be parametric\r\n    uint public BET_MIN_AMOUNT_WEI = CHIP_TO_WEI ; //All Amount are in ETH\r\n    uint BET_WIN_RATE = 190; //Win rate = 1,9 with 2 decimals\r\n\r\n    uint public _contractBalance_;\r\n    uint public _totalAllPlayerBalance_;\r\n\r\n    // status of active bets; Each player can have multiple bets before each flip\r\n    //Update each time player submited new bet\r\n\r\n    struct Bets  {\r\n        uint[] betNumbers;\r\n        uint[] betAmount;  //wei amount bet for each number\r\n        bool waitingResult;\r\n        bytes32 waitingId; //uint == 0 when not waiting for Flipped result\r\n    }\r\n\r\n    //list of all activities of a player (update after finished solving each bet)\r\n    struct betHistory {\r\n        uint totalBalance;\r\n        uint totalTopUp;\r\n        uint totalWithdrawn;\r\n        uint totalSpentAmount;\r\n        uint totalWinAmount;\r\n        uint totalGames;\r\n        uint totalWins;\r\n        uint lastWinAmount;\r\n    }\r\n\r\n    //betList is a list of all active bets\r\n    // Should limit storage size somehow to avoid everflow in future?\r\n    mapping (address => Bets) public activeBet;\r\n\r\n    //playerList store information\r\n    // Should limit storage size somehow to avoid everflow in future?\r\n    mapping (address => betHistory) public playerHistory;\r\n\r\n    //newBetCreated emit when created and not finished\r\n    event newBetCreated(uint[] betNumbers, uint[] betAmounts_chip, address playerAddress);\r\n\r\n    //betFinished emit when\r\n    event betFinished(address playerAddress, uint winAmount, uint result);\r\n\r\n    //common notice\r\n    event notice(string noticeString, uint noticeValue);\r\n\r\n    //Pseudo Random\r\n    function random() public pure returns(uint) {\r\n        return 0;\r\n        //return now % (BET_RANGE_MAX+1);\r\n    }\r\n\r\n    //Oracle >>>>>>>>>>>>>>>>>>>>\r\n    uint256 constant NUM_RANDOM_BYTES_REQUESTED = 1;\r\n    uint256 public latestNumber;\r\n\r\n    event generatedRandomNumber(uint256 randomNumber , bytes32 Id, bytes proof);\r\n    event LogNewProvableQuery(string notice);\r\n    event proofFailed(string description);\r\n\r\n    //constructor() public payable{\r\n    //    provable_setProof(proofType_Ledger);\r\n    //    _contractBalance_ += msg.value ;\r\n    //}\r\n\r\n\r\n    function __callback(bytes32 _queryId, string memory _result, bytes memory _proof) public {\r\n        require(msg.sender == provable_cbAddress());\r\n        //if (\r\n        //    provable_randomDS_proofVerify__returnCode(\r\n        //        _queryId,\r\n        //        _result,\r\n        //        _proof\r\n        //    ) != 0\r\n        //) {\r\n        //    emit proofFailed(\"The proof verification failed in the callback\");\r\n        //} else {\r\n            uint256 randomNumber = uint256(keccak256(abi.encodePacked(_result)))%100;\r\n            latestNumber = randomNumber;\r\n            emit generatedRandomNumber(randomNumber, _queryId, _proof);\r\n        //}\r\n    }\r\n\r\n    function getRandom100()\r\n        payable\r\n        public\r\n    {\r\n        require(activeBet[msg.sender].waitingResult == false, \"Player is waiting for bet result from Oracle..\");\r\n\r\n        uint256 QUERY_EXECUTION_DELAY = 0;\r\n        uint256 GAS_FOR_CALLBACK = 200000;\r\n\r\n        activeBet[msg.sender].waitingId = provable_newRandomDSQuery(\r\n            QUERY_EXECUTION_DELAY,\r\n            NUM_RANDOM_BYTES_REQUESTED,\r\n            GAS_FOR_CALLBACK\r\n        );\r\n\r\n        if (activeBet[msg.sender].waitingId != 0) {\r\n            activeBet[msg.sender].waitingResult = true;\r\n            emit LogNewProvableQuery(\"Provable query was sent, waiting for the answer..\");\r\n        }\r\n    }\r\n\r\n    //Oracle <<<<<<<<<<<<<<<<<<<<<\r\n\r\n\r\n    //Check Account Balance validity\r\n    function validPlayerBalance() private view returns(bool) {\r\n        if (playerHistory[msg.sender].totalBalance ==\r\n            playerHistory[msg.sender].totalTopUp - playerHistory[msg.sender].totalWithdrawn -\r\n            playerHistory[msg.sender].totalSpentAmount + playerHistory[msg.sender].totalWinAmount) {\r\n                return true;\r\n            } else {\r\n                return false;\r\n            }\r\n    }\r\n\r\n    function wei2Chip(uint _wei) private view returns(uint) {\r\n        return _wei / CHIP_TO_WEI;\r\n    }\r\n\r\n    function chip2Wei(uint chip) private view returns(uint) {\r\n        return chip * CHIP_TO_WEI;\r\n    }\r\n\r\n    function chip2Wei_ar(uint[] memory chip_ar) private view returns(uint[] memory) {\r\n        for (uint x=0; x<chip_ar.length; x++) {\r\n            chip_ar[x] = chip2Wei(chip_ar[x]);\r\n        }\r\n        return chip_ar;\r\n    }\r\n\r\n    function wei2Chip_ar(uint[] memory wei_ar) private view returns(uint[] memory) {\r\n        for (uint x=0; x<wei_ar.length; x++) {\r\n           wei_ar[x] = wei2Chip(wei_ar[x]);\r\n        }\r\n        return wei_ar;\r\n    }\r\n\r\n\r\n    //Owner balance topUp\r\n    function ownerFundUp_chip(uint topUp_chip) public onlyOwner payable {\r\n\r\n        require(msg.value == chip2Wei(topUp_chip), \"msg.value != topUp_chip * 1e16\");\r\n        if (msg.value != chip2Wei(topUp_chip)) revert();\r\n        _contractBalance_ += msg.value ;\r\n    }\r\n\r\n\r\n    //Player account balance topUp\r\n    function playerTopUp_chip(uint topUp_chip) public payable {\r\n        //1eth = 1000000000000000000 wei\r\n        require(msg.value == chip2Wei(topUp_chip), \"msg.value != topUp_chip * 1e16\");\r\n        if (msg.value != chip2Wei(topUp_chip)) revert();\r\n\r\n        _contractBalance_ += msg.value ;\r\n        playerHistory[msg.sender].totalTopUp += msg.value;\r\n        updateMyBalance();\r\n    }\r\n\r\n    // Calculate values each time player status changed\r\n    // All values of playerHistory in wei\r\n    function updateMyBalance() private {\r\n        _totalAllPlayerBalance_ -= playerHistory[msg.sender].totalBalance;\r\n        playerHistory[msg.sender].totalBalance =\r\n        playerHistory[msg.sender].totalTopUp -\r\n        playerHistory[msg.sender].totalWithdrawn -\r\n        playerHistory[msg.sender].totalSpentAmount +\r\n        playerHistory[msg.sender].totalWinAmount;\r\n        _totalAllPlayerBalance_ += playerHistory[msg.sender].totalBalance;\r\n        }\r\n\r\n    function mySpentBalance(uint[] memory spentAmounts_wei) private {\r\n        for (uint x=0; x<spentAmounts_wei.length; x++) {\r\n            playerHistory[msg.sender].totalSpentAmount += spentAmounts_wei[x];\r\n        }\r\n        updateMyBalance();\r\n    }\r\n\r\n    function myWinBalance(address playerAddress, uint winAmount_wei) private  {\r\n\r\n        playerHistory[playerAddress].totalGames++;\r\n        if (winAmount_wei>0) {\r\n            _contractBalance_ -= winAmount_wei;\r\n            playerHistory[playerAddress].totalWinAmount += winAmount_wei;\r\n            playerHistory[playerAddress].totalWins += 1;\r\n        }\r\n        playerHistory[playerAddress].lastWinAmount = winAmount_wei;\r\n        updateMyBalance();\r\n    }\r\n\r\n    function getPlayerHistory() public view  returns(uint,uint,uint,uint,uint,uint,uint,uint) {\r\n        require(validPlayerBalance(), \"Not valid Player Balance\");\r\n        return  (   playerHistory[msg.sender].totalBalance,\r\n                    playerHistory[msg.sender].totalTopUp,\r\n                    playerHistory[msg.sender].totalWithdrawn,\r\n                    playerHistory[msg.sender].totalSpentAmount,\r\n                    playerHistory[msg.sender].totalWinAmount,\r\n                    playerHistory[msg.sender].totalGames,\r\n                    playerHistory[msg.sender].totalWins,\r\n                    playerHistory[msg.sender].lastWinAmount );\r\n    }\r\n\r\n    function getContractBalance() public view returns (uint) {\r\n      return _contractBalance_;\r\n    }\r\n\r\n\r\n    function get_totalAllPlayerBalance_() public view returns (uint) {\r\n      return _totalAllPlayerBalance_;\r\n    }\r\n\r\n    function contractPlayableFund() public view returns(uint) {\r\n      if (_contractBalance_ == 0) {\r\n        return 0;\r\n      }\r\n      else {\r\n        return _contractBalance_ - _totalAllPlayerBalance_;\r\n      }\r\n    }\r\n\r\n    function playerPlayableFund() public view returns(uint) {\r\n        uint contractPlayable = contractPlayableFund();\r\n        if (playerHistory[msg.sender].totalBalance < contractPlayable) {\r\n            return playerHistory[msg.sender].totalBalance;\r\n        }\r\n        else {\r\n            return contractPlayable;\r\n        }\r\n    }\r\n\r\n    function verifyBet(uint[] memory betNumbers, uint[] memory betAmount_wei) private view returns(bool) {\r\n        require (betNumbers.length == betAmount_wei.length,\" ERROR bet aray\") ;\r\n        uint sumBetAmount = 0;\r\n\r\n        for (uint x = 0; x<betNumbers.length; x++) {\r\n\r\n            require(betAmount_wei[x] >=  BET_MIN_AMOUNT_WEI, \"Bet amount less than min amount\");\r\n            sumBetAmount += betAmount_wei[x];\r\n        }\r\n        require(sumBetAmount <= playerPlayableFund(), \"TOO BIG BET, PLEASE ADJUST OUR BET\");\r\n        return true;\r\n    }\r\n\r\n    function updateActiveBet(uint[] memory newBetNumbers, uint[] memory newBetAmount_wei) private {\r\n        //append new bets with current Betlist\r\n        for (uint x=0; x<newBetNumbers.length; x++) {\r\n            activeBet[msg.sender].betNumbers.push(newBetNumbers[x]);\r\n            activeBet[msg.sender].betAmount.push(newBetAmount_wei[x]);\r\n        }\r\n    }\r\n\r\n\r\n    function createMyBet(uint[] memory betNumbers, uint[] memory betAmount_chip) public returns (bool){\r\n\r\n        //money amount received from frontEnd is in Chips;\r\n        //Should conver all chips to Wei\r\n\r\n        require(activeBet[msg.sender].waitingId == 0, \".. Please Wait for result of last bet..\");\r\n\r\n        require(validPlayerBalance(), \"Not valid Player Balance\");\r\n\r\n        uint[] memory betAmount = chip2Wei_ar(betAmount_chip);\r\n\r\n        require(verifyBet(betNumbers,betAmount), \"NOT VALID BET\");\r\n\r\n        mySpentBalance(betAmount); //Deduct spent amount from player balance\r\n\r\n        updateActiveBet(betNumbers, betAmount); //Update Active Betlist for a player\r\n\r\n        emit newBetCreated(betNumbers,betAmount, msg.sender);\r\n\r\n        return (true);\r\n    }\r\n\r\n\r\n    function getMyBet() public view returns(uint[] memory, uint[] memory,bool, bytes32)  {\r\n        //Data sent to front page from contract is in Chips\r\n        return (    activeBet[msg.sender].betNumbers,\r\n                    wei2Chip_ar(activeBet[msg.sender].betAmount), //wei\r\n                    activeBet[msg.sender].waitingResult,\r\n                    activeBet[msg.sender].waitingId);\r\n    }\r\n\r\n\r\n    function resetPlayerBetList(address playerAddress) private {\r\n        Bets memory nullBet;\r\n        activeBet[playerAddress] = nullBet;\r\n        activeBet[playerAddress].waitingResult = false;\r\n    }\r\n\r\n\r\n    function getWinAmountWei(uint winWei) public view returns(uint) {\r\n        return (winWei*BET_WIN_RATE)/100;\r\n    }\r\n\r\n    function playerTossCoin() public  {\r\n\r\n        require(validPlayerBalance(), \"playerTossCoin: Not valid Player Balance\");\r\n        require(activeBet[msg.sender].betNumbers.length > 0,\"playerTossCoin: No bet placed, plase place the bet!\");\r\n        getRandom100();\r\n    }\r\n\r\n    function payOut(address playerAddress, uint result) private returns(address, uint, uint) {\r\n\r\n        //require(result >= BET_RANGE_MIN && result <= BET_RANGE_MAX, \"playerTossCoin: Random out of range\");\r\n        uint winAmount_wei = 0;\r\n\r\n        for (uint x=0; x<activeBet[playerAddress].betNumbers.length; x++) {\r\n            if (activeBet[playerAddress].betNumbers[x] == result) {\r\n                winAmount_wei += getWinAmountWei(activeBet[playerAddress].betAmount[x]);\r\n            }\r\n        }\r\n\r\n        resetPlayerBetList(playerAddress);\r\n        myWinBalance(playerAddress,winAmount_wei);\r\n\r\n        emit betFinished(playerAddress, winAmount_wei, result);\r\n        return (playerAddress,winAmount_wei, result);\r\n    }\r\n\r\n    function ownerWithdrawAll() public onlyOwner returns(uint) {\r\n       uint toTransfer = getContractBalance();\r\n\r\n       //Should cancel all bets before withdrawn\r\n       //Should return all players ballances before withdrawn\r\n       _totalAllPlayerBalance_ = 0;\r\n       _contractBalance_ = 0;\r\n       msg.sender.transfer(toTransfer);\r\n       return toTransfer;\r\n    }\r\n\r\n    function playerWithdrawAll() public  returns(uint) {\r\n\r\n        updateMyBalance();\r\n\r\n        require(playerHistory[msg.sender].totalBalance > 0, \"Player is out of money\");\r\n\r\n        require(validPlayerBalance(), \"Invalid balance check\");\r\n\r\n        require(activeBet[msg.sender].waitingId == 0, \"Waiting for bet result..\");\r\n\r\n        require(activeBet[msg.sender].betNumbers.length == 0, \"Bet can not be cancelled, Click Flip Button..\");\r\n\r\n        uint toTransfer = playerHistory[msg.sender].totalBalance;\r\n\r\n        playerHistory[msg.sender].totalWithdrawn += toTransfer;\r\n\r\n        _contractBalance_ -= toTransfer;\r\n\r\n        updateMyBalance();\r\n\r\n        assert(playerHistory[msg.sender].totalBalance == 0);\r\n\r\n        msg.sender.transfer(toTransfer);\r\n\r\n        return toTransfer;\r\n    }\r\n\r\n}\r\n",
  "sourcePath": "D:\\@TUNG 2020\\IVANONTECH\\SOLIDITY 201\\coinFlip4\\contracts\\CoinFlip100.sol",
  "compiler": {
    "name": "solc",
    "version": "0.4.26+commit.4563c3fc.Emscripten.clang"
  },
  "schemaVersion": "2.0.3",
  "updatedAt": "2020-06-30T08:35:24.774Z"
}