{
  "contractName": "Ownable",
  "abi": [
    {
      "inputs": [],
      "stateMutability": "payable",
      "type": "constructor"
    },
    {
      "inputs": [],
      "name": "owner",
      "outputs": [
        {
          "internalType": "address",
          "name": "",
          "type": "address"
        }
      ],
      "stateMutability": "view",
      "type": "function"
    }
  ],
  "bytecode": "0x6080604052336000806101000a81548173ffffffffffffffffffffffffffffffffffffffff021916908373ffffffffffffffffffffffffffffffffffffffff16021790555060d0806100526000396000f3fe6080604052348015600f57600080fd5b506004361060285760003560e01c80638da5cb5b14602d575b600080fd5b60336075565b604051808273ffffffffffffffffffffffffffffffffffffffff1673ffffffffffffffffffffffffffffffffffffffff16815260200191505060405180910390f35b6000809054906101000a900473ffffffffffffffffffffffffffffffffffffffff168156fea264697066735822122082805fabb2870dd8a7437c4cb1eaffbbfbcea1d31e1c3846d7aba132a115ad8664736f6c634300060a0033",
  "immutableReferences": {},
  "source": "//SPDX-License-Identifier: UNLICENSED\r\n\r\npragma solidity 0.6.10;\r\n\r\ncontract Ownable{\r\n  address public owner;\r\n\r\n  modifier onlyOwner(){\r\n      require(msg.sender == owner);\r\n      _; //Continue execution\r\n  }\r\n\r\n  constructor() public payable {\r\n      owner = msg.sender;\r\n  }\r\n}\r\n",
  "sourcePath": "D:\\@TUNG 2020\\IVANONTECH\\SOLIDITY 201\\coinFlip4\\contracts\\Ownable.sol",
  "compiler": {
    "name": "solc",
    "version": "0.6.10+commit.00c0fcaf.Emscripten.clang"
  },
  "schemaVersion": "3.2.0",
  "updatedAt": "2020-06-27T09:23:21.334Z",
  "devdoc": {
    "methods": {}
  },
  "userdoc": {
    "methods": {}
  }
}